:0200000400609A
:040000006F0000018C
:1000100081400141814101428142014381430144C8
:100020008144014581450146814601478147014898
:10003000814801498149014A814A014B814B014C68
:10004000814C014D814D014E814E014F814FF9622E
:1000500073A002308542FE0263C3020001A0970232
:1000600000009382020973905230731030005300E5
:1000700000F0D30000F0530100F0D30100F0530270
:1000800000F0D30200F0530300F0D30300F0530458
:1000900000F0D30400F0530500F0D30500F0530640
:1000A00000F0D30600F0530700F0D30700F0530828
:1000B00000F0D30800F0530900F0D30900F0530A10
:1000C00000F0D30A00F0530B00F0D30B00F0530CF8
:1000D00000F0D30C00F0530D00F0D30D00F0530EE0
:1000E00000F0D30E00F0530F00F0D30F00F0970292
:1000F000000093822204739052309701A1FF9381F4
:10010000617017021A001302D2F3137202FC7325F6
:1001100040F185456370B500131615013292171131
:10012000A0FF130121EE6111EF600026EF50704532
:1001300002906D7106C20AC40EC612C816CA1ACC45
:100140001ECE22D026D22AD42ED632D836DA3ADCA7
:100150003EDEC2C0C6C2CAC4CEC6D2C8D6CADACC77
:10016000DECEE2D0E6D2EAD4EED6F2D8F6DAFADC87
:10017000FEDE73252034F32510340A86EF60A014C8
:100180007310153489629382028073A0023092400A
:100190002241B2414242D2426243F243025492545B
:1001A0002255B2554256D2566257F25706489648E3
:1001B0002649B649464AD64A664BF64B065C965CDB
:1001C000265DB65D465ED65E665FF65F5161730082
:0201D0002030DD
:1001E00073750430828000007365043082807971F9
:1001F00006D62AD42AD2416513050500930540048A
:10020000EF20906A925523A2A51812559385418438
:100210002324B5181255C16593858506232EB5167E
:100220001255C1659385C5102320B5181255C965AF
:100230009385056F2322B522B250456182805D719E
:1002400086C6A2C4A6C2A2E026FE2AD62AD4832548
:10025000C5172ED2832505182ED08544230B950271
:100260002255230405042255A30505042255A30D98
:1002700095022255230E95022255230C9502025514
:100280000720051207A481EC225553708010D31566
:1002900010C02318B5000255072005122255D315AA
:1002A00010C02317B50002550720051222555370C0
:1002B0000000D31510C02319B500A25503A5451899
:1002C00083A50518EF30605C1255B7D5CC3D9385FA
:1002D000D5CC2CC12255232E9520225523209522A2
:1002E0002255A30305042255230305041255BD65B9
:1002F000938505A6231AB50812559965938505DCE3
:10030000231BB508225503250518EF7050642255AC
:1003100003250518EF502061A25503A5452283A5AA
:100320000518EF709025A25503A5452283C56503E6
:10033000EF703047A25503A5452283C52504EF7011
:10034000304BA25503A5452283A5051807A5C1EC8E
:10035000EF705053A25503A5452283A5051887A425
:1003600001ED53859420EF709053A25503A54522CB
:1003700083A5051853859420EF7010540255085931
:1003800019EDA25503A5452283C53504EF7010432E
:10039000A25503A5452283C54504EF70F03E1255D2
:1003A000B7D54C3E1386D5CC30C5125570C5125505
:1003B000B7057A432CC992553705A040E8C9925534
:1003C000B736734193863633B4CD9255B706AF43F3
:1003D000F4CD9255A8D19255B73686359386D67B03
:1003E000F4D19255B7B6BA419386B6F8B4D59256C1
:1003F000B7057041ECD6925637C7AD421307B750D8
:10040000B8DA925637075442F8DA92563707524212
:10041000B8DE9256F0DE1256B70620412320D608E9
:1004200012569306401F2312D60812569306800CCC
:100430002313D60812562314D60812569306803E6C
:100440002315D60812561307007D2316E608125608
:10045000930780252317F60812562318E60812562C
:1004600015472319E6082256231506021256231CA7
:10047000D6081256231DD60812568D46231ED608BE
:1004800012568566938606C0231FD6081256930619
:1004900000402310D60A0256072086012256272440
:1004A000061C02560720860122562726061C0256E5
:1004B0000720C60122562722061C2256A30A06023E
:1004C0002256232006262256B16693863603231E23
:1004D000D60E2256B706A041232AD60A2256232C2E
:1004E000B60AA2553706404023AEC50AA2553706C4
:1004F000C84223A2C50CA25523A4C50CA255378619
:10050000103F1306361C23A4C510A2553796A241EE
:100510001306B61F23A6C510A2553706C03F23A059
:10052000C512A25523A2A5122255B70500402324C7
:10053000B5122255B705803F2326B5122255B7358F
:10054000333F93853533232EB5102255B7D5E53E7D
:100550009385A58F2328B52602550720051222551D
:10056000272205262255B7B5A4399385E55B2328B4
:10057000B50C02550720051287A041ED2255537096
:100580001010D31510C0231AB5002255232C0524B2
:1005900022559385C1B12324B522225582550325C6
:1005A000852283C5F500EF10004B2255938581B25B
:1005B0002326B522225582550325C52283C5E50091
:1005C000EF1000502255938541B32328B5222255C0
:1005D0009385C1B3232AB5222255938541B4232C98
:1005E000B52222559385C1B42324B5242255938581
:1005F00001B72326B5242255938541B92322B5247A
:100600002255938581BB2320B52422559385C1BDF6
:100610002328B5242255032505258145DD282255AB
:100620001305051D07A581ED87A5C1ED530684209F
:10063000EF5020152255938581BE232EB5222255D9
:100640000325C523530500F0E12822550325C523C2
:100650002ADC02DA2AD8232205000255A2550720F7
:10066000C52003A5C52353150020D120225582554E
:100670000325C52307A5C520D1200255A255072073
:1006800045138720051203A5C52353751018752837
:10069000225503254518EF40201D225503254518F6
:1006A00013844184A285EF40C01E031544008315C6
:1006B0000401136505081375F5F92312A40013E569
:1006C000E5041375E5C78315440113650510231868
:1006D000A400225593E5052493F5F5A7231AB40049
:1006E0000325451895282255230C94000325451809
:1006F000A285EF40A0183255EF106058225503250F
:1007000045189928F274066496442644B6406161FF
:10071000828079712AD62ED42AD20CC54561828076
:1007200079712AD62AF42AD208E14561828079714A
:100730002AD62AF42AD208E54561828079712AD620
:100740002AF42AD248E54561828079712AD62AF4B2
:100750002AD208E945618280797106D62AD42AD244
:1007600008419145EF009075125548419145EF00C1
:10077000F074125508459145EF0050741255230A44
:100780000502B25045618280197186DEA2DCA6DACC
:10079000CAD8CED6D2D4A2F2A6F02ADE2ADC83258D
:1007A000C5172EDA452B6255525603254518835539
:1007B000E6090356060AEF40507709649304048063
:1007C0001306E07E26858145C523130404C0130665
:1007D000007E22858145C92B85451306707D2285C3
:1007E000E1236255B7E5FD448D152326B51A625500
:1007F000B725FC44938525852328B51A6255B7058E
:10080000FB44938595FC232AB51A6255B785FF3EB4
:100810009385959F232CB51A6255B7B5FE3E9385F7
:1008200055DC232EB51A6255B735003F938585DE1A
:100830002320B51C6255034575030589630E053CED
:1008400037857F3F1305E5CF2AD86255B705033BAF
:100850009385851A2ED60720451C87A001EE53F0FC
:10086000001802F4130520039710A1FFE7808044CD
:100870002685814501460D2B2285814501462D2384
:100880008545228501460D2362550720C51A87201C
:10089000451C537010102726051A62550720051BAA
:1008A0008720451C537010102728051A6255072011
:1008B000451B8720451C53701010272A051A6255C6
:1008C0002328051C6255232A051C6255232C051C70
:1008D0006255832545181305051DAECEAACCAECAB8
:1008E0008841EF00F06A537015D007A441F187A446
:1008F00081F182E8231701040944A1A08355E10492
:10090000564513962500E646329508418605B6956C
:1009100003D6C5008145EF00306A8355E104564592
:1009200013962500E646329508418605B69503D60E
:10093000C500A145EF0050680315E1040505231724
:10094000A1040355E1046343A4060355E104E6450D
:10095000131625002E96072006005310002082E46F
:100960005310802853009028C66082E25370900094
:1009700082E053701010531600C006052E95231602
:10098000C5000355E104E64506052E950355C5004F
:1009900083D56501E354B5F666458355E104031636
:1009A000650186052E952316C50089BF625503256E
:1009B00045180D292318010421659309F5CF096510
:1009C000130405C007A401EE13090594930405D48C
:1009D000130A007D11A8625503254518212103152E
:1009E000010505052318A1040355010563CBA91AC8
:1009F00022858145A1292285814549216DDD6255E8
:100A000013050519AACE85454A85EF005070F645B5
:100A1000537015D082EC87A045035370101027A2A5
:100A2000050085452685EF00906EF645537015D07C
:100A300082EC87A045035370101027A40500A14540
:100A40002685EF00D06CF645537015D082EC87A058
:100A500045035370101027A6050091454A85EF0005
:100A6000106BF645537015D082EC87A08503537048
:100A7000101027A8050095452685EF005069F6451A
:100A8000537015D082EC87A085035370101027AAED
:100A900005009D454A85EF009067F645537015D0D7
:100AA00082EC87A085035370101027AC0500AD457C
:100AB0002685EF00D065F645537015D082EC87A0EF
:100AC000C5035370101027A0050003550105E3442A
:100AD00045F1625542708720C51A07214519B27148
:100AE00053701010D3703110537010002726051A60
:100AF000625542708720051B07218519B27153701A
:100B00001010D3703110537010002728051A625549
:100B100042708720451B0721C519B2715370101010
:100B2000D370311053701000272A051A6255072020
:100B300005195370041882EAC2700721851B8721AA
:100B4000051A3272D3F020105370301053704010D9
:100B500053F00000272C051A625542708720C51BF0
:100B600056618721451A327253701010D3703110BC
:100B7000D3F0401053701000272E051A62554270B2
:100B80008720051C56618721851A32725370101018
:100B9000D3703110D3F04010537010002720051C83
:100BA0003DBD625503254518453E6255A30B050220
:100BB00062550720C51AA270537010102726051A17
:100BC00062550720051BA270537010102728051AC4
:100BD00062550720451BA27053701010272A051A72
:100BE00062550720C51A531610C009641305048006
:100BF00081455D2A62550720051B531610C013045A
:100C000004C0228581454D2262550720451B53169D
:100C100010C085452285492A62550720C51A87A03C
:100C200041EE3165D39500A07D1589E9E25507A015
:100C3000C51A87A081EED31510A089C9E25503D645
:100C4000850F698E9166558E239CC50EE25507A0CF
:100C5000051B87A0C1EED39500A089E9E25507A046
:100C6000051B87A001EFD31510A089C9E25503D653
:100C7000850F698E9166558E239CC50EE25507A09F
:100C8000451B87A041EFD39500A089E9E25507A055
:100C9000451B87A081EFD31510A089C9E25503D663
:100CA000850F718D1166518D239CA50E625507200D
:100CB000851B87A0C1EFA165539600A01385F5FFA2
:100CC00009EA62560720861B87A001F0531610A080
:100CD00001CA62568356860FE98ED58D231CB60E47
:100CE000E25507A0C51B87A041F0D39500A089E974
:100CF000E25507A0C51B87A081F0D31510A089C9B4
:100D0000E25503D6850F698EA166558E239CC50ECC
:100D1000E25507A0051C87A0C1F0D39500A089E982
:100D2000E25507A0051C87A001F1D31510A089C9C1
:100D3000E25503D6850F718D2166518D239CA50E3A
:100D400086741674265AB6594659D6546654F650C7
:100D50000961828079712AD60325C5172AD4072014
:100D6000C50602F287208506539500A009C52255C5
:100D70000720850602F2225512708720050753705E
:100D80001010D31500C02311B102056613060680AA
:100D9000B295231FB50803152102A2553305A640BD
:100DA0002390A50A45618280397106DE2ADC2EDA9D
:100DB00032D8EF00D01B09E9378560001305251AEA
:100DC00093058061EF6090605255E1453305B502AF
:100DD000E25542561305C50A2AD62E9510C1F25087
:100DE00021618280797106D62AD42AD24845EF0043
:100DF000F02212554845EF00902512550849EF00A2
:100E0000F02112550849EF00902412554849EF008F
:100E1000F02012554849EF009023125508419305E0
:100E2000E007EF00F025125548419305E007EF0079
:100E30003025125508459305E007EF007024125540
:100E40008545230AB502B25045618280797106D684
:100E50002AD42ED2EF00B01109E9378560001305BE
:100E6000251A93057030EF6070561255A25505464D
:100E70003315A60088C9B25045618280797106D6C3
:100E80002AD42ED2EF00B00E09E937856000130591
:100E9000251A9305702EEF607053225548459255E0
:100EA0003355B5000589B250456182805D7186C6B3
:100EB000A2E42ADA2AD88325C5172ED68325051859
:100EC0002ED48315850F0316E50FD18D231FB50E84
:100ED00042558315850F0316C50FF18D231DB50EE1
:100EE00042553256032545188355E6090356060A2E
:100EF000EF40B003425503451503058921C942550A
:100F00000355A50F2DC5425503452503058961C528
:100F1000425523090502425585456CC932550315D2
:100F2000A509C2552395A50242558315C50285051D
:100F30002316B502425503455503058961E942551B
:100F4000A3080502425523150502C9A042550345D1
:100F50002503058969C15255EF10E05F42550345ED
:100F60008504058951C94255231505026DA04255D6
:100F700003452503058945E142550355A50241ED89
:100F8000425503453503058939C14255230A0502F7
:100F90004255A30C0502425523060504225507209D
:100FA000C5064255272C05082255230A051C7370D7
:100FB00004300100C25503A5452283A50518EF6042
:100FC000D05B7360043001004255A30905025255FD
:100FD000EF10205289A042550355A50205E942555C
:100FE000B2550355C50283D5C509635EB5004255A8
:100FF00085452307B50419A8325503158509C2553F
:101000002395A50209A84255A308050242550325C8
:101010004518EFF06FF42255085901E9C25503A5B0
:10102000452283C54504EF60307642550345E5040B
:10103000058911CD425503254518ED2442558355A8
:10104000850FBD89231CB50E425523070504425563
:1010500003452503058931C9425503254518AAC210
:10106000AAC003454503058919ED425503254522CC
:10107000EF601056425503254522EF60D056425589
:1010800003254518853342550345450305890DC1A0
:10109000425507208509530400F0531504A0630846
:1010A00005104255B705803F31A25255EF0050263A
:1010B000425503254522EF60D06B19C542550325E3
:1010C0004518EFF06FE931A0425503254522EF7036
:1010D0002005425503254522EF60306419C542556D
:1010E00003254518EFF04FE7ADA842552300010452
:1010F00003254522EF6010564255AAE203454503F9
:10110000058919C5425503254522530500F029A03C
:101110004255032545221665EF70E0012300A10426
:1011200003450104058915CD425503254522EF608D
:10113000507A425503454503058911ED4257032571
:10114000472283250718032647248326872403275D
:10115000C724EF60707922550345451D0589630753
:101160000514425503254522EF60505FC255238A7E
:10117000A502425503454503058905C1425503456E
:101180009503058901C55255ED2201A842558545B3
:10119000A30CB5025255EF00902E5255EF10003FB0
:1011A0005255EF10C04B2664B640616182804255B3
:1011B000B70580BF6CCDC25503A5452283C5650325
:1011C000EF60305EC25503A5452283C52504EF605C
:1011D0003062C25503A5C52307A58509EFF04FD49A
:1011E00042550720050A8720450B532000205395C0
:1011F00000A035C94255A2550720450C87A005120D
:101200000325C52353751018EFF02FD4425507203E
:10121000C51203254524D3100020AAC286E002FE91
:101220002ADC272E150072706255272005024255D0
:1012300028499545E36EB5E642558315C5008505F9
:101240002316B50042558355C50003552501E3918A
:10125000A5E6425523280516425599452CC9425505
:1012600091456CC9B1B54255A2550720850C87A0A0
:1012700005120325C52353751018EFF00FCD425505
:101280000720C509530504A04255072085120325F0
:101290004524D3100020AAC286E002FE2ADC272EB5
:1012A0001500727062552720050219B542550325B5
:1012B0004522EF60504919ED425503254522EF6064
:1012C000F049E30005EA425503254522EF60504608
:1012D000E30905E8425503254522EF60304805C97A
:1012E00042558545230AB502425523090502425558
:1012F000A30805022255230AB51C425503254522A1
:10130000EF60502A425503254522EF60102B2255ED
:101310000859E31805E44255230905024255A3087C
:10132000050281B5797106D62AD42AD24845FD2115
:1013300012554845292B12550849CD211255084907
:10134000392312554849D9291255484909231255BC
:1013500008419305E0072D23125548419305E00706
:101360000523125508459305E007192BB250456136
:10137000828039712AD62AD48325C5172ED268498E
:101380008D45636FB51422550345450305896309EF
:10139000051432550345050305895DC9225592554B
:1013A0000325852407A0050387A045032ADE02FC48
:1013B00006FA2AD827200500527042552722050038
:1013C000225592550325C52407A0850387A0C50390
:1013D0002ADE02FC06FA2AD8272005005270425560
:1013E00027220500225592550325452407A0850292
:1013F00087A0C5022ADE02FC06FA2AD827200500AB
:101400005270425527220500225592550325052486
:1014100007A0050287A045022ADE02FC06FA2AD8A8
:10142000272005005270425527220500225503252A
:1014300005242ADEB70520C12EDC3706204132DA2A
:101440002AD84CCD52704255272005022161828056
:10145000225592550325852407A0050387A045033F
:101460002ADE02FC06FA2AD82720050052704255CF
:1014700027220500225592550325C52407A0850380
:1014800087A0C5032ADE02FC06FA2AD82720050019
:1014900052704255272205002255925503254524B6
:1014A00007A0850287A0C5022ADE02FC06FA2AD818
:1014B00027200500527042552722050022559255DB
:1014C0000325052407A0050287A045022ADE02FCA9
:1014D00006FA2AD827200500527042552722050017
:1014E0002161828011714AC04EC252C456C673290E
:1014F0000030F3291034732A007CF32A107C4AC888
:101500004ECA52CC56CE02499249224AB24A73F090
:10151000107C86DF96DD9ADB9ED9A2D7A6D5AAD30A
:10152000AED1B2CFB6CDBACBBEC9C2C7C6C5CAC38B
:10153000F2C176DF7ADD7EDB02F906F70AF50EF3FB
:1015400012F116EF1AED1EEB2AE92EE732E536E32B
:101550003AE1BEFEC2FCC6FAF2F8F6F6FAF4FEF282
:10156000A2F0A6EECAECCEEAD2E8D6E6DAE4DEE2F3
:10157000E2E066FE6AFC6EFA496583254500850552
:101580002322B500A30901021149374503001304C2
:101590000540496593048500034531036342A90270
:1015A00022854D2883453103A6952380A500030598
:1015B00031030505A309A10203453103E352A9FE46
:1015C000D27D627DF27C066C966B266BB66A466AAB
:1015D000D6696669F6640674967F267FB67E467E77
:1015E000D6786678F6770A679A662A66BA654A6593
:1015F000DA636A63FA620A729A712A71BA704A707F
:10160000DA5F6A5FFA5E0E4E1E49AE483E48CE472C
:101610005E47EE467E468E551E55AE543E54CE5322
:101620005E53EE52FE504AC04EC252C456C64249A4
:10163000D249624AF24A73901A7C73100A7C739002
:10164000193473100930B24A224A92490249116191
:1016500073002030797106D62AD2C52C09E9378566
:1016600060001305252193059049EF60205612551F
:10167000CD2C01E91255292E137505086DD902D418
:1016800031A01255484D1375F50F2AD42255B2508A
:101690004561828079712AD6956523A2A51045619E
:1016A0008280397106DE2ADC231BB1022AD88A0522
:1016B0002E9508490126F25021618280797106D663
:1016C0002AD42ED2B92011E9378560001305A5165A
:1016D00085659385D52CEF60604F035541021375E6
:1016E00015F811C9378560001305A5168565938522
:1016F000E52CEF60A04D73E0107C22559255032637
:10170000C526D18D2326B52673F0107CB2504561D5
:1017100082807971AA852AD6296605456387C50422
:10172000B255130606406382C5043256AD659386F2
:101730000580630CD6023256938505C06307B60256
:101740003256AD656303B602325693850540630E8B
:10175000B6003256B165938605806308D6003255CF
:10176000938505C02D8D13351500456182807971F3
:10177000AA852AD609669306068005456388D500A2
:101780003255930506C02D8D1335150045618280B5
:10179000797106D62AD4B53F11E937856000130563
:1017A000A516856593859594EF60404222550325E3
:1017B000C518B25045618280397106DE2ADC2EDA06
:1017C00032D8813F11E9378560001305A51685657C
:1017D000938545A2EF60803F52559305851A2ED61A
:1017E00009C55255A1456313B5026255B2552E95F0
:1017F0000841C165FD154256E25632576D8D93156D
:1018000006014D8DB385E60088C131A06255B25501
:1018100042562E9510C1F25021618280797106D610
:101820002AD4552809E9378560001305951D9305CD
:10183000502EEF60A03973E0107C22554C4593E5A3
:1018400025004CC573F0107CB250456182807971DF
:1018500006D62AD4492009E9378560001305951D6D
:1018600093053030EF60803673E0107C22554C4594
:1018700093E505204CC573F0107CB2504561828021
:10188000797106D62AD42ED2693511E937856000E0
:101890001305A51685659385B525EF602033125590
:1018A00093050008636BB500378560001305A51626
:1018B00085659385C525EF60603173E0107C225506
:1018C00092550326C525D18D232EB52473F0107CA7
:1018D000B250456182807971AA852AD6396693060D
:1018E000068005456383D502B25513060688638ECC
:1018F000C5003256B965938605906308D600325507
:10190000938505982D8D1335150045618280797179
:1019100006D62AD40966930606942ED2630FD50004
:101920002255930506D4630AB50037856000130578
:10193000251A9305A036EF6060291255A2550A05B5
:101940002E950841B250456182807971B7450300F8
:1019500093850540A98D93B515002AD62E8545613E
:101960008280797106D62AD4CD3709E9378560009F
:10197000130525219305703BEF604025225508553E
:101980008965938505F06D8D2181B2504561828016
:10199000797106D62AD4553F09E9378560001305C9
:1019A00025219305A047EF60602222554849B25097
:1019B00045618280797106D62AD4392809E93785AC
:1019C00060001305952493050014EF602020225534
:1019D0000841B250456182807971AA852AD6156680
:1019E0000545638DC500B25541066389C500325572
:1019F0009565938505022D8D13351500456182800F
:101A000079712AD62AD408614561828079712AD6F3
:101A10002AD408694561828079712AD62AD408655A
:101A20004561828079712AD62AD4486545618280D1
:101A300079712AD62AF42AD208E145618280797127
:101A40002AD62AD408614561828079712AD62AD49F
:101A5000084545618280397106DE2ADC0D45231B6D
:101A6000B102639DA50037B5AA3E1305B5AA2AD8D1
:101A700037D5133F1305A5D32AD619A002D802D60D
:101A800062554275B2750128625583456103052090
:101A9000F2502161828079712AD62AF42EF22AD05E
:101AA00008E1127002552722050045618280797194
:101AB0002AD6A305B1022AD22304B500456182804B
:101AC000397106DE2ADC0D45231BB1026397A500A0
:101AD00037B5AA3E1305B5AA01A803556103894588
:101AE000631BB5003705803F2AD837D5133F130550
:101AF000A5D32AD619A002D802D662554275B2756E
:101B0000593F6255834561035D37F2502161828000
:101B1000397106DE2AD62AD403458504058915C104
:101B200022558325C5230720050A2EDC02FA2ED86C
:101B300027A205002255231605002255A3040504FB
:101B40001DA0225503254522EF60C02522550325FF
:101B50004522EF60802622550325C5232ADC02DAC0
:101B60002AD82322050022550325C523530500F05A
:101B7000C920225503254518E12022550325852437
:101B80002ADC02DA2AD82328050022550325C52499
:101B90002ADC02DA2AD82328050022550325452409
:101BA0002ADC02DA2AD823280500225503258524B9
:101BB0002ADC02DA2AD82326050022550325C5246B
:101BC0002ADC02DA2AD823260500225503254524DB
:101BD0002ADC02DA2AD823260500225523280516F6
:101BE0002255232A05162255232A05102255232C77
:101BF000051022552326050E2255231605002255D1
:101C0000231E05002255231F05002255231105021E
:101C100022552310050222552313050222552312B3
:101C2000050222550325052581459920F2502161A1
:101C3000828079712AD62AF42AD208E1456182800D
:101C4000797106D62AD42AD208419145EF00104571
:101C5000125548419145EF00704412550845914591
:101C6000EF00D0431255230A0502B250456182802D
:101C700079712AD62ED42AD20CC54561828075711D
:101C800006C7AADCAADA03250518AAD80720450446
:101C900082F68720850486F4072105048AF25370B2
:101CA000011882F05370111882EE0720C50582ECEE
:101CB0008315A500072005124655D3F005D053F033
:101CC000001882EA07204505872085054655537090
:101CD000101082E88315C500072005124655D3F081
:101CE00005D053F0001882E607200506465582E429
:101CF0000720450682E23670E660067187A181F70B
:101D000056625370101082E05370311053704010BF
:101D1000A670666102FE76605662D3F0201006FC63
:101D20005370301053704010465502FA02D802D654
:101D30000720450687A0C1F7530510A005C94655E1
:101D40000720C50487A001F80721C5205370101093
:101D50005370201802F80720C50487A041F8072116
:101D60000513537010105370201005A02660966064
:101D70006661B661D3701010D370111806F8D37075
:101D800031105370001053F0001802F65655032519
:101D900085242AC5B7658F3D938595C22EC337C666
:101DA000753C1306F62832C1AADE0CC10A607655CE
:101DB000272205005655032585242AC502C32AC1BA
:101DC000232605005655032585242AC502C32AC1AA
:101DD000232805005655032585242AC502C32AC198
:101DE000232A05005655032585242AC502C32AC186
:101DF000232C05005655466003258524D31000206A
:101E00002AC506E302E1AADE272E15000A607655F0
:101E10002720050256550325C5242AC52EC332C1E5
:101E2000AADE0CC10A607655272205005655032507
:101E3000C5242AC502C32AC12326050056550325F9
:101E4000C5242AC502C32AC12328050056550325E7
:101E5000C5242AC502C32AC1232A050056550325D5
:101E6000C5242AC502C32AC1232C050056550325C3
:101E7000C5242AC502C302C1AADE232E05000A60BA
:101E80007655272005025655032545242AC5B7A5B2
:101E9000193F9385A5992EC337D6233C1306A67008
:101EA00032C1AADE0CC10A607655272205005655BC
:101EB000032545242AC502C32AC1232605005655F9
:101EC000032545242AC502C32AC1232805005655E7
:101ED000032545242AC502C32AC1232A05005655D5
:101EE000032545242AC502C32AC1232C05004655D3
:101EF000D6550720C50403A54524D31000202AC5C4
:101F000006E302E1AADE272E15000A607655272097
:101F100005025655032505242AC5B705A0402EC342
:101F2000373686351306D67B32C1AADE0CC10A606D
:101F30007655272205005655032505242AC502C3D8
:101F40002AC1232605005655032505242AC502C3A8
:101F50002AC1232805005655032505242AC502C396
:101F60002AC1232A05005655032505242AC502C384
:101F70002AC1232C05005655032505242AC5B7057B
:101F8000C0C02EC33706C04032C1AADE4CCD0A60A5
:101F900076552720050266552120BA404961828086
:101FA00039712ADA2AD88325C5172ED60325852428
:101FB0002ADE2ADC0720050027A805024255032552
:101FC00085242ADE2ADC072045003255272A05020F
:101FD00042550325C5242ADE2ADC07200500325598
:101FE000272C050242550325C5242ADE2ADC0720BA
:101FF00045003255272E05024255032545242ADE89
:102000002ADC072005003255272405024255032506
:1020100045242ADE2ADC0720450032552726050202
:102020004255032505242ADE2ADC07200500325507
:10203000272005024255032505242ADE2ADC072035
:1020400045003255272205022161828079712AD606
:102050002AD4231301020945C165FD150356610207
:102060006340C50403566102A2560606369623183D
:10207000060003566102A25606063696231BB600DA
:1020800003566102A25606063696231E0600031664
:10209000610205062313C10203566102E354C5FC25
:1020A000225585452301B50245618280797106D6A6
:1020B0002AD42AD28325C5172ED00355A5026358EA
:1020C000A00012558315A502FD152315B502125562
:1020D00003455504058931C5125503457504058925
:1020E00011C5125585452303B50425A8125503557E
:1020F000850201C9125583158502FD152314B50209
:102100000DA0125503254522EF50504F630E051ABE
:1021100002550315450992552394A5021255230330
:102120000504125582550720051987A045075395C8
:1021300000A00DC1125582550355650183D5450890
:1021400063DDA50212558315850F93E51500231C49
:10215000B50E15A8125582550720051987A08507C9
:10216000531510A00DC112550355650163000514E8
:10217000125583156501FD1529A0125583156501BA
:102180008505231BB500125582550720051987A028
:10219000C507531510A00DC1125582550355850171
:1021A00083D5450863DCA50212558315850F93E599
:1021B0002500231CB50E0DA81255825507200519C0
:1021C00087A00508539500A005C112550355850148
:1021D0006DC5125583158501FD1529A0125583156E
:1021E00085018505231CB500125568499145631C7E
:1021F000B50A125582550720052C87A00505539571
:1022000000A005C5125582550355C50183D5650843
:1022100063D7A50212558315850F93E50504231C8A
:10222000B50E1255231E05000DA012550355C5010C
:10223000635DA00012558315C501FD1529A0125537
:102240008315C5018505231EB5001255825507204B
:10225000050B87A0C505539500A015C512558255DD
:102260000355450283D5E50863D9A50212558315A8
:10227000850F056613060680D18D231CB50E1255F9
:10228000231205020DA0125503554502635DA000FF
:10229000125583154502FD1529A0125583154502D7
:1022A00085052312B502B2504561828012558355CF
:1022B000850FF999231CB50EF9B512558355850F75
:1022C000F599231CB50E0DB70255031565099255F6
:1022D0002394A50239B5397106DE2ADC2ADA0345D2
:1022E000F50405896309051A5255A30705045255DB
:1022F0000720052887208526537010105375005835
:102300005325A5A06309051A52552726A52852551D
:1023100007204528872085265370101053750058D4
:102320005325A5A0630E051852552728A5285255F8
:102330000720852887208526537010105375005874
:102340005325A5A0630305185255272AA5285255E1
:102350000720452A8720C526537010105375005852
:102360005325A5A06308051652552728A52A5255BE
:102370000720852A8720C5265370101053750058F2
:102380005325A5A0630D05145255272AA52A525599
:102390000720C52A8720C526537010105375005892
:1023A0005325A5A0630205145255272CA52A525582
:1023B0000720C52887200529539500A052550720DE
:1023C000C52802F80720052902F65255072045299D
:1023D000C270539500A009C552550720452911A088
:1023E0004270525502F807204529B270531510A0CB
:1023F00009C552550720452911A03270525502F6E1
:10240000072045268720050B5370101802F48720FB
:102410004526539500A009C552550720452611A011
:102420002270525502F4D31510C0231AB524525508
:102430008355452507A081F8D3F015D053701018A7
:102440002724052652550720852627260526427073
:10245000B270525553711008537010005370011828
:10246000272E052A52550720C5288720052B07212E
:1024700005298721452B072245298722852B537063
:102480001010D370311053701000D370521053706D
:1024900010002720052C5255072045138720050BD7
:1024A0000721052753701010537020102722052C88
:1024B000F2502161828053050020EF50B04AA9B547
:1024C00053050020EF50104A85B553050020EF500A
:1024D00070499DBD53050020EF50D04871B553059C
:1024E0000020EF5030484DB553050020EF50904785
:1024F00065BD797106D62AD42AD26C49114563E5A7
:10250000A5009255E8C921A012558D456CC91255F8
:1025100003458504058901C51255894519A0125541
:102520008D452CC91255232E050812550325052566
:102530008145EFF0EFF3125585452309B502125599
:102540002316050012558315E50285052317B502EC
:10255000B25045618280797106D62AD42AD2232EC0
:1025600005081255230905021255232805041255A2
:1025700091456CC91255032505258145EFF04FEFB4
:10258000125523160502B25045618280397106DE6C
:1025900022DC22FA2AD82AD68325C5172ED4034551
:1025A0002503058945C9325503254522EF503014CE
:1025B000B945631CB504325503456504058931C529
:1025C0003255032545228545EF50F0203255A2555E
:1025D00003254522A861EF50F02722550720C501A9
:1025E000872045005370100802F28720450007A19C
:1025F00081FA53200020D3F02010531510A039C9C0
:102600003255032545228545A1A032550325452293
:10261000530400F053058420EF50D0233255032596
:10262000452253058420EF50702132550324452262
:102630002285EF5010092285EF50D01E3255032518
:1026400045228145EF5030193255032545228145F9
:10265000EF50B01B52746254F25021618280797144
:1026600006D62AD42AD28325C5172ED00325452283
:10267000EF50F007925523AEA520125503254522B1
:10268000EF505008925523A0A5221255032545224C
:10269000EF50D001025508E1125503254522EF50B5
:1026A0005002025548E1125503254522EF50E07BC8
:1026B000025508E5125503254522EF50607C02556E
:1026C00048E5125503254522EF50A074025548E90C
:1026D000125503254522EF50C07307A0C1FA0255D9
:1026E0005370051027280500125503254522EF5089
:1026F0000075025568E1125503254522EF50A07977
:10270000025508ED125503254522EF504068125539
:10271000272AA512125503254522EF50E07B0255CA
:1027200048ED1255072005168720451653700010F6
:10273000D3F0101053701000537500585325A5A006
:1027400015C912552720A5101255072005148720FA
:10275000451453700010D3F01010537010005375CF
:1027600000585325A5A001CD12552722A510B2501F
:102770004561828053050020EF50D01ED9B7530524
:102780000020EF50301ECDB779712AD62AD4072009
:102790004519872045275370001053F00000272A61
:1027A000052622550720851987208527537000109C
:1027B00053F00000272C052622550720C519872035
:1027C000C5275370001053F00000272E0526225510
:1027D0000720051A872085295370001053F0000048
:1027E000272C052822550720451A8720C529537014
:1027F000001053F00000272E052822550720851AC7
:102800008720052A5370001053F000002720052A66
:102810002255831565258505231BB524225583552F
:102820006525035545256359B506225507204527DB
:1028300027200528225507208527272205282255ED
:102840000720C527272405282255232A0526225597
:10285000232C05262255232E0526225507208529BF
:102860002722052A22550720C5292724052A225573
:102870000720052A2726052A2255232C052822551C
:10288000232E052822552320052A2255231B052403
:1028900022558545A307B50445618280797106D626
:1028A0002AD42ED2B92011E9378560001305A51668
:1028B00085659385D52CEF50603103554102137522
:1028C00015F811C9378560001305A5168565938530
:1028D000E52CEF50A02F73E0107C22559255032673
:1028E000C526D18D2326B52673F0107CB2504561E4
:1028F00082807971AA852AD6296605456387C50431
:10290000B255130606406382C5043256AD65938600
:102910000580630CD6023256938505C06307B60264
:102920003256AD656303B602325693850540630E99
:10293000B6003256B165938605806308D6003255DD
:10294000938505C02D8D1335150045618280797101
:1029500006D62AD42AD23920125521281255B2502F
:102960004561828079712AD62AD423060500456103
:10297000828079712AD62AD4A30605004561828017
:10298000397106DE22DC26DA4AD82AD62AD4231266
:1029900001020845854545202255084585456128A1
:1029A0002313010223120102116579158355410297
:1029B000634CB50001008315410285052312B10265
:1029C00083554102E358B5FE41651304F5FF9304B6
:1029D000803E0549325581457D209375054001456E
:1029E00089C5035561021325853E11CD031561028A
:1029F0000505B37585002313A102E3CD95FC22558F
:102A0000A3062501C1BF2312010221657915835553
:102A10004102634CB5000100831541028505231274
:102A2000B10283554102E358B5FE4259D254625473
:102A3000F25021618280397106DE2ADC2EDA71299A
:102A400009E9378560001305D52B9305201CEF504D
:102A5000E017625593551500C199374603001306D8
:102A600006E0B29552562ED885453395A5002AD654
:102A700009C63255C255C8C121A03255C25588C5B4
:102A8000F250216182805D7186C6A2C4A6C2AAC02E
:102A90002EDE2ADC231901022317010202D4054588
:102AA0000146E922231BA102231A01021D45835579
:102AB0004103634CB5000100831541038505231ACA
:102AC000B10283554103E358B5FE625508416D2AB2
:102AD00062550841ED22231A01027D4583554103C9
:102AE000634CB5000100831541038505231AB1022B
:102AF00083554103E358B5FE625508418355610390
:102B0000CD2A41651304F5FF8544225515E1625530
:102B10000841192C2AD40315E1020505B375850077
:102B20002317A102E3C385FE625523069500F1BF7A
:102B300041657D152317A102231A01021305F00F29
:102B400083554103634CB50001008315410385059E
:102B5000231AB10283554103E358B5FE625508417B
:102B6000DD2A2318A102035501031375F57F96444E
:102B70002644B6406161828079712AD62ED42AD249
:102B80000CC14561828079712AD62ED42AD24CC1DB
:102B90004561828079712AD62ED42AD20CC545612E
:102BA0008280397106DE22DC2ADA2ED8239E0500C7
:102BB0004255231005024255A30105024255231D2B
:102BC00005004255231F05004255230105024255C9
:102BD000A30C05004255230C0500525502D6814531
:102BE0005D35C2552315A1022390A50052550564F9
:102BF000930504802ED6413DC2552315A102239191
:102C0000A500525522D68565BD3DC2552315A102AA
:102C10002392A50052550964930504802ED6A5354C
:102C2000C2552315A1022394A500525522D68965C9
:102C3000993DC2552315A1022396A50052550D6456
:102C4000930504802ED68135C2552315A102239801
:102C5000A500525522D68D653D35C2552315A102DA
:102C6000239AA5006254F2502161828079712AD69C
:102C70002ED44D8D9375F67F4D8DC165FD156D8DEF
:102C80002313C10245618280797106D62AD49D2C16
:102C900009E9378560001305552F9305B023EF40F0
:102CA000F07222554C5179767D16F18D4CD122551A
:102CB0004C510966D18D4CD1B250456182807971F9
:102CC00006D62AD4812409E9378560001305552FDB
:102CD0009305B01EEF40906F22550C511966D18DAF
:102CE0000CD122554C510966D18D4CD1B250456161
:102CF0008280797106D62AD42313B102212409E9EE
:102D0000378560001305552F9305B038EF40106CE0
:102D1000225508451375050265FD03556102A2554C
:102D200088CDB25045618280797106D62AD4D92ADD
:102D300009E9378560001305552F9305D02BEF4027
:102D4000F068225548518965938505F06D8D218184
:102D5000B25045618280797106D62AD4652209E98C
:102D6000378560001305552F9305B031EF4010668D
:102D700022554849C165FD156D8DB250456182806F
:102D8000397106DE2ADC2EDA2319C1022AD6014562
:102D9000F13D2315A102231401021D458355810233
:102DA000634CB50001008315810285052314B1022F
:102DB00083558102E358B5FE32550841F13532554D
:102DC0000841F53D231401021305F00383558102E8
:102DD000634CB50001008315810285052314B102FF
:102DE00083558102E358B5FE325508418355A1024F
:102DF0000937231401021305F00F83558102634C38
:102E0000B50001008315810285052314B1028355A5
:102E10008102E358B5FEF25021618280397106DEED
:102E200022DC2ADA2ED803C58501058941C1425525
:102E300085652ED683554500525513F6F57F23152B
:102E4000C1028565353F42550964930504802ED63D
:102E50000356850052551376F67F2315C1020D37B0
:102E6000425522D68355C500525513F6F57F2315DA
:102E7000C1028965313742550D64930504802ED611
:102E80000356050152551376F67F2315C102CD3D39
:102E9000425522D683554501525513F6F57F231529
:102EA000C1028D65F13D4255230C05004255034595
:102EB0002502058919CD42558355A501AE052ED6AB
:102EC0000356E50152552315C1025D3D42552301CC
:102ED00005026254F250216182807971AA852AD656
:102EE0001306C003054563EAC50032559305000E7D
:102EF0006367B50032551335850F45618280014502
:102F0000456182807971AA852AD63966054563882C
:102F1000C5003255930506082D8D13351500456102
:102F20008280797106D6EFD0AFAB218913351500B9
:102F3000B25045618280011173E0107C3795030027
:102F4000832505E593E585062328B5E473F0107C19
:102F500005618280797106D62AD405453D20371552
:102F6000D000130515C0EF3070543705220013054B
:102F70003510EF30B0530965130505C08145292888
:102F80000545AD20B2504561828079712AD695659C
:102F900023A2A51045618280397106DE2ADC2EDA73
:102FA000EF20B00209E9378560001305251A930563
:102FB0000069EF40B0415255E25513161500719A61
:102FC000B295F1052ED805890E052AD673E0107C3E
:102FD0004255B255104193060002B395B600D18D0B
:102FE0000CC173F0107CF2502161828079712AD675
:102FF000B715100003A605C1518D23A8A5C04561D2
:10300000828079712AD645618280797106D62AD468
:103010002120B25045618280797106D6EFD0CF9CD5
:10302000218913351500B25045618280797106D629
:103030002AD42AD22AD00137025589651386058001
:1030400010C10255138605C050C102551386059460
:1030500010C50255938505D44CC50255B7450300EC
:10306000938505404CCD02558D650CD502551386D0
:10307000051850D502551386052010D90255138620
:10308000052850D90255938505300CDD025595650C
:103090000CC902551386050150C9025593850502D6
:1030A0000CCDB25045618280397106DE22DC2AD80F
:1030B000130530042ED66364B50002DAB1A8425578
:1030C0002AD42AD2A9650CC11255938505404CC15A
:1030D0001255AD65938505800CC51255396493056D
:1030E00004804CC512551306049010C912554CC9E2
:1030F0001255B5650CCD125513054502EFF03F850D
:10310000925588D1125540CD1255F5450CDD12551A
:10311000ED454CDD22552ADA05452AD05255625438
:10312000F25021618280797106D62AD4DD3B225586
:103130001D202255A521225507A501FBEF00406463
:103140002255EF0040682255EF00406BEF00A0725F
:10315000B250456182805D7186C6A2C4A6C2CAC053
:103160004EDE52DC56DA5AD82AD637040C00130544
:103170001400EF30501985450145EF30605D014581
:103180008145EF30A07313051420EF30D0170545AB
:103190008545EF30E05B05458145EF302072130532
:1031A0001440EF30501609458545EF30605A094507
:1031B0008145EF30A07013051460EF30D0140D4539
:1031C0008545EF30E0580D458145EF30206F3714CD
:1031D0000C0013051480EF30101311458545EF30B6
:1031E000205711458145EF30606D37290C001305DC
:1031F000D9E0EF3050113D458545EF3060553D45F4
:103200008145EF30A06B130574A0EF30D00F15454A
:103210008545EF30E05315458145EF30206A37157D
:103220000C00EF30500E21458545EF10607B2145A5
:103230008545EF30E05121458545EF302068130585
:103240007420EF30500C25458545EF306050254502
:103250008545EF30A06613057440EF30D00A29454C
:103260008145EF30E04E29458545EF302065130557
:10327000D460EF3050092D458545EF30604D2D4528
:103280008545EF30A063B719100013850960EF3052
:1032900090076D458145EF10A0746D458545EF3071
:1032A000204B6D458145EF306061372A10001305D2
:1032B0000AA0EF30500575458545EF1060727545E1
:1032C0008545EF30E04875458145EF30205FB71AFE
:1032D0008C0013850A40EF3010031305A0028145CE
:1032E000EF3000471305A0028145EF30205D370B1A
:1032F0008C0013050B40EF301001130520028145AF
:10330000EF300045130520028145EF30205B1305A7
:103310001B60EF30407F130530028545EF30005AC7
:10332000130530028D45EF3000641305E00281453E
:10333000EF3000421305E0028145EF30C062130513
:10334000E002A145EF30A04921459145EF10606EA4
:103350002145EF10407037258C0013055580EF3064
:10336000807A1305C0028145EF30803E1305C0020C
:103370008145EF30A05413859AA0EF30C078130533
:1033800050028145EF30C03C130550028145EF30BB
:10339000E0521385AA60EF3000771305B002814533
:1033A000EF30003B1305B0028145EF302051B704E8
:1033B000100013850460EF3000754D458545EF1012
:1033C00020624D458545EF30A0384D458145EF30B1
:1033D000E04E13051980EF30007331458545EF301D
:1033E000203731458145EF30604D130519A0EF308E
:1033F000807135458545EF30A03535458145EF3045
:10340000E04B130514C0EF30007019458545EF30CF
:10341000203419458145EF30604A130514E0EF3040
:10342000806E1D458545EF30A0321D458145EF304A
:10343000E04813855400EF30006D41458545EF307D
:10344000203141458145EF30604713855420EF30EE
:10345000806B45458545EF30A02F45458145EF30D0
:10346000E04513053B20EF30006A13051002854547
:10347000EF30002E130510028145EF302044370550
:103480008C00EF304068130500028545EF10405571
:10349000130500028545EF30A02B1305000285457A
:1034A000EF30C041138569C0EF30E065594585456F
:1034B000EF30002A59458545EF30404013053AE08A
:1034C000EF3060647D458145EF3080287D4585453E
:1034D000EF30C03E13053AC0EF30E06279458545D4
:1034E000EF30002779458545EF30403D3715100016
:1034F000EF30606161458545EF10804E614585453F
:10350000EF30002561458145EF30403B13850A20AF
:10351000EF30605F130590028145EF3060231305A3
:1035200090028145EF3080391305A9C0EF30A05DCE
:1035300039458145EF30C02139458145EF300038AC
:1035400013852920EF30205C65458145EF30402010
:1035500065458145EF30803613852940EF30A05A0C
:1035600069458145EF30C01E69458145EF30003522
:1035700013850440EF30205949458145EF30401D07
:1035800049458145EF308033425BD25A625AF25945
:10359000064996442644B64061618280397106DE50
:1035A00022DC26DA2AD82AD61305400697E0A0FFA7
:1035B000E7804070EF001053896403A50480A16583
:1035C0004D8D23A0A48073E0107C379503008545C2
:1035D0004CC173F0107C377518001305159F97E0E8
:1035E000A0FFE780206D325508419145EF00105152
:1035F000325548419145EF00705032550841914590
:10360000EF007053325548419145EF00D05232558A
:103610000841C145EF00D05532554841C145EF0042
:10362000305532550841EF00505832554841EF00AF
:10363000D0571385047197E0A0FFE780A06713843B
:1036400004C0354622858145EF007059938404807B
:1036500089451546AD4621472685EF00705E8D45AC
:103660001546AD4621472685EF00905D85451546F8
:10367000AD4621472685EF00B05C89451546914649
:1036800021472285EF00D05B8D45154691462147A5
:103690002285EF00F05A854515469146214722853F
:1036A000EF00105AA14515469D4621472285EF009F
:1036B0003059A54515469D4621472285EF005058B3
:1036C000A94515469D4621472285EF00705795452F
:1036D0001546994621472685EF009056994515468F
:1036E000994621472685EF00B055914515469946E4
:1036F00021472685EF00D054994515469546214728
:103700002285EF00F0539D451546954621472285B9
:10371000EF00105395451546954621472285EF0049
:1037200030529D451546894621472685EF00505168
:10373000A1451546894621472685EF007050A545CD
:103740001546894621472685EF00904FAD45154621
:10375000994621472285EF00B04EB145154699465E
:1037600021472285EF00D04DB545154699462147A2
:103770002285EF00F04CD2546254F25021618280D5
:10378000397106DE07A041FB2ADC2AFA2AD85370D9
:10379000A018D31510C02ED608498145EF10906BA4
:1037A00042550849856593850580EF20D05C4255D8
:1037B0000849B255EF10906C42550849EF10906ED1
:1037C000F25021618280797106D62AD42AD2084D1E
:1037D0008145EF1030681255084D85659385058049
:1037E000EF2070591255084DFD55EF1030691255F4
:1037F000084DEF10306BB25045618280797106D66A
:103800002AD42AD2484D9305F00FEF302064125588
:10381000484DEF1030471255484DEF1050491255A2
:10382000484DEF10304C1255484DEF10104F1255C7
:10383000484DB77589099385058037160E009D465A
:10384000EF30C0501255484DEF1090501255484D72
:10385000EF1090521255484DEF1050551255484DEB
:1038600015468145EF1070581255484DEF10F05B2A
:10387000B25045618280797106D6EF109066054599
:10388000EF10D067B25045618280797106D62AD494
:103890002ED283C5E50025209255225583C5F5001B
:1038A000052822553D2822556D2622551D2B2255CF
:1038B000FD2B2255EF002066B25045618280797160
:1038C0002AD62315B1022AD22310B504456182807D
:1038D00079712AD62315B1022AD22311B504456184
:1038E0008280397106DE22DC26DA2AD82AD60965DA
:1038F000130505F42314A10205452313A102056550
:1039000013050520EF10E01A325508419145EF10DC
:10391000601E325548419145EF10C01D3255084593
:103920009145EF10201D23150102894441651304C0
:10393000F5FF0355A10263CDA4200355A102B255A2
:103940000A052E9508418945EF1040200355A10234
:10395000B2550A052E950841EF1060220355A102C9
:10396000B2550A052E9508418545EF10E023035511
:10397000A102B2550A052E9508418545EF10602633
:103980000355A102B2550A052E950841814501460D
:10399000EF10C0290355A102B2550A052E95084122
:1039A0008545EF10E02C0355A102B2550A052E956E
:1039B00008418945EF20F0410355A102B2550A059F
:1039C0002E9508418145EF10C02E0355A102B25536
:1039D0000A052E9508418145EF10A0310355A1023B
:1039E000B2550A052E9508418145EF102033035545
:1039F000A102B2550A052E95084181450146EF10F6
:103A0000C0340355A102B2550A052E950841A145BF
:103A10000146EF1080330355A102B2550A052E95D9
:103A20000841D1450146EF1040320355A102B2557D
:103A30000A052E950841F1450146EF100031035566
:103A4000A102B2550A052E950841094691468145C5
:103A5000EF10E0380355A102B2550A052E95084132
:103A6000094689468145EF1080370355A102B255BA
:103A70000A052E950841054699468145EF102036E6
:103A80000355A102B2550A052E9508410546814508
:103A90008146EF10C0340355A102B2550A052E9598
:103AA000084185450546EF10C03B0355A102B255BC
:103AB0000A052E95084105468145EF10803A0355C9
:103AC000A102B2550A052E9508418145EF10E03E4E
:103AD0000355A102B2550A052E95084185450146B8
:103AE000EF10E0420355A102B2550A052E95084198
:103AF00005468145EF10A0410355A102B2550A05C4
:103B00002E950841A145EF1080450355A102B255FD
:103B10000A052E950841A145EF10C0480355A102A2
:103B2000B2550A052E950841EF10204C0355A1020D
:103B3000B2550A052E950841A285EF10C04D031518
:103B4000A10205052315A1020355A102E3D7A4DEB6
:103B5000325508418545EF10E04F32550841EF10CE
:103B6000E05C3255084129468145EF10405F3255EF
:103B700008418145EF10E07103556102C145634280
:103B8000B50232550841BD45EF10E0743255084189
:103B90003D468145EF10007A3255084185453D4646
:103BA000B9A0035561026355A002325508418355FF
:103BB0006102EF104072325508410356610281459F
:103BC000EF1040773255084103566102854505A044
:103BD000325508418545EF100070325508410546C1
:103BE0008145EF1020753255084185450546EF1097
:103BF000607432550841EF10007C32550841814510
:103C0000EF10607E325508418545EF10C07D32557A
:103C1000084183558102EF106010325548418355A9
:103C20008102EF10A00F3255084583558102EF1035
:103C3000E00E32550841D1452946EF10607E0565FA
:103C400013050520EF001063D2546254F250216135
:103C50008280397106DE22DC2ADA2AD8056513054E
:103C600005E02317A102130500202316A1028545B4
:103C70000145EF00300485450145EF005008194526
:103C80009145EF00300319459145EF0050078D45F0
:103C90000145EF0030028D450145EF005006231528
:103CA000010209440355A1026349A4120355A1026C
:103CB000C2550A052E954845EF0010090355A1028B
:103CC000C2550A052E9548458145EF00D00B035596
:103CD000A102C2550A052E9548458145EF00700E98
:103CE0000355A102C2550A052E9548459305800249
:103CF000EF0070110355A102C2550A052E954845E3
:103D00009305A002EF00F0130355A102C2550A0566
:103D10002E9548459305000213060002F946EF2050
:103D2000406C0355A102C2550A052E954845EF0087
:103D300090150355A102C2550A052E9548459305D5
:103D4000000213060002F946EF20E0770355A102B6
:103D5000C2550A052E954845EF0030160355A102BD
:103D6000C2550A052E9548458545EF005018035564
:103D7000A102C2550A052E9548458145EF00901CC9
:103D80000355A102C2550A052E9548458355E10207
:103D9000EF00101F0355A102C2550A052E95484594
:103DA0008355C102EF00D0210355A102C2550A0577
:103DB0002E954845EF00D0240355A102C2550A05AF
:103DC0002E954845EF0010270315A1020505231580
:103DD000A1020355A102E35BA4EC6254F2502161FD
:103DE00082805D7186C6A2C4A6C2AAC02ADE084D22
:103DF0008545812A7255084D8545BD2A725502D8E0
:103E000002DA02DC084D02D402D202D00C10612A80
:103E10007255084D8145D12A7255084D814501469C
:103E200081460147EF20F0057255084D85641384E3
:103E30000480A285ED227255084D8945392C7255B2
:103E4000084D938404FA81452686B1247255084DA5
:103E5000814551247255084D81455D247255084DA8
:103E6000E9247255084DFD247255084DD145012EA7
:103E70007255084D8145352E7255084DAD26725547
:103E8000084DA2857D287255084DA685512672558C
:103E9000084D8545652E7255084D8145CD2E7255CC
:103EA000084D192996442644B64061618280797193
:103EB00006D62AD42AD2484DEF00101F1255484D7D
:103EC000B77589099385058037761800130706A012
:103ED0009946C1470146EF3040021255484DEF0068
:103EE000701F1255484DC145EF0070211255484DC5
:103EF000EF0050241255484DC145EF0010271255D0
:103F0000484DA145EF30800F1255484DEF00902AE3
:103F1000B25045618280797106D62AD42AD21051D6
:103F20004C4D3285EFE05FC512550851A145EFE0D9
:103F30009FC512550851F545EFE0DFC5B250456108
:103F40008280797106D62AD42313B102EF10100AA9
:103F500009E937856000130555289305B029EF302E
:103F6000F046225583556102505D93C5F5FFF18DF2
:103F70004CDDB25045618280797106D62AD4231374
:103F8000B102EF10B00609E9378560001305552826
:103F90009305902EEF30904303556102A255E8C17E
:103FA000B25045618280797106D622D42E842AD2FD
:103FB000EF10D00309E937856000130555289305F4
:103FC000F06DEF30B04012556855FD75504014400B
:103FD0006D8D0C441206558E9256A205D18D4D8DD5
:103FE000E8D62254B25045618280797106D62AD42F
:103FF0002ED2EF10A07F09E9378560001305552800
:104000009305E068EF30903C22556851835541029A
:10401000225671994D8D68D2B25045618280797176
:1040200006D62AD42313B102EF10407C09E9378564
:104030006000130555289305101CEF3030392255C8
:104040004855CD7503566102A2569385F51F6D8DB7
:10405000518DC8D6B25045618280797106D62AD476
:104060002ED2EF10A07809E9378560001305552896
:104070009305B070EF30903522550859D17503562D
:104080004102FD15A2566D8D9315E6004D8D88DA1F
:10409000B25045618280797106D62AD42ED232D0B0
:1040A000EF10C07409E937856000130555289305A2
:1040B000901EEF30B03122550859F5750356410274
:1040C000A256FD156D8D518D88DA0255A25588C511
:1040D000B25045618280797106D62AD42ED2EF1073
:1040E000E07009E9378560001305552893057022B3
:1040F000EF30D02D1255A25588C1B2504561828053
:10410000797106D62AD42ED2EF10406E09E9378590
:1041100060001305552893058047EF30302B12556A
:10412000A25588D1B25045618280797106D62AD4D1
:10413000EF10C06B09E9378560001305552893051A
:10414000304BEF30B02822550C59F5990CD9B250AC
:1041500045618280797106D62AD4EF10206909E979
:1041600037856000130555289305104FEF30102652
:1041700022550C59F9990CD9B25045618280797158
:1041800006D62AD42ED2EF10606609E93785600082
:10419000130555289305D05BEF305023225508595D
:1041A000925522561375B5F84D8D08DAB250456117
:1041B0008280797106D62AD42ED2EF10206309E9C5
:1041C00037856000130555289305B066EF30102041
:1041D0002255285583554102225661994D8D28D686
:1041E000B25045618280797106D62AD4EF10006002
:1041F00009E937856000130555289305406CEF30B9
:10420000F01C22554C55F9994CD5B250456182802D
:10421000797106D62AD42313B102EF10205D09E983
:1042200037856000130555289305A054EF30101A08
:1042300022550859FD7503566102A2569385F50F64
:104240006D8D518D88DAB25045618280797106D6C4
:104250002AD4A303B102EF10605909E93785600041
:10426000130555289305D056EF30501603457102BB
:10427000058911C522550C5993E5050829A0225539
:104280000C5993F5F5F70CD9B250456182807971DC
:1042900006D62AD42ED2EF10605509E93785600082
:1042A0001305552893051059EF3050121255A25599
:1042B000C8C1B25045618280797106D62AD4EF1008
:1042C000E05209E937856000130555289305E0178A
:1042D000EF30D00F22550C5993E585000CD9B25020
:1042E00045618280011173E0107C379503000C4119
:1042F000F9990CC173F0107C05618280797106D642
:104300002AD42ED2EF10604C09E9378560001305DE
:10431000251A9305E018EF30700B73E0107C2255DE
:1043200048419255225641994D8D48C273F0107CF8
:10433000B25045618280797106D62AD42ED2EF1010
:10434000C04809E9378560001305251A93057022D6
:10435000EF30D00773E0107C225508419255225669
:104360006D994D8D08C273F0107CB250456182800A
:10437000797106D62AD42ED2EF10204509E9378567
:1043800060001305251A9305A041EF30300473E057
:10439000107C225548519255225601994D8D48D294
:1043A00073F0107CB25045618280797106D62AD4B0
:1043B000EF10A04109E9378560001305251A930520
:1043C000A026EF30B00073E0107C22550C4193E53D
:1043D00005080CC173F0107CB250456182803971C0
:1043E00006DE2ADC2EDA32D8EF10203E09E93785C6
:1043F00060001305251A9305006FEF30207D52559C
:10440000E25513161500719AB295F1052ED605895D
:104410000E052AD473E0107C32550841A2553D4662
:104420003316B600C2561346F6FF3257718DB39558
:10443000B6004D8D08C373F0107CF250216182806C
:10444000397106DE2ADC2EDA32D836D63AD4EF10AD
:10445000C03709E9378560001305251A9305501CFC
:10446000EF30C076225511C5225593051020636A9E
:10447000B500378560001305251A9305601CEF30E1
:10448000E0745255E2550A052E95130505042AD20B
:1044900073E0107C3255C2553E052256D205925625
:1044A0004D8D9305F6FF4D8D88C273F0107CF25050
:1044B00021618280797106D62AD415452ED263EA0D
:1044C000A500378560001305C5329305101BEF303A
:1044D000E06F73E0107C379503004C4522569D46F3
:1044E0001257B396C60093C6F6FFF58D3316C70074
:1044F000D18D4CC573F0107CB250456182807971CA
:1045000006D62AD415452ED263EAA5003785600069
:104510001305C5329305501DEF30406B73E0107CDE
:10452000379503000C4922569D461257B396C60094
:1045300093C6F6FFF58D3316C700D18D0CC973F005
:10454000107CB25045618280797106D62AD4EF1072
:10455000C02B09E9378560001305951D9305000EF2
:10456000EF30C06673E0107C22550C412166D18D7E
:104570000CC122554C4193E585004CC173F0107C71
:10458000B25045618280797106D62AD42ED2EF10BE
:10459000C02709E9378560001305951D9305C012F2
:1045A000EF30C06273E0107C2255084192552256CC
:1045B0001375C5FB4D8D08C273F0107CB250456178
:1045C0008280797106D62AD42ED2EF10002409E910
:1045D000378560001305951D9305A015EF30005F2A
:1045E00073E0107C22550841F17512569385F5CF82
:1045F000A2566D8D931586004D8D88C273F0107C88
:10460000B25045618280797106D62AD42ED2EF103D
:10461000C01F09E9378560001305951D93059018A3
:10462000EF30C05A73E0107C225508419255225653
:10463000137535FC4D8D08C273F0107CB250456186
:104640008280797106D62AD42ED2EF10001C09E997
:10465000378560001305951D9305A01BEF300057AB
:1046600073E0107C22550841F17512569385F53F91
:10467000A2566D8D931586004D8D88C273F0107C07
:10468000B25045618280797106D62AD4EF10E017C6
:1046900009E9378560001305951D93050027EF3064
:1046A000E05273E0107C22552C452166D18D2CC53B
:1046B00073F0107CB25045618280797106D62AD49D
:1046C000EF10A01409E9378560001305951D9305C7
:1046D0001029EF30A04F73E0107C22552C41216649
:1046E000D18D2CC173F0107CB250456182807971FC
:1046F00006D62AD42ED2EF10401109E93785600082
:104700001305951D9305803EEF30404C12559D4595
:10471000636AB500378560001305951D9305903ECB
:10472000EF30C04A73E0107C22554C41E1994CC1F6
:10473000225592555041D18D4CC173F0107CB2502E
:1047400045618280797106D62AD42ED2EF10E00B13
:1047500009E9378560001305951D93050021EF30A9
:10476000E04673E0107C2255084992552256137595
:10477000E5F54D8D08CA73F0107CB250456182801A
:10478000797106D62AD42ED2EF10200809E9378590
:1047900060001305951D93054023EF30204312550B
:1047A000318109C9378560001305951D9305502394
:1047B000EF30C0411255A255C8C9B2504561828040
:1047C000797106D62AD42ED2EF10200409E9378554
:1047D00060001305951D93052025EF30203F1255ED
:1047E000318109C9378560001305951D9305302572
:1047F000EF30C03D1255A25588D9B2504561828034
:10480000797106D62AD4EF10400009E93785600097
:104810001305951D9305502EEF30403B73E0107C3F
:1048200022554C4593E525004CC573F0107CB250E1
:1048300045618280797106D62AD4EF00107D09E99E
:10484000378560001305951D93053030EF30003833
:1048500073E0107C22554C4593E505204CC573F060
:10486000107CB25045618280797106D62AD42AD252
:104870000851EFE0EF90B25045618280797106D621
:104880002AD42ED22AD00851EFE04FD9B250456138
:104890008280797106D62AD42ED22AD00851EFE030
:1048A0004FB0B25045618280797106D62AD4EF00AC
:1048B000507909E9378560001305552F9305C01B12
:1048C000EF30C03022550C4193F5F5F70CC1B250D2
:1048D00045618280797106D62AD4EF00907609E985
:1048E000378560001305552F93053042EF30002EB9
:1048F00022550C41BD990CC1B2504561828079713D
:1049000006D62AD42ED2EF00D07309E9378560008D
:104910001305552F93058046EF30402B22554855FF
:104920008355410222561375F5FC4D8D48D6B25081
:1049300045618280797106D62AD4EF00907009E92A
:10494000378560001305552F9305B01EEF30002802
:1049500022550C511966D18D0CD122554C51096646
:10496000D18D4CD1B25045618280797106D62AD45E
:104970002313B102EF00F06C09E9378560001305DD
:10498000552F93056048EF3060240355610293056D
:104990000010636AB500378560001305552F930535
:1049A0007048EF30A02203556102A25588D5B2505D
:1049B00045618280797106D62AD4EF00906809E9B2
:1049C000378560001305552F9305501AEF300020EE
:1049D00022550C4193E505080CC1B2504561828017
:1049E000397106DE2ADC2EDAEF00506D09E93785D1
:1049F00060001305D52B9305201CEF30201D625558
:104A000093551500C19937460300130606E0B29589
:104A100052562ED885453395A5002AD609C632555B
:104A2000C255C8C121A03255C25588C5F250216176
:104A3000828079712AD62ED49565938505202E958E
:104A400008414166A25632574D16718D558DBA9563
:104A500088C14561828079712AD695659385052044
:104A60002E95C165FD156D8D0C4193E515000CC1AA
:104A70004561828079712AD69375F5038A052ED413
:104A80008965938505F06D8D21812AD273E0107CB4
:104A9000225592553786030013064624329510415D
:104AA0008546B395B600D18D0CC173F0107C45617D
:104AB000828079712AD69375F5038A052ED489658B
:104AC000938505F06D8D21812AD273E0107C2255EB
:104AD00092553786030013064624329510418546C9
:104AE000B395B60093C5F5FFF18D0CC173F0107C42
:104AF00045618280797106D62AD42ED2EF005056B5
:104B000011E9378560001305A51685659385D52CB9
:104B1000EF30C00B03554102137515F811C93785E5
:104B200060001305A51685659385E52CEF30000A16
:104B300073E0107C225592550326C526D18D23267D
:104B4000B52673F0107CB25045618280797106D62B
:104B50002AD42ED2EF00D05009E937856000130522
:104B6000A5169305307EEF30600622550841925518
:104B7000225671994D8D08C2B2504561828079717B
:104B800006D62AD4EF00D04D09E937856000130519
:104B9000A5169305407CEF30600322550C41ED993A
:104BA0000CC1B25045618280797106D62AD42ED2CA
:104BB000EF00104B09E9378560001305A516930532
:104BC0007078EF30A000125511C522550C4193E5C5
:104BD000850021A022550C41DD990CC1B2504561E0
:104BE0008280797106D62AD42ED2EF00704709E967
:104BF000378560001305A51693058071EF20107DA1
:104C0000125593050008636AB500378560001305E7
:104C1000A51693059071EF20707B2255084D925593
:104C200022564D8D08CEB25045618280797106D6EC
:104C30002AD42ED232D0EF00B04209E93785600085
:104C40001305A5169305D069EF2050782255084129
:104C5000F97512569385F50782566D8D9315A6004A
:104C600022569E06D58D4D8D08C2B2504561828078
:104C7000797106D62AD42ED2EF00903E09E9378505
:104C800060001305A5169305D066EF203074125509
:104C900085456317B50022550C410966D18D31A0B9
:104CA00022550C4179767D16F18D0CC1B2504561CB
:104CB0008280797106D62AD42ED2EF00703A11E99B
:104CC000378560001305A51685659385E590EF206F
:104CD000F06F225503250518C1651256FD15A25621
:104CE0006D8D931506014D8D23A0A618B250456118
:104CF0008280797106D62AD42ED2EF00703609E967
:104D0000378560001305A5169305F064EF20106C3D
:104D10001255A25588C9B25045618280797106D674
:104D20002AD42ED2EF00D03311E937856000130565
:104D3000A516856593850593EF2050691255A255F8
:104D400023A6A518B25045618280397106DE2ADC9F
:104D50002EDA32D8EF00D03011E937856000130524
:104D6000A51685659385159BEF205066525509C59C
:104D70005255D1456317B50029452AD602D41145AD
:104D800031A031452AD609452AD419452AD252558F
:104D9000E25511892E95930505022ED00851B25582
:104DA00022568D463397B6009257B396C600D98ED9
:104DB00005473317F700C257D98E93C6F6FF758D96
:104DC00093D62700B395B60093F637000257339673
:104DD000C600D18D4D8D08C3F2502161828039719A
:104DE00006DE2ADC2EDA32D836D6EF00702711E93B
:104DF000378560001305A5168565938525B8EF20D6
:104E0000F05C5255B2551306051032D41305451007
:104E100085892AD285C1625592552E950841B25591
:104E2000FD150D463316B6001346F6FFC2566257FF
:104E3000925731A86255A2552E950841B2550D469C
:104E40003316B6001346F6FFC2566257A257718D4D
:104E5000B395B6004D8DB305F70088C1F2502161BE
:104E60008280397106DE2ADC2EDAA309C102EF0046
:104E7000301F11E9378560001305A51685659385F8
:104E800075D6EF20B054525583453103054633158E
:104E9000A60085892AD699C562550859B255625629
:104EA0004D8D01A862550859B255625693C5F5FF5C
:104EB0006D8D08DAF25021618280797106D62AD48C
:104EC0002ED2EF00F01911E9378560001305A51601
:104ED00085659385D5DBEF20704F125511CD1255A6
:104EE0008545630BB500378560001305A5168565FC
:104EF0009385F5DBEF20904D2255085992552256A7
:104F00003D9992054D8D08DAB25045618280397124
:104F100006DE2ADC2EDA32D8EF00901411E937854C
:104F200060001305A51685659385A5D9EF20104A65
:104F30005255E2551345150009052AD68859B25530
:104F400005463316B600C2561346F6FF6257718DFA
:104F5000B395B6004D8D08DBF250216182807971E6
:104F600006D62AD42ED2EF00B00F11E937856000A3
:104F70001305A5168565938545EFEF20304512553D
:104F8000398111C9378560001305A516856593859C
:104F900055EFEF20B0431255A25523A2A514B250ED
:104FA00045618280797106D62AD42ED2EF00500B4B
:104FB00011E9378560001305A5168565938505F110
:104FC000EF20D0401255398111C937856000130593
:104FD000A5168565938515F1EF20503F1255A25512
:104FE00023A6A514B25045618280797106D62AD4D1
:104FF000EF00100711E9378560001305A5168565D8
:10500000938565F4EF20903C22552C49F9992CC9E1
:10501000B25045618280797106D62AD42ED2EF0033
:10502000300409E9378560001305A5168565AD05CF
:10503000EF20D03973E0107C2255925503260520CD
:1050400093C5F5FFF18D2320B52073F0107CB2508D
:1050500045618280797106D62AD42ED2EF005000A5
:1050600011E9378560001305A51685659385F5322E
:10507000EF20D035125509C51255A5456367B50215
:105080001255A9456303B5021255B145630FB5002A
:105090001255B945630BB500378560001305A51699
:1050A000856593852533EF2070321255A145630E37
:1050B000B5001255B145630AB5001255A9456306FE
:1050C000B5001255B9456318B5021255A2550581B0
:1050D0002AD003A505291365050423A8A528225570
:1050E000032505298255225661994D8D2328A6282E
:1050F000B2504561828012559145630EB50012553C
:105100009945630AB500125595456306B5001255D9
:105110009D45631AB5001255A2552AD003A505294D
:105120001375F5FB5DBF12552AD055BF797106D6B0
:105130002AD4EF00E07211E9378560001305A51647
:1051400085659385C52EEF20702822558325052976
:1051500093E585002328B528B250456182803971D6
:1051600006DE2ADC2EDA32D8E52D11E9378560001B
:105170001305A51685659385854CEF20302542558E
:10518000A145630EB5004255B145630AB5004255CD
:10519000A9456306B5004255B945631EB508425599
:1051A00005812AD6525521C5625503250529E57585
:1051B0003256FD15E2566D8D9315C6004D8D23A810
:1051C000A62842559145630EB50042559945630A9C
:1051D000B500425595456306B50042559D45631E91
:1051E000B50462558325052993F5F5FD81A0625527
:1051F00003250529B25562561375F58FA2054D8D0D
:105200002328A62842559145630EB500425599457D
:10521000630AB500425595456306B50042559D4564
:105220006313B504625583250529BD992328B52844
:10523000F250216182804255ADB74255A145630EBF
:10524000B5004255B145630AB5004255A94563060C
:10525000B5004255B945E31DB5FC625583250529C6
:1052600093E50502E1B74255A145630EB5004255ED
:10527000B145630AB5004255A9456306B5004255DC
:10528000B945E317B5FA62558325052993E505016C
:1052900071BF797106D62AD42ED2D92311E9378568
:1052A00060001305A51685659385C546EF2010128D
:1052B000125511C5225583250529216639A022558D
:1052C00083250529056613060680D18D2328B52878
:1052D000B25045618280797106D62AD42ED24923F4
:1052E00011E9378560001305A51685659385F536A8
:1052F000EF20D00D1255C145636BB50037856000B6
:105300001305A516856593850537EF20300C2255CA
:105310008325852993E50501232CB52822550325EE
:10532000852B9255225641994D8D232CA62AB25099
:1053300045618280797106D62AD42ED232D00D23CF
:1053400011E9378560001305A516856593855554C9
:10535000EF20D0070255C145636BB500378560006B
:105360001305A516856593856554EF2030062255F3
:105370008325852993E50502232CB528125505C1FF
:1053800022550325052CFD7502569385F50FA2566F
:105390006D8D931586004D8D23A0A62C11A8225546
:1053A0000325052C8255225641994D8D2320A62C8C
:1053B000B25045618280797106D62AD4552111E90F
:1053C000378560001305A51685659385753AEF202E
:1053D000E07F22558325852A93E515002324B52AED
:1053E000B25045618280797106D62AD42ED28D2999
:1053F00011E9378560001305A51685659385655904
:10540000EF20C07C225592550326852A89058546C2
:10541000B395B600D18D2324B52AB2504561828060
:10542000397106DE2ADC2EDA32D81D2911E93785DA
:1054300060001305A5168565938545A2EF200079C8
:1054400052559305851A2ED609C55255A1456313A9
:10545000B5026255B2552E950841C165FD154256FB
:10546000E25632576D8D931506014D8DB385E600DA
:1054700088C131A06255B25542562E9510C1F250E6
:1054800021618280797106D62AD4B12909E937854C
:105490006000130525219305E056EF202073225567
:1054A0000C551166D18D0CD5B25045618280797151
:1054B00006D62AD40D2909E9378560001305252170
:1054C00093059032EF20807022554C5179767D16ED
:1054D000F18D4CD122554C510966D18D4CD1B25031
:1054E00045618280797106D62AD4F52E09E937857F
:1054F0006000130525219305F030EF20206D225523
:105500000C5579767D16F18D0CD522550C55096612
:10551000D18D0CD5B25045618280797106D62AD4DE
:10552000D92609E937856000130525219305303414
:10553000EF20C06922554C5161767D16F18D4CD11A
:1055400022554C512166D18D4CD1B250456182809B
:10555000797106D62AD4412E09E9378560001305F2
:1055600025219305B053EF20606622550C41BD996B
:105570000CC1B25045618280797106D62AD4A52625
:1055800009E9378560001305252193056050EF2058
:10559000E06322554C4193F5F5FD4CC122554C4139
:1055A00093E505024CC1B25045618280797106D6FF
:1055B0002AD4152E09E937856000130525219305A6
:1055C000F02BEF20A06022554C512166D18D4CD19B
:1055D00022554C511966D18D4CD122550C55096676
:1055E000D18D0CD5B25045618280797106D62AD40E
:1055F0002ED232D0CD2C09E9378560001305252144
:1056000093058017EF20805C225548519255225611
:1056100001994D8D48D2225508558255225601993F
:105620004D8D08D6B25045618280797106D62AD454
:105630005D2C09E937856000130525219305B01E0F
:10564000EF20C05822554C4193E535024CC1B25071
:1056500045618280797106D62AD42ED24D2409E97B
:10566000378560001305952493057015EF200056CB
:105670001255A255C8C5B25045618280797106D6CF
:105680002AD42ED2AD2C09E9378560001305952464
:105690009305B012EF2080531255A255C8C1B250E5
:1056A00045618280797106D62AD402D2892C09E913
:1056B00037856000130595249305F010EF20005105
:1056C00022550845E175FD1522566D8D2AD21365C8
:1056D000050208C622550C45BD990CC5B25045615E
:1056E0008280011173E0107C0D650C4193E515007B
:1056F0000CC1010073F0107C0561828079712AD69B
:1057000073E0107C325501C90D654C412166D18D85
:1057100011050CC139A00D654C4161767D16F18DE6
:105720004CC173F0107C45618280797106D62AD411
:105730002313B1022312C1022AD04845EFF04F844F
:105740000255484583554102EFF08F8702550849BD
:1057500083556102EFF0CF8202550849835541021B
:10576000EFF00F860255484983556102EFF04F81F3
:105770000255484983554102EFF08F84B25045618C
:10578000828039712ADE2AFC2EFA32F853F0A510F5
:10579000D31510C02317B1025370A610531610C0B2
:1057A0002316C1022319B5000315C102F255239A2D
:1057B000A5000315E1028315C10272562E9513054B
:1057C0001502231BA600216182807971AA852AD641
:1057D00009669306068005456388D5003255930512
:1057E00006C02D8D13351500456182807971AA851B
:1057F0002AD6356605456388C500325593050614DB
:105800002D8D13351500456182807971AA852AD6C0
:1058100039669306068005456383D502B2551306A3
:105820000688638EC5003256B96593860590630875
:10583000D6003255938505982D8D13351500456199
:1058400082807971AA852AD6396605456388C500A4
:105850003255930506082D8D13351500456182805C
:105860007971AA852AD6296605456387C504B2558C
:10587000130606406382C5043256AD6593860580E3
:10588000630CD6023256938505C06307B6023256C2
:10589000AD656303B602325693850540630EB600CC
:1058A0003256B165938605806308D60032559385DC
:1058B00005C02D8D13351500456182807971AA854B
:1058C0002AD61306C003054563EAC5003255930581
:1058D000000E6367B50032551335850F4561828030
:1058E0000145456182807971B74503009385054084
:1058F000A98D93B515002AD62E85456182807971D0
:10590000AA852AD615660545638DC500B2554106A0
:105910006389C50032559565938505022D8D133534
:1059200015004561828079712AD6B70510420CC1F5
:10593000325505462312C50032552313C500325592
:105940002314C50032552315C5003255BD46231614
:10595000D50032558D462307D5003255A307D50013
:105960003255B706204314C93255B706C84254C948
:1059700032553727663C130747D218CD3255379733
:105980003C3C1307972458CD325514D1325554D18D
:105990003255B7A685459386A6CD14D53255B77630
:1059A000133F9386C64B54D5325510D932553946DC
:1059B000231AC502325505661306469C231BC502F1
:1059C000325537969D3B1306B67010DD32552328AD
:1059D000C51E3255232E0502325537A6363D4116D7
:1059E00030C1325537468A35130686E870C13255C4
:1059F00030C532553706803F70C53255232805041F
:105A000032553736733F1306363370C932552CCDB5
:105A100032550345451D05890DC53255B7151D4540
:105A2000938535466CCD3255B70520412CD1325582
:105A30008355450307A0C1FB8720850307A181FC8F
:105A400025A03255B7159D44938535466CCD32550A
:105A5000B705A0412CD132558355450307A0C1FBA2
:105A600087A001FC07A141FCD3F105D053F0011040
:105A70005370101053702018272205063255B7B501
:105A80005138938575712CD53255B705A0416CD529
:105A90003255232805063255232A05063255B165AD
:105AA000938505352CDD3255232E050632553736C4
:105AB0000300130606452320C50832560965130561
:105AC00005712322A6083256B7160300938606D422
:105AD0002324D60832562326A60832562328060841
:105AE0003256232A06083256232C06083256232E15
