:0200000400609A
:040000006F0000018C
:1000100081400141814101428142014381430144C8
:100020008144014581450146814601478147014898
:10003000814801498149014A814A014B814B014C68
:10004000814C014D814D014E814E014F814FF9622E
:1000500073A002308542FE0263C3020001A0970232
:1000600000009382020973905230731030005300E5
:1000700000F0D30000F0530100F0D30100F0530270
:1000800000F0D30200F0530300F0D30300F0530458
:1000900000F0D30400F0530500F0D30500F0530640
:1000A00000F0D30600F0530700F0D30700F0530828
:1000B00000F0D30800F0530900F0D30900F0530A10
:1000C00000F0D30A00F0530B00F0D30B00F0530CF8
:1000D00000F0D30C00F0530D00F0D30D00F0530EE0
:1000E00000F0D30E00F0530F00F0D30F00F0970292
:1000F000000093822204739052309701A1FF9381F4
:10010000617017021A001302D2F3137202FC7325F6
:1001100040F185456370B500131615013292171131
:10012000A0FF130121EE6111EF50F07EEF50901E01
:1001300002906D7106C20AC40EC612C816CA1ACC45
:100140001ECE22D026D22AD42ED632D836DA3ADCA7
:100150003EDEC2C0C6C2CAC4CEC6D2C8D6CADACC77
:10016000DECEE2D0E6D2EAD4EED6F2D8F6DAFADC87
:10017000FEDE73252034F32510340A86EF50906D8F
:100180007310153489629382028073A0023092400A
:100190002241B2414242D2426243F243025492545B
:1001A0002255B2554256D2566257F25706489648E3
:1001B0002649B649464AD64A664BF64B065C965CDB
:1001C000265DB65D465ED65E665FF65F5161730082
:0201D0002030DD
:1001E00073750430828000007365043082807971F9
:1001F00006D62AD42AD2938581E02328B518125531
:10020000938501D22322B51812559385C1AF2324BB
:10021000B5181255C965938545162326B522138551
:1002200041DC93054004EF20F040925523A6A51829
:10023000B250456182805D7186C6A2C4A6C2A2E0AA
:1002400026FE2AD62AD4832545182ED28325851842
:100250002ED08544230F95022255A30295042255E2
:10026000230305042255230495042255A304950471
:100270002255230595042255A30305042255230284
:10028000950402550720451207A401F32255537027
:100290008010D31510C02310B502A25503A5C518B0
:1002A00083A58518EF3020371255B7D5CC3D9385FF
:1002B000D5CC2CC1225523229522225523249522C8
:1002C0002255230905042255A30805041255BD65CE
:1002D000938505A6231AB50812559965938505DC03
:1002E000231BB508225503258518EF70102B2255C6
:1002F00003258518EF50E03BA25503A5C52283A531
:100300008518EF707000A25503A5C52283C545046A
:10031000EF70B015A25503A5C52283C5D504EF70B3
:10032000B019A25503A5C52283A5851807A541F3D9
:10033000EF70D021A25503A5C52283A5851887A4F7
:1003400081F353859420EF701022A25503A5C52296
:1003500083A5851853859420EF7090220255485943
:1003600019EDA25503A5C52283C5E504EF709011D0
:10037000A25503A5C52283C5F504EF70700D125573
:10038000B7D54C3E1386D5CC30C5125570C5125525
:10039000B7057A432CC992553705A040E8C9925554
:1003A000B736734193863633B4CD9255B706AF4313
:1003B000F4CD9255A8D19255B73686359386D67B23
:1003C000F4D19255B7B6BA419386B6F8B4D59256E1
:1003D000B7057041ECD6925637C7AD421307B750F8
:1003E000B8DA925637075442F8DA92563707524233
:1003F000B8DE9256F0DE1256B70620412320D6080A
:1004000012569306401F2312D60812569306800CEC
:100410002313D60812562314D60812569306803E8C
:100420002315D60812561307007D2316E608125628
:10043000930780252317F60812562318E60812564C
:1004400015472319E6082256231C06021256231CC0
:10045000D6081256231DD60812568D46231ED608DE
:1004600012568566938606C0231FD6081256930639
:1004700000402310D60A02560720C601225627281C
:10048000061C02560720C6012256272A061C0256C1
:100490000720060222562726061C2256A301060420
:1004A0002256232496262256B166938636032312BB
:1004B000D6102256B706A041232CD60A2256232E48
:1004C000B60AA2553706404023A0C50CA2553706F0
:1004D000C84223A4C50CA25523A6C50CA255378635
:1004E000103F1306361C23A8C510A2553796A2410B
:1004F0001306B61F23AAC510A2553706C03F23A472
:10050000C512A25523A6A5122255B70500402328DF
:10051000B5122255B705803F232AB5122255B735AB
:10052000333F938535332322B5122255B7D5E53EA7
:100530009385A58F232CB5260255072045122255F9
:10054000272605262255B7B5A4399385E55B232ACE
:10055000B50C02550720451287A0C1F322555370F0
:100560001010D31510C02311B502225523200526E3
:1005700022559385C1E22328B522225582550325B1
:10058000052383C51501EF10202D2255938581E3A6
:10059000232AB522225582550325452383C505010B
:1005A000EF1020322255938541E4232CB5222255A9
:1005B0009385C1E4232EB5222255938541E523205E
:1005C000B52422559385C1E82328B5242255938567
:1005D00001EB232AB5242255938541ED2326B5242A
:1005E0002255938581EF2324B52422559385C1E5B7
:1005F000232CB524225503258525B7B5D1389385FD
:1006000075710CC1225503258525B705FA454CC1E6
:10061000225503258525B705C0414CD52255130524
:10062000851D07A501F487A541F453068420EF40FA
:10063000106E22559385C1F12322B524225503253E
:100640004524530500F0012A2255032545242ADCC0
:1006500002DA2AD8232205000255A25507200521D7
:1006600003A5452453150020F5282255825503255E
:10067000452407A50521F5280255A2550720851315
:100680008720451203A5452453751018D5282255F7
:100690000325C518EF30107622550325C51813849D
:1006A00081E0A285EF30B07703154400136505089B
:1006B0002312A400035544001375F5F92312A40076
:1006C0000355040141991365E5002318A40003555F
:1006D00004011375F5F3136505042318A4000355ED
:1006E00004011375F5CF136505102318A4000355F5
:1006F00044011375F5F313650504231AA40003558B
:1007000044011375F5EF231AA40003154401136582
:100710000520231AA400035544011375F5BF231ABD
:10072000A40022550325C5189D20230C94002255B2
:100730000325C518A285EF30306D3255EF1000301B
:1007400022550325C518A120F27406649644264458
:10075000B6406161828079712AD62AF42AD208E1F2
:100760004561828079712AD62AF42AD208E545614A
:10077000828079712AD62AF42AD248E5456182809E
:1007800079712AD62AF42AD208E9456182807971E2
:1007900006D62AD42AD208419145EF00B05412550A
:1007A00048419145EF001054125508459145EF001E
:1007B00070531255230A0502B250456182801971A7
:1007C00086DEA2DCA6DACAD8CED6D2D4A2F2A6F0B1
:1007D0002ADE2ADC832545182EDA452B625552562F
:1007E0000325C5188355E6090356060AEF40B04CA9
:1007F0000964930404801306E07E26858145C523A1
:10080000130404C01306007E22858145C92B85454B
:100810001306707D2285E1236255B7E5FD448D15F1
:10082000232AB51A6255B725FC4493852585232CC8
:10083000B51A6255B705FB44938595FC232EB51A6E
:100840006255B785FF3E9385959F2320B51C625561
:10085000B7B5FE3E938555DC2322B51C6255B735EE
:10086000003F938585DE2324B51C6255034555045E
:100870000589630E053C37857F3F1305E5CF2AD8F0
:100880006255B705033B9385851A2ED60720C51CF4
:1008900087A081F453F0001802F413052003971089
:1008A000A1FFE780E04E2685814501460D2B22857C
:1008B000814501462D238545228501460D2362553C
:1008C0000720451B8720C51C53701010272A051AC6
:1008D00062550720851B8720C51C53701010272CDC
:1008E000051A62550720C51B8720C51C53701010C0
:1008F000272E051A6255232C051C6255232E051C34
:1009000062552320051E62558325C5181305851DD4
:10091000AECEAACCAECA8841EF00104A537015D0B3
:1009200007A4C1F787A401F882E82317010409444A
:10093000A1A08355E104564513962500E64632955D
:1009400008418605B69503D6C5008145EF0050499C
:100950008355E104564513962500E6463295084135
:100960008605B69503D6C500A145EF00704703156F
:10097000E10405052317A1040355E1046343A4061C
:100980000355E104E645131625002E9607200600C0
:100990005310002082E45310802853009028C66032
:1009A00082E25370900082E053701010531600C022
:1009B00006052E952316C5000355E104E6450605F8
:1009C0002E950355C50083D56501E354B5F66645FC
:1009D0008355E1040316650186052E952316C5008F
:1009E00089BF62550325C5180D2923180104216507
:1009F0009309F5CF0965130405C007A481F4130911
:100A00000594930405D4130A007D11A862550325AB
:100A1000C51821210315010505052318A104035557
:100A2000010563CBA91A22858145A129228581452B
:100A300041216DDD625513058519AACE85454A858C
:100A4000EF00704FF645537015D082EC87A0450338
:100A50005370101027A2050085452685EF00B04D84
:100A6000F645537015D082EC87A0450353701010E3
:100A700027A40500A1452685EF00F04BF6455370ED
:100A800015D082EC87A045035370101027A60500EF
:100A900091454A85EF00304AF645537015D082ECF7
:100AA00087A085035370101027A80500954526855B
:100AB000EF007048F645537015D082EC87A085038F
:100AC0005370101027AA05009D454A85EF00B046D7
:100AD000F645537015D082EC87A085035370101033
:100AE00027AC0500AD452685EF00F044F645537070
:100AF00015D082EC87A0C5035370101027A0050005
:100B000003550105E34445F1625542708720451BBA
:100B10000721C519B27153701010D3703110537082
:100B20001000272A051A625542708720851B07216D
:100B3000051AB27153701010D37031105370100039
:100B4000272C051A625542708720C51B0721451ABC
:100B5000B27153701010D370311053701000272EE3
:100B6000051A6255072085195370041882EAC2706D
:100B70000721051C8721851A3272D3F0201053708B
:100B800030105370401053F000002720051C6255B0
:100B900042708720451C56618721C51A32725370F6
:100BA0001010D3703110D3F0401053701000272272
:100BB000051C625542708720851C56618721051BE4
:100BC000327253701010D3703110D3F04010537044
:100BD00010002724051C3DBD62550325C518453E60
:100BE0006255A302050462550720451BA27053708D
:100BF0001010272A051A62550720851BA270537012
:100C00001010272C051A62550720C51BA2705370BF
:100C10001010272E051A62550720451B531610C0C9
:100C200009641305048081455D2A62550720851BF0
:100C3000531610C0130404C0228581454D2262550D
:100C40000720C51B531610C085452285492A6255C9
:100C50000720451B87A0C1F43165D39500A07D1501
:100C600089E9E25507A0451B87A001F5D31510A01F
:100C700089C9E25503D60510698E9166558E239079
:100C8000C510E25507A0851B87A041F5D39500A0AC
:100C900089E9E25507A0851B87A081F5D31510A02F
:100CA00089C9E25503D60510698E9166558E239049
:100CB000C510E25507A0C51B87A0C1F5D39500A0BC
:100CC00089E9E25507A0C51B87A001F6D31510A03E
:100CD00089C9E25503D60510718D1166518D239097
:100CE000A51062550720051C87A041F6A165539603
:100CF00000A01385F5FF09EA62560720061C87A0AD
:100D000081F6531610A001CA625683560610E98E6A
:100D1000D58D2310B610E25507A0451C87A0C1F65B
:100D2000D39500A089E9E25507A0451C87A001F7EB
:100D3000D31510A089C9E25503D60510698EA166A6
:100D4000558E2390C510E25507A0851C87A041F75A
:100D5000D39500A089E9E25507A0851C87A081F7FB
:100D6000D31510A089C9E25503D60510718D2166EF
:100D7000518D2390A51086741674265AB65946597B
:100D8000D6546654F6500961828079712AD60325BB
:100D900045182AD40720C50602F2872085065395F8
:100DA00000A009C522550720850602F222551270BF
:100DB0008720050753701010D31500C02311B1020E
:100DC000056613060680B295231FB5080315210298
:100DD000A2553305A6402390A50A4561828039714A
:100DE00006DE2ADC2EDA32D8EF00E07A09E9378510
:100DF0006000130505E293058061EF6010365255DF
:100E0000E1453305B502E25542561305C50A2AD617
:100E10002E9510C1F25021618280797106D62AD4B4
:100E20002AD24845EF00100212554845EF00B004A1
:100E300012550849EF00100112550849EF00B003A0
:100E400012554849EF00100012554849EF00B00212
:100E5000125508419305E007EF001005125548416F
:100E60009305E007EF005004125508459305E0078D
:100E7000EF00900312558545230AB502B250456133
:100E80008280797106D62AD42ED2312709E9378596
:100E90006000130505E293057030EF60102C1255C9
:100EA000A25505463315A60088C9B2504561828017
:100EB000797106D62AD42ED2F92D09E9378560003A
:100EC000130505E29305702EEF6030292255484541
:100ED00092553355B5000589B250456182805D71E8
:100EE00086C6A2E42ADA2AD8832545182ED6832579
:100EF00085182ED48315051003166510D18D231384
:100F0000B51042558315051003164510F18D2311B8
:100F1000B510425532560325C5188355E6090356C8
:100F2000060AEF40405942550345F503058921C99A
:100F30004255035525103DC1425503450504058919
:100F40005DCD425523000504425585456CCD325593
:100F50000315A509C255239CA50242558315A50377
:100F60008505231DB502425503453504058945ED28
:100F70004255A30F05024255231C05026DA04255A0
:100F80000345050405894DC55255EF10803632558D
:100F900003158509C255239CA50259A8425503454E
:100FA0000504058951E542550355850351E1425534
:100FB00003451504058921C1425523010504425505
:100FC000230605042255072005074255272E05084C
:100FD0002255230C051C737004300100C25503A573
:100FE000C52283A58518EF6030327360043001009C
:100FF0004255A30005045255EF10802B15A8425509
:10100000035585030DE14255B2550355A50383D51C
:10101000C5096357B50042558545230AB50421A08B
:101020004255A30F050242550325C518EFF02FF6D0
:10103000425503454505058911CD42550325C5187F
:10104000212A425583550510BD892310B5104255FC
:10105000230A0504425503450504058915C942556F
:101060000325C518AAC2AAC003454503058909E599
:1010700042550325C518553342550720C509530469
:1010800000F0531504A009C94255B705803F01A8D7
:101090005255EF00100841A84255B70580BF6CD1EA
:1010A000C25503A5452407A5C509EFF0CFEA42556F
:1010B0000720450A8720850B53200020539500A068
:1010C0000DC14255A2550720850C87A04512032566
:1010D000452453751018EFF0AFEA42550720451329
:1010E0002DA04255A2550720C50C87A04512032507
:1010F000452453751018EFF0AFE842550720050A54
:10110000530504A04255072005130325C524D31019
:101110000020AAC286E002FE2ADC272E150072708B
:1011200062552720050242550345C504058901C5BE
:101130005255952801A8425585452306B5045255B8
:10114000EF00D00F5255EF10201D5255EF10E0293F
:101150002664B64061618280797106D62AD42AD28B
:101160004845CD2112554845392312550849D929FA
:1011700012550849092312554849E9211255484991
:10118000DD29125508419305E007392B12554841D6
:101190009305E007112B125508459305E007292315
:1011A000B2504561828039712AD62AD483254518E8
:1011B0002ED2684D8D456369B51432550345E5035C
:1011C00005895DC9225592550325052507A005030C
:1011D00087A045032ADE02FC06FA2AD8272005004C
:1011E0005270425527220500225592550325452568
:1011F00007A0850387A0C5032ADE02FC06FA2AD8C9
:10120000272005005270425527220500225592558D
:101210000325C52407A0850287A0C5022ADE02FC9B
:1012200006FA2AD8272005005270425527220500C9
:10123000225592550325852407A0050287A0450263
:101240002ADE02FC06FA2AD82720050052704255F1
:10125000272205002255032585242ADEB70520C153
:101260002EDC3706204132DA2AD84CCD5270425556
:1012700027200502216182802255925503250525EC
:1012800007A0050387A045032ADE02FC06FA2AD838
:1012900027200500527042552722050022559255FD
:1012A0000325452507A0850387A0C5032ADE02FC88
:1012B00006FA2AD827200500527042552722050039
:1012C000225592550325C52407A0850287A0C50293
:1012D0002ADE02FC06FA2AD8272005005270425561
:1012E00027220500225592550325852407A00502D3
:1012F00087A045022ADE02FC06FA2AD8272005002C
:1013000052704255272205002161828011714AC026
:101310004EC252C456C673290030F3291034732AC2
:10132000007CF32A107C4AC84ECA52CC56CE0249E1
:101330009249224AB24A73F0107C86DF96DD9ADB2E
:101340009ED9A2D7A6D5AAD3AED1B2CFB6CDBACBAD
:10135000BEC9C2C7C6C5CAC3F2C176DF7ADD7EDBAD
:1013600002F906F70AF50EF312F116EF1AED1EEB6D
:101370002AE92EE732E536E33AE1BEFEC2FCC6FAC0
:10138000F2F8F6F6FAF4FEF2A2F0A6EECAECCEEA15
:10139000D2E8D6E6DAE4DEE2E2E066FE6AFC6EFA65
:1013A00049658325051085052320B510A309010291
:1013B000114937450300130405404965930445105E
:1013C000034531036342A90222854D288345310339
:1013D000A6952380A500030531030505A309A102F5
:1013E00003453103E352A9FED27D627DF27C066C97
:1013F000966B266BB66A466AD6696669F6640674A9
:10140000967F267FB67E467ED6786678F6770A6720
:101410009A662A66BA654A65DA636A63FA620A728C
:101420009A712A71BA704A70DA5F6A5FFA5E0E4E7C
:101430001E49AE483E48CE475E47EE467E468E5534
:101440001E55AE543E54CE535E53EE52FE504AC02B
:101450004EC252C456C64249D249624AF24A7390B9
:101460001A7C73100A7C7390193473100930B24AD5
:10147000224A92490249116173002030797106D6DF
:101480002AD2C52C09E937856000130505E99305C3
:101490009049EF60804C1255CD2C01E91255292E50
:1014A000137505086DD902D431A01255484D137536
:1014B000F50F2AD42255B2504561828079712AD61F
:1014C000956523A2A51045618280397106DE2ADC6C
:1014D000231BB1022AD88A052E9508490126F2500D
:1014E00021618280797106D62AD42ED2B92011E9E1
:1014F00037856000130585DE85659385D52CEF6003
:10150000C04503554102137515F811C937856000B0
:10151000130585DE85659385E52CEF60004473E057
:10152000107C225592550326C526D18D2326B5263B
:1015300073F0107CB250456182807971AA852AD6F9
:10154000296605456387C504B255130606406382C4
:10155000C5043256AD6593860580630CD6023256BB
:10156000938505C06307B6023256AD656303B602C4
:10157000325693850540630EB6003256B1659386A8
:1015800005806308D6003255938505C02D8D13352F
:101590001500456182807971AA852AD6096693066D
:1015A000068005456388D5003255930506C02D8D0C
:1015B0001335150045618280797106D62AD4B53F6E
:1015C00011E937856000130585DE8565938595945F
:1015D000EF60A03822550325C518B25045618280BE
:1015E000397106DE2ADC2EDA32D8813F11E93785DF
:1015F0006000130585DE8565938545A2EF60E035C3
:1016000052559305851A2ED609C55255A145631327
:10161000B5026255B2552E950841C165FD15425679
:10162000E25632576D8D931506014D8DB385E60058
:1016300088C131A06255B25542562E9510C1F25064
:1016400021618280797106D62AD4552809E9378527
:101650006000130575E59305502EEF60003073E0D0
:10166000107C22554C4593E525004CC573F0107C49
:10167000B25045618280797106D62AD4492009E9A1
:1016800037856000130575E593053030EF60E02C79
:1016900073E0107C22554C4593E505204CC573F052
:1016A000107CB25045618280797106D62AD42ED240
:1016B000693511E937856000130585DE85659385F9
:1016C000B525EF608029125593050008636BB500BE
:1016D00037856000130585DE85659385C525EF6038
:1016E000C02773E0107C225592550326C525D18D65
:1016F000232EB52473F0107CB2504561828079713D
:10170000AA852AD639669306068005456383D502E5
:10171000B25513060688638EC5003256B9659386A6
:1017200005906308D6003255938505982D8D1335A5
:10173000150045618280797106D62AD40966930620
:1017400006942ED2630FD5002255930506D4630A62
:10175000B50037856000130505E29305A036EF60FC
:10176000C01F1255A2550A052E950841B250456179
:1017700082807971B745030093850540A98D93B5A3
:1017800015002AD62E8545618280797106D62AD425
:10179000CD3709E937856000130505E99305703BEE
:1017A000EF60A01B225508558965938505F06D8D66
:1017B0002181B25045618280797106D62AD4553F85
:1017C00009E937856000130505E99305A047EF6037
:1017D000C01822554849B25045618280797106D6B9
:1017E0002AD4392809E937856000130575EC93057B
:1017F0000014EF60801622550841B2504561828086
:101800007971AA852AD615660545638DC500B2553E
:1018100041066389C50032559565938505022D8D76
:10182000133515004561828079712AD62AD4086162
:101830004561828079712AD62AD4086945618280FF
:1018400079712AD62AD408654561828079712AD6B1
:101850002AD4486545618280397106DE2ADC0D454F
:10186000231BB102639DA50037B5AA3E1305B5AA97
:101870002AD837D5133F1305A5D32AD619A002D8E5
:1018800002D662554275B2750128625583456103DF
:101890000520F2502161828079712AD62AF42EF235
:1018A0002AD008E112700255272205004561828086
:1018B00079712AD6A305B1022AD22304B500456165
:1018C0008280397106DE2ADC0D45231BB102639745
:1018D000A50037B5AA3E1305B5AA01A803556103B3
:1018E0008945631BB5003705803F2AD837D5133F9C
:1018F0001305A5D32AD619A002D802D6625542757F
:10190000B275593F6255834561035D37F2502161DD
:101910008280397106DE2AD62AD40325C522EF60DB
:10192000402122550325C522EF60002222550325C0
:1019300045242ADC02DA2AD8232205002255032571
:101940004524530500F0652822550325C5187D2838
:101950002255032505252ADC02DA2AD8232805008A
:101960002255032545252ADC02DA2AD8232805003A
:1019700022550325C5242ADC02DA2AD823280500AB
:101980002255032505252ADC02DA2AD8232605005C
:101990002255032545252ADC02DA2AD8232605000C
:1019A00022550325C5242ADC02DA2AD8232605007D
:1019B0002255232C05162255232E05162255232E9B
:1019C00005102255232005122255232A050E2255E3
:1019D000231F050022552315050222552316050253
:1019E0002255231805022255231705022255231AD2
:1019F0000502225523190502F25021618280797176
:101A00002AD62AF42AD208E145618280797106D665
:101A10002AD42AD208419145EF001041125548417D
:101A20009145EF007040125508459145EF00D03FB9
:101A30001255230A0502B25045618280757106C7AE
:101A4000AADCAADA03258518AAD80720850482F61D
:101A50008720C50486F4072145048AF253700118D3
:101A600082F05370111882EE0720050682EC831570
:101A7000A500072045124655D3F005D053F00018B5
:101A800082EA072085058720C5054655537010104A
:101A900082E88315C500072045124655D3F005D0CE
:101AA00053F0001882E607204506465582E40720D9
:101AB000850682E23670E660067187A101FE5662F5
:101AC0005370101082E05370311053704010A670A4
:101AD000666102FE76605662D3F0201006FC5370F9
:101AE000301053704010465502FA02D802D6072033
:101AF000850687A041FE530510A005C9465507205D
:101B0000050587A081FE0721052153701010537031
:101B1000201802F80720050587A0C1FE07214513FC
:101B2000537010105370201005A0266096606661F7
:101B3000B661D3701010D370111806F8D37031103D
:101B40005370001053F0001802F656550325052572
:101B50002AC5B7658F3D938595C22EC337C6753CA0
:101B60001306F62832C1AADE0CC10A607655272278
:101B700005005655032505252AC502C32AC123267B
:101B800005005655032505252AC502C32AC1232869
:101B900005005655032505252AC502C32AC1232A57
:101BA00005005655032505252AC502C32AC1232C45
:101BB00005005655466003250525D31000202AC58B
:101BC00006E302E1AADE272E15000A6076552720DB
:101BD00005025655032545252AC52EC332C1AADE66
:101BE0000CC10A6076552722050056550325452568
:101BF0002AC502C32AC123260500565503254525BB
:101C00002AC502C32AC123280500565503254525A8
:101C10002AC502C32AC1232A050056550325452596
:101C20002AC502C32AC1232C050056550325452584
:101C30002AC502C302C1AADE232E05000A6076551A
:101C40002720050256550325C5242AC5B7A5193FE7
:101C50009385A5992EC337D6233C1306A67032C1AF
:101C6000AADE0CC10A6076552722050056550325C9
:101C7000C5242AC502C32AC12326050056550325BB
:101C8000C5242AC502C32AC12328050056550325A9
:101C9000C5242AC502C32AC1232A05005655032597
:101CA000C5242AC502C32AC1232C05004655D65592
:101CB0000720050503A5C524D31000202AC506E387
:101CC00002E1AADE272E15000A60765527200502BC
:101CD0005655032585242AC5B705A0402EC337369F
:101CE00086351306D67B32C1AADE0CC10A60765552
:101CF000272205005655032585242AC502C32AC17B
:101D0000232605005655032585242AC502C32AC16A
:101D1000232805005655032585242AC502C32AC158
:101D2000232A05005655032585242AC502C32AC146
:101D3000232C05005655032585242AC5B705C0C0A8
:101D40002EC33706C04032C1AADE4CCD0A6076559C
:101D50002720050266552120BA40496182803971E9
:101D60002ADA2AD8832545182ED6032505252ADE0A
:101D70002ADC0720050027A8050242550325052572
:101D80002ADE2ADC072045003255272A0502425563
:101D9000032545252ADE2ADC072005003255272C9D
:101DA00005024255032545252ADE2ADC0720450089
:101DB0003255272E050242550325C5242ADE2ADC8A
:101DC0000720050032552724050242550325C52466
:101DD0002ADE2ADC07204500325527260502425517
:101DE000032585242ADE2ADC07200500325527201A
:101DF00005024255032585242ADE2ADC07204500FA
:101E00003255272205022161828079712AD62AD48F
:101E1000231301020945C165FD15035661026340A4
:101E2000C50403566102A25606063696231806001C
:101E300003566102A25606063696231BB6000356C9
:101E40006102A25606063696231E0600031661029C
:101E500005062313C10203566102E354C5FC225553
:101E600085452301B50245618280797106D62AD461
:101E70002AD2832545182ED0035585036358A00028
:101E8000125583158503FD15231CB5021255034514
:101E90000505058931C5125503452505058911C577
:101EA00012558545A308B50425A8125503556503A9
:101EB00001C9125583156503FD15231BB5020DA03D
:101EC00012550325C522EF509049630E051A02559D
:101ED000031545099255239BA5021255A308050435
:101EE000125582550720851987A04507539500A0F4
:101EF0000DC1125582550355450283D5450863DD52
:101F0000A50212558315051093E515002310B51091
:101F100015A8125582550720851987A085075315E6
:101F200010A00DC11255035545026300051412554A
:101F300083154502FD1529A0125583154502850517
:101F40002312B502125582550720851987A0C507AF
:101F5000531510A00DC1125582550355650283D546
:101F6000450863DCA50212558315051093E525008D
:101F70002310B5100DA8125582550720851987A08A
:101F80000508539500A005C11255035565026DC59E
:101F9000125583156502FD1529A01255831565029A
:101FA00085052313B5021255684D9145631CB50A8A
:101FB000125582550720852C87A00505539500A052
:101FC00005C5125582550355A50283D5650863D70B
:101FD000A50212558315051093E505042310B510CD
:101FE0001255231505020DA012550355A502635D78
:101FF000A00012558315A502FD1529A012558315C1
:10200000A50285052315B502125582550720450BFB
:1020100087A0C505539500A015C5125582550355D7
:10202000250383D5E50863D9A5021255831505104C
:10203000056613060680D18D2310B510125523199D
:1020400005020DA0125503552503635DA00012552E
:1020500083152503FD1529A0125583152503850534
:102060002319B502B250456182801255835505107F
:10207000F9992310B510F9B5125583550510F59946
:102080002310B5100DB70255031565099255239B12
:10209000A50239B5397106DE2ADC2ADA0345550571
:1020A00005896309051A5255A30A050452550720EC
:1020B0008528872005275370101053750058532525
:1020C000A5A06309051A5255272AA52852550720AD
:1020D000C5288720052753701010537500585325C5
:1020E000A5A0630E05185255272CA5285255072088
:1020F0000529872005275370101053750058532564
:10210000A5A0630305185255272EA5285255072070
:10211000C52A872045275370101053750058532542
:10212000A5A0630805165255272CA52A525507204D
:10213000052B8720452753701010537500585325E1
:10214000A5A0630D05145255272EA52A5255072028
:10215000452B872045275370101053750058532581
:10216000A5A06302051452552720A52C525507201F
:10217000452987208529539500A0525507204529D8
:1021800002F80720852902F652550720C529C2709A
:10219000539500A009C552550720C52911A04270CA
:1021A000525502F80720C529B270531510A009C571
:1021B00052550720C52911A03270525502F607204A
:1021C000C5268720450B5370101802F48720C526BA
:1021D000539500A009C552550720C52611A02270AD
:1021E000525502F4D31510C0231EB5245255835501
:1021F000C52507A001FFD3F015D05370101827286C
:102200000526525507200527272A05264270B27059
:102210005255537110085370100053700118272243
:10222000052C5255072045298720852B0721852914
:102230008721C52B0722C5298722052C5370101032
:10224000D370311053701000D370521053701000BF
:102250002724052C52550720C5138720450B07213D
:10226000852753701010537020102726052CF2502C
:102270002161828053050020EF509033A9B55305AA
:102280000020EF50F03285B553050020EF5050325A
:102290009DBD53050020EF50B03171B553050020AE
:1022A000EF5010314DB553050020EF50703065BD33
:1022B00079712AD62AD46C4D114563E5A500A25543
:1022C000E8CD21A022558D456CCD225585452CCDDC
:1022D00022552320050A22552300B5042255231F29
:1022E000050022558315C5038505231EB5024561EA
:1022F000828079712AD62AD42320050A2255230008
:1023000005042255232C0504225591456CCD2255F8
:10231000231D050245618280397106DE22DC22FA26
:102320002AD82AD6832545182ED4034505040589C5
:1023300045C932550325C522EF50D00EB945631C5F
:10234000B504325503451505058931C532550325B8
:10235000C5228545EF50B0143255A2550325C5223C
:10236000A861EF50B01B22550720C501872045000A
:102370005370100802F28720450007A10101532085
:102380000020D3F02010531510A039C93255032571
:10239000C5228545A1A032550325C522530400F06E
:1023A00053058420EF50901732550325C52253055D
:1023B0008420EF50301532550324C5222285EF507A
:1023C000B0032285EF50901232550325C522814576
:1023D000EF50F00C32550325C5228145EF50700FA8
:1023E00052746254F25021618280797106D62AD4E7
:1023F0002AD2832545182ED00325C522EF509002FE
:10240000925523A2A52212550325C522EF50F002B2
:10241000925523A4A52212550325C522EF50607CB6
:10242000025508E112550325C522EF50E07C025504
:1024300048E112550325C522EF508076025508E584
:1024400012550325C522EF500077025548E5125575
:102450000325C522EF500072025548E912550325A5
:10246000C522EF50207107A041010255537005109D
:102470002728050012550325C522EF50007102558B
:1024800068E112550325C522EF504074025508ED4E
:1024900012550325C522EF5060681255272EA5124C
:1024A00012550325C522EF508076025548ED12558E
:1024B000072085168720C51653700010D3F0101022
:1024C00053701000537500585325A5A015C9125517
:1024D0002724A5101255072085148720C514537092
:1024E0000010D3F01010537010005375005853258E
:1024F000A5A001CD12552726A510B25045618280B6
:1025000053050020EF50D00AD9B753050020EF50F3
:10251000300ACDB779712AD62AD40720C519872069
:10252000C5275370001053F00000272E05262255B2
:102530000720051A872005285370001053F000006B
:102540002720052822550720451A87204528537043
:10255000001053F000002722052822550720851A75
:102560008720052A5370001053F000002720052A09
:1025700022550720C51A8720452A5370001053F0B2
:1025800000002722052A22550720051B8720852ABF
:102590005370001053F000002724052A225583159C
:1025A000E5258505231FB52422558355E5250355CB
:1025B000C5256359B50622550720C52727240528B8
:1025C00022550720052827260528225507204528BB
:1025D000272805282255232E0526225523200528A5
:1025E00022552322052822550720052A2726052AB9
:1025F00022550720452A2728052A22550720852A03
:10260000272A052A22552320052A22552322052A76
:1026100022552324052A2255231F052422558545AA
:10262000A30AB50445618280797106D62AD42ED2D8
:10263000B92011E937856000130585DE856593852E
:10264000D52CEF50803103554102137515F811C98F
:1026500037856000130585DE85659385E52CEF5091
:10266000C02F73E0107C225592550326C526D18DCC
:102670002326B52673F0107CB250456182807971B3
:10268000AA852AD6296605456387C504B25513066F
:1026900006406382C5043256AD6593860580630C9F
:1026A000D6023256938505C06307B6023256AD6531
:1026B0006303B602325693850540630EB600325668
:1026C000B165938605806308D6003255938505C0B1
:1026D0002D8D1335150045618280797106D62AD477
:1026E0002AD23920125521281255B25045618280D4
:1026F00079712AD62AD42306050045618280797132
:102700002AD62AD4A306050045618280397106DEE7
:1027100022DC26DA4AD82AD62AD423120102084516
:10272000854545202255084585456128231301022A
:10273000231201021165791583554102634CB500DE
:1027400001008315410285052312B1028355410220
:10275000E358B5FE41651304F5FF9304803E054937
:10276000325581457D2093750540014589C5035546
:1027700061021325853E11CD031561020505B37570
:1027800085002313A102E3CD95FC2255A306250164
:10279000C1BF231201022165791583554102634CA3
:1027A000B50001008315410285052312B10283554E
:1027B0004102E358B5FE4259D2546254F2502161AD
:1027C0008280397106DE2ADC2EDA712909E9378523
:1027D00060001305B5F39305201CEF5000186255F7
:1027E00093551500C19937460300130606E0B295CC
:1027F00052562ED885453395A5002AD609C632559E
:10280000C255C8C121A03255C25588C5F2502161B8
:1028100082805D7186C6A2C4A6C2AAC02EDE2ADC52
:10282000231901022317010202D405450146E922BA
:10283000231BA102231A01021D4583554103634C4A
:10284000B5000100831541038505231AB1028355A4
:102850004103E358B5FE625508416D2A62550841AF
:10286000ED22231A01027D4583554103634CB500D7
:102870000100831541038505231AB10283554103E5
:10288000E358B5FE6255084183556103CD2A416581
:102890001304F5FF8544225515E162550841192CB2
:1028A0002AD40315E1020505B37585002317A1029B
:1028B000E3C385FE625523069500F1BF41657D1592
:1028C0002317A102231A01021305F00F83554103B8
:1028D000634CB5000100831541038505231AB1023D
:1028E00083554103E358B5FE62550841DD2A23189C
:1028F000A102035501031375F57F96442644B640A3
:102900006161828079712AD62ED42AD20CC14561A8
:10291000828079712AD62ED42AD24CC14561828018
:1029200079712AD62ED42AD20CC54561828039719C
:1029300006DE22DC2ADA2ED8239E0500425523101B
:1029400005024255A30105024255231D05004255CB
:10295000231F05004255230105024255A30C050023
:102960004255230C0500525502D681455D35C255AE
:102970002315A1022390A5005255056493050480F8
:102980002ED6413DC2552315A1022391A5005255D3
:1029900022D68565BD3DC2552315A1022392A5000F
:1029A00052550964930504802ED6A535C2552315CA
:1029B000A1022394A500525522D68965993DC2559E
:1029C0002315A1022396A50052550D64930504809A
:1029D0002ED68135C2552315A1022398A500525544
:1029E00022D68D653D35C2552315A102239AA50037
:1029F0006254F2502161828079712AD62ED44D8D95
:102A00009375F67F4D8DC165FD156D8D2313C10244
:102A100045618280797106D62AD49D2C09E93785D3
:102A20006000130535F79305B023EF40107322556E
:102A30004C5179767D16F18D4CD122554C51096659
:102A4000D18D4CD1B25045618280797106D62AD49D
:102A5000812409E937856000130535F79305B01E19
:102A6000EF40B06F22550C511966D18D0CD1225513
:102A70004C510966D18D4CD1B2504561828079713B
:102A800006D62AD42313B102212409E93785600030
:102A9000130535F79305B038EF40306C22550845E3
:102AA0001375050265FD03556102A25588CDB2502C
:102AB00045618280797106D62AD4D92A09E93785F9
:102AC0006000130535F79305D02BEF4010692255B0
:102AD00048518965938505F06D8D2181B25045611E
:102AE0008280797106D62AD4652209E9378560008B
:102AF000130535F79305B031EF403066225548494C
:102B0000C165FD156D8DB25045618280397106DE5B
:102B10002ADC2EDA2319C1022AD60145F13D2315FC
:102B2000A102231401021D4583558102634CB500A7
:102B300001008315810285052314B10283558102AA
:102B4000E358B5FE32550841F13532550841F53D9F
:102B5000231401021305F00383558102634CB50071
:102B600001008315810285052314B102835581027A
:102B7000E358B5FE325508418355A10209372314A5
:102B800001021305F00F83558102634CB50001006B
:102B90008315810285052314B10283558102E35810
:102BA000B5FEF25021618280397106DE22DC2ADA1C
:102BB0002ED803C58501058941C1425585652ED6AC
:102BC00083554500525513F6F57F2315C1028565DF
:102BD000353F42550964930504802ED6035685007F
:102BE00052551376F67F2315C1020D37425522D672
:102BF0008355C500525513F6F57F2315C10289652B
:102C0000313742550D64930504802ED603560501D5
:102C100052551376F67F2315C102CD3D425522D67B
:102C200083554501525513F6F57F2315C1028D6575
:102C3000F13D4255230C0500425503452502058907
:102C400019CD42558355A501AE052ED60356E50193
:102C500052552315C1025D3D4255230105026254C0
:102C6000F250216182807971AA852AD61306C003A9
:102C7000054563EAC50032559305000E6367B5004C
:102C800032551335850F456182800145456182804B
:102C90007971AA852AD6396605456388C5003255FB
:102CA000930506082D8D13351500456182807971D5
:102CB00006D6EFD0EFD2218913351500B250456109
:102CC0008280011173E0107C37950300832505E5B0
:102CD00093E585062328B5E473F0107C05618280B6
:102CE000797106D62AD405453D203715D000130545
:102CF00015C0EF3090543705220013053510EF3022
:102D0000D0530965130505C0814529280545AD2027
:102D1000B2504561828079712AD6956523A2A510AB
:102D200045618280397106DE2ADC2EDAEF20B0029E
:102D300009E937856000130505E293050069EF4056
:102D4000D0415255E25513161500719AB295F1050E
:102D50002ED805890E052AD673E0107C4255B2554F
:102D6000104193060002B395B600D18D0CC173F0EB
:102D7000107CF2502161828079712AD6B71510003B
:102D800003A605C1518D23A8A5C045618280797134
:102D90002AD645618280797106D62AD42120B25084
:102DA00045618280797106D6EFD00FC42189133531
:102DB0001500B25045618280797106D62AD42AD294
:102DC0002AD00137025589651386058010C1025546
:102DD000138605C050C102551386059410C50255CF
:102DE000938505D44CC50255B7450300938505402E
:102DF0004CCD02558D650CD502551386051850D55E
:102E000002551386052010D902551386052850D97E
:102E10000255938505300CDD025595650CC90255A8
:102E20001386050150C90255938505020CCDB25099
:102E300045618280397106DE22DC2AD81305300410
:102E40002ED66364B50002DAB1A842552AD42AD23C
:102E5000A9650CC11255938505404CC11255AD654D
:102E6000938505800CC512553964930504804CC5C3
:102E700012551306049010C912554CC91255B56568
:102E80000CCD125513054502EFF03F85925588D1C0
:102E9000125540CD1255F5450CDD1255ED454CDD72
:102EA00022552ADA05452AD052556254F250216142
:102EB0008280797106D62AD4DD3B22551D20225509
:102EC000A521225507A58101EF0040642255EF009E
:102ED00040682255EF00406BEF00A072B250456190
:102EE00082805D7186C6A2C4A6C2CAC04EDE52DC14
:102EF00056DA5AD82AD637040C0013051400EF30DE
:102F0000701985450145EF30805D01458145EF3001
:102F1000C07313051420EF30F01705458545EF30D9
:102F2000005C05458145EF30407213051440EF30D9
:102F3000701609458545EF30805A09458145EF30C7
:102F4000C07013051460EF30F0140D458545EF3067
:102F500000590D458145EF30406F37140C001305C3
:102F60001480EF30301311458545EF30405711453F
:102F70008145EF30806D37290C001305D9E0EF3023
:102F800070113D458545EF3080553D458145EF3019
:102F9000C06B130574A0EF30F00F15458545EF3079
:102FA000005415458145EF30406A37150C00EF306D
:102FB000700E21458545EF10607B21458545EF303A
:102FC000005221458545EF30406813057420EF30ED
:102FD000700C25458545EF30805025458545EF30FF
:102FE000C06613057440EF30F00A29458145EF3083
:102FF000004F29458545EF3040651305D460EF301B
:1030000070092D458545EF30804D2D458545EF30C4
:10301000C063B719100013850960EF30B0076D4524
:103020008145EF10A0746D458545EF30404B6D45EF
:103030008145EF308061372A100013050AA0EF3078
:10304000700575458545EF10607275458545EF3013
:10305000004975458145EF30405FB71A8C001385F4
:103060000A40EF3030031305A0028145EF302047BE
:103070001305A0028145EF30405D370B8C0013052E
:103080000B40EF303001130520028145EF30204521
:10309000130520028145EF30405B13051B60EF30C4
:1030A000607F130530028545EF30205A130530024A
:1030B0008D45EF3020641305E0028145EF3020425A
:1030C0001305E0028145EF30E0621305E002A145FF
:1030D000EF30C04921459145EF10606E2145EF105A
:1030E000407037258C0013055580EF30A07A13050A
:1030F000C0028145EF30A03E1305C0028145EF308C
:10310000C05413859AA0EF30E07813055002814532
:10311000EF30E03C130550028145EF30005313853A
:10312000AA60EF3020771305B0028145EF30203BD5
:103130001305B0028145EF304051B70410001385EC
:103140000460EF3020754D458545EF1020624D45F8
:103150008545EF30C0384D458145EF30004F1305B0
:103160001980EF30207331458545EF3040373145C8
:103170008145EF30804D130519A0EF30A071354522
:103180008545EF30C03535458145EF30004C13059E
:1031900014C0EF30207019458545EF304034194593
:1031A0008145EF30804A130514E0EF30A06E1D45D5
:1031B0008545EF30C0321D458145EF30004913850C
:1031C0005400EF30206D41458545EF304031414599
:1031D0008145EF30804713855420EF30A06B454583
:1031E0008545EF30C02F45458145EF30004613053A
:1031F0003B20EF30206A130510028545EF30202E6A
:10320000130510028145EF30404437058C00EF3044
:103210006068130500028545EF1040551305000254
:103220008545EF30C02B130500028545EF30E041A6
:10323000138569C0EF30006659458545EF30202A77
:1032400059458545EF30604013053AE0EF30806422
:103250007D458145EF30A0287D458545EF30E03E36
:1032600013053AC0EF30006379458545EF302027DC
:1032700079458545EF30603D37151000EF308061AE
:1032800061458545EF10804E61458545EF3020252D
:1032900061458145EF30603B13850A20EF30805F48
:1032A000130590028145EF3080231305900281457C
:1032B000EF30A0391305A9C0EF30C05D3945814515
:1032C000EF30E02139458145EF3020381385292042
:1032D000EF30405C65458145EF30602065458145B4
:1032E000EF30A03613852940EF30C05A694581453B
:1032F000EF30E01E69458145EF30203513850440ED
:10330000EF30405949458145EF30601D49458145C1
:10331000EF30A033425BD25A625AF25906499644C2
:103320002644B64061618280397106DE22DC26DAED
:103330002AD82AD61305400697F0A0FFE78040A5BB
:10334000EF001053896403A50480A1654D8D23A06F
:10335000A48073E0107C3795030085454CC173F061
:10336000107C377518001305159F97F0A0FFE780B4
:1033700020A2325508419145EF0010513255484185
:103380009145EF007050325508419145EF00705360
:10339000325548419145EF00D05232550841C14560
:1033A000EF00D05532554841C145EF0030553255F8
:1033B0000841EF00505832554841EF00D05713856F
:1033C000047197F0A0FFE780A09C138404C03546E9
:1033D00022858145EF007059938404808945154604
:1033E000AD4621472685EF00705E8D451546AD46FA
:1033F00021472685EF00905D85451546AD4621475E
:103400002685EF00B05C8945154691462147228507
:10341000EF00D05B8D451546914621472285EF0090
:10342000F05A85451546914621472285EF00105AEE
:10343000A14515469D4621472285EF003059A545F7
:1034400015469D4621472285EF005058A94515464F
:103450009D4621472285EF007057954515469946B0
:1034600021472685EF0090569945154699462147F4
:103470002685EF00B055914515469946214726858A
:10348000EF00D05499451546954621472285EF0017
:10349000F0539D451546954621472285EF00105370
:1034A00095451546954621472285EF0030529D45AA
:1034B0001546894621472685EF005051A1451546FE
:1034C000894621472685EF007050A5451546894657
:1034D00021472685EF00904FAD4515469946214777
:1034E0002285EF00B04EB145154699462147228509
:1034F000EF00D04DB5451546994621472285EF008E
:10350000F04CD2546254F25021618280397106DE4F
:1035100007A0C1012ADC2AFA2AD85370A018D315B3
:1035200010C02ED608498145EF10906B42550849CE
:10353000856593850580EF20F05C42550849B255BA
:10354000EF10906C42550849EF10906EF2502161D7
:103550008280797106D62AD42AD2084D8145EF108F
:1035600030681255084D856593850580EF20905988
:103570001255084DFD55EF1030691255084DEF10EA
:10358000306BB25045618280797106D62AD42AD236
:10359000484D9305F00FEF3040641255484DEF1041
:1035A00030471255484DEF1050491255484DEF1015
:1035B000304C1255484DEF10104F1255484DB7750D
:1035C00089099385058037160E009D46EF30E0503F
:1035D0001255484DEF1090501255484DEF10905233
:1035E0001255484DEF1050551255484D154681451E
:1035F000EF1070581255484DEF10F05BB250456116
:103600008280797106D6EF1090660545EF10D0677D
:10361000B25045618280797106D62AD42ED283C5F4
:10362000050125209255225583C5150105282255EF
:103630003D2822556D2622551D2B2255FD2B225546
:10364000EF002066B2504561828079712AD6231539
:10365000B1022AD22310B5044561828079712AD63D
:103660002315B1022AD22311B50445618280397134
:1036700006DE22DC26DA2AD82AD60965130505F4E7
:103680002314A10205452313A10205651305052096
:10369000EF10E01A325508419145EF10601E325587
:1036A00048419145EF10C01D325508459145EF1036
:1036B000201D23150102894441651304F5FF0355BC
:1036C000A10263CDA4200355A102B2550A052E958F
:1036D00008418945EF1040200355A102B2550A0563
:1036E0002E950841EF1060220355A102B2550A053C
:1036F0002E9508418545EF10E0230355A102B255F0
:103700000A052E9508418545EF1060260355A10254
:10371000B2550A052E95084181450146EF10C02992
:103720000355A102B2550A052E9508418545EF10B3
:10373000E02C0355A102B2550A052E950841894592
:10374000EF2010420355A102B2550A052E950841FB
:103750008145EF10C02E0355A102B2550A052E95E2
:1037600008418145EF10A0310355A102B2550A0569
:103770002E9508418145EF1020330355A102B25523
:103780000A052E95084181450146EF10C0340355C6
:10379000A102B2550A052E950841A1450146EF1038
:1037A00080330355A102B2550A052E950841D14533
:1037B0000146EF1040320355A102B2550A052E957D
:1037C0000841F1450146EF1000310355A102B25501
:1037D0000A052E950841094691468145EF10E038CB
:1037E0000355A102B2550A052E950841094689469E
:1037F0008145EF1080370355A102B2550A052E9579
:103800000841054699468145EF1020360355A1022F
:10381000B2550A052E950841054681458146EF10AF
:10382000C0340355A102B2550A052E9508418545BD
:103830000546EF10C03B0355A102B2550A052E956F
:10384000084105468145EF10803A0355A102B25563
:103850000A052E9508418145EF10E03E0355A1026F
:10386000B2550A052E95084185450146EF10E04204
:103870000355A102B2550A052E950841054681451A
:10388000EF10A0410355A102B2550A052E9508413B
:10389000A145EF1080450355A102B2550A052E95AA
:1038A0000841A145EF10C0480355A102B2550A05D1
:1038B0002E950841EF10204C0355A102B2550A0580
:1038C0002E950841A285EF10C04D0315A1020505F4
:1038D0002315A1020355A102E3D7A4DE3255084106
:1038E0008545EF10E04F32550841EF10E05C32554E
:1038F000084129468145EF10405F32550841814516
:10390000EF10E07103556102C1456342B5023255C3
:103910000841BD45EF10E074325508413D468145F0
:10392000EF10007A3255084185453D46B9A0035550
:1039300061026355A0023255084183556102EF10C0
:10394000407232550841035661028145EF104077BD
:103950003255084103566102854505A0325508419C
:103960008545EF1000703255084105468145EF103E
:1039700020753255084185450546EF106074325573
:103980000841EF10007C325508418145EF10607E00
:10399000325508418545EF10C07D325508418355A9
:1039A0008102EF1060103255484183558102EF10BB
:1039B000A00F3255084583558102EF10E00E3255B5
:1039C0000841D1452946EF10607E056513050520A5
:1039D000EF001063D2546254F25021618280397139
:1039E00006DE22DC2ADA2AD80565130505E023174E
:1039F000A102130500202316A10285450145EF0011
:103A0000300485450145EF00500819459145EF0008
:103A1000300319459145EF0050078D450145EF00F2
:103A200030028D450145EF0050062315010209447F
:103A30000355A1026349A4120355A102C2550A0508
:103A40002E954845EF0010090355A102C2550A05FD
:103A50002E9548458145EF00D00B0355A102C25574
:103A60000A052E9548458145EF00700E0355A102C9
:103A7000C2550A052E95484593058002EF00701146
:103A80000355A102C2550A052E9548459305A0028B
:103A9000EF00F0130355A102C2550A052E954845C3
:103AA0009305000213060002F946EF20606C0355EF
:103AB000A102C2550A052E954845EF009015035501
:103AC000A102C2550A052E9548459305000213062A
:103AD0000002F946EF2000780355A102C2550A05FD
:103AE0002E954845EF0030160355A102C2550A0530
:103AF0002E9548458545EF0050180355A102C25543
:103B00000A052E9548458145EF00901C0355A102FA
:103B1000C2550A052E9548458355E102EF00101F56
:103B20000355A102C2550A052E9548458355C10289
:103B3000EF00D0210355A102C2550A052E95484534
:103B4000EF00D0240355A102C2550A052E95484521
:103B5000EF0010270315A10205052315A102035547
:103B6000A102E35BA4EC6254F250216182805D719A
:103B700086C6A2C4A6C2AAC02ADE084D8545812AEF
:103B80007255084D8545BD2A725502D802DA02DC0D
:103B9000084D02D402D202D00C10612A7255084D91
:103BA0008145D12A7255084D81450146814601471C
:103BB000EF2010067255084D856413840480A28599
:103BC000ED227255084D8945392C7255084D938464
:103BD00004FA81452686B1247255084D8145512449
:103BE0007255084D81455D247255084DE924725582
:103BF000084DFD247255084DD145012E7255084DD2
:103C00008145352E7255084DAD267255084DA28559
:103C10007D287255084DA68551267255084D85455B
:103C2000652E7255084D8145CD2E7255084D1929C6
:103C300096442644B64061618280797106D62AD4C2
:103C40002AD2484DEF00101F1255484DB77589090B
:103C50009385058037761800130706A09946C1475B
:103C60000146EF3060021255484DEF00701F1255AB
:103C7000484DC145EF0070211255484DEF005024CA
:103C80001255484DC145EF0010271255484DA1452A
:103C9000EF30A00F1255484DEF00902AB250456109
:103CA0008280797106D62AD42AD210514C4D3285A1
:103CB000EFE05FC512550851A145EFE09FC51255D1
:103CC0000851F545EFE0DFC5B2504561828079715A
:103CD00006D62AD42313B102EF10100A09E937855A
:103CE0006000130535F09305B029EF3010472255D9
:103CF00083556102505D93C5F5FFF18D4CDDB250E7
:103D000045618280797106D62AD42313B102EF105F
:103D1000B00609E937856000130535F09305902E4C
:103D2000EF30B04303556102A255E8C1B25045617E
:103D30008280797106D622D42E842AD2EF10D00345
:103D400009E937856000130535F09305F06DEF3014
:103D5000D04012556855FD75504014406D8D0C448F
:103D60001206558E9256A205D18D4D8DE8D622545D
:103D7000B25045618280797106D62AD42ED2EF10D6
:103D8000A07F09E937856000130535F09305E068E9
:103D9000EF30B03C2255685183554102225671994B
:103DA0004D8D68D2B25045618280797106D62AD491
:103DB0002313B102EF10407C09E937856000130539
:103DC00035F09305101CEF30503922554855CD750C
:103DD00003566102A2569385F51F6D8D518DC8D68D
:103DE000B25045618280797106D62AD42ED2EF1066
:103DF000A07809E937856000130535F09305B070A8
:103E0000EF30B03522550859D17503564102FD15E2
:103E1000A2566D8D9315E6004D8D88DAB25045613E
:103E20008280797106D62AD42ED232D0EF10C07497
:103E300009E937856000130535F09305901EEF30D2
:103E4000D03122550859F57503564102A256FD1589
:103E50006D8D518D88DA0255A25588C5B2504561E5
:103E60008280797106D62AD42ED2EF10E07009E94B
:103E700037856000130535F093057022EF30F02D83
:103E80001255A25588C1B25045618280797106D61B
:103E90002AD42ED2EF10406E09E937856000130551
:103EA00035F093058047EF30502B1255A25588D13D
:103EB000B25045618280797106D62AD4EF10C06B6A
:103EC00009E937856000130535F09305304BEF3075
:103ED000D02822550C59F5990CD9B25045618280F1
:103EE000797106D62AD4EF10206909E93785600078
:103EF000130535F09305104FEF30302622550C593D
:103F0000F9990CD9B25045618280797106D62AD4CC
:103F10002ED2EF10606609E937856000130535F091
:103F20009305D05BEF3070232255085992552256E5
:103F30001375B5F84D8D08DAB250456182807971FC
:103F400006D62AD42ED2EF10206309E93785600007
:103F5000130535F09305B066EF3030202255285513
:103F600083554102225661994D8D28D6B250456144
:103F70008280797106D62AD4EF10006009E937856E
:103F80006000130535F09305406CEF30101D22558D
:103F90004C55F9994CD5B25045618280797106D65D
:103FA0002AD42313B102EF10205D09E937856000A0
:103FB000130535F09305A054EF30301A22550859F7
:103FC000FD7503566102A2569385F50F6D8D518DD7
:103FD00088DAB25045618280797106D62AD4A3036B
:103FE000B102EF10605909E937856000130535F01B
:103FF0009305D056EF30701603457102058911C53F
:1040000022550C5993E5050829A022550C5993F522
:10401000F5F70CD9B25045618280797106D62AD461
:104020002ED2EF10605509E937856000130535F091
:1040300093051059EF3070121255A255C8C1B250F5
:1040400045618280797106D62AD4EF10E05209E9E1
:1040500037856000130535F09305E017EF30F00F5A
:1040600022550C5993E585000CD9B25045618280E8
:10407000011173E0107C379503000C41F9990CC1D4
:1040800073F0107C05618280797106D62AD42ED215
:10409000EF10604C09E937856000130505E29305D0
:1040A000E018EF30900B73E0107C22554841925598
:1040B000225641994D8D48C273F0107CB250456133
:1040C0008280797106D62AD42ED2EF10C04809E931
:1040D00037856000130505E293057022EF30F00785
:1040E00073E0107C22550841925522566D994D8DF2
:1040F00008C273F0107CB25045618280797106D697
:104100002AD42ED2EF10204509E937856000130527
:1041100005E29305A041EF30500473E0107C225576
:1041200048519255225601994D8D48D273F0107C1A
:10413000B25045618280797106D62AD4EF10A04131
:1041400009E937856000130505E29305A026EF30E5
:10415000D00073E0107C22550C4193E505080CC19A
:1041600073F0107CB25045618280397106DE2ADC22
:104170002EDA32D8EF10203E09E9378560001305AA
:1041800005E29305006FEF30407D5255E25513165E
:104190001500719AB295F1052ED605890E052AD41F
:1041A00073E0107C32550841A2553D463316B600E7
:1041B000C2561346F6FF3257718DB395B6004D8D3A
:1041C00008C373F0107CF25021618280397106DEE1
:1041D0002ADC2EDA32D836D63AD4EF10C03709E9C5
:1041E00037856000130505E29305501CEF30E0763B
:1041F000225511C5225593051020636AB5003785F5
:104200006000130505E29305601CEF300075525500
:10421000E2550A052E95130505042AD273E0107C99
:104220003255C2553E052256D20592564D8D930504
:10423000F6FF4D8D88C273F0107CF25021618280B0
:10424000797106D62AD415452ED263EAA5003785A2
:1042500060001305A5FA9305101BEF30007073E0A2
:10426000107C379503004C4522569D461257B39655
:10427000C60093C6F6FFF58D3316C700D18D4CC529
:1042800073F0107CB25045618280797106D62AD4D1
:1042900015452ED263EAA500378560001305A5FAFF
:1042A0009305501DEF30606B73E0107C3795030071
:1042B0000C4922569D461257B396C60093C6F6FF88
:1042C000F58D3316C700D18D0CC973F0107CB25038
:1042D00045618280797106D62AD4EF10C02B09E996
:1042E00037856000130575E59305000EEF30E06635
:1042F00073E0107C22550C412166D18D0CC12255F2
:104300004C4193E585004CC173F0107CB25045617F
:104310008280797106D62AD42ED2EF10C02709E9FF
:1043200037856000130575E59305C012EF30E06234
:1043300073E0107C22550841925522561375C5FB37
:104340004D8D08C273F0107CB25045618280797146
:1043500006D62AD42ED2EF10002409E93785600052
:10436000130575E59305A015EF30205F73E0107C11
:1043700022550841F17512569385F5CFA2566D8DE1
:10438000931586004D8D88C273F0107CB250456144
:104390008280797106D62AD42ED2EF10C01F09E987
:1043A00037856000130575E593059018EF30E05AE6
:1043B00073E0107C2255084192552256137535FC46
:1043C0004D8D08C273F0107CB250456182807971C6
:1043D00006D62AD42ED2EF10001C09E937856000DA
:1043E000130575E59305A01BEF30205773E0107C93
:1043F00022550841F17512569385F53FA2566D8DF1
:10440000931586004D8D88C273F0107CB2504561C3
:104410008280797106D62AD4EF10E01709E9378532
:104420006000130575E593050027EF30005373E036
:10443000107C22552C452166D18D2CC573F0107C43
:10444000B25045618280797106D62AD4EF10A0144B
:1044500009E937856000130575E593051029EF30EC
:10446000C04F73E0107C22552C412166D18D2CC1A8
:1044700073F0107CB25045618280797106D62AD4DF
:104480002ED2EF10401109E937856000130575E55C
:104490009305803EEF30604C12559D45636AB50030
:1044A00037856000130575E59305903EEF30E04ACF
:1044B00073E0107C22554C41E1994CC12255925534
:1044C0005041D18D4CC173F0107CB2504561828057
:1044D000797106D62AD42ED2EF10E00B09E9378580
:1044E0006000130575E593050021EF30004773E088
:1044F000107C22550849925522561375E5F54D8DCD
:1045000008CA73F0107CB25045618280797106D67A
:104510002AD42ED2EF10200809E937856000130550
:1045200075E593054023EF3040431255318109C9A9
:1045300037856000130575E593055023EF30E041A2
:104540001255A255C8C9B25045618280797106D60C
:104550002AD42ED2EF10200409E937856000130514
:1045600075E593052025EF30403F1255318109C98B
:1045700037856000130575E593053025EF30E03D84
:104580001255A25588D9B25045618280797106D6FC
:104590002AD4EF10400009E937856000130575E55E
:1045A0009305502EEF30603B73E0107C22554C4554
:1045B00093E525004CC573F0107CB25045618280B4
:1045C000797106D62AD4EF00107D09E9378560009D
:1045D000130575E593053030EF30203873E0107C1B
:1045E00022554C4593E505204CC573F0107CB25024
:1045F00045618280797106D62AD42AD20851EFE02B
:10460000EF90B25045618280797106D62AD42ED2BD
:104610002AD00851EFE04FD9B250456182807971BC
:1046200006D62AD42ED22AD00851EFE04FB0B2508D
:1046300045618280797106D62AD4EF00507909E964
:1046400037856000130535F79305C01BEF30E03068
:1046500022550C4193F5F5F70CC1B25045618280AB
:10466000797106D62AD4EF00907609E93785600083
:10467000130535F793053042EF30202E22550C41BB
:10468000BD990CC1B25045618280797106D62AD499
:104690002ED2EF00D07309E937856000130535F796
:1046A00093058046EF30602B2255485583554102D3
:1046B00022561375F5FC4D8D48D6B2504561828067
:1046C000797106D62AD4EF00907009E93785600029
:1046D000130535F79305B01EEF30202822550C51F5
:1046E0001966D18D0CD122554C510966D18D4CD112
:1046F000B25045618280797106D62AD42313B10263
:10470000EF00F06C09E937856000130535F7930574
:104710006048EF3080240355610293050010636AFE
:10472000B50037856000130535F793057048EF3005
:10473000C02203556102A25588D5B25045618280DE
:10474000797106D62AD4EF00906809E937856000B0
:10475000130535F79305501AEF30202022550C41F0
:1047600093E505080CC1B25045618280397106DEBF
:104770002ADC2EDAEF00506D09E937856000130559
:10478000B5F39305201CEF30401D6255935515007D
:10479000C19937460300130606E0B29552562ED84B
:1047A00085453395A5002AD609C63255C255C8C1DC
:1047B00021A03255C25588C5F2502161828079719D
:1047C0002AD62ED49565938505202E9508414166FD
:1047D000A25632574D16718D558DBA9588C14561D7
:1047E000828079712AD69565938505202E95C165BD
:1047F000FD156D8D0C4193E515000CC1456182805E
:1048000079712AD69375F5038A052ED48965938527
:1048100005F06D8D21812AD273E0107C22559255CE
:104820003786030013064624329510418546B3951A
:10483000B600D18D0CC173F0107C45618280797116
:104840002AD69375F5038A052ED48965938505F0DC
:104850006D8D21812AD273E0107C225592553786C6
:10486000030013064624329510418546B395B600E1
:1048700093C5F5FFF18D0CC173F0107C456182800A
:10488000797106D62AD42ED2EF00505611E9378519
:104890006000130585DE85659385D52CEF30E00B30
:1048A00003554102137515F811C9378560001305CA
:1048B00085DE85659385E52CEF30200A73E0107C5A
:1048C000225592550326C526D18D2326B52673F091
:1048D000107CB25045618280797106D62AD42ED2DE
:1048E000EF00D05009E937856000130585DE930598
:1048F000307EEF308006225508419255225671993C
:104900004D8D08C2B25045618280797106D62AD495
:10491000EF00D04D09E937856000130585DE93056A
:10492000407CEF30800322550C41ED990CC1B25010
:1049300045618280797106D62AD42ED2EF00104BC1
:1049400009E937856000130585DE93057078EF303F
:10495000C000125511C522550C4193E5850021A0D8
:1049600022550C41DD990CC1B250456182807971AC
:1049700006D62AD42ED2EF00704709E937856000A9
:10498000130585DE93058071EF20307D1255930568
:104990000008636AB50037856000130585DE93055E
:1049A0009071EF20907B2255084D925522564D8DE7
:1049B00008CEB25045618280797106D62AD42ED2B3
:1049C00032D0EF00B04209E937856000130585DE7B
:1049D0009305D069EF20707822550841F975125679
:1049E0009385F50782566D8D9315A60022569E0677
:1049F000D58D4D8D08C2B25045618280797106D641
:104A00002AD42ED2EF00903E09E9378560001305C5
:104A100085DE9305D066EF205074125585456317E7
:104A2000B50022550C410966D18D31A022550C41AB
:104A300079767D16F18D0CC1B25045618280797115
:104A400006D62AD42ED2EF00703A11E937856000DD
:104A5000130585DE85659385E590EF20107022555E
:104A600003250518C1651256FD15A2566D8D9315C7
:104A700006014D8D23A0A618B25045618280797140
:104A800006D62AD42ED2EF00703609E937856000A9
:104A9000130585DE9305F064EF20306C1255A255A6
:104AA00088C9B25045618280797106D62AD42ED247
:104AB000EF00D03311E937856000130585DE856589
:104AC00093850593EF2070691255A25523A6A5186A
:104AD000B25045618280397106DE2ADC2EDA32D886
:104AE000EF00D03011E937856000130585DE85655C
:104AF0009385159BEF207066525509C55255D145D7
:104B00006317B50029452AD602D4114531A0314595
:104B10002AD609452AD419452AD25255E255118977
:104B20002E95930505022ED00851B25522568D467A
:104B30003397B6009257B396C600D98E0547331700
:104B4000F700C257D98E93C6F6FF758D93D627000E
:104B5000B395B60093F6370002573396C600D18D51
:104B60004D8D08C3F25021618280397106DE2ADC46
:104B70002EDA32D836D6EF00702711E9378560007B
:104B8000130585DE8565938525B8EF20105D5255A8
:104B9000B2551306051032D41305451085892AD263
:104BA00085C1625592552E950841B255FD150D46A9
:104BB0003316B6001346F6FFC2566257925731A815
:104BC0006255A2552E950841B2550D463316B600D2
:104BD0001346F6FFC2566257A257718DB395B600C1
:104BE0004D8DB305F70088C1F25021618280397183
:104BF00006DE2ADC2EDAA309C102EF00301F11E91C
:104C000037856000130585DE8565938575D6EF20B1
:104C1000D05452558345310305463315A600858986
:104C20002AD699C562550859B25562564D8D01A8CC
:104C300062550859B255625693C5F5FF6D8D08DA75
:104C4000F25021618280797106D62AD42ED2EF00EB
:104C5000F01911E937856000130585DE85659385B8
:104C6000D5DBEF20904F125511CD12558545630BC2
:104C7000B50037856000130585DE85659385F5DB16
:104C8000EF20B04D22550859925522563D99920574
:104C90004D8D08DAB25045618280397106DE2ADC1A
:104CA0002EDA32D8EF00901411E937856000130531
:104CB00085DE85659385A5D9EF20304A5255E255AA
:104CC0001345150009052AD68859B25505463316ED
:104CD000B600C2561346F6FF6257718DB395B60003
:104CE0004D8D08DBF25021618280797106D62AD47D
:104CF0002ED2EF00B00F11E937856000130585DE75
:104D00008565938545EFEF2050451255398111C9CE
:104D100037856000130585DE8565938555EFEF20A7
:104D2000D0431255A25523A2A514B25045618280EA
:104D3000797106D62AD42ED2EF00500B11E93785AF
:104D40006000130585DE8565938505F1EF20F04051
:104D50001255398111C937856000130585DE8565D7
:104D6000938515F1EF20703F1255A25523A6A51487
:104D7000B25045618280797106D62AD4EF001007BF
:104D800011E937856000130585DE8565938565F437
:104D9000EF20B03C22552C49F9992CC9B2504561FD
:104DA0008280797106D62AD42ED2EF00300409E928
:104DB00037856000130585DE8565AD05EF20F03988
:104DC00073E0107C225592550326052093C5F5FF0C
:104DD000F18D2320B52073F0107CB25045618280A4
:104DE000797106D62AD42ED2EF00500011E937850A
:104DF0006000130585DE85659385F532EF20F0357B
:104E0000125509C51255A5456367B5021255A94546
:104E10006303B5021255B145630FB5001255B9458C
:104E2000630BB50037856000130585DE85659385C6
:104E30002533EF2090321255A145630EB50012556F
:104E4000B145630AB5001255A9456306B500125570
:104E5000B9456318B5021255A25505812AD003A59C
:104E600005291365050423A8A5282255032505292E
:104E70008255225661994D8D2328A628B25045614E
:104E8000828012559145630EB50012559945630A0B
:104E9000B500125595456306B50012559D45631A38
:104EA000B5001255A2552AD003A505291375F5FBA7
:104EB0005DBF12552AD055BF797106D62AD4EF00AE
:104EC000E07211E937856000130585DE85659385FD
:104ED000C52EEF20902822558325052993E58500CE
:104EE0002328B528B25045618280397106DE2ADC5C
:104EF0002EDA32D8E52D11E937856000130585DEFD
:104F000085659385854CEF2050254255A145630E5C
:104F1000B5004255B145630AB5004255A94563063F
:104F2000B5004255B945631EB508425505812AD6DC
:104F3000525521C5625503250529E5753256FD15E3
:104F4000E2566D8D9315C6004D8D23A8A6284255B7
:104F50009145630EB50042559945630AB500425527
:104F600095456306B50042559D45631EB5046255DF
:104F70008325052993F5F5FD81A0625503250529B3
:104F8000B25562561375F58FA2054D8D2328A628BC
:104F900042559145630EB50042559945630AB500E7
:104FA000425595456306B50042559D456313B504CA
:104FB000625583250529BD992328B528F250216122
:104FC00082804255ADB74255A145630EB5004255AA
:104FD000B145630AB5004255A9456306B50042557F
:104FE000B945E31DB5FC62558325052993E5050206
:104FF000E1B74255A145630EB5004255B145630A7C
:10500000B5004255A9456306B5004255B945E317B9
:10501000B5FA62558325052993E5050171BF7971BC
:1050200006D62AD42ED2D92311E93785600013057C
:1050300085DE85659385C546EF203012125511C572
:10504000225583250529216639A022558325052966
:10505000056613060680D18D2328B528B250456118
:105060008280797106D62AD42ED2492311E9378558
:105070006000130585DE85659385F536EF20F00D1C
:105080001255C145636BB50037856000130585DE99
:10509000856593850537EF20500C2255832585299A
:1050A00093E50501232CB52822550325852B925520
:1050B000225641994D8D232CA62AB25045618280FB
:1050C000797106D62AD42ED232D00D2311E9378534
:1050D0006000130585DE856593855554EF20F00744
:1050E0000255C145636BB50037856000130585DE49
:1050F000856593856554EF205006225583258529C3
:1051000093E50502232CB528125505C12255032528
:10511000052CFD7502569385F50FA2566D8D9315DE
:1051200086004D8D23A0A62C11A822550325052C01
:105130008255225641994D8D2320A62CB2504561AF
:105140008280797106D62AD4552111E9378560000D
:10515000130585DE85659385753AEF20100022558D
:105160008325852A93E515002324B52AB25045618D
:105170008280797106D62AD42ED28D2911E93785FD
:105180006000130585DE856593856559EF20E07C19
:10519000225592550326852A89058546B395B60082
:1051A000D18D2324B52AB25045618280397106DE43
:1051B0002ADC2EDA32D81D2911E937856000130563
:1051C00085DE8565938545A2EF20207952559305AC
:1051D000851A2ED609C55255A1456313B5026255ED
:1051E000B2552E950841C165FD154256E25632571B
:1051F0006D8D931506014D8DB385E60088C131A0F4
:105200006255B25542562E9510C1F25021618280EE
:10521000797106D62AD4B12909E9378560001305CA
:1052200005E99305E056EF20407322550C551166B1
:10523000D18D0CD5B25045618280797106D62AD4C1
:105240000D2909E937856000130505E993059032BA
:10525000EF20A07022554C5179767D16F18D4CD1FE
:1052600022554C510966D18D4CD1B2504561828096
:10527000797106D62AD4F52E09E937856000130521
:1052800005E99305F030EF20406D22550C557976F5
:105290007D16F18D0CD522550C550966D18D0CD596
:1052A000B25045618280797106D62AD4D92609E99F
:1052B00037856000130505E993053034EF20E06978
:1052C00022554C5161767D16F18D4CD122554C51B1
:1052D0002166D18D4CD1B25045618280797106D65C
:1052E0002AD4412E09E937856000130505E99305A5
:1052F000B053EF20806622550C41BD990CC1B250CD
:1053000045618280797106D62AD4A52609E93785B8
:105310006000130505E993056050EF2000642255F5
:105320004C4193F5F5FD4CC122554C4193E50502E6
:105330004CC1B25045618280797106D62AD4152EAF
:1053400009E937856000130505E99305F02BEF2087
:10535000C06022554C512166D18D4CD122554C5103
:105360001966D18D4CD122550C550966D18D0CD5BD
:10537000B25045618280797106D62AD42ED232D0BD
:10538000CD2C09E937856000130505E993058017E1
:10539000EF20A05C225548519255225601994D8D1F
:1053A00048D2225508558255225601994D8D08D66E
:1053B000B25045618280797106D62AD45D2C09E904
:1053C00037856000130505E99305B01EEF20E0580E
:1053D00022554C4193E535024CC1B2504561828063
:1053E000797106D62AD42ED24D2409E9378560007A
:1053F000130575EC93057015EF2020561255A25534
:10540000C8C5B25045618280797106D62AD42ED2A1
:10541000AD2C09E937856000130575EC9305B012D2
:10542000EF20A0531255A255C8C1B25045618280E9
:10543000797106D62AD402D2892C09E93785600011
:10544000130575EC9305F010EF2020512255084507
:10545000E175FD1522566D8D2AD21365050208C629
:1054600022550C45BD990CC5B25045618280011191
:1054700073E0107C0D650C4193E515000CC1010033
:1054800073F0107C0561828079712AD673E0107CFC
:10549000325501C90D654C412166D18D11050CC1F4
:1054A00039A00D654C4161767D16F18D4CC173F0CC
:1054B000107C45618280797106D62AD42313B1020B
:1054C0002312C1022AD04845EFF04F8402554845C7
:1054D00083554102EFF08F870255084983556102D9
:1054E000EFF0CF820255084983554102EFF00F8655
:1054F0000255484983556102EFF04F8102554849F2
:1055000083554102EFF08F84B2504561828039713A
:105510002ADE2AFC2EFA32F853F0A510D31510C05B
:105520002317B1025370A610531610C02316C102E0
:105530002319B5000315C102F255239AA5000315DE
:10554000E1028315C10272562E9513051502231B25
:10555000A600216182807971AA852AD60966930600
:10556000068005456388D5003255930506C02D8D0C
:1055700013351500456182807971AA852AD6356672
:1055800005456388C5003255930506142D8D1335E6
:105590001500456182807971AA852AD639669306FD
:1055A000068005456383D502B25513060688638ECF
:1055B000C5003256B965938605906308D60032550A
:1055C000938505982D8D133515004561828079717D
:1055D000AA852AD6396605456388C50032559305E4
:1055E00006082D8D13351500456182807971AA85D5
:1055F0002AD6296605456387C504B25513060640B9
:105600006382C5043256AD6593860580630CD6026D
:105610003256938505C06307B6023256AD65630303
:10562000B602325693850540630EB6003256B16518
:10563000938605806308D6003255938505C02D8D6D
:1056400013351500456182807971AA852AD6130623
:10565000C003054563EAC50032559305000E636734
:10566000B50032551335850F45618280014545618E
:1056700082807971B745030093850540A98D93B564
:1056800015002AD62E85456182807971AA852AD691
:1056900015660545638DC500B25541066389C50091
:1056A00032559565938505022D8D1335150045619D
:1056B000828079712AD6B70510420CC13255054651
:1056C0002312C50032552313C50032552314C500DB
:1056D00032552315C5003255BD462316D500325527
:1056E0002317C50032558D462308D5003255A3082F
:1056F000D5003255B706204354C93255B706C842C3
:1057000014CD32553727663C130747D258CD325552
:1057100037973C3C1307972418D1325554D1325552
:1057200014D53255B7A685459386A6CD54D53255A6
:10573000B776133F9386C64B14D9325550D932559C
:105740003946231CC502325505661306469C231DA7
:10575000C502325537969D3B1306B67050DD325563
:10576000232AC51E325523200504325537A6363D5F
:10577000411670C1325537468A35130686E830C562
:10578000325570C532553706803F30C93255232A0D
:10579000050432553736733F1306363330CD325554
:1057A0006CCD32550345851D05890DC53255B7159C
:1057B0001D45938535462CD13255B70520416CD116
:1057C00032558355850307A041028720C50307A1F1
:1057D000010325A03255B7159D44938535462CD13C
:1057E0003255B705A0416CD132558355850307A0CA
:1057F000410287A0810207A1C102D3F105D053F075
:1058000001105370101053702018272405063255CC
:10581000B7B55138938575716CD53255B705A04130
:105820002CD93255232A05063255232C050632552C
:10583000B165938505356CDD325523200508325559
:1058400037360300130606452322C508325609657C
:10585000130505712324A6083256B7160300938654
:1058600006D42326D60832562328A6083256232AE1
:1058700006083256232C06083256232E06083256C6
:105880002320060A32562322B60AB25523A4050A5B
:10589000B25523A6050AB25523A8050AB25523AA74
:1058A000050AB25561661306066A23ACC50AB255ED
:1058B0001307007D23AEE50AB25523A0D50CB255DF
:1058C00023A2050CB25523A4050CB25523A6050C42
:1058D000B25523A8C50CB255B79604009386063E70
:1058E00023ACD50CB25523AED50CB25523A0050E72
:1058F000B25523A2050EB25523A4050EB25523A618
:10590000A50EB25523A8C50EB25523AAD50EB25581
:1059100023AC050EB25523AE050EB25523A00510DB
:10592000B25523A2A51032559565938505E223242F
:10593000B51032552326C51032552328051032558F
:10594000232A05103255232C05103255232E05101D
:105950003255232005123255B7451C462322B51275
:1059600032552324B5123255370696432326C512E5
:1059700032552328B512B25537B5D1381305757194
:1059800023AAA512B2553706803F23ACC512B255E3
:10599000B706C03F23AED512B255B70680BF23A0CD
:1059A000D514B255B7561D399386269523A2D51422
:1059B000B255B7C63C38938626E623A4D514B25513
:1059C00023A6A514B25523A8C514B255B706204185
:1059D00023AAD514B25523ACC514B255B706003F5F
:1059E00023AED514B25523A0C5163256B715833A47
:1059F0009385F5262322B616B25637067A4423A499
:105A0000C616B25637D7A33C1307A77023A6E616CF
:105A1000B2563757FB411307273D23A8E616B25667
:105A20003777F5461307B7FD23AAE616B25637D7E0
:105A3000233B1307A77023ACE616B25637D7CC3DED
:105A40001307D7CC23AEE616B25637378635130781
:105A5000D77B23A0E618B25623A2E618B256B7C7E2
:105A6000D633938757F923A4F618B256B7D72B32FB
:105A7000938777C723A6F618B25623A8E618B2561E
:105A80003707C84223AAE618B25623AC0618B25606
:105A900023AEA6183255B7C627379386C65A232099
:105AA000D51A32552322051A32552324C51A3255E8
:105AB0002326051A325537D7233C1307A77023280E
:105AC000E51A3255232AD51A3255232CB51A3255E8
:105AD000232EC51A32552320D51C32552322D51C1E
:105AE00032552324B51C32552326C51C3255232894
