:0200000400609A
:040000006F0000018C
:1000100081400141814101428142014381430144C8
:100020008144014581450146814601478147014898
:10003000814801498149014A814A014B814B014C68
:10004000814C014D814D014E814E014F814FF9622E
:1000500073A002308542FE0263C3020001A0970232
:1000600000009382020973905230731030005300E5
:1000700000F0D30000F0530100F0D30100F0530270
:1000800000F0D30200F0530300F0D30300F0530458
:1000900000F0D30400F0530500F0D30500F0530640
:1000A00000F0D30600F0530700F0D30700F0530828
:1000B00000F0D30800F0530900F0D30900F0530A10
:1000C00000F0D30A00F0530B00F0D30B00F0530CF8
:1000D00000F0D30C00F0530D00F0D30D00F0530EE0
:1000E00000F0D30E00F0530F00F0D30F00F0970292
:1000F000000093822204739052309701A1FF9381F4
:10010000617017021A001302D2F3137202FC7325F6
:1001100040F185456370B500131615013292171131
:10012000A0FF130121EE6111EF60201AEF5010378C
:1001300002906D7106C20AC40EC612C816CA1ACC45
:100140001ECE22D026D22AD42ED632D836DA3ADCA7
:100150003EDEC2C0C6C2CAC4CEC6D2C8D6CADACC77
:10016000DECEE2D0E6D2EAD4EED6F2D8F6DAFADC87
:10017000FEDE73252034F32510340A86EF60C008B4
:100180007310153489629382028073A0023092400A
:100190002241B2414242D2426243F243025492545B
:1001A0002255B2554256D2566257F25706489648E3
:1001B0002649B649464AD64A664BF64B065C965CDB
:1001C000265DB65D465ED65E665FF65F5161730082
:0201D0002030DD
:1001E00073750430828000007365043082807971F9
:1001F00006D62AD42AD2938541E1232EB51812556A
:100200009385C1D22328B5181255938581B0232A2E
:10021000B5181255C96593854516232CB52213854B
:1002200001DD93054004EF207059925523ACA518C9
:10023000B250456182805D7186C6A2C4A6C2A2E0AA
:1002400026FE2AD62AD4832505192ED283254519C0
:100250002ED08544230F95022255A30295042255E2
:10026000230305042255230495042255A304950471
:100270002255230595042255A30305042255230284
:10028000950402550720451207A4C1F32255537067
:100290008010D31510C02310B502A25503A58519EF
:1002A00083A54519EF30A04F1255B7D5CC3D9385A6
:1002B000D5CC2CC12255232895222255232A9522BC
:1002C0002255230905042255A30805041255BD65CE
:1002D000938505A6231AB50812559965938505DC03
:1002E000231BB508225503254519EF7050462255AA
:1002F00003254519EF506054A25503A5852383A516
:100300004519EF70B01BA25503A5852383C545048D
:10031000EF70F030A25503A5852383C5D504EF7097
:10032000F034A25503A5852383A5451907A501F43B
:10033000EF70103DA25503A5852383A5451987A419
:1003400041F453859420EF70503DA25503A58523B9
:1003500083A5451953859420EF70D03D0255485927
:1003600019EDA25503A5852383C5E504EF70D02CB4
:10037000A25503A5852383C5F504EF70B028125557
:10038000B7D54C3E1386D5CC30C5125570C5125525
:10039000B7057A432CC992553705A040E8C9925554
:1003A000B736734193863633B4CD9256B705704154
:1003B000ECCE9256A8D29256373786351307D77BA4
:1003C000F8D2925637B7BA411307B7F8B8D6925653
:1003D000ECD6925637C7AD421307B750B8DA9256EB
:1003E00037075442F8DA925637075242B8DE92562F
:1003F000F0DE1256B70620412320D6081256930687
:10040000401F2312D60812569306800C2313D608D9
:1004100012562314D60812569306803E2315D6088A
:1004200012561307007D2316E608125693078025FF
:100430002317F60812562318E608125615472319F3
:10044000E6082256231C06021256231CD608125612
:10045000231DD60812568D46231ED60812568566D1
:10046000938606C0231FD608125693060040231019
:10047000D60A02560720C6012256272E061C02560F
:100480000720C60122562720061E02560720060214
:100490002256272C061C2256A30106042256232A84
:1004A00096262256B166938636032318D610225616
:1004B000B706A0412320D60C22562322B60CA25503
:1004C0003706404023A4C50CA2553706C84223A8CE
:1004D000C50CA25523AAC50CA2553786103F13069A
:1004E000361C23AEC510A2553796A2411306B61F7F
:1004F00023A0C512A2553706C03F23AAC512A25594
:1005000023ACA5122255B7050040232EB512225563
:10051000B705803F2320B5142255B735333F938567
:1005200035332328B5122255B7D5E53E9385A58FDF
:100530002322B5280255072045122255272C0526CF
:100540002255B7B5A4399385E55B232EB50C02552A
:100550000720451287A081F4225553701010D3153F
:1005600010C02311B5022255232605262255938556
:1005700081E3232EB522225582550325C52383C549
:100580001501EF1000302255938541E42320B52456
:10059000225582550325052483C50501EF1000353A
:1005A0002255938501E52322B5242255938581E5C3
:1005B0002324B5242255938501E62326B52422550C
:1005C000938581E9232EB52422559385C1EB232001
:1005D000B5262255938501EE232CB524225593850B
:1005E00041F0232AB5242255930520032326B50E76
:1005F0002255938581E62322B526225503254526DB
:10060000B7B5D138938575710CC1225503254526A0
:10061000B705FA454CC1225503254526B705C0410B
:100620004CD522551305451E07A5C1F487A501F534
:1006300053068420EF5020062255938581F223280B
:10064000B524225503250525530500F0012A22551E
:10065000032505252ADC02DA2AD8232205000255C3
:10066000A2550720052103A5052553150020F528CF
:10067000225582550325052507A50521F528025594
:10068000A255072085138720451203A5052553751C
:100690001018D528225503258519EF40200E225524
:1006A00003258519138441E1A285EF40C00F03158E
:1006B0004400136505082312A40003554400137574
:1006C000F5F92312A4000355040141991365E500CF
:1006D0002318A400035504011375F5F313650504ED
:1006E0002318A400035504011375F5CF13650510F5
:1006F0002318A400035544011375F5F3136505048D
:10070000231AA400035544011375F5EF231AA4001E
:100710000315440113650520231AA4000355440161
:100720001375F5BF231AA4002255032585199D20B2
:10073000230C9400225503258519A285EF4040051E
:100740003255EF104032225503258519A120F2744D
:10075000066496442644B6406161828079712AD647
:100760002AF42AD208E14561828079712AD62AF4D6
:100770002AD208E54561828079712AD62AF42AD2E4
:1007800048E54561828079712AD62AF42AD208E99F
:1007900045618280797106D62AD42AD208419145D2
:1007A000EF00F056125548419145EF005056125552
:1007B00008459145EF00B0551255230A0502B25085
:1007C00045618280197186DEA2DCA6DACAD8CED64F
:1007D000D2D4A2F2A6F02ADE2ADC832505192EDA6D
:1007E000452B62555256032585198355E609035654
:1007F000060AEF40D0640964930404801306E07E87
:1008000026858145C523130404C01306007E228576
:100810008145C92B85451306707D2285E1236255EC
:10082000B7E5FD448D152320B51C6255B725FC4462
:10083000938525852322B51C6255B705FB44938516
:1008400095FC2324B51C6255B785FF3E9385959F83
:100850002326B51C6255B7B5FE3E938555DC23288B
:10086000B51C6255B735003F938585DE232AB51C3C
:100870006255034555040589630E053C37857F3F66
:100880001305E5CF2AD86255B705033B9385851A32
:100890002ED60720851D87A041F553F0001802F4DD
:1008A000130520039710A1FFE780804E2685814520
:1008B00001460D2B2285814501462D238545228544
:1008C00001460D2362550720051C8720851D5370A6
:1008D00010102720051C62550720451C8720851D08
:1008E000537010102722051C62550720851C872095
:1008F000851D537010102724051C62552322051EE8
:1009000062552324051E62552326051E6255832544
:1009100085191305451EAECEAACCAECA8841EF009C
:10092000504C537015D007A481F887A4C1F882E811
:10093000231701040944A1A08355E10456451396E9
:100940002500E646329508418605B69503D6C500D2
:100950008145EF00904B8355E104564513962500E1
:10096000E646329508418605B69503D6C500A145F1
:10097000EF00B0490315E10405052317A104035551
:10098000E1046343A4060355E104E645131625007C
:100990002E96072006005310002082E45310802872
:1009A00053009028C66082E25370900082E053703A
:1009B0001010531600C006052E952316C5000355CA
:1009C000E104E64506052E950355C50083D565016E
:1009D000E354B5F666458355E104031665018605C3
:1009E0002E952316C50089BF6255032585190D294B
:1009F0002318010421659309F5CF0965130405C087
:100A000007A441F513090594930405D4130A007D46
:100A100011A8625503258519212103150105050536
:100A20002318A1040355010563CBA91A228581452A
:100A3000A1292285814541216DDD62551305451AA5
:100A4000AACE85454A85EF00B051F645537015D0C2
:100A500082EC87A045035370101027A2050085453E
:100A60002685EF00F04FF645537015D082EC87A035
:100A700045035370101027A40500A1452685EF00FB
:100A8000304EF645537015D082EC87A04503537065
:100A9000101027A6050091454A85EF00704CF645D9
:100AA000537015D082EC87A085035370101027A8CF
:100AB000050095452685EF00B04AF645537015D0E0
:100AC00082EC87A085035370101027AA05009D456E
:100AD0004A85EF00F048F645537015D082EC87A0A8
:100AE00085035370101027AC0500AD452685EF0037
:100AF0003047F645537015D082EC87A0C50353707C
:100B0000101027A0050003550105E34445F1625587
:100B100042708720051C0721851AB271537010108E
:100B2000D3703110537010002720051C625542709D
:100B30008720451C0721C51AB27153701010D3705D
:100B40003110537010002722051C62554270872017
:100B5000851C0721051BB27153701010D370311022
:100B6000537010002724051C62550720451A537046
:100B7000041882EAC2700721C51C8721451B327206
:100B8000D3F02010537030105370401053F0000019
:100B90002726051C625542708720051D5661872156
:100BA000851B327253701010D3703110D3F0401087
:100BB000537010002728051C625542708720451D80
:100BC00056618721C51B327253701010D3703110DB
:100BD000D3F0401053701000272A051C3DBD62550C
:100BE00003258519453E6255A30205046255072079
:100BF000051CA270537010102720051C6255072099
:100C0000451CA270537010102722051C6255072046
:100C1000851CA270537010102724051C62550720F4
:100C2000051C531610C009641305048081455D2A14
:100C300062550720451C531610C0130404C02285BA
:100C400081454D2262550720851C531610C08545ED
:100C50002285492A62550720051C87A081F5316548
:100C6000D39500A07D1589E9E25507A0051C87A052
:100C7000C1F5D31510A089C9E25503D6C510698EF8
:100C80009166558E2396C510E25507A0451C87A096
:100C900001F6D39500A089E9E25507A0451C87A07D
:100CA00041F6D31510A089C9E25503D6C510698E47
:100CB0009166558E2396C510E25507A0851C87A026
:100CC00081F6D39500A089E9E25507A0851C87A08D
:100CD000C1F6D31510A089C9E25503D6C510718D90
:100CE0001166518D2396A51062550720C51C87A05B
:100CF00001F7A165539600A01385F5FF09EA625636
:100D00000720C61C87A041F7531610A001CA6256DF
:100D10008356C610E98ED58D2316B610E25507A06E
:100D2000051D87A081F7D39500A089E9E25507A0AA
:100D3000051D87A0C1F7D31510A089C9E25503D6B8
:100D4000C510698EA166558E2396C510E25507A081
:100D5000451D87A001F8D39500A089E9E25507A0B9
:100D6000451D87A041F8D31510A089C9E25503D6C7
:100D7000C510718D2166518D2396A5108674167449
:100D8000265AB6594659D6546654F650096182809F
:100D900079712AD6032505192AD40720C50602F23F
:100DA00087208506539500A009C522550720850692
:100DB00002F2225512708720050753701010D315C8
:100DC00000C02311B102056613060680B295231FE9
:100DD000B50803152102A2553305A6402390A50AA4
:100DE00045618280397106DE2ADC2EDA32D8EF00C6
:100DF000207D09E937856000130545FD9305806175
:100E0000EF60F0505255E1453305B502E2554256C8
:100E10001305C50A2AD62E9510C1F2502161828091
:100E2000797106D62AD42AD24845EF0050041255CB
:100E30004845EF00F00612550849EF0050031255DF
:100E40000849EF00F00512554849EF0050021255CD
:100E50004849EF00F004125508419305E007EF0000
:100E60005007125548419305E007EF0090061255D0
:100E700008459305E007EF00D00512558545230A84
:100E8000B502B25045618280797106D62AD42ED23D
:100E9000052F09E937856000130545FD930570307E
:100EA000EF60F0461255A25505463315A60088C9D5
:100EB000B25045618280797106D62AD42ED2092794
:100EC00009E937856000130545FD9305702EEF6035
:100ED00010442255484592553355B5000589B25006
:100EE000456182805D7186C6A2E42ADA2AD883250C
:100EF00005192ED6832545192ED48315C510031642
:100F00002511D18D2319B51042558315C51003162F
:100F10000511F18D2317B510425532560325851959
:100F20008355E6090356060AEF40607142550345B2
:100F3000F503058921C942550355E5103DC14255C8
:100F40000345050405895DCD42552300050442553E
:100F500085456CCD32550315A509C255239CA502C4
:100F600042558315A5038505231DB502425503454A
:100F70003504058945ED4255A30F05024255231C52
:100F800005026DA042550345050405894DC552551E
:100F9000EF10C04C325503158509C255239CA5029C
:100FA00059A8425503450504058951E542550355A5
:100FB000850351E1425503451504058921C1425578
:100FC0002301050442552306050422550720050781
:100FD00042552722050A2255230C051C7370043044
:100FE0000100C25503A5852383A54519EF60104D67
:100FF0007360043001004255A30005045255EF1000
:10100000C04115A84255035585030DE14255B2551F
:101010000355A50383D5C5096357B50042558545DA
:10102000230AB50421A04255A30F0502425503250A
:101030008519EFF02FF6425503454505058911CD79
:10104000425503258519212A42558355C510BD896E
:101050002316B5104255230A0504425503450504DD
:10106000058915C9425503258519AAC2AAC0034599
:101070004503058909E54255032585195533425530
:101080000720450A530400F0531504A009C942552E
:10109000B705803F01A85255EF00500A41A84255BC
:1010A000B70580BF6CD1C25503A5052507A5450A24
:1010B000EFF0CFEA42550720C50A8720050C5320E0
:1010C0000020539500A00DC14255A2550720050DE3
:1010D00087A045120325052553751018EFF0AFEAD8
:1010E0004255072005142DA04255A2550720450D55
:1010F00087A045120325052553751018EFF0AFE8BA
:1011000042550720850A530504A042550720C51300
:1011100003258525D3100020AAC286E002FE2ADC22
:10112000272E15007270625527200502425503458F
:10113000C504058901C55255952801A84255854524
:101140002306B5045255EF0010125255EF106033CC
:101150005255EF1020402664B6406161828079715B
:1011600006D62AD42AD248451923125548450D2BB4
:1011700012550849ED29125508491D2312554849B1
:10118000FD2112554849292B125508419305E007C6
:101190008923125548419305E007252B1255084530
:1011A0009305E0073D23B2504561828039712AD60C
:1011B0002AD4832505192ED2684D8D45636BB5164B
:1011C00032550345E50305895DC122559255032536
:1011D000C52507A0050387A045032ADE02FC06FA01
:1011E0002AD8272005005270425527220500225593
:1011F00092550325052607A0850387A0C5032ADE8F
:1012000002FC06FA2AD827200500527042552722F0
:101210000500225592550325852507A0850287A044
:10122000C5022ADE02FC06FA2AD8272005005270E1
:10123000425527220500225592550325452507A032
:10124000050287A045022ADE02FC06FA2AD82720DA
:1012500005005270425527220500225503254525D9
:101260002ADEB70520C12EDC3706204165A81255BD
:10127000072085032728050212550720C503272AC2
:101280000502225592550325C52507A0050387A011
:1012900045032ADE02FC06FA2AD8272005005270F0
:1012A000425527220500225592550325052607A001
:1012B000850387A0C5032ADE02FC06FA2AD8272068
:1012C00005005270425527220500225592550325EC
:1012D000852507A0850287A0C5022ADE02FC06FA42
:1012E0002AD8272005005270425527220500225592
:1012F00092550325452507A0050287A045022ADE51
:1013000002FC06FA2AD827200500527042552722EF
:1013100005002255032545252ADEB70500C12EDC30
:101320003706004132DA2AD84CCD52704255272078
:1013300005022161828011714AC04EC252C456C654
:1013400073290030F3291034732A007CF32A107CAF
:101350004AC84ECA52CC56CE02499249224AB24A93
:1013600073F0107C86DF96DD9ADB9ED9A2D7A6D5D6
:10137000AAD3AED1B2CFB6CDBACBBEC9C2C7C6C54D
:10138000CAC3F2C176DF7ADD7EDB02F906F70AF521
:101390000EF312F116EF1AED1EEB2AE92EE732E5F5
:1013A00036E33AE1BEFEC2FCC6FAF2F8F6F6FAF40B
:1013B000FEF2A2F0A6EECAECCEEAD2E8D6E6DAE475
:1013C000DEE2E2E066FE6AFC6EFA496583250510FE
:1013D00085052320B510A3090102114937450300F3
:1013E00013040540496593044510034531036342E6
:1013F000A90222854D2883453103A6952380A500A7
:10140000030531030505A309A10203453103E35296
:10141000A9FED27D627DF27C066C966B266BB66A65
:10142000466AD6696669F6640674967F267FB67E3C
:10143000467ED6786678F6770A679A662A66BA652F
:101440004A65DA636A63FA620A729A712A71BA703B
:101450004A70DA5F6A5FFA5E0E4E1E49AE483E4839
:10146000CE475E47EE467E468E551E55AE543E54E0
:10147000CE535E53EE52FE504AC04EC252C456C6C0
:101480004249D249624AF24A73901A7C73100A7C2C
:101490007390193473100930B24A224A92490249B2
:1014A000116173002030797106D62AD2C52C09E962
:1014B000378560001305450493059049EF6020656A
:1014C0001255CD2C01E91255292E137505086DD939
:1014D00002D431A01255484D1375F50F2AD4225568
:1014E000B2504561828079712AD6956523A2A510F4
:1014F00045618280397106DE2ADC231BB1022AD8BD
:101500008A052E9508490126F25021618280797161
:1015100006D62AD42ED2B92011E9378560001305EA
:10152000C5F985659385D52CEF60605E0355410252
:10153000137515F811C9378560001305C5F9856560
:101540009385E52CEF60A05C73E0107C22559255EA
:101550000326C526D18D2326B52673F0107CB25004
:10156000456182807971AA852AD6296605456387F7
:10157000C504B255130606406382C5043256AD65F4
:1015800093860580630CD6023256938505C06307A7
:10159000B6023256AD656303B602325693850540F6
:1015A000630EB6003256B165938605806308D60097
:1015B0003255938505C02D8D133515004561828008
:1015C0007971AA852AD6096693060680054563883F
:1015D000D5003255930506C02D8D13351500456194
:1015E0008280797106D62AD4B53F11E9378560002B
:1015F0001305C5F9856593859594EF604051225593
:101600000325C518B25045618280397106DE2ADC97
:101610002EDA32D8813F11E9378560001305C5F90C
:101620008565938545A2EF60804E52559305851AD6
:101630002ED609C55255A1456313B5026255B25560
:101640002E950841C165FD154256E25632576D8D03
:10165000931506014D8DB385E60088C131A0625512
:10166000B25542562E9510C1F25021618280797197
:1016700006D62AD4552809E9378560001305B50038
:101680009305502EEF60A04873E0107C22554C4526
:1016900093E525004CC573F0107CB2504561828003
:1016A000797106D62AD4492009E9378560001305E7
:1016B000B50093053030EF60804573E0107C225513
:1016C0004C4593E505204CC573F0107CB250456144
:1016D0008280797106D62AD42ED2693511E93785F0
:1016E00060001305C5F985659385B525EF60204237
:1016F000125593050008636BB5003785600013052C
:10170000C5F985659385C525EF60604073E0107C61
:10171000225592550326C525D18D232EB52473F06D
:10172000107CB250456182807971AA852AD63966CB
:101730009306068005456383D502B25513060688D5
:10174000638EC5003256B965938605906308D6004E
:101750003255938505982D8D13351500456182808E
:10176000797106D62AD40966930606942ED2630FA1
:10177000D5002255930506D4630AB500378560006D
:10178000130545FD9305A036EF6060381255A2554C
:101790000A052E950841B250456182807971B7459E
:1017A000030093850540A98D93B515002AD62E8593
:1017B00045618280797106D62AD4CD3709E937850B
:1017C0006000130545049305703BEF6040342255DB
:1017D00008558965938505F06D8D2181B25045616D
:1017E0008280797106D62AD4553F09E93785600091
:1017F000130545049305A047EF6060312255484921
:10180000B25045618280797106D62AD4392809E917
:10181000378560001305B50793050014EF60202F8E
:1018200022550841B250456182807971AA852AD635
:1018300015660545638DC500B25541066389C5002F
:1018400032559565938505022D8D1335150045613B
:10185000828079712AD62AD40861456182807971A3
:101860002AD62AD408694561828079712AD62AD479
:1018700008654561828079712AD62AD44865456118
:101880008280397106DE2ADC0D45231BB102639D7F
:10189000A50037B5AA3E1305B5AA2AD837D5133FF8
:1018A0001305A5D32AD619A002D802D662554275CF
:1018B000B27501286255834561030520F25021610C
:1018C000828079712AD62AF42EF22AD008E1127089
:1018D0000255272205004561828079712AD6A30529
:1018E000B1022AD22304B50045618280397106DE37
:1018F0002ADC0D45231BB1026397A50037B5AA3E2C
:101900001305B5AA01A8035561038945631BB500FA
:101910003705803F2AD837D5133F1305A5D32AD6DC
:1019200019A002D802D662554275B275593F625568
:10193000834561035D37F25021618280397106DE93
:101940002AD62AD403258523EF60E03922550325C2
:101950008523EF60A03A2255032505252ADC02DA0B
:101960002AD823220500225503250525530500F01A
:1019700065282255032585197D2822550325C5256F
:101980002ADC02DA2AD82328050022550325052659
:101990002ADC02DA2AD823280500225503258525CA
:1019A0002ADC02DA2AD82328050022550325C5257A
:1019B0002ADC02DA2AD8232605002255032505262B
:1019C0002ADC02DA2AD8232605002255032585259C
:1019D0002ADC02DA2AD823260500225523220518FC
:1019E0002255232405182255232405122255232687
:1019F00005122255232005102255231F05002255CC
:101A00002315050222552316050222552318050227
:101A10002255231705022255231A050222552319A0
:101A20000502F2502161828079712AD62AF42AD2E5
:101A300008E145618280797106D62AD42AD208410C
:101A40009145EF001055125548419145EF007054F3
:101A5000125508459145EF00D0531255230A05024F
:101A6000B25045618280757106C7AADCAADA0325E7
:101A70004519AAD80720850482F68720C50486F474
:101A8000072145048AF25370011882F0537011182F
:101A900082EE0720050682EC8315A500072045127B
:101AA0004655D3F005D053F0001882EA072085058B
:101AB0008720C50546555370101082E88315C50070
:101AC000072045124655D3F005D053F0001882E6A2
:101AD00007204506465582E40720850682E23670D7
:101AE000E660067187A181FE56625370101082E095
:101AF0005370311053704010A670666102FE76601C
:101B00005662D3F0201006FC537030105370401012
:101B1000465502FA02D802D60720850687A0C1FEE4
:101B2000530510A005C946550720050587A001FFEC
:101B300007210521537010105370201802F8072058
:101B4000050587A041FF07214513537010105370FE
:101B5000201005A0266096606661B661D3701010F3
:101B6000D370111806F8D37031105370001053F071
:101B7000001802F656550325C5252AC5B7A5193EF6
:101B80009385A5992EC33716033A1306F62632C15C
:101B9000AADE0CC10A60765527220500565503259A
:101BA000C5252AC502C32AC123260500565503258B
:101BB000C5252AC502C32AC1232805005655032579
:101BC000C5252AC502C32AC1232A05005655032567
:101BD000C5252AC502C32AC1232C050056554660D7
:101BE0000325C525D31000202AC506E302E1AADE9D
:101BF000272E15000A607655272005025655032525
:101C000005262AC52EC332C1AADE0CC10A6076554C
:101C1000272205005655032505262AC502C32AC1D9
:101C2000232605005655032505262AC502C32AC1C9
:101C3000232805005655032505262AC502C32AC1B7
:101C4000232A05005655032505262AC502C32AC1A5
:101C5000232C05005655032505262AC502C302C1BB
:101C6000AADE232E05000A60765527200502565568
:101C7000032585252AC5B705C03F2EC337D64C3D61
:101C80001306D6CC32C1AADE0CC10A6076552722D3
:101C900005005655032585252AC502C32AC12326DA
:101CA00005005655032585252AC502C32AC12328C8
:101CB00005005655032585252AC502C32AC1232AB6
:101CC00005005655032585252AC502C32AC1232CA4
:101CD00005004655D6550720050503A58525D310D3
:101CE00000202AC506E302E1AADE272E15000A60BD
:101CF0007655272005025655032545252AC5B705E3
:101D0000F0412EC302C1AADE0CC10A60765527221B
:101D100005005655032545252AC502C32AC1232699
:101D200005005655032545252AC502C32AC1232887
:101D300005005655032545252AC502C32AC1232A75
:101D400005005655032545252AC502C32AC1232C63
:101D500005005655032545252AC5B705C0C02EC325
:101D60003706C04032C1AADE4CCD0A607655272026
:101D7000050266552120BA404961828039712ADA0C
:101D80002AD8832505192ED60325C5252ADE2ADC67
:101D90000720050027A8050242550325C5252ADE90
:101DA0002ADC072045003255272A05024255032523
:101DB00005262ADE2ADC072005003255272C0502DD
:101DC0004255032505262ADE2ADC07204500325528
:101DD000272E05024255032585252ADE2ADC072009
:101DE00005003255272405024255032585252ADEA4
:101DF0002ADC0720450032552726050242550325D7
:101E000045252ADE2ADC0720050032552720050259
:101E10004255032545252ADE2ADC07204500325598
:101E2000272205022161828079712AD62AD42313C0
:101E300001020945C165FD15035661026340C504F1
:101E400003566102A256060636962318060003566C
:101E50006102A25606063696231BB600035661029F
:101E6000A25606063696231E0600031661020506D4
:101E70002313C10203566102E354C5FC2255854574
:101E80002301B50245618280797106D62AD42AD20F
:101E9000832505192ED0035585036358A0001255DC
:101EA00083158503FD15231CB50212550345050551
:101EB000058931C5125503452505058911C51255FA
:101EC0008545A308B50425A812550355650301C926
:101ED000125583156503FD15231BB5020DA0125580
:101EE00003258523EF50F062630E051A0255031592
:101EF00045099255239BA5021255A30805041255C6
:101F000082550720451A87A04507539500A00DC1AB
:101F1000125582550355450283D5450863DDA50258
:101F200012558315C51093E515002316B51015A895
:101F3000125582550720451A87A08507531510A012
:101F40000DC1125503554502630005141255831542
:101F50004502FD1529A0125583154502850523125A
:101F6000B502125582550720451A87A0C50753159B
:101F700010A00DC1125582550355650283D5450841
:101F800063DCA50212558315C51093E525002316C1
:101F9000B5100DA8125582550720451A87A00508CF
:101FA000539500A005C11255035565026DC5125524
:101FB00083156502FD1529A0125583156502850557
:101FC0002313B5021255684D9145631CB50A12558D
:101FD00082550720452D87A00505539500A005C50E
:101FE000125582550355A50283D5650863D7A5020E
:101FF00012558315C51093E505042316B510125527
:10200000231505020DA012550355A502635DA0001E
:1020100012558315A502FD1529A012558315A50299
:1020200085052315B502125582550720C50B87A0DB
:10203000C505539500A015C51255825503552503B6
:1020400083D5E50863D9A50212558315C510056629
:1020500013060680D18D2316B510125523190502DB
:102060000DA0125503552503635DA000125583157D
:102070002503FD1529A01255831525038505231970
:10208000B502B2504561828012558355C510F99949
:102090002316B510F9B512558355C510F5992316B9
:1020A000B5100DB70255031565099255239BA5027E
:1020B00039B5397106DE2ADC2ADA0345550505896A
:1020C0006309051A5255A30A0504525507204529EC
:1020D0008720C52753701010537500585325A5A0AD
:1020E0006309051A52552720A52A5255072085292C
:1020F0008720C52753701010537500585325A5A08D
:10210000630E051852552722A52A52550720C529C6
:102110008720C52753701010537500585325A5A06C
:102120006303051852552724A52A52550720852BED
:102130008720052853701010537500585325A5A00B
:102140006308051652552722A52C52550720C52B8A
:102150008720052853701010537500585325A5A0EB
:10216000630D051452552724A52C52550720052C24
:102170008720052853701010537500585325A5A0CB
:102180006302051452552726A52C52550720052A0F
:102190008720452A539500A052550720052A02F8AA
:1021A0000720452A02F652550720852AC27053950A
:1021B00000A009C552550720852A11A0427052552A
:1021C00002F80720852AB270531510A009C5525590
:1021D0000720852A11A03270525502F60720852764
:1021E0008720C50B5370101802F48720852753955C
:1021F00000A009C552550720852711A0227052550D
:1022000002F4D31510C02314B526525583558526E4
:1022100007A081FFD3F015D053701018272E052684
:1022200052550720C527272005284270B270525505
:102230005371100853701000537001182728052C93
:1022400052550720052A8720452C0721452A87213A
:10225000852C0722852A8722C52C53701010D37035
:10226000311053701000D370521053701000272A91
:10227000052C5255072085148720C50B07214528BA
:102280005370101053702010272C052CF250216130
:10229000828053050020EF50F04CA9B55305002073
:1022A000EF50504C85B553050020EF50B04B9DBD0D
:1022B00053050020EF50104B71B553050020EF502F
:1022C000704A4DB553050020EF50D04965BD3971B6
:1022D00006DE2AD62AD43565392AC96583A6451172
:1022E00007A0C1FF4966B306D540D3F006D0D31688
:1022F00010A02328A61089EE0325061183A64511F8
:1023000007A00100158DD37005D0539500A051C5CD
:102310000325061183A545110D8D635EA00222558C
:1023200007208506D30000F0532510A009C92255C7
:10233000032585252ADC02DA2AD823260500225522
:10234000B705803F2CD5225507A08101872045077E
:1023500053F000001DA822550720850687A0C1FF65
:10236000532510A009C92255032585252ADC02DA48
:102370002AD823260500225523240506225507A026
:1023800081018720450753F00008272A0506496583
:1023900003250511C96523AAA510225587214507E4
:1023A0000EFC02DA07A0410087A08100530100F073
:1023B000D3F121000EF8C271D31530A0054581E597
:1023C000C271539521A00DC1C271531530A009C52A
:1023D000C271D3F111000EF8C271539521A061DDD5
:1023E000C271D3F10100F9B742702255272A0506C0
:1023F000F25021618280797106D62AD4A12109E99F
:10240000378560001305750B9305C020EF502070D1
:1024100022550841B2504561828079712AD62AD46A
:102420006C4D114563E5A500A255E8CD21A02255CC
:102430008D456CCD225585452CCD22552324050A8A
:1024400022552300B5042255231F0500225583156C
:10245000C5038505231EB5024561828079712AD6A0
:102460002AD42324050A2255230005042255232CAF
:102470000504225591456CCD2255231D0502456169
:102480008280397106DE22DC22FA2AD82AD68325F8
:1024900005192ED403450504058945C93255032580
:1024A0008523EF507013B945631CB50432550345BD
:1024B0001505058931C53255032585238545EF501E
:1024C00050193255A25503258523A861EF5050209D
:1024D00022550720C501872045005370100802F2DD
:1024E0008720450007A1C10053200020D3F0201011
:1024F000531510A039C93255032585238545A1A060
:10250000325503258523530400F053058420EF50F2
:10251000301C32550325852353058420EF50D019F4
:102520003255032485232285EF5050082285EF5031
:1025300030173255032585238145EF5090113255D0
:10254000032585238145EF50101452746254F250D4
:1025500021618280797106D62AD42AD28325051971
:102560002ED003258523EF503007925523A8A522AE
:10257000125503258523EF509007925523AAA522D3
:10258000125503258523EF501001025508E112551D
:1025900003258523EF509001025548E1125503258C
:1025A0008523EF50207B025508E51255032585232E
:1025B000EF50A07B025548E5125503258523EF50C7
:1025C000A076025548E9125503258523EF50C075C2
:1025D00007A0010102555370051027280500125568
:1025E00003258523EF50A075025568E11255032598
:1025F0008523EF50E078025508ED12550325852319
:10260000EF50006D12552724A5141255032585237C
:10261000EF50207B025548ED1255072045178720C3
:10262000851753700010D3F01010537010005375BD
:1026300000585325A5A015C91255272AA5101255D3
:10264000072045158720851553700010D3F0101012
:1026500053701000537500585325A5A001CD125595
:10266000272CA510B2504561828053050020EF5001
:10267000700FD9B753050020EF50D00ECDB7797148
:102680002AD62AD40720851A87208528537000105F
:1026900053F000002724052822550720C51A87205B
:1026A000C5285370001053F0000027260528225536
:1026B0000720051B872005295370001053F00000E8
:1026C0002728052822550720451B8720C52A537037
:1026D000001053F000002726052A22550720851BED
:1026E0008720052B5370001053F000002728052A7F
:1026F00022550720C51B8720452B5370001053F02F
:102700000000272A052A22558315A52685052315AD
:10271000B52622558355A526035585266359B5064A
:10272000225507208528272A052822550720C52855
:10273000272C0528225507200529272E0528225554
:102740002324052822552326052822552328052839
:1027500022550720C52A272C052A22550720052B9C
:10276000272E052A22550720452B2720052C2255E8
:102770002326052A22552328052A2255232A052AFD
:1027800022552315052622558545A30AB504456122
:102790008280797106D62AD42ED2B92011E93785E4
:1027A00060001305C5F985659385D52CEF5020365B
:1027B00003554102137515F811C9378560001305DB
:1027C000C5F985659385E52CEF50603473E0107C86
:1027D000225592550326C526D18D2326B52673F0A2
:1027E000107CB250456182807971AA852AD629660B
:1027F00005456387C504B255130606406382C504C8
:102800003256AD6593860580630CD60232569385A9
:1028100005C06307B6023256AD656303B602325691
:1028200093850540630EB6003256B16593860580E8
:102830006308D6003255938505C02D8D13351500DC
:10284000456182807971AA852AD6356605456388F7
:10285000C5003255930506142D8D133515004561BD
:102860008280797106D62AD42AD23920125521289D
:102870001255B2504561828079712AD62AD4230636
:1028800005004561828079712AD62AD4A306050005
:1028900045618280397106DE22DC26DA4AD82AD6E2
:1028A0002AD42312010208458545452022550845B2
:1028B0008545612823130102231201021165791550
:1028C00083554102634CB500010083154102850523
:1028D0002312B10283554102E358B5FE416513044A
:1028E000F5FF9304803E0549325581457D2093755F
:1028F0000540014589C5035561021325853E11CD6B
:10290000031561020505B37585002313A102E3CD0C
:1029100095FC2255A3062501C1BF231201022165A2
:10292000791583554102634CB500010083154102BE
:1029300085052312B10283554102E358B5FE425981
:10294000D2546254F25021618280397106DE2ADC51
:102950002EDA712909E9378560001305F50E930514
:10296000201CEF50C01A625593551500C199374687
:102970000300130606E0B29552562ED885453395CE
:10298000A5002AD609C63255C255C8C121A0325564
:10299000C25588C5F250216182805D7186C6A2C48D
:1029A000A6C2AAC02EDE2ADC2319010223170102C7
:1029B00002D405450146E922231BA102231A010284
:1029C0001D4583554103634CB50001008315410348
:1029D0008505231AB10283554103E358B5FE6255BC
:1029E00008416D2A62550841ED22231A01027D45F6
:1029F00083554103634CB5000100831541038505F0
:102A0000231AB10283554103E358B5FE62550841CC
:102A100083556103CD2A41651304F5FF8544225592
:102A200015E162550841192C2AD40315E102050568
:102A3000B37585002317A102E3C385FE6255230603
:102A40009500F1BF41657D152317A102231A0102EC
:102A50001305F00F83554103634CB5000100831546
:102A600041038505231AB10283554103E358B5FE9E
:102A700062550841DD2A2318A1020355010313758D
:102A8000F57F96442644B6406161828079712AD6EA
:102A90002ED42AD20CC14561828079712AD62ED4D7
:102AA0002AD24CC14561828079712AD62ED42AD28D
:102AB0000CC545618280397106DE22DC2ADA2ED807
:102AC000239E05004255231005024255A30105022D
:102AD0004255231D05004255231F05004255230181
:102AE00005024255A30C05004255230C0500525522
:102AF00002D681455D35C2552315A1022390A5005C
:102B000052550564930504802ED6413DC2552315C8
:102B1000A1022391A500525522D68565BD3DC2551F
:102B20002315A1022392A500525509649305048040
:102B30002ED6A535C2552315A1022394A5005255C2
:102B400022D68965993DC2552315A1022396A50079
:102B500052550D64930504802ED68135C255231538
:102B6000A1022398A500525522D68D653D35C25548
:102B70002315A102239AA5006254F250216182809C
:102B800079712AD62ED44D8D9375F67F4D8DC16502
:102B9000FD156D8D2313C10245618280797106D6C2
:102BA0002AD49D2C09E93785600013057512930519
:102BB000B023EF40D07522554C5179767D16F18DBA
:102BC0004CD122554C510966D18D4CD1B250456142
:102BD0008280797106D62AD4812409E9378560007C
:102BE000130575129305B01EEF40707222550C51FB
:102BF0001966D18D0CD122554C510966D18D4CD11D
:102C0000B25045618280797106D62AD42313B1026D
:102C1000212409E937856000130575129305B03842
:102C2000EF40F06E225508451375050265FD03550A
:102C30006102A25588CDB25045618280797106D675
:102C40002AD4D92A09E9378560001305751293053E
:102C5000D02BEF40D06B225548518965938505F004
:102C60006D8D2181B25045618280797106D62AD45A
:102C7000652209E937856000130575129305B031A7
:102C8000EF40F06822554849C165FD156D8DB25081
:102C900045618280397106DE2ADC2EDA2319C102F1
:102CA0002AD60145F13D2315A102231401021D4539
:102CB00083558102634CB5000100831581028505AF
:102CC0002314B10283558102E358B5FE3255084101
:102CD000F13532550841F53D231401021305F00387
:102CE00083558102634CB50001008315810285057F
:102CF0002314B10283558102E358B5FE32550841D1
:102D00008355A1020937231401021305F00F8355DF
:102D10008102634CB50001008315810285052314EF
:102D2000B10283558102E358B5FEF25021618280E1
:102D3000397106DE22DC2ADA2ED803C58501058921
:102D400041C1425585652ED683554500525513F62F
:102D5000F57F2315C1028565353F4255096493050A
:102D600004802ED60356850052551376F67F231520
:102D7000C1020D37425522D68355C500525513F670
:102D8000F57F2315C1028965313742550D649305DE
:102D900004802ED60356050152551376F67F23156F
:102DA000C102CD3D425522D683554501525513F6F9
:102DB000F57F2315C1028D65F13D4255230C0500B9
:102DC000425503452502058919CD42558355A50174
:102DD000AE052ED60356E50152552315C1025D3DC1
:102DE0004255230105026254F250216182807971BB
:102DF000AA852AD61306C003054563EAC5003255E5
:102E00009305000E6367B50032551335850F456194
:102E100082800145456182807971AA852AD639660A
:102E200005456388C5003255930506082D8D133579
:102E3000150045618280797106D6EFD06FBA21897D
:102E400013351500B25045618280011173E0107C8A
:102E500037950300832505E593E585062328B5E42A
:102E600073F0107C05618280797106D62AD40545FD
:102E70003D203715D000130515C0EF3050573705EA
:102E8000220013053510EF3090560965130505C073
:102E9000814529280545AD20B25045618280797170
:102EA0002AD6956523A2A51045618280397106DE78
:102EB0002ADC2EDAEF20B00209E93785600013051D
:102EC00045FD93050069EF4090445255E2551316B5
:102ED0001500719AB295F1052ED805890E052AD6EE
:102EE00073E0107C4255B255104193060002B39531
:102EF000B600D18D0CC173F0107CF250216182803C
:102F000079712AD6B715100003A605C1518D23A8E3
:102F1000A5C04561828079712AD645618280797128
:102F200006D62AD42120B25045618280797106D616
:102F3000EFD08FAB218913351500B25045618280E7
:102F4000797106D62AD42AD22AD00137025589654A
:102F50001386058010C10255138605C050C1025565
:102F60001386059410C50255938505D44CC50255AA
:102F7000B7450300938505404CCD02558D650CD5B2
:102F800002551386051850D502551386052010D911
:102F900002551386052850D90255938505300CDD5E
:102FA000025595650CC902551386050150C9025595
:102FB000938505020CCDB25045618280397106DEE1
:102FC00022DC2AD8130530042ED66364B50002DA59
:102FD000B1A842552AD42AD2A9650CC112559385AD
:102FE00005404CC11255AD65938505800CC5125541
:102FF0003964930504804CC512551306049010C91A
:1030000012554CC91255B5650CCD12551305450224
:10301000EFF03F85925588D1125540CD1255F545B8
:103020000CDD1255ED454CDD22552ADA05452AD036
:1030300052556254F25021618280797106D62AD4A9
:10304000DD3B22551D202255A521225507A5C10192
:10305000EF0040642255EF0040682255EF00406BBE
:10306000EF00A072B250456182805D7186C6A2C435
:10307000A6C2CAC04EDE52DC56DA5AD82AD6370467
:103080000C0013051400EF30301C85450145EF306E
:10309000406001458145EF30807613051420EF3004
:1030A000B01A05458545EF30C05E05458145EF30D6
:1030B000007513051440EF30301909458545EF3090
:1030C000405D09458145EF30807313051460EF3092
:1030D000B0170D458545EF30C05B0D458145EF309C
:1030E000007237140C0013051480EF30F0151145F1
:1030F0008545EF30005A11458145EF304070372942
:103100000C001305D9E0EF3030143D458545EF3014
:1031100040583D458145EF30806E130574A0EF3077
:10312000B01215458545EF30C05615458145EF3045
:10313000006D37150C00EF30301121458545EF103B
:10314000607B21458545EF30C05421458545EF30F2
:10315000006B13057420EF30300F25458545EF30A7
:10316000405325458545EF30806913057440EF30A5
:10317000B00D29458145EF30C05129458545EF30D7
:1031800000681305D460EF30300C2D458545EF30D5
:1031900040502D458545EF308066B71910001385E6
:1031A0000960EF30700A6D458145EF10A0746D45E0
:1031B0008545EF30004E6D458145EF304064372A3C
:1031C000100013050AA0EF30300875458545EF1053
:1031D000607275458545EF30C04B75458145EF30D0
:1031E0000062B71A8C0013850A40EF30F005130512
:1031F000A0028145EF30E0491305A0028145EF3080
:103200000060370B8C0013050B40EF30F003130503
:1032100020028145EF30E047130520028145EF3061
:10322000005E13051B60EF30300213053002854548
:10323000EF30E05C130530028D45EF30E06613059A
:10324000E0028145EF30E0441305E0028145EF30B4
:10325000A0651305E002A145EF30804C2145914562
:10326000EF10606E2145EF10407037258C0013057C
:103270005580EF30607D1305C0028145EF3060411D
:103280001305C0028145EF30805713859AA0EF30B7
:10329000A07B130550028145EF30A03F130550027B
:1032A0008145EF30C0551385AA60EF30E0791305F2
:1032B000B0028145EF30E03D1305B0028145EF30AB
:1032C0000054B704100013850460EF30E0774D45DB
:1032D0008545EF1020624D458545EF30803B4D45DB
:1032E0008145EF30C05113051980EF30E07531454D
:1032F0008545EF30003A31458145EF3040501305A8
:1033000019A0EF30607435458545EF30803835457C
:103310008145EF30C04E130514C0EF30E0721945FF
:103320008545EF30003719458145EF30404D130595
:1033300014E0EF3060711D458545EF3080351D4547
:103340008145EF30C04B13855400EF30E06F4145AD
:103350008545EF30003441458145EF30404A1385C3
:103360005420EF30606E45458545EF30803245454D
:103370008145EF30C04813053B20EF30E06C13056A
:1033800010028545EF30E030130510028145EF3023
:10339000004737058C00EF30206B13050002854590
:1033A000EF104055130500028545EF30802E1305C0
:1033B00000028545EF30A044138569C0EF30C06836
:1033C00059458545EF30E02C59458545EF30204380
:1033D00013053AE0EF3040677D458145EF30602BC3
:1033E0007D458545EF30A04113053AC0EF30C065FB
:1033F00079458545EF30E02979458545EF30204016
:1034000037151000EF30406461458545EF10804E60
:1034100061458545EF30E02761458145EF30203E2D
:1034200013850A20EF304062130590028145EF308A
:103430004026130590028145EF30603C1305A9C07A
:10344000EF30806039458145EF30A0243945814512
:10345000EF30E03A13852920EF30005F6545814564
:10346000EF30202365458145EF30603913852940D1
:10347000EF30805D69458145EF30A0216945814588
:10348000EF30E03713850440EF30005C494581455B
:10349000EF30202049458145EF306036425BD25AFB
:1034A000625AF259064996442644B64061618280C8
:1034B000397106DE22DC26DA2AD82AD61305400620
:1034C00097F0A0FFE780C08CEF001053896403A53C
:1034D0000480A1654D8D23A0A48073E0107C3795F6
:1034E000030085454CC173F0107C37751800130537
:1034F000159F97F0A0FFE780A089325508419145BC
:10350000EF001051325548419145EF00705032554F
:1035100008419145EF007053325548419145EF0005
:10352000D05232550841C145EF00D055325548417F
:10353000C145EF00305532550841EF005058325523
:103540004841EF00D0571385047197F0A0FFE78042
:103550002084138404C0354622858145EF007059CC
:103560009384048089451546AD4621472685EF00A2
:10357000705E8D451546AD4621472685EF00905D6E
:1035800085451546AD4621472685EF00B05C894547
:103590001546914621472285EF00D05B8D451546A3
:1035A000914621472285EF00F05A85451546914600
:1035B00021472285EF00105AA14515469D46214717
:1035C0002285EF003059A54515469D4621472285A5
:1035D000EF005058A94515469D4621472285EF002A
:1035E000705795451546994621472685EF00905618
:1035F00099451546994621472685EF00B0559145D6
:103600001546994621472685EF00D0549945154621
:10361000954621472285EF00F0539D451546954676
:1036200021472285EF0010539545154695462147C1
:103630002285EF0030529D45154689462147268553
:10364000EF005051A1451546894621472685EF00D8
:103650007050A5451546894621472685EF00904FB5
:10366000AD451546994621472285EF00B04EB1453C
:103670001546994621472285EF00D04DB5451546A0
:10368000994621472285EF00F04CD2546254F25003
:1036900021618280397106DE07A001022ADC2AFA44
:1036A0002AD85370A018D31510C02ED608498145CA
:1036B000EF10906B42550849856593850580EF2092
:1036C000B05F42550849B255EF10906C4255084919
:1036D000EF10906EF25021618280797106D62AD463
:1036E0002AD2084D8145EF1030681255084D856586
:1036F00093850580EF20505C1255084DFD55EF1065
:1037000030691255084DEF10306BB2504561828020
:10371000797106D62AD42AD2484D9305F00FEF309E
:1037200000671255484DEF1030471255484DEF10C5
:1037300050491255484DEF10304C1255484DEF107E
:10374000104F1255484DB775890993850580371676
:103750000E009D46EF30A0531255484DEF1090508B
:103760001255484DEF1090521255484DEF105055DC
:103770001255484D15468145EF1070581255484D69
:10378000EF10F05BB25045618280797106D6EF1080
:1037900090660545EF10D067B2504561828079711F
:1037A00006D62AD42ED283C505012520925522554E
:1037B00083C51501052822553D2822556D26225521
:1037C0001D2B2255FD2B2255EF002066B25045617E
:1037D000828079712AD62315B1022AD22310B5042A
:1037E0004561828079712AD62315B1022AD223112C
:1037F000B50445618280397106DE22DC26DA2AD8DA
:103800002AD60965130505F42314A10205452313DF
:10381000A102056513050520EF10E01A3255084195
:103820009145EF10601E325548419145EF10C01D83
:10383000325508459145EF10201D2315010289449A
:1038400041651304F5FF0355A10263CDA420035580
:10385000A102B2550A052E9508418945EF10402076
:103860000355A102B2550A052E950841EF106022BA
:103870000355A102B2550A052E9508418545EF1062
:10388000E0230355A102B2550A052E95084185454E
:10389000EF1060260355A102B2550A052E95084186
:1038A00081450146EF10C0290355A102B2550A0512
:1038B0002E9508418545EF10E02C0355A102B25525
:1038C0000A052E9508418945EF20D0440355A102F1
:1038D000B2550A052E9508418145EF10C02E0355BB
:1038E000A102B2550A052E9508418145EF10A0317D
:1038F0000355A102B2550A052E9508418145EF10E6
:1039000020330355A102B2550A052E950841814581
:103910000146EF10C0340355A102B2550A052E9599
:103920000841A1450146EF1080330355A102B2556D
:103930000A052E950841D1450146EF104032035546
:10394000A102B2550A052E950841F1450146EF1036
:1039500000310355A102B2550A052E9508410946CA
:1039600091468145EF10E0380355A102B2550A0592
:103970002E950841094689468145EF108037035549
:10398000A102B2550A052E95084105469946814582
:10399000EF1020360355A102B2550A052E950841B5
:1039A000054681458146EF10C0340355A102B2554A
:1039B0000A052E95084185450546EF10C03B035585
:1039C000A102B2550A052E95084105468145EF1022
:1039D000803A0355A102B2550A052E95084181454A
:1039E000EF10E03E0355A102B2550A052E9508419D
:1039F00085450146EF10E0420355A102B2550A0584
:103A00002E95084105468145EF10A0410355A102BE
:103A1000B2550A052E950841A145EF108045035582
:103A2000A102B2550A052E950841A145EF10C048E4
:103A30000355A102B2550A052E950841EF10204CFE
:103A40000355A102B2550A052E950841A285EF1033
:103A5000C04D0315A10205052315A1020355A102BE
:103A6000E3D7A4DE325508418545EF10E04F3255CB
:103A70000841EF10E05C3255084129468145EF10BE
:103A8000405F325508418145EF10E07103556102F6
:103A9000C1456342B50232550841BD45EF10E0749F
:103AA000325508413D468145EF10007A32550841B4
:103AB00085453D46B9A0035561026355A0023255C4
:103AC000084183556102EF10407232550841035698
:103AD00061028145EF10407732550841035661027B
:103AE000854505A0325508418545EF1000703255D7
:103AF000084105468145EF1020753255084185453E
:103B00000546EF10607432550841EF10007C3255C5
:103B100008418145EF10607E325508418545EF1020
:103B2000C07D3255084183558102EF106010325537
:103B3000484183558102EF10A00F32550845835547
:103B40008102EF10E00E32550841D1452946EF10B1
:103B5000607E056513050520EF001063D2546254A2
:103B6000F25021618280397106DE22DC2ADA2AD8FD
:103B70000565130505E02317A10213050020231690
:103B8000A10285450145EF00300485450145EF0060
:103B9000500819459145EF00300319459145EF0054
:103BA00050078D450145EF0030028D450145EF007E
:103BB00050062315010209440355A1026349A412CA
:103BC0000355A102C2550A052E954845EF0010097C
:103BD0000355A102C2550A052E9548458145EF00BF
:103BE000D00B0355A102C2550A052E9548458145C3
:103BF000EF00700E0355A102C2550A052E954845E7
:103C000093058002EF0070110355A102C2550A0509
:103C10002E9548459305A002EF00F0130355A1022D
:103C2000C2550A052E954845930500021306000269
:103C3000F946EF20206F0355A102C2550A052E95C3
:103C40004845EF0090150355A102C2550A052E956F
:103C500048459305000213060002F946EF20C07A9A
:103C60000355A102C2550A052E954845EF003016AE
:103C70000355A102C2550A052E9548458545EF001A
:103C800050180355A102C2550A052E954845814595
:103C9000EF00901C0355A102C2550A052E95484518
:103CA0008355E102EF00101F0355A102C2550A051A
:103CB0002E9548458355C102EF00D0210355A1023E
:103CC000C2550A052E954845EF00D0240355A102A0
:103CD000C2550A052E954845EF0010270315A1028D
:103CE00005052315A1020355A102E35BA4EC625470
:103CF000F250216182805D7186C6A2C4A6C2AAC0AC
:103D00002ADE084D8545812A7255084D8545BD2A14
:103D1000725502D802DA02DC084D02D402D202D077
:103D20000C10612A7255084D8145D12A7255084DF3
:103D30008145014681460147EF20D0087255084D64
:103D4000856413840480A285ED227255084D89454F
:103D5000392C7255084D938404FA81452686B12486
:103D60007255084D814551247255084D81455D2499
:103D70007255084DE9247255084DFD247255084DC1
:103D8000D145012E7255084D8145352E7255084D8D
:103D9000AD267255084DA2857D287255084DA68521
:103DA00051267255084D8545652E7255084D814541
:103DB000CD2E7255084D192996442644B6406161AE
:103DC0008280797106D62AD42AD2484DEF00101F7E
:103DD0001255484DB77589099385058037761800C7
:103DE000130706A09946C1470146EF30200512553A
:103DF000484DEF00701F1255484DC145EF0070212E
:103E00001255484DEF0050241255484DC145EF0062
:103E100010271255484DA145EF3060121255484DFC
:103E2000EF00902AB25045618280797106D62AD47B
:103E30002AD210514C4D3285EFE05FC51255085122
:103E4000A145EFE09FC512550851F545EFE0DFC5EC
:103E5000B25045618280797106D62AD42313B1020B
:103E6000EF10100A09E9378560001305750B9305FB
:103E7000B029EF30D049225583556102505D93C57A
:103E8000F5FFF18D4CDDB25045618280797106D627
:103E90002AD42313B102EF10B00609E93785600078
:103EA0001305750B9305902EEF3070460355610294
:103EB000A255E8C1B25045618280797106D622D4FC
:103EC0002E842AD2EF10D00309E93785600013054C
:103ED000750B9305F06DEF30904312556855FD75E5
:103EE000504014406D8D0C441206558E9256A2051A
:103EF000D18D4D8DE8D62254B250456182807971C2
:103F000006D62AD42ED2EF10A07F09E937856000AB
:103F10001305750B9305E068EF30703F225568512B
:103F200083554102225671994D8D68D2B250456138
:103F30008280797106D62AD42313B102EF10407C17
:103F400009E9378560001305750B9305101CEF30E8
:103F5000103C22554855CD7503566102A2569385F3
:103F6000F51F6D8D518DC8D6B25045618280797133
:103F700006D62AD42ED2EF10A07809E93785600042
:103F80001305750B9305B070EF3070382255085942
:103F9000D17503564102FD15A2566D8D9315E600AD
:103FA0004D8D88DAB25045618280797106D62AD467
:103FB0002ED232D0EF10C07409E9378560001305A6
:103FC000750B9305901EEF30903422550859F57506
:103FD00003564102A256FD156D8D518D88DA0255AA
:103FE000A25588C5B25045618280797106D62AD41F
:103FF0002ED2EF10E07009E9378560001305750BCC
:1040000093057022EF30B0301255A25588C1B250DE
:1040100045618280797106D62AD42ED2EF10406E87
:1040200009E9378560001305750B93058047EF306C
:10403000102E1255A25588D1B250456182807971F7
:1040400006D62AD4EF10C06B09E937856000130546
:10405000750B9305304BEF30902B22550C59F59989
:104060000CD9B25045618280797106D62AD4EF10FE
:10407000206909E9378560001305750B9305104F1A
:10408000EF30F02822550C59F9990CD9B2504561FE
:104090008280797106D62AD42ED2EF10606609E9A3
:1040A000378560001305750B9305D05BEF30302624
:1040B00022550859925522561375B5F84D8D08DAD8
:1040C000B25045618280797106D62AD42ED2EF1083
:1040D000206309E9378560001305750B9305B06609
:1040E000EF30F0222255285583554102225661991E
:1040F0004D8D28D6B25045618280797106D62AD47A
:10410000EF10006009E9378560001305750B930512
:10411000406CEF30D01F22554C55F9994CD5B25018
:1041200045618280797106D62AD42313B102EF103B
:10413000205D09E9378560001305750B9305A054D0
:10414000EF30F01C22550859FD7503566102A25646
:104150009385F50F6D8D518D88DAB250456182805F
:10416000797106D62AD4A303B102EF10605909E988
:10417000378560001305750B9305D056EF30301965
:1041800003457102058911C522550C5993E50508AF
:1041900029A022550C5993F5F5F70CD9B250456179
:1041A0008280797106D62AD42ED2EF10605509E9A3
:1041B000378560001305750B93051059EF303015E6
:1041C0001255A255C8C1B25045618280797106D698
:1041D0002AD4EF10E05209E9378560001305750B0A
:1041E0009305E017EF30B01222550C5993E5850086
:1041F0000CD9B25045618280011173E0107C379573
:1042000003000C41F9990CC173F0107C05618280A8
:10421000797106D62AD42ED2EF10604C09E9378581
:104220006000130545FD9305E018EF30500E73E074
:10423000107C225548419255225641994D8D48C2D5
:1042400073F0107CB25045618280797106D62AD411
:104250002ED2EF10C04809E937856000130545FDEF
:1042600093057022EF30B00A73E0107C22550841AC
:10427000925522566D994D8D08C273F0107CB25044
:1042800045618280797106D62AD42ED2EF1020455E
:1042900009E937856000130545FD9305A041EF301E
:1042A000100773E0107C225548519255225601990F
:1042B0004D8D48D273F0107CB25045618280797187
:1042C00006D62AD4EF10A04109E93785600013050E
:1042D00045FD9305A026EF30900373E0107C225536
:1042E0000C4193E505080CC173F0107CB250456198
:1042F0008280397106DE2ADC2EDA32D8EF10203EB9
:1043000009E937856000130545FD9305006FEF301F
:1043100010005255E25513161500719AB295F10529
:104320002ED605890E052AD473E0107C325508413B
:10433000A2553D463316B600C2561346F6FF325715
:10434000718DB395B6004D8D08C373F0107CF2509B
:1043500021618280397106DE2ADC2EDA32D836D627
:104360003AD4EF10C03709E937856000130545FDE1
:104370009305501CEF30A079225511C522559305A5
:104380001020636AB50037856000130545FD93056D
:10439000601CEF30C0775255E2550A052E95130583
:1043A00005042AD273E0107C3255C2553E052256D0
:1043B000D20592564D8D9305F6FF4D8D88C273F050
:1043C000107CF25021618280797106D62AD415457D
:1043D0002ED263EAA500378560001305E515930525
:1043E000101BEF30C07273E0107C379503004C4512
:1043F00022569D461257B396C60093C6F6FFF58D1A
:104400003316C700D18D4CC573F0107CB250456196
:104410008280797106D62AD415452ED263EAA5008A
:10442000378560001305E5159305501DEF30206EAC
:1044300073E0107C379503000C4922569D461257B5
:10444000B396C60093C6F6FFF58D3316C700D18D1F
:104450000CC973F0107CB25045618280797106D628
:104460002AD4EF10C02B09E9378560001305B50089
:104470009305000EEF30A06973E0107C22550C41CB
:104480002166D18D0CC122554C4193E585004CC16C
:1044900073F0107CB25045618280797106D62AD4BF
:1044A0002ED2EF10C02709E9378560001305B5004B
:1044B0009305C012EF30A06573E0107C22550841CF
:1044C000925522561375C5FB4D8D08C273F0107CB2
:1044D000B25045618280797106D62AD42ED2EF106F
:1044E000002409E9378560001305B5009305A01580
:1044F000EF30E06173E0107C22550841F1751256EF
:104500009385F5CFA2566D8D931586004D8D88C28B
:1045100073F0107CB25045618280797106D62AD43E
:104520002ED2EF10C01F09E9378560001305B500D2
:1045300093059018EF30A05D73E0107C2255084180
:1045400092552256137535FC4D8D08C273F0107CC0
:10455000B25045618280797106D62AD42ED2EF10EE
:10456000001C09E9378560001305B5009305A01B01
:10457000EF30E05973E0107C22550841F175125676
:104580009385F53FA2566D8D931586004D8D88C29B
:1045900073F0107CB25045618280797106D62AD4BE
:1045A000EF10E01709E9378560001305B5009305A2
:1045B0000027EF30C05573E0107C22552C45216652
:1045C000D18D2CC573F0107CB25045618280797119
:1045D00006D62AD4EF10A01409E937856000130528
:1045E000B50093051029EF30805273E0107C2255FE
:1045F0002C412166D18D2CC173F0107CB2504561E5
:104600008280797106D62AD42ED2EF10401109E9A2
:10461000378560001305B5009305803EEF30204FCD
:1046200012559D45636AB500378560001305B500D6
:104630009305903EEF30A04D73E0107C22554C4125
:10464000E1994CC1225592555041D18D4CC173F026
:10465000107CB25045618280797106D62AD42ED260
:10466000EF10E00B09E9378560001305B5009305ED
:104670000021EF30C04973E0107C22550849925563
:1046800022561375E5F54D8D08CA73F0107CB250B3
:1046900045618280797106D62AD42ED2EF10200887
:1046A00009E9378560001305B50093054023EF3015
:1046B00000461255318109C9378560001305B500E0
:1046C00093055023EF30A0441255A255C8C9B250EB
:1046D00045618280797106D62AD42ED2EF1020044B
:1046E00009E9378560001305B50093052025EF30F3
:1046F00000421255318109C9378560001305B500A4
:1047000093053025EF30A0401255A25588D9B250FC
:1047100045618280797106D62AD4EF10400009E9FC
:10472000378560001305B5009305502EEF30203E0D
:1047300073E0107C22554C4593E525004CC573F081
:10474000107CB25045618280797106D62AD4EF0080
:10475000107D09E9378560001305B50093053030F9
:10476000EF30E03A73E0107C22554C4593E505208C
:104770004CC573F0107CB25045618280797106D6C9
:104780002AD42AD20851EFE0EF90B25045618280DE
:10479000797106D62AD42ED22AD00851EFE04FD90B
:1047A000B25045618280797106D62AD42ED22AD0A1
:1047B0000851EFE04FB0B25045618280797106D662
:1047C0002AD4EF00507909E9378560001305751286
:1047D0009305C01BEF30A03322550C4193F5F5F73C
:1047E0000CC1B25045618280797106D62AD4EF009F
:1047F000907609E9378560001305751293053042FC
:10480000EF30E03022550C41BD990CC1B2504561EA
:104810008280797106D62AD42ED2EF00D07309E9AE
:10482000378560001305751293058046EF30202E02
:10483000225548558355410222561375F5FC4D8D7E
:1048400048D6B25045618280797106D62AD4EF00ED
:10485000907009E937856000130575129305B01E45
:10486000EF30E02A22550C511966D18D0CD122551A
:104870004C510966D18D4CD1B2504561828079711D
:1048800006D62AD42313B102EF00F06C09E937856C
:1048900060001305751293056048EF3040270355FB
:1048A000610293050010636AB50037856000130547
:1048B000751293057048EF30802503556102A255AB
:1048C00088D5B25045618280797106D62AD4EF002E
:1048D000906809E937856000130575129305501A31
:1048E000EF30E02222550C4193E505080CC1B2508F
:1048F00045618280397106DE2ADC2EDAEF00506DC8
:1049000009E9378560001305F50E9305201CEF308B
:104910000020625593551500C199374603001306D0
:1049200006E0B29552562ED885453395A5002AD675
:1049300009C63255C255C8C121A03255C25588C5D5
:10494000F2502161828079712AD62ED495659385A3
:1049500005202E9508414166A25632574D16718D9D
:10496000558DBA9588C14561828079712AD6956541
:10497000938505202E95C165FD156D8D0C4193E540
:1049800015000CC14561828079712AD69375F503B3
:104990008A052ED48965938505F06D8D21812AD2F3
:1049A00073E0107C22559255378603001306462487
:1049B000329510418546B395B600D18D0CC173F088
:1049C000107C4561828079712AD69375F5038A053A
:1049D0002ED48965938505F06D8D21812AD273E0EF
:1049E000107C2255925537860300130646243295D3
:1049F00010418546B395B60093C5F5FFF18D0CC106
:104A000073F0107C45618280797106D62AD42ED24B
:104A1000EF00505611E9378560001305C5F985652B
:104A20009385D52CEF30A00E03554102137515F870
:104A300011C9378560001305C5F985659385E52C97
:104A4000EF30E00C73E0107C225592550326C5260A
:104A5000D18D2326B52673F0107CB250456182803B
:104A6000797106D62AD42ED2EF00D05009E93785C5
:104A700060001305C5F99305307EEF3040092255DB
:104A800008419255225671994D8D08C2B250456128
:104A90008280797106D62AD4EF00D04D09E9378596
:104AA00060001305C5F99305407CEF3040062255A0
:104AB0000C41ED990CC1B25045618280797106D6E6
:104AC0002AD42ED2EF00104B09E937856000130578
:104AD000C5F993057078EF308003125511C5225542
:104AE0000C4193E5850021A022550C41DD990CC1B4
:104AF000B25045618280797106D62AD42ED2EF0059
:104B0000704709E9378560001305C5F99305807181
:104B1000EF20F07F125593050008636AB5003785D2
:104B200060001305C5F993059071EF20507E225562
:104B3000084D925522564D8D08CEB2504561828067
:104B4000797106D62AD42ED232D0EF00B04209E9CC
:104B5000378560001305C5F99305D069EF20307BD8
:104B600022550841F97512569385F50782566D8DC9
:104B70009315A60022569E06D58D4D8D08C2B250C3
:104B800045618280797106D62AD42ED2EF00903EFC
:104B900009E9378560001305C5F99305D066EF2054
:104BA0001077125585456317B50022550C410966EB
:104BB000D18D31A022550C4179767D16F18D0CC135
:104BC000B25045618280797106D62AD42ED2EF0088
:104BD000703A11E9378560001305C5F9856593853D
:104BE000E590EF20D072225503250518C1651256B5
:104BF000FD15A2566D8D931506014D8D23A0A618A7
:104C0000B25045618280797106D62AD42ED2EF0047
:104C1000703609E9378560001305C5F99305F0641E
:104C2000EF20F06E1255A25588C9B25045618280BE
:104C3000797106D62AD42ED2EF00D03311E9378508
:104C400060001305C5F9856593850593EF20306CE9
:104C50001255A25523A6A518B2504561828039711C
:104C600006DE2ADC2EDA32D8EF00D03011E93785A3
:104C700060001305C5F985659385159BEF203069A4
:104C8000525509C55255D1456317B50029452AD655
:104C900002D4114531A031452AD609452AD41945F7
:104CA0002AD25255E25511892E95930505022ED030
:104CB0000851B25522568D463397B6009257B39697
:104CC000C600D98E05473317F700C257D98E93C651
:104CD000F6FF758D93D62700B395B60093F637008F
:104CE00002573396C600D18D4D8D08C3F250216115
:104CF0008280397106DE2ADC2EDA32D836D6EF0011
:104D0000702711E9378560001305C5F9856593851E
:104D100025B8EF20D05F5255B2551306051032D496
:104D20001305451085892AD285C1625592552E9565
:104D30000841B255FD150D463316B6001346F6FF71
:104D4000C2566257925731A86255A2552E95084116
:104D5000B2550D463316B6001346F6FFC2566257DB
:104D6000A257718DB395B6004D8DB305F70088C17C
:104D7000F25021618280397106DE2ADC2EDAA30925
:104D8000C102EF00301F11E9378560001305C5F936
:104D90008565938575D6EF2090575255834531032D
:104DA00005463315A60085892AD699C56255085946
:104DB000B25562564D8D01A862550859B2556256DA
:104DC00093C5F5FF6D8D08DAF2502161828079710B
:104DD00006D62AD42ED2EF00F01911E937856000EB
:104DE0001305C5F985659385D5DBEF205052125523
:104DF00011CD12558545630BB5003785600013054D
:104E0000C5F985659385F5DBEF207050225508596B
:104E1000925522563D9992054D8D08DAB250456162
:104E20008280397106DE2ADC2EDA32D8EF00901447
:104E300011E9378560001305C5F985659385A5D906
:104E4000EF20F04C5255E2551345150009052AD6BE
:104E50008859B25505463316B600C2561346F6FFBA
:104E60006257718DB395B6004D8D08DBF25021610C
:104E70008280797106D62AD42ED2EF00B00F11E9C4
:104E8000378560001305C5F98565938545EFEF20EB
:104E900010481255398111C9378560001305C5F9CD
:104EA0008565938555EFEF2090461255A25523A2B4
:104EB000A514B25045618280797106D62AD42ED2CB
:104EC000EF00500B11E9378560001305C5F98565C2
:104ED000938505F1EF20B0431255398111C937850B
:104EE00060001305C5F98565938515F1EF20304203
:104EF0001255A25523A6A514B2504561828079713E
:104F000006D62AD4EF00100711E937856000130593
:104F1000C5F98565938565F4EF20703F22552C49CE
:104F2000F9992CC9B25045618280797106D62AD48C
:104F30002ED2EF00300409E9378560001305C5F96A
:104F40008565AD05EF20B03C73E0107C225592558D
:104F50000326052093C5F5FFF18D2320B52073F0BE
:104F6000107CB25045618280797106D62AD42ED247
:104F7000EF00500011E9378560001305C5F985651C
:104F80009385F532EF20B038125509C51255A54565
:104F90006367B5021255A9456303B5021255B145C1
:104FA000630FB5001255B945630BB5003785600036
:104FB0001305C5F9856593852533EF2050351255C6
:104FC000A145630EB5001255B145630AB5001255EF
:104FD000A9456306B5001255B9456318B5021255C7
:104FE000A25505812AD003A505291365050423A828
:104FF000A5282255032505298255225661994D8DF4
:105000002328A628B2504561828012559145630E2F
:10501000B50012559945630AB500125595456306CA
:10502000B50012559D45631AB5001255A2552AD0F8
:1050300003A505291375F5FB5DBF12552AD055BF91
:10504000797106D62AD4EF00E07211E93785600045
:105050001305C5F985659385C52EEF20502B225584
:105060008325052993E585002328B528B25045619D
:105070008280397106DE2ADC2EDA32D8E52D11E97C
:10508000378560001305C5F985659385854CEF204C
:1050900010284255A145630EB5004255B145630A3B
:1050A000B5004255A9456306B5004255B945631E92
:1050B000B508425505812AD6525521C562550325AA
:1050C0000529E5753256FD15E2566D8D9315C6001E
:1050D0004D8D23A8A62842559145630EB500425533
:1050E0009945630AB500425595456306B50042559A
:1050F0009D45631EB50462558325052993F5F5FD8D
:1051000081A0625503250529B25562561375F58FA6
:10511000A2054D8D2328A62842559145630EB50062
:1051200042559945630AB500425595456306B50059
:1051300042559D456313B504625583250529BD99E4
:105140002328B528F250216182804255ADB74255DF
:10515000A145630EB5004255B145630AB5004255FD
:10516000A9456306B5004255B945E31DB5FC625536
:105170008325052993E50502E1B74255A145630E54
:10518000B5004255B145630AB5004255A9456306CD
:10519000B5004255B945E317B5FA6255832505298F
:1051A00093E5050171BF797106D62AD42ED2D92391
:1051B00011E9378560001305C5F985659385C546F6
:1051C000EF20F014125511C52255832505292166BB
:1051D00039A0225583250529056613060680D18D41
:1051E0002328B528B25045618280797106D62AD429
:1051F0002ED2492311E9378560001305C5F985656D
:105200009385F536EF20B0101255C145636BB5009C
:10521000378560001305C5F9856593850537EF204F
:10522000100F22558325852993E50501232CB528E8
:1052300022550325852B9255225641994D8D232CBD
:10524000A62AB25045618280797106D62AD42ED220
:1052500032D00D2311E9378560001305C5F9856546
:1052600093855554EF20B00A0255C145636BB500D4
:10527000378560001305C5F9856593856554EF2072
:10528000100922558325852993E50502232CB5288D
:10529000125505C122550325052CFD75025693852F
:1052A000F50FA2566D8D931586004D8D23A0A62C6B
:1052B00011A822550325052C8255225641994D8D62
:1052C0002320A62CB25045618280797106D62AD45B
:1052D000552111E9378560001305C5F9856593856A
:1052E000753AEF20D00222558325852A93E51500D3
:1052F0002324B52AB25045618280797106D62AD41A
:105300002ED28D2911E9378560001305C5F9856511
:1053100093856559EF20A07F225592550326852A53
:1053200089058546B395B600D18D2324B52AB250A0
:1053300045618280397106DE2ADC2EDA32D81D29D9
:1053400011E9378560001305C5F98565938545A288
:10535000EF20E07B52559305851A2ED609C552558C
:10536000A1456313B5026255B2552E950841C1653A
:10537000FD154256E25632576D8D931506014D8D3F
:10538000B385E60088C131A06255B25542562E95CC
:1053900010C1F25021618280797106D62AD4B129D8
:1053A00009E937856000130545049305E056EF20B1
:1053B000007622550C551166D18D0CD5B250456141
:1053C0008280797106D62AD40D2909E937856000D3
:1053D0001305450493059032EF20607322554C511C
:1053E00079767D16F18D4CD122554C510966D18DBF
:1053F0004CD1B25045618280797106D62AD4F52EFF
:1054000009E937856000130545049305F030EF2066
:10541000007022550C5579767D16F18D0CD52255EC
:105420000C550966D18D0CD5B250456182807971D9
:1054300006D62AD4D92609E9378560001305450424
:1054400093053034EF20A06C22554C5161767D16C7
:10545000F18D4CD122554C512166D18D4CD1B25099
:1054600045618280797106D62AD4412E09E93785B3
:105470006000130545049305B053EF2040692255A1
:105480000C41BD990CC1B25045618280797106D63C
:105490002AD4A52609E9378560001305450493053C
:1054A0006050EF20C06622554C4193F5F5FD4CC18C
:1054B00022554C4193E505024CC1B25045618280B2
:1054C000797106D62AD4152E09E9378560001305AF
:1054D00045049305F02BEF20806322554C51216643
:1054E000D18D4CD122554C511966D18D4CD12255BC
:1054F0000C550966D18D0CD5B25045618280797109
:1055000006D62AD42ED232D0CD2C09E937856000B8
:105510001305450493058017EF20605F225548511D
:105520009255225601994D8D48D2225508558255E3
:10553000225601994D8D08D6B2504561828079710D
:1055400006D62AD45D2C09E9378560001305450489
:105550009305B01EEF20A05B22554C4193E5350228
:105560004CC1B25045618280797106D62AD42ED2C0
:105570004D2409E9378560001305B50793057015BB
:10558000EF20E0581255A255C8C5B250456182803F
:10559000797106D62AD42ED2AD2C09E93785600060
:1055A0001305B5079305B012EF2060561255A255AA
:1055B000C8C1B25045618280797106D62AD402D220
:1055C000892C09E9378560001305B5079305F010AC
:1055D000EF20E05322550845E175FD1522566D8DEB
:1055E0002AD21365050208C622550C45BD990CC583
:1055F000B25045618280011173E0107C0D650C4151
:1056000093E515000CC1010073F0107C05618280E8
:1056100079712AD673E0107C325501C90D654C4171
:105620002166D18D11050CC139A00D654C41617603
:105630007D16F18D4CC173F0107C456182807971CB
:1056400006D62AD42313B1022312C1022AD0484518
:10565000EFF04F840255484583554102EFF08F87A4
:105660000255084983556102EFF0CF82025508497F
:1056700083554102EFF00F86025548498355610278
:10568000EFF04F810255484983554102EFF08F8476
:10569000B2504561828039712ADE2AFC2EFA32F836
:1056A00053F0A510D31510C02317B1025370A610E4
:1056B000531610C02316C1022319B5000315C102E9
:1056C000F255239AA5000315E1028315C102725613
:1056D0002E9513051502231BA60021618280797186
:1056E000AA852AD609669306068005456388D500F3
:1056F0003255930506C02D8D133515004561828006
:105700007971AA852AD6356605456388C500325564
:10571000930506142D8D133515004561828079712E
:10572000AA852AD639669306068005456383D50285
:10573000B25513060688638EC5003256B965938646
:1057400005906308D6003255938505982D8D133545
:105750001500456182807971AA852AD6396605458A
:105760006388C5003255930506082D8D1335150045
:10577000456182807971AA852AD6296605456387A5
:10578000C504B255130606406382C5043256AD65A2
:1057900093860580630CD6023256938505C0630755
:1057A000B6023256AD656303B602325693850540A4
:1057B000630EB6003256B165938605806308D60045
:1057C0003255938505C02D8D1335150045618280B6
:1057D0007971AA852AD61306C003054563EAC50078
:1057E00032559305000E6367B50032551335850FAA
:1057F000456182800145456182807971B74503002A
:1058000093850540A98D93B515002AD62E8545614F
:1058100082807971AA852AD615660545638DC500F3
:10582000B25541066389C5003255956593850502D9
:105830002D8D133515004561828079712AD6B70503
:1058400010420CC1325505462312C50032552313B0
:10585000C50032552314C50032552315C5003255F5
:10586000BD462316D50032552317C50032558D4647
:105870002308D5003255A308D5003255B70620437A
:1058800054C93255B706C84214CD32553727663C45
:10589000130747D258CD325537973C3C130797240E
:1058A00018D1325554D1325514D53255B7A6854545
:1058B0009386A6CD54D53255B776133F9386C64B03
:1058C00014D9325550D932553946231CC5023255A8
:1058D00005661306469C231DC502325537969D3B2F
:1058E0001306B67050DD3255232AC51E32552320CB
:1058F0000504325537A6363D411670C1325537463C
:105900008A35130686E830C5325570C532553706DC
:10591000803F30C93255232A050432553736733F4C
:105920001306363330CD32556CCD32550345851DC7
:1059300005890DC53255B7151D45938535462CD1C2
:105940003255B70520416CD132558355850307A0E8
:1059500081028720C50307A1410325A03255B71551
:105960009D44938535462CD13255B705A0416CD165
:1059700032558355850307A0810287A0C10207A184
:105980000103D3F105D053F0011053701010537080
:105990002018272405063255B7B5513893857571FF
:1059A0006CD53255B705A0412CD93255232A0506AE
:1059B0003255232C05063255B165938505356CDDCE
:1059C00032552320050832553736030013060645A5
:1059D0002322C50832560965130505712324A6083C
:1059E0003256B7160300938606D42326D6083256BD
:1059F0002328A6083256232A06083256232C0608E6
:105A00003256232E060832562320060A3256232207
:105A1000B60AB25523A4050AB25523A6050AB25503
:105A200023A8050AB25523AA050AB25561661306D2
:105A3000066A23ACC50AB2551307007D23AEE50AFA
:105A4000B25523A0D50CB25523A2050CB25523A400
:105A5000050CB25523A6050CB25523A8C50CB255AA
:105A6000B79604009386063E23ACD50CB25523AE00
:105A7000D50CB25523A0050EB25523A2050EB25582
:105A800023A4050EB25523A6A50EB25523A8C50E14
:105A9000B25523AAD50EB25523AC050EB25523AE8E
:105AA000050EB25523A00510B25523A2A5103255FC
:105AB0009565938505E22324B51032552326C5103C
:105AC0003255232805103255232A05103255232C30
:105AD00005103255232E051032552320051232555C
:105AE000B7451C462322B51232552324B512325530
