:0200000400609A
:040000006F0000018C
:1000100081400141814101428142014381430144C8
:100020008144014581450146814601478147014898
:10003000814801498149014A814A014B814B014C68
:10004000814C014D814D014E814E014F814FF9622E
:1000500073A002308542FE0263C3020001A0970232
:1000600000009382020973905230731030005300E5
:1000700000F0D30000F0530100F0D30100F0530270
:1000800000F0D30200F0530300F0D30300F0530458
:1000900000F0D30400F0530500F0D30500F0530640
:1000A00000F0D30600F0530700F0D30700F0530828
:1000B00000F0D30800F0530900F0D30900F0530A10
:1000C00000F0D30A00F0530B00F0D30B00F0530CF8
:1000D00000F0D30C00F0530D00F0D30D00F0530EE0
:1000E00000F0D30E00F0530F00F0D30F00F0970292
:1000F000000093822204739052309701A1FF9381F4
:10010000617017021A001302D2F3137202FC7325F6
:1001100040F185456370B500131615013292171131
:10012000A0FF130121EE6111EF60601DEF50D03C84
:1001300002906D7106C20AC40EC612C816CA1ACC45
:100140001ECE22D026D22AD42ED632D836DA3ADCA7
:100150003EDEC2C0C6C2CAC4CEC6D2C8D6CADACC77
:10016000DECEE2D0E6D2EAD4EED6F2D8F6DAFADC87
:10017000FEDE73252034F32510340A86EF60000C70
:100180007310153489629382028073A0023092400A
:100190002241B2414242D2426243F243025492545B
:1001A0002255B2554256D2566257F25706489648E3
:1001B0002649B649464AD64A664BF64B065C965CDB
:1001C000265DB65D465ED65E665FF65F5161730082
:0201D0002030DD
:1001E00073750430828000007365043082807971F9
:1001F00006D62AD42AD2416513050500930540048A
:10020000EF20F067925523A2A518125593854184DB
:100210002324B5181255C16593858506232EB5167E
:100220001255C1659385C5102320B5181255C965AF
:100230009385056F2322B522B250456182805D719E
:1002400086C6A2C4A6C2A2E026FE2AD62AD4832548
:10025000C5172ED2832505182ED08544230B950271
:100260002255230405042255A30505042255A30D98
:1002700095022255230E95022255230C9502025514
:100280000720051207A481EC225553708010D31566
:1002900010C02318B5000255072005122255D315AA
:1002A00010C02317B50002550720051222555370C0
:1002B0000000D31510C02319B500A25503A5451899
:1002C00083A50518EF3000591255B7D5CC3D93855D
:1002D000D5CC2CC12255232E9520225523209522A2
:1002E0002255A30305042255230305041255BD65B9
:1002F000938505A6231AB50812559965938505DCE3
:10030000231BB508225503250518EF70B05B225555
:1003100003250518EF508058A25503A5452283A553
:100320000518EF70F01CA25503A5452283C565038F
:10033000EF70903EA25503A5452283C52504EF70BA
:100340009042A25503A5452283A5051807A5C1EC37
:10035000EF70B04AA25503A5452283A5051887A4CE
:1003600001ED53859420EF70F04AA25503A5452274
:1003700083A5051853859420EF70704B02550859DA
:1003800019EDA25503A5452283C53504EF70703AD7
:10039000A25503A5452283C54504EF70503612557A
:1003A000B7D54C3E1386D5CC30C5125570C5125505
:1003B000B7057A432CC992553705A040E8C9925534
:1003C000B736734193863633B4CD9255B706AF43F3
:1003D000F4CD9255A8D19255B73686359386D67B03
:1003E000F4D19255B7B6BA419386B6F8B4D59256C1
:1003F000B7057041ECD6925637C7AD421307B750D8
:10040000B8DA925637075442F8DA92563707524212
:10041000B8DE9256F0DE1256B70620412320D608E9
:1004200012569306401F2312D60812569306800CCC
:100430002313D60812562314D60812569306803E6C
:100440002315D60812561307007D2316E608125608
:10045000930780252317F60812562318E60812562C
:1004600015472319E6082256231506021256231CA7
:10047000D6081256231DD60812568D46231ED608BE
:1004800012568566938606C0231FD6081256930619
:1004900000402310D60A0256072086012256272440
:1004A000061C02560720860122562726061C0256E5
:1004B0000720C60122562722061C2256A30A06023E
:1004C0002256232006262256B16693863603231E23
:1004D000D60E2256B706A041232AD60A2256232C2E
:1004E000B60AA2553706404023AEC50AA2553706C4
:1004F000C84223A2C50CA25523A4C50CA255378619
:10050000103F1306361C23A4C510A2553796A241EE
:100510001306B61F23A6C510A2553706C03F23A059
:10052000C512A25523A2A5122255B70500402324C7
:10053000B5122255B705803F2326B5122255B7358F
:10054000333F93853533232EB5102255B7D5E53E7D
:100550009385A58F2328B52602550720051222551D
:10056000272205262255B7B5A4399385E55B2328B4
:10057000B50C02550720051287A041ED2255537096
:100580001010D31510C0231AB5002255232C0524B2
:1005900022559385C1B12324B522225582550325C6
:1005A000852283C5F500EF10E0472255938581B27F
:1005B0002326B522225582550325C52283C5E50091
:1005C000EF10E04C2255938541B32328B5222255E4
:1005D0009385C1B3232AB5222255938541B4232C98
:1005E000B52222559385C1B42324B5242255938581
:1005F00001B72326B5242255938541B92322B5247A
:100600002255938581BB2320B52422559385C1BDF6
:100610002328B5242255032505258145DD282255AB
:100620001305051D07A581ED87A5C1ED530684209F
:10063000EF50800C2255938581BE232EB522225582
:100640000325C523530500F0E12822550325C523C2
:100650002ADC02DA2AD8232205000255A2550720F7
:10066000C52003A5C52353150020D120225582554E
:100670000325C52307A5C520D1200255A255072073
:1006800045138720051203A5C52353751018752837
:10069000225503254518EF40C0192255032545185A
:1006A00013844184A285EF40601B03154400831529
:1006B0000401136505081375F5F92312A40013E569
:1006C000E5041375E5C78315440113650510231868
:1006D000A400225593E5052493F5F5A7231AB40049
:1006E0000325451895282255230C94000325451809
:1006F000A285EF4040153255EF1040552255032595
:1007000045189928F274066496442644B6406161FF
:10071000828079712AD62ED42AD20CC54561828076
:1007200079712AD62AF42AD208E14561828079714A
:100730002AD62AF42AD208E54561828079712AD620
:100740002AF42AD248E54561828079712AD62AF4B2
:100750002AD208E945618280797106D62AD42AD244
:1007600008419145EF00F074125548419145EF0062
:100770005074125508459145EF00B0731255230A85
:100780000502B25045618280197186DEA2DCA6DACC
:10079000CAD8CED6D2D4A2F2A6F02ADE2ADC83258D
:1007A000C5172EDA452B6255525603254518835539
:1007B000E6090356060AEF40B06E0964930404800C
:1007C0001306E07E26858145C523130404C0130665
:1007D000007E22858145C92B85451306707D2285C3
:1007E000E1236255B7E5FD448D152326B51A625500
:1007F000B725FC44938525852328B51A6255B7058E
:10080000FB44938595FC232AB51A6255B785FF3EB4
:100810009385959F232CB51A6255B7B5FE3E9385F7
:1008200055DC232EB51A6255B735003F938585DE1A
:100830002320B51C6255034575030589630E053CED
:1008400037857F3F1305E5CF2AD86255B705033BAF
:100850009385851A2ED60720451C87A001EE53F0FC
:10086000001802F4130520039710A1FFE78000464B
:100870002685814501460D2B2285814501462D2384
:100880008545228501460D2362550720C51A87201C
:10089000451C537010102726051A62550720051BAA
:1008A0008720451C537010102728051A6255072011
:1008B000451B8720451C53701010272A051A6255C6
:1008C0002328051C6255232A051C6255232C051C70
:1008D0006255832545181305051DAECEAACCAECAB8
:1008E0008841EF00506A537015D007A441F187A4E6
:1008F00081F182E8231701040944A1A08355E10492
:10090000564513962500E646329508418605B6956C
:1009100003D6C5008145EF0090698355E104564533
:1009200013962500E646329508418605B69503D60E
:10093000C500A145EF00B0670315E10405052317C5
:10094000A1040355E1046343A4060355E104E6450D
:10095000131625002E96072006005310002082E46F
:100960005310802853009028C66082E25370900094
:1009700082E053701010531600C006052E95231602
:10098000C5000355E104E64506052E950355C5004F
:1009900083D56501E354B5F666458355E104031636
:1009A000650186052E952316C50089BF625503256E
:1009B00045180D292318010421659309F5CF096510
:1009C000130405C007A401EE13090594930405D48C
:1009D000130A007D11A8625503254518212103152E
:1009E000010505052318A1040355010563CBA91AC8
:1009F00022858145A1292285814549216DDD6255E8
:100A000013050519AACE85454A85EF00B06FF64556
:100A1000537015D082EC87A045035370101027A2A5
:100A2000050085452685EF00F06DF645537015D01D
:100A300082EC87A045035370101027A40500A14540
:100A40002685EF00306CF645537015D082EC87A0F8
:100A500045035370101027A6050091454A85EF0005
:100A6000706AF645537015D082EC87A085035370E9
:100A7000101027A8050095452685EF00B068F645BB
:100A8000537015D082EC87A085035370101027AAED
:100A900005009D454A85EF00F066F645537015D078
:100AA00082EC87A085035370101027AC0500AD457C
:100AB0002685EF003065F645537015D082EC87A08F
:100AC000C5035370101027A0050003550105E3442A
:100AD00045F1625542708720C51A07214519B27148
:100AE00053701010D3703110537010002726051A60
:100AF000625542708720051B07218519B27153701A
:100B00001010D3703110537010002728051A625549
:100B100042708720451B0721C519B2715370101010
:100B2000D370311053701000272A051A6255072020
:100B300005195370041882EAC2700721851B8721AA
:100B4000051A3272D3F020105370301053704010D9
:100B500053F00000272C051A625542708720C51BF0
:100B600056618721451A327253701010D3703110BC
:100B7000D3F0401053701000272E051A62554270B2
:100B80008720051C56618721851A32725370101018
:100B9000D3703110D3F04010537010002720051C83
:100BA0003DBD625503254518453E6255A30B050220
:100BB00062550720C51AA270537010102726051A17
:100BC00062550720051BA270537010102728051AC4
:100BD00062550720451BA27053701010272A051A72
:100BE00062550720C51A531610C009641305048006
:100BF00081455D2A62550720051B531610C013045A
:100C000004C0228581454D2262550720451B53169D
:100C100010C085452285492A62550720C51A87A03C
:100C200041EE3165D39500A07D1589E9E25507A015
:100C3000C51A87A081EED31510A089C9E25503D645
:100C4000850F698E9166558E239CC50EE25507A0CF
:100C5000051B87A0C1EED39500A089E9E25507A046
:100C6000051B87A001EFD31510A089C9E25503D653
:100C7000850F698E9166558E239CC50EE25507A09F
:100C8000451B87A041EFD39500A089E9E25507A055
:100C9000451B87A081EFD31510A089C9E25503D663
:100CA000850F718D1166518D239CA50E625507200D
:100CB000851B87A0C1EFA165539600A01385F5FFA2
:100CC00009EA62560720861B87A001F0531610A080
:100CD00001CA62568356860FE98ED58D231CB60E47
:100CE000E25507A0C51B87A041F0D39500A089E974
:100CF000E25507A0C51B87A081F0D31510A089C9B4
:100D0000E25503D6850F698EA166558E239CC50ECC
:100D1000E25507A0051C87A0C1F0D39500A089E982
:100D2000E25507A0051C87A001F1D31510A089C9C1
:100D3000E25503D6850F718D2166518D239CA50E3A
:100D400086741674265AB6594659D6546654F650C7
:100D50000961828079712AD60325C5172AD4072014
:100D6000C50602F287208506539500A009C52255C5
:100D70000720850602F2225512708720050753705E
:100D80001010D31500C02311B102056613060680AA
:100D9000B295231FB50803152102A2553305A640BD
:100DA0002390A50A45618280397106DE2ADC2EDA9D
:100DB00032D8EF00301B09E9378560001305851133
:100DC00093058061EF60F0575255E1453305B50258
:100DD000E25542561305C50A2AD62E9510C1F25087
:100DE00021618280797106D62AD42AD24845EF0043
:100DF000502212554845EF00F02412550849EF00E3
:100E0000502112550849EF00F02312554849EF00D0
:100E1000502012554849EF00F02212550841930521
:100E2000E007EF005025125548419305E007EF0019
:100E30009024125508459305E007EF00D023125582
:100E40008545230AB502B25045618280797106D684
:100E50002AD42ED2EF00101109E93785600013055E
:100E6000851193057030EF60D04D1255A25505469F
:100E70003315A60088C9B25045618280797106D6C3
:100E80002AD42ED2EF00100E09E937856000130531
:100E900085119305702EEF60D04A22554845925532
:100EA0003355B5000589B250456182805D7186C6B3
:100EB000A2E42ADA2AD88325C5172ED68325051859
:100EC0002ED48315850F0316E50FD18D231FB50E84
:100ED00042558315850F0316C50FF18D231DB50EE1
:100EE00042553256032545188355E6090356060A2E
:100EF000EF40007B425503451503058921C9425542
:100F00000355A50F2DC5425503452503058961C528
:100F1000425523090502425585456CC932550315D2
:100F2000A509C2552395A50242558315C50285051D
:100F30002316B502425503455503058961E942551B
:100F4000A3080502425523150502C9A042550345D1
:100F50002503058969C15255EF10C05C4255034510
:100F60008504058951C94255231505026DA04255D6
:100F700003452503058945E142550355A50241ED89
:100F8000425503453503058939C14255230A0502F7
:100F90004255A30C0502425523060504225507209D
:100FA000C5064255272C05082255230A051C7370D7
:100FB00004300100C25503A5452283A50518EF6042
:100FC00030537360043001004255A30905025255A5
:100FD000EF10004F89A042550355A50205E942557F
:100FE000B2550355C50283D5C509635EB5004255A8
:100FF00085452307B50419A8325503158509C2553F
:101000002395A50209A84255A308050242550325C8
:101010004518EFF06FF42255085901E9C25503A5B0
:10102000452283C54504EF60906D42550345E504B4
:10103000058911CD425503254518CD2C42558355C0
:10104000850FBD89231CB50E425523070504425563
:1010500003452503058931C9425503254518AAC210
:10106000AAC003454503058919ED425503254522CC
:10107000EF60704D425503254522EF60304E4255DA
:1010800003254518853342550345450305890DC1A0
:10109000425507208509530400F0531504A0630C42
:1010A00005104255B705803F11AA5255EF00302375
:1010B000425503254522EF60306319C5425503258B
:1010C0004518EFF06FE931A0425503254522EF6046
:1010D000907C425503254522EF60905B19C542552F
:1010E00003254518EFF04FE7ADA842552300010452
:1010F00003254522EF60704D4255AAE203454503A2
:10110000058919C5425503254522530500F029A03C
:101110004255032545221665EF6050792300A1044E
:1011200003450104058915CD425503254522EF608D
:10113000B071425503454503058911ED425703251A
:10114000472283250718032647248326872403275D
:10115000C724EF60D07022550345451D0589630BF8
:101160000514425503254522EF60B056C255238A27
:10117000A502425503454503058905C1425503456E
:101180009503058901C55255CD2A01A842558545CB
:10119000A30CB5025255EF00702B5255EF10E03BF7
:1011A0005255EF10A0480565130505808126266479
:1011B000B640616182804255B70580BF6CCDC25593
:1011C00003A5452283C56503EF601055C25503A5ED
:1011D000452283C52504EF601059C25503A5C523D8
:1011E00007A58509EFF0CFD342550720050A8720D0
:1011F000450B53200020539500A035C94255A255F8
:101200000720450C87A005120325C5235375101828
:10121000EFF0AFD342550720C51203254524D31064
:101220000020AAC286E002FE2ADC272E150072707A
:10123000625527200502425528499545E36AB5E6DF
:1012400042558315C50085052316B50042558355C3
:10125000C50003552501E39DA5E442552328051645
:10126000425599452CC9425591456CC991B5425595
:10127000A2550720850C87A005120325C5235375A9
:101280001018EFF08FCC42550720C509530504A074
:1012900042550720851203254524D3100020AAC2F9
:1012A00086E002FE2ADC272E150072706255272088
:1012B0000502FDBB425503254522EF60304019ED84
:1012C000425503254522EF60D040E30C05E8425526
:1012D00003254522EF60303DE30505E8425503252F
:1012E0004522EF60103F05C942558545230AB502E6
:1012F0004255230905024255A30805022255230A37
:10130000B51C425503254522EF6030214255032587
:101310004522EF60F02122550859E31405E44255B7
:10132000230905024255A308050225BD797106D699
:101330002AD42AD24845F12912554845212312556D
:101340000849C12912550849F52912554849D121A2
:1013500012554849C529125508419305E007212B2C
:10136000125548419305E007392312550845930566
:10137000E0071123B2504561828039712AD62AD400
:101380008325C5172ED268498D45636FB514225544
:1013900003454503058963090514325503450503D3
:1013A00005895DC9225592550325852407A00503AB
:1013B00087A045032ADE02FC06FA2AD8272005006A
:1013C0005270425527220500225592550325C52407
:1013D00007A0850387A0C5032ADE02FC06FA2AD8E7
:1013E00027200500527042552722050022559255AC
:1013F0000325452407A0850287A0C5022ADE02FC3A
:1014000006FA2AD8272005005270425527220500E7
:10141000225592550325052407A0050287A0450201
:101420002ADE02FC06FA2AD827200500527042550F
:10143000272205002255032505242ADEB70520C1F1
:101440002EDC3706204132DA2AD84CCD5270425574
:10145000272005022161828022559255032585248B
:1014600007A0050387A045032ADE02FC06FA2AD856
:10147000272005005270425527220500225592551B
:101480000325C52407A0850387A0C5032ADE02FC27
:1014900006FA2AD827200500527042552722050057
:1014A000225592550325452407A0850287A0C50231
:1014B0002ADE02FC06FA2AD827200500527042557F
:1014C00027220500225592550325052407A0050271
:1014D00087A045022ADE02FC06FA2AD8272005004A
:1014E00052704255272205002161828079712AD6E7
:1014F000956523A2A5104561828011714AC04EC234
:1015000052C456C673290030F3291034732A007C64
:10151000F32A107C4AC84ECA52CC56CE0249924990
:10152000224AB24A73F0107C86DF96DD9ADB9ED9A0
:10153000A2D7A6D5AAD3AED1B2CFB6CDBACBBEC9AB
:10154000C2C7C6C5CAC3F2C176DF7ADD7EDB02F947
:1015500006F70AF50EF312F116EF1AED1EEB2AE963
:101560002EE732E536E33AE1BEFEC2FCC6FAF2F8F7
:10157000F6F6FAF4FEF2A2F0A6EECAECCEEAD2E853
:10158000D6E6DAE4DEE2E2E066FE6AFC6EFA49657F
:101590008325450085052322B500A30901021149D1
:1015A000374503001304054049659304850003454E
:1015B00031036342A90222854D2883453103A69554
:1015C0002380A500030531030505A309A1020345F6
:1015D0003103E352A9FED27D627DF27C066C966BEC
:1015E000266BB66A466AD6696669F6640674967FA3
:1015F000267FB67E467ED6786678F6770A679A6644
:101600002A66BA654A65DA636A63FA620A729A718F
:101610002A71BA704A70DA5F6A5FFA5E0E4E1E492E
:10162000AE483E48CE475E47EE467E468E551E5536
:10163000AE543E54CE535E53EE52FE504AC04EC29C
:1016400052C456C64249D249624AF24A73901A7C41
:1016500073100A7C7390193473100930B24A224A0D
:1016600092490249116173002030797106D62AD45B
:10167000C12C09E937856000130585189305304CA6
:10168000EF60204C2255C92C75DD2255484D13754D
:10169000F50FB25045618280397106DE2ADC231BCA
:1016A000B1022AD88A052E950849E12CF250216111
:1016B0008280797106D62AD42ED2B92011E93785D5
:1016C00060001305050E85659385D52CEF60604796
:1016D00003554102137515F811C9378560001305CC
:1016E000050E85659385E52CEF60A04573E0107CC1
:1016F000225592550326C526D18D2326B52673F093
:10170000107CB250456182807971AA852AD62966FB
:1017100005456387C504B255130606406382C504B8
:101720003256AD6593860580630CD602325693859A
:1017300005C06307B6023256AD656303B602325682
:1017400093850540630EB6003256B16593860580D9
:101750006308D6003255938505C02D8D13351500CD
:10176000456182807971AA852AD60966930606802A
:1017700005456388D5003255930506C02D8D133578
:10178000150045618280797106D62AD4B53F11E9EA
:10179000378560001305050E856593859594EF6088
:1017A000403A22550325C518B250456182803971EF
:1017B00006DE2ADC2EDA32D8813F11E93785600057
:1017C0001305050E8565938545A2EF608037525558
:1017D0009305851A2ED609C55255A1456313B50246
:1017E0006255B2552E950841C165FD154256E25627
:1017F00032576D8D931506014D8DB385E60088C176
:1018000031A06255B25542562E9510C1F250216159
:101810008280797106D62AD4552809E93785600077
:101820001305F5149305502EEF60A03173E0107C82
:1018300022554C4593E525004CC573F0107CB25001
:1018400045618280797106D62AD4492009E9378515
:1018500060001305F51493053030EF60802E73E0BF
:10186000107C22554C4593E505204CC573F0107C47
:10187000B25045618280797106D62AD42ED269355C
:1018800011E9378560001305050E85659385B5253B
:10189000EF60202B125593050008636BB500378568
:1018A00060001305050E85659385C525EF606029E9
:1018B00073E0107C225592550326C525D18D232E29
:1018C000B52473F0107CB250456182807971AA858D
:1018D0002AD639669306068005456383D502B2553C
:1018E00013060688638EC5003256B9659386059047
:1018F0006308D6003255938505982D8D1335150054
:1019000045618280797106D62AD4096693060694C9
:101910002ED2630FD5002255930506D4630AB50075
:1019200037856000130585119305A036EF606021AF
:101930001255A2550A052E950841B2504561828084
:101940007971B745030093850540A98D93B51500BE
:101950002AD62E8545618280797106D62AD4CD3764
:1019600009E9378560001305851893050036EF6097
:10197000401D22554849137505041981B25045612F
:101980008280797106D62AD4392809E93785600022
:101990001305F51B93050014EF60A01A22550841AA
:1019A000B250456182807971AA852AD615660545AF
:1019B000638DC500B25541066389C50032559565F2
:1019C000938505022D8D133515004561828079714F
:1019D0002AD62AD408614561828079712AD62AD410
:1019E00008694561828079712AD62AD408654561E3
:1019F000828079712AD62AD44865456182807971BE
:101A00002AD62AF42AD208E14561828079712AD641
:101A10002AD408614561828079712AD62AD4084582
:101A200045618280397106DE2ADC0D45231BB10237
:101A3000639DA50037B5AA3E1305B5AA2AD837D5A8
:101A4000133F1305A5D32AD619A002D802D6625592
:101A50004275B27501286255834561030520F25035
:101A60002161828079712AD62AF42EF22AD008E1E7
:101A700012700255272205004561828079712AD6AD
:101A8000A305B1022AD22304B500456182803971D1
:101A900006DE2ADC0D45231BB1026397A50037B58E
:101AA000AA3E1305B5AA01A8035561038945631B26
:101AB000B5003705803F2AD837D5133F1305A5D386
:101AC0002AD619A002D802D662554275B275593F7E
:101AD0006255834561035D37F2502161828039711F
:101AE00006DE2AD62AD403458504058915C1225568
:101AF0008325C5230720050A2EDC02FA2ED827A24B
:101B000005002255231605002255A30405041DA037
:101B1000225503254522EF6040202255032545220A
:101B2000EF60002122550325C5232ADC02DA2AD8DA
:101B30002322050022550325C523530500F0C920A3
:101B4000225503254518E1202255032585242ADC4A
:101B500002DA2AD82328050022550325C5242ADCC9
:101B600002DA2AD8232805002255032545242ADC39
:101B700002DA2AD8232805002255032585242ADCE9
:101B800002DA2AD82326050022550325C5242ADC9B
:101B900002DA2AD8232605002255032545242ADC0B
:101BA00002DA2AD8232605002255232805162255B5
:101BB000232A05162255232A05102255232C051009
:101BC00022552326050E2255231605002255231ED5
:101BD00005002255231F0500225523110502225519
:101BE0002310050222552313050222552312050254
:101BF00022550325052581459920F25021618280D7
:101C000079712AD62AF42AD208E145618280797155
:101C100006D62AD42AD208419145EF001045125524
:101C200048419145EF007044125508459145EF0039
:101C3000D0431255230A0502B25045618280797162
:101C40002AD62ED42AD20CC545618280757106C76A
:101C5000AADCAADA03250518AAD80720450482F6CB
:101C60008720850486F4072105048AF25370011841
:101C700082F05370111882EE0720C50582EC83159F
:101C8000A500072005124655D3F005D053F00018E3
:101C900082EA0720450587208505465553701010B8
:101CA00082E88315C500072005124655D3F005D0FC
:101CB00053F0001882E607200506465582E4072007
:101CC000450682E23670E660067187A181F75662AA
:101CD0005370101082E05370311053704010A67092
:101CE000666102FE76605662D3F0201006FC5370E7
:101CF000301053704010465502FA02D802D6072021
:101D0000450687A0C1F7530510A005C94655072011
:101D1000C50487A001F80721C52053701010537027
:101D2000201802F80720C50487A041F807210513F1
:101D3000537010105370201005A0266096606661E5
:101D4000B661D3701010D370111806F8D37031102B
:101D50005370001053F0001802F6565503258524E1
:101D60002AC5B7658F3D938595C22EC337C6753C8E
:101D70001306F62832C1AADE0CC10A607655272266
:101D800005005655032585242AC502C32AC12326EA
:101D900005005655032585242AC502C32AC12328D8
:101DA00005005655032585242AC502C32AC1232AC6
:101DB00005005655032585242AC502C32AC1232CB4
:101DC00005005655466003258524D31000202AC5FA
:101DD00006E302E1AADE272E15000A6076552720C9
:101DE000050256550325C5242AC52EC332C1AADED5
:101DF0000CC10A6076552722050056550325C524D7
:101E00002AC502C32AC12326050056550325C52429
:101E10002AC502C32AC12328050056550325C52417
:101E20002AC502C32AC1232A050056550325C52405
:101E30002AC502C32AC1232C050056550325C524F3
:101E40002AC502C302C1AADE232E05000A60765508
:101E5000272005025655032545242AC5B7A5193F55
:101E60009385A5992EC337D6233C1306A67032C19D
:101E7000AADE0CC10A6076552722050056550325B7
:101E800045242AC502C32AC1232605005655032529
:101E900045242AC502C32AC1232805005655032517
:101EA00045242AC502C32AC1232A05005655032505
:101EB00045242AC502C32AC1232C05004655D65500
:101EC0000720C50403A54524D31000202AC506E336
:101ED00002E1AADE272E15000A60765527200502AA
:101EE0005655032505242AC5B705A0402EC337360D
:101EF00086351306D67B32C1AADE0CC10A60765540
:101F0000272205005655032505242AC502C32AC1E8
:101F1000232605005655032505242AC502C32AC1D8
:101F2000232805005655032505242AC502C32AC1C6
:101F3000232A05005655032505242AC502C32AC1B4
:101F4000232C05005655032505242AC5B705C0C016
:101F50002EC33706C04032C1AADE4CCD0A6076558A
:101F60002720050266552120BA40496182803971D7
:101F70002ADA2AD88325C5172ED6032585242ADEFA
:101F80002ADC0720050027A80502425503258524E1
:101F90002ADE2ADC072045003255272A0502425551
:101FA0000325C5242ADE2ADC072005003255272C0C
:101FB000050242550325C5242ADE2ADC07204500F8
:101FC0003255272E05024255032545242ADE2ADCF8
:101FD00007200500325527240502425503254524D4
:101FE0002ADE2ADC07204500325527260502425505
:101FF000032505242ADE2ADC072005003255272088
:1020000005024255032505242ADE2ADC0720450067
:102010003255272205022161828079712AD62AD47D
:10202000231301020945C165FD1503566102634092
:10203000C50403566102A25606063696231806000A
:1020400003566102A25606063696231BB6000356B7
:102050006102A25606063696231E0600031661028A
:1020600005062313C10203566102E354C5FC225541
:1020700085452301B50245618280797106D62AD44F
:102080002AD28325C5172ED00355A5026358A00078
:1020900012558315A502FD152315B50212550345EA
:1020A0005504058931C5125503457504058911C5C7
:1020B000125585452303B50425A8125503558502FD
:1020C00001C9125583158502FD152314B5020DA013
:1020D000125503254522EF50D049630E051A0255CB
:1020E0000315450992552394A502125523030504AF
:1020F000125582550720051987A04507539500A062
:102100000DC1125582550355650183D5450863DD20
:10211000A50212558315850F93E51500231CB50EF6
:1021200015A8125582550720051987A08507531554
:1021300010A00DC112550355650163000514125519
:1021400083156501FD1529A01255831565018505C7
:10215000231BB500125582550720051987A0C50716
:10216000531510A00DC1125582550355850183D515
:10217000450863DCA50212558315850F93E52500FC
:10218000231CB50E0DA8125582550720051987A0EE
:102190000508539500A005C11255035585016DC56D
:1021A000125583158501FD1529A01255831585014A
:1021B0008505231CB500125568499145631CB50A75
:1021C000125582550720052C87A00505539500A0C0
:1021D00005C5125582550355C50183D5650863D7DA
:1021E000A50212558315850F93E50504231CB50E32
:1021F0001255231E05000DA012550355C501635D40
:10220000A00012558315C501FD1529A0125583158F
:10221000C5018505231EB500125582550720050B03
:1022200087A0C505539500A015C5125582550355C5
:10223000450283D5E50863D9A50212558315850F9C
:10224000056613060680D18D231CB50E1255231288
:1022500005020DA0125503554502635DA0001255FD
:1022600083154502FD1529A01255831545028505E4
:102270002312B502B2504561828012558355850FF5
:10228000F999231CB50EF9B512558355850FF599AB
:10229000231CB50E0DB702550315650992552394FD
:1022A000A50239B5397106DE2ADC2ADA0345F504C0
:1022B00005896309051A5255A307050452550720DD
:1022C0000528872085265370101053750058532514
:1022D000A5A06309051A52552726A528525507209F
:1022E00045288720852653701010537500585325B4
:1022F000A5A0630E051852552728A528525507207A
:102300008528872085265370101053750058532553
:10231000A5A0630305185255272AA5285255072062
:10232000452A8720C5265370101053750058532531
:10233000A5A06308051652552728A52A525507203F
:10234000852A8720C52653701010537500585325D1
:10235000A5A0630D05145255272AA52A525507201A
:10236000C52A8720C5265370101053750058532571
:10237000A5A0630205145255272CA52A5255072003
:10238000C52887200529539500A052550720C52848
:1023900002F80720052902F6525507204529C27088
:1023A000539500A009C552550720452911A0427038
:1023B000525502F807204529B270531510A009C5DF
:1023C00052550720452911A03270525502F60720B8
:1023D00045268720050B5370101802F487204526E8
:1023E000539500A009C552550720452611A022701B
:1023F000525502F4D31510C0231AB52452558355F3
:10240000452507A081F8D3F015D053701018272464
:102410000526525507208526272605264270B270CC
:102420005255537110085370100053700118272E25
:10243000052A52550720C5288720052B0721052985
:102440008721452B072245298722852B53701010A1
:10245000D370311053701000D370521053701000AD
:102460002720052C5255072045138720050B0721EF
:10247000052753701010537020102722052CF2509E
:102480002161828053050020EF503045A9B55305E6
:102490000020EF50904485B553050020EF50F043E5
:1024A0009DBD53050020EF50504371B553050020EA
:1024B000EF50B0424DB553050020EF50104265BDBE
:1024C000797106D62AD42AD26C49114563E5A50054
:1024D0009255E8C921A012558D456CC91255034586
:1024E0008504058901C51255894519A012558D45E8
:1024F0002CC91255232E05081255032505258145A3
:10250000EFF0EFF3125585452309B5021255231656
:10251000050012558315E50285052317B502B25053
:1025200045618280797106D62AD42AD2232E0508E5
:102530001255230905021255232805041255914509
:102540006CC91255032505258145EFF04FEF125553
:1025500023160502B25045618280397106DE22DC05
:1025600022FA2AD82AD68325C5172ED40345250357
:10257000058945C9325503254522EF50B00EB945AE
:10258000631CB504325503456504058931C53255D0
:10259000032545228545EF50701B3255A255032572
:1025A0004522A861EF50702222550720C5018720DF
:1025B00045005370100802F28720450007A181FAF8
:1025C00053200020D3F02010531510A039C93255E4
:1025D000032545228545A1A03255032545225304F4
:1025E00000F053058420EF50501E3255032545223C
:1025F00053058420EF50F01B3255032445222285D9
:10260000EF5090032285EF50501932550325452293
:102610008145EF50B0133255032545228145EF50D7
:10262000301652746254F25021618280797106D65C
:102630002AD42AD28325C5172ED003254522EF5050
:102640007002925523AEA520125503254522EF5066
:10265000D002925523A0A522125503254522EF5002
:10266000407C025508E1125503254522EF50C07CFD
:10267000025548E1125503254522EF506076025578
:1026800008E5125503254522EF50E076025548E54E
:10269000125503254522EF50206F025548E9125587
:1026A00003254522EF50406E07A0C1FA0255537032
:1026B000051027280500125503254522EF50806F8D
:1026C000025568E1125503254522EF50207402554A
:1026D00008ED125503254522EF50C0621255272AF6
:1026E000A512125503254522EF506076025548ED9C
:1026F0001255072005168720451653700010D3F099
:10270000101053701000537500585325A5A015C91B
:1027100012552720A51012550720051487204514AF
:1027200053700010D3F01010537010005375005800
:102730005325A5A001CD12552722A510B250456101
:10274000828053050020EF505019D9B7530500205F
:10275000EF50B018CDB779712AD62AD40720451981
:10276000872045275370001053F00000272A0526C4
:10277000225507208519872085275370001053F0B4
:102780000000272C052622550720C5198720C527BC
:102790005370001053F00000272E05262255072005
:1027A000051A872085295370001053F00000272C4C
:1027B000052822550720451A8720C5295370001087
:1027C00053F00000272E052822550720851A872060
:1027D000052A5370001053F000002720052A2255C7
:1027E000831565258505231BB5242255835565254D
:1027F000035545256359B50622550720452727204F
:10280000052822550720852727220528225507203D
:10281000C527272405282255232A05262255232C9F
:1028200005262255232E05262255072085292722F5
:10283000052A22550720C5292724052A22550720C5
:10284000052A2726052A2255232C05282255232E22
:10285000052822552320052A2255231B052422550D
:102860008545A307B50445618280797106D62AD4CF
:102870002ED2B92011E9378560001305050E856554
:102880009385D52CEF50E02B03554102137515F8B5
:1028900011C9378560001305050E85659385E52C04
:1028A000EF50202A73E0107C225592550326C5264E
:1028B000D18D2326B52673F0107CB25045618280FD
:1028C0007971AA852AD6296605456387C504B2555C
:1028D000130606406382C5043256AD6593860580B3
:1028E000630CD6023256938505C06307B602325692
:1028F000AD656303B602325693850540630EB6009C
:102900003256B165938605806308D60032559385AB
:1029100005C02D8D1335150045618280797106D66D
:102920002AD42AD23920125521281255B250456195
:10293000828079712AD62AD42306050045618280D7
:1029400079712AD62AD4A30605004561828039719F
:1029500006DE22DC26DA4AD82AD62AD4231201023D
:10296000084585454520225508458545612823139E
:102970000102231201021165791583554102634C4E
:10298000B50001008315410285052312B10283556C
:102990004102E358B5FE41651304F5FF9304803E00
:1029A0000549325581457D2093750540014589C50E
:1029B000035561021325853E11CD031561020505FE
:1029C000B37585002313A102E3CD95FC2255A30620
:1029D0002501C1BF231201022165791583554102EA
:1029E000634CB50001008315410285052312B10235
:1029F00083554102E358B5FE4259D2546254F25015
:102A000021618280397106DE2ADC2EDA712909E91A
:102A100037856000130535239305201CEF506012A5
:102A2000625593551500C19937460300130606E019
:102A3000B29552562ED885453395A5002AD609C69B
:102A40003255C255C8C121A03255C25588C5F25071
:102A5000216182805D7186C6A2C4A6C2AAC02EDE94
:102A60002ADC231901022317010202D4054501467D
:102A7000E922231BA102231A01021D4583554103AC
:102A8000634CB5000100831541038505231AB1028B
:102A900083554103E358B5FE625508416D2A6255DE
:102AA0000841ED22231A01027D4583554103634C01
:102AB000B5000100831541038505231AB102835532
:102AC0004103E358B5FE6255084183556103CD2AA1
:102AD00041651304F5FF8544225515E1625508410F
:102AE000192C2AD40315E1020505B37585002317B7
:102AF000A102E3C385FE625523069500F1BF41653F
:102B00007D152317A102231A01021305F00F835527
:102B10004103634CB5000100831541038505231A69
:102B2000B10283554103E358B5FE62550841DD2AE1
:102B30002318A102035501031375F57F964426441B
:102B4000B6406161828079712AD62ED42AD20CC116
:102B50004561828079712AD62ED42AD24CC1456132
:102B6000828079712AD62ED42AD20CC54561828002
:102B7000397106DE22DC2ADA2ED8239E0500425562
:102B8000231005024255A30105024255231D0500ED
:102B90004255231F05004255230105024255A30C4F
:102BA00005004255230C0500525502D681455D357E
:102BB000C2552315A1022390A50052550564930523
:102BC00004802ED6413DC2552315A1022391A500B4
:102BD000525522D68565BD3DC2552315A1022392CB
:102BE000A50052550964930504802ED6A535C2551B
:102BF0002315A1022394A500525522D68965993D3B
:102C0000C2552315A1022396A50052550D649305C4
:102C100004802ED68135C2552315A1022398A50024
:102C2000525522D68D653D35C2552315A102239AF2
:102C3000A5006254F2502161828079712AD62ED487
:102C40004D8D9375F67F4D8DC165FD156D8D2313EB
:102C5000C10245618280797106D62AD49D2C09E98A
:102C6000378560001305B5269305B023EF40706DDE
:102C700022554C5179767D16F18D4CD122554C510F
:102C80000966D18D4CD1B25045618280797106D6EA
:102C90002AD4812409E9378560001305B5269305F8
:102CA000B01EEF40106A22550C511966D18D0CD11F
:102CB00022554C510966D18D4CD1B250456182806C
:102CC000797106D62AD42313B102212409E9378564
:102CD00060001305B5269305B038EF409066225585
:102CE00008451375050265FD03556102A25588CD9F
:102CF000B25045618280797106D62AD4D92A09E971
:102D0000378560001305B5269305D02BEF4070631F
:102D1000225548518965938505F06D8D2181B2500A
:102D200045618280797106D62AD4652209E9378502
:102D300060001305B5269305B031EF409060225531
:102D40004849C165FD156D8DB2504561828039716C
:102D500006DE2ADC2EDA2319C1022AD60145F13D0E
:102D60002315A102231401021D4583558102634CE2
:102D7000B50001008315810285052314B102835536
:102D80008102E358B5FE32550841F135325508410C
:102D9000F53D231401021305F00383558102634CB2
:102DA000B50001008315810285052314B102835506
:102DB0008102E358B5FE325508418355A102093717
:102DC000231401021305F00F83558102634CB500F3
:102DD00001008315810285052314B1028355810208
:102DE000E358B5FEF25021618280397106DE22DCA3
:102DF0002ADA2ED803C58501058941C1425585656A
:102E00002ED683554500525513F6F57F2315C10282
:102E10008565353F42550964930504802ED60356D7
:102E2000850052551376F67F2315C1020D374255A2
:102E300022D68355C500525513F6F57F2315C102DE
:102E40008965313742550D64930504802ED60356AB
:102E5000050152551376F67F2315C102CD3D42552B
:102E600022D683554501525513F6F57F2315C1022D
:102E70008D65F13D4255230C050042550345250261
:102E8000058919CD42558355A501AE052ED60356A9
:102E9000E50152552315C1025D3D4255230105024E
:102EA0006254F250216182807971AA852AD6130674
:102EB000C003054563EAC50032559305000E6367FC
:102EC000B50032551335850F456182800145456156
:102ED00082807971AA852AD6396605456388C5003E
:102EE0003255930506082D8D1335150045618280F6
:102EF000797106D6EFD0CFAE218913351500B250C7
:102F000045618280011173E0107C379503008325B1
:102F100005E593E585062328B5E473F0107C05618B
:102F20008280797106D62AD405451D2805651305CA
:102F300005803D203715D000130515C0EF30704EC9
:102F40003705220013053510EF30B04D0965130524
:102F500005C0814529280545AD20B25045618280D4
:102F600079712AD6956523A2A510456182803971B1
:102F700006DE2ADC2EDAEF20A07C09E93785600026
:102F80001305851193050069EF40B03B5255E2559A
:102F900013161500719AB295F1052ED805890E0504
:102FA0002AD673E0107C4255B255104193060002B8
:102FB000B395B600D18D0CC173F0107CF250216135
:102FC000828079712AD6B715100003A605C1518DEC
:102FD00023A8A5C04561828079712AD64561828087
:102FE000797106D62AD42120B25045618280797148
:102FF00006D6EFD06F9F218913351500B250456179
:103000008280797106D62AD42AD22AD0E53D02558B
:1030100089651386058010C10255138605C050C10D
:1030200002551386059410C50255938505D44CC5E9
:103030000255B7450300938505404CCD02558D657B
:103040000CD502551386051850D502551386052058
:1030500010D902551386052850D90255938505309D
:103060000CDD025595650CC902551386050150C942
:103070000255938505020CCDB250456182803971AD
:1030800006DE22DC2AD8130530042ED66364B50090
:1030900002DAB1A842552AD42AD2A9650CC1125528
:1030A000938505404CC11255AD65938505800CC5CF
:1030B00012553964930504804CC5125513060490CB
:1030C00010C912554CC91255B5650CCD12551305D2
:1030D0004502EFF0BF84925588D1125540CD12556C
:1030E000F5450CDD1255ED454CDD22552ADA054536
:1030F0002AD052556254F25021618280797106D6ED
:103100002AD4FD3322551D202255A521225507A57D
:1031100001FBEF0040642255EF0040682255EF00AC
:10312000406BEF00E071B250456182805D7186C6F0
:10313000A2C4A6C2CAC04EDE52DC56DA5AD82AD67B
:1031400037040C0013051400EF305013854501457A
:10315000EF30605701458145EF30A06D1305142015
:10316000EF30D01105458545EF30E05505458145E7
:10317000EF30206C13051440EF30501009458545A1
:10318000EF30605409458145EF30A06A13051460A3
:10319000EF30D00E0D458545EF30E0520D458145AD
:1031A000EF30206937140C0013051480EF30100D38
:1031B00011458545EF30205111458145EF3060675D
:1031C00037290C001305D9E0EF30500B3D458545FC
:1031D000EF30604F3D458145EF30A065130574A089
:1031E000EF30D00915458545EF30E04D1545814557
:1031F000EF30206437150C00EF305008214585452D
:10320000EF10A07A21458545EF30E04B21458545FB
:10321000EF30206213057420EF30500625458545B8
:10322000EF30604A25458545EF30A06013057440B6
:10323000EF30D00429458145EF30E04829458545E8
:10324000EF30205F1305D460EF3050032D458545E6
:10325000EF3060472D458545EF30A05DB719100070
:1032600013850960EF3090016D458145EF10E073E3
:103270006D458545EF3020456D458145EF30605BFC
:10328000372A100013050AA0EF30407F75458545A9
:10329000EF10A07175458545EF30E04275458145D9
:1032A000EF302059B71A8C0013850A40EF30007DAB
:1032B0001305A0028145EF3000411305A0028145AE
:1032C000EF302057370B8C0013050B40EF30007B9D
:1032D000130520028145EF30003F13052002814590
:1032E000EF30205513051B60EF3040791305300295
:1032F0008545EF300054130530028D45EF30005EF8
:103300001305E0028145EF30003C1305E0028145E2
:10331000EF30C05C1305E002A145EF30A04321452A
:103320009145EF10A06D2145EF10806F37258C007F
:1033300013055580EF3080741305C0028145EF30CE
:1033400080381305C0028145EF30A04E13859AA046
:10335000EF30C072130550028145EF30C0361305BF
:1033600050028145EF30E04C1385AA60EF300071C8
:103370001305B0028145EF3000351305B0028145D9
:10338000EF30204BB704100013850460EF30006F5E
:103390004D458545EF1060614D458545EF30A032C4
:1033A0004D458145EF30E04813051980EF30006D41
:1033B00031458545EF30203131458145EF3060475B
:1033C000130519A0EF30806B35458545EF30A02FF0
:1033D00035458145EF30E045130514C0EF30006AF4
:1033E00019458545EF30202E19458145EF30604461
:1033F000130514E0EF3080681D458545EF30A02CA3
:103400001D458145EF30E04213855400EF300067E1
:1034100041458545EF30202B41458145EF306041E6
:1034200013855420EF30806545458545EF30A02950
:1034300045458145EF30E03F13053B20EF30006408
:10344000130510028545EF30002813051002814551
:10345000EF30203E37058C00EF304062130500024C
:103460008545EF108054130500028545EF30A025F7
:10347000130500028545EF30C03B138569C0EF306E
:10348000E05F59458545EF30002459458545EF30CB
:10349000403A13053AE0EF30605E7D458145EF30FC
:1034A00080227D458545EF30C03813053AC0EF30A6
:1034B000E05C79458545EF30002179458545EF3061
:1034C000403737151000EF30605B61458545EF10E0
:1034D000C04D61458545EF30001F61458145EF30A6
:1034E000403513850A20EF3060591305900281455D
:1034F000EF30601D130590028145EF3080331305D6
:10350000A9C0EF30A05739458145EF30C01B394580
:103510008145EF30003213852920EF302056654574
:103520008145EF30401A65458145EF308030138585
:103530002940EF30A05469458145EF30C0186945F6
:103540008145EF30002F13850440EF30205349456B
:103550008145EF30401749458145EF30802D425B72
:10356000D25A625AF259064996442644B6406161DD
:103570008280397106DE22DC26DA2AD82AD61305A3
:10358000400697E0A0FFE7806074EF005052896426
:1035900003A50480A1654D8D23A0A48073E0107C59
:1035A0003795030085454CC173F0107C37751800C2
:1035B0001305159F97E0A0FFE78040713255084141
:1035C0009145EF005050325548419145EF00B04FC2
:1035D000325508419145EF00B0523255484191456E
:1035E000EF00105232550841C145EF0010553255D9
:1035F0004841C145EF00705432550841EF009057E3
:1036000032554841EF0010571385047197E0A0FF31
:10361000E780C06B138404C0354622858145EF00E6
:10362000B0589384048089451546AD4621472685C8
:10363000EF00B05D8D451546AD4621472685EF006C
:10364000D05C85451546AD4621472685EF00F05BE9
:1036500089451546914621472285EF00105B8D452F
:103660001546914621472285EF00305A854515467B
:10367000914621472285EF005059A14515469D46A8
:1036800021472285EF007058A54515469D462147E4
:103690002285EF009057A94515469D462147228572
:1036A000EF00B05695451546994621472685EF000F
:1036B000D05599451546994621472685EF00F05487
:1036C00091451546994621472685EF0010549945A6
:1036D0001546954621472285EF0030539D451546F6
:1036E000954621472285EF0050529545154695464F
:1036F00021472285EF0070519D4515468946214797
:103700002685EF009050A14515468946214726851C
:10371000EF00B04FA5451546894621472685EF00A5
:10372000D04EAD451546994621472285EF00F04D14
:10373000B1451546994621472285EF00104DB54504
:103740001546994621472285EF00304CD2546254E9
:10375000F25021618280397106DE07A041FB2ADC2C
:103760002AFA2AD85370A018D31510C02ED60849AB
:103770008145EF1090654255084985659385058020
:10378000EF20D05642550849B255EF109066425589
:103790000849EF109068F25021618280797106D655
:1037A0002AD42AD2084D8145EF1030621255084DB7
:1037B000856593850580EF2070531255084DFD55A2
:1037C000EF1030631255084DEF103065B25045616F
:1037D0008280797106D62AD42AD2484D9305F00FFB
:1037E000EF30205E1255484DEF1050461255484DAF
:1037F000EF1070481255484DEF10504B1255484D80
:10380000EF10304E1255484DB775890993850580E4
:1038100037160E009D46EF30C04A1255484DEF1046
:10382000B04F1255484DEF10B0511255484DEF10A2
:1038300070541255484DEF10B056B2504561828019
:10384000797106D6EF1050610545EF109062B250C5
:1038500045618280797106D62AD42ED283C5E500CF
:1038600025209255225583C5F500052822553D286F
:1038700022556D2622551D2B2255FD2B2255EF007A
:103880002066B2504561828079712AD62315B10233
:103890002AD22310B5044561828079712AD6231576
:1038A000B1022AD22311B50445618280397106DE46
:1038B00022DC26DA2AD82AD60965130505F4231452
:1038C000A10205452313A102056513050520EF108C
:1038D000E01A325508419145EF10601E32554841BB
:1038E0009145EF10C01D325508459145EF10201D40
:1038F00023150102894441651304F5FF0355A10214
:1039000063CDA4200355A102B2550A052E950841A6
:103910008945EF1040200355A102B2550A052E95A6
:103920000841EF1060220355A102B2550A052E95F9
:1039300008418545EF10E0230355A102B2550A0561
:103940002E9508418545EF1060260355A102B2551A
:103950000A052E95084181450146EF10C0290355FF
:10396000A102B2550A052E9508418545EF10E02CBD
:103970000355A102B2550A052E9508418945EF204D
:10398000B03C0355A102B2550A052E950841814568
:10399000EF10C02E0355A102B2550A052E9508411D
:1039A0008145EF10A0310355A102B2550A052E95AD
:1039B00008418145EF1020330355A102B2550A0595
:1039C0002E95084181450146EF10C0340355A102F0
:1039D000B2550A052E950841A1450146EF108033E6
:1039E0000355A102B2550A052E950841D14501465D
:1039F000EF1040320355A102B2550A052E95084139
:103A0000F1450146EF1000310355A102B2550A05F8
:103A10002E950841094691468145EF10E03803553F
:103A2000A102B2550A052E950841094689468145ED
:103A3000EF1080370355A102B2550A052E950841B3
:103A4000054699468145EF1020360355A102B2552F
:103A50000A052E950841054681458146EF10C03480
:103A60000355A102B2550A052E9508418545054624
:103A7000EF10C03B0355A102B2550A052E9508412F
:103A800005468145EF10803A0355A102B2550A055B
:103A90002E9508418145EF10E03E0355A102B25535
:103AA0000A052E95084185450146EF10E042035571
:103AB000A102B2550A052E95084105468145EF1031
:103AC000A0410355A102B2550A052E950841A14512
:103AD000EF1080450355A102B2550A052E95084105
:103AE000A145EF10C0480355A102B2550A052E9515
:103AF0000841EF10204C0355A102B2550A052E953E
:103B00000841A285EF10C04D0315A102050523153C
:103B1000A1020355A102E3D7A4DE32550841854531
:103B2000EF10E04F32550841EF10E05C325508418C
:103B300029468145EF10205F325508418145EF103D
:103B4000C07103556102C1456342B5023255084157
:103B5000BD45EF10C074325508413D468145EF1018
:103B6000E0793255084185453D46B9A003556102CB
:103B70006355A0023255084183556102EF1020724F
:103B800032550841035661028145EF1020773255C6
:103B9000084103566102854505A032550841854517
:103BA000EF10E06F3255084105468145EF10007572
:103BB0003255084185450546EF104074325508419D
:103BC000EF10E07B325508418145EF10407E3255C1
:103BD00008418545EF10A07D32550841835581028B
:103BE000EF1060103255484183558102EF10A00F4D
:103BF0003255084583558102EF10E00E32550841D9
:103C0000D1452946EF10407E056513050520EF00DC
:103C10001063D2546254F25021618280397106DE01
:103C200022DC2ADA2AD80565130505E02317A1024C
:103C3000130500202316A10285450145EF0030043D
:103C400085450145EF00500819459145EF003003C7
:103C500019459145EF0050078D450145EF003002B1
:103C60008D450145EF005006231501020944035517
:103C7000A1026349A4120355A102C2550A052E955B
:103C80004845EF0010090355A102C2550A052E95BB
:103C900048458145EF00D00B0355A102C2550A05E6
:103CA0002E9548458145EF00700E0355A102C2557F
:103CB0000A052E95484593058002EF0070110355C3
:103CC000A102C2550A052E9548459305A002EF00B2
:103CD000F0130355A102C2550A052E9548459305D8
:103CE000000213060002F946EF2000670355A10207
:103CF000C2550A052E954845EF0090150355A102BF
:103D0000C2550A052E954845930500021306000288
:103D1000F946EF20A0720355A102C2550A052E955F
:103D20004845EF0030160355A102C2550A052E95ED
:103D300048458545EF0050180355A102C2550A05B4
:103D40002E9548458145EF00901C0355A102C255B0
:103D50000A052E9548458355E102EF00101F0355D3
:103D6000A102C2550A052E9548458355C102EF00B0
:103D7000D0210355A102C2550A052E954845EF00F2
:103D8000D0240355A102C2550A052E954845EF00DF
:103D900010270315A10205052315A1020355A10251
:103DA000E35BA4EC6254F250216182805D7186C6AF
:103DB000A2C4A6C2AAC02ADE084D8545812A725532
:103DC000084D8545BD2A725502D802DA02DC084D3D
:103DD00002D402D202D00C10612A7255084D8145DE
:103DE000D12A7255084D8145014681460147EF2091
:103DF000B0007255084D856413840480A285ED22BD
:103E00007255084D8945392C7255084D938404FA32
:103E100081452686B1247255084D8145512472553D
:103E2000084D81455D247255084DE9247255084DB1
:103E3000FD247255084DD145012E7255084D81451E
:103E4000352E7255084DAD267255084DA2857D2838
:103E50007255084DA68551267255084D8545652E2B
:103E60007255084D8145CD2E7255084D192996443D
:103E70002644B64061618280797106D62AD42AD25E
:103E8000484DEF00101F1255484DB77589099385AD
:103E9000058037761800130706A09946C1470146EA
:103EA000EF20107D1255484DEF00701F1255484D00
:103EB000C145EF0070211255484DEF0050241255B6
:103EC000484DC145EF0010271255484DA145EF3030
:103ED000400A1255484DEF00902AB2504561828049
:103EE000797106D62AD42AD210514C4D3285EFE092
:103EF0009FC512550851A145EFE0DFC51255085185
:103F0000F545EFE01FC6B25045618280797106D653
:103F10002AD42313B102EF10D00409E937856000D9
:103F20001305B51F9305B029EF30B04122558355D5
:103F30006102505D93C5F5FFF18D4CDDB2504561D6
:103F40008280797106D62AD42313B102EF10700152
:103F500009E9378560001305B51F9305902EEF30F2
:103F6000503E03556102A255E8C1B25045618280BE
:103F7000797106D622D42E842AD2EF10807E09E9E8
:103F8000378560001305B51F9305F06DEF30703B6A
:103F900012556855FD75504014406D8D0C44120645
:103FA000558E9256A205D18D4D8DE8D62254B25031
:103FB00045618280797106D62AD42ED2EF10607ABC
:103FC00009E9378560001305B51F9305E068EF30F8
:103FD00050372255685183554102225671994D8DB3
:103FE00068D2B25045618280797106D62AD42313F3
:103FF000B102EF10007709E9378560001305B51F9E
:104000009305101CEF30F03322554855CD750356FB
:104010006102A2569385F51F6D8D518DC8D6B250A1
:1040200045618280797106D62AD42ED2EF10607352
:1040300009E9378560001305B51F9305B070EF30AF
:10404000503022550859D17503564102FD15A2562C
:104050006D8D9315E6004D8D88DAB25045618280F2
:10406000797106D62AD42ED232D0EF10806F09E9AA
:10407000378560001305B51F9305901EEF30702C37
:1040800022550859F57503564102A256FD156D8D4E
:10409000518D88DA0255A25588C5B250456182809B
:1040A000797106D62AD42ED2EF10A06B09E9378594
:1040B00060001305B51F93057022EF30902812554C
:1040C000A25588C1B25045618280797106D62AD442
:1040D0002ED2EF10006909E9378560001305B51F7E
:1040E00093058047EF30F0251255A25588D1B25084
:1040F00045618280797106D62AD4EF10806609E97D
:10410000378560001305B51F9305304BEF307023E2
:1041100022550C59F5990CD9B250456182807971BC
:1041200006D62AD4EF10E06309E93785600013054D
:10413000B51F9305104FEF30D02022550C59F99937
:104140000CD9B25045618280797106D62AD42ED21C
:10415000EF10206109E9378560001305B51F93054D
:10416000D05BEF30101E2255085992552256137518
:10417000B5F84D8D08DAB25045618280797106D666
:104180002AD42ED2EF10E05D09E9378560001305CF
:10419000B51F9305B066EF30D01A225528558355C8
:1041A0004102225661994D8D28D6B25045618280D8
:1041B000797106D62AD4EF10C05A09E93785600014
:1041C0001305B51F9305406CEF30B01722554C55C1
:1041D000F9994CD5B25045618280797106D62AD4BE
:1041E0002313B102EF10E05709E93785600013058A
:1041F000B51F9305A054EF30D01422550859FD7512
:1042000003566102A2569385F50F6D8D518D88DAA4
:10421000B25045618280797106D62AD4A303B102D7
:10422000EF10205409E9378560001305B51F930589
:10423000D056EF30101103457102058911C5225582
:104240000C5993E5050829A022550C5993F5F5F76B
:104250000CD9B25045618280797106D62AD42ED20B
:10426000EF10205009E9378560001305B51F93054D
:104270001059EF30100D1255A255C8C1B25045610A
:104280008280797106D62AD4EF10A04D09E93785CE
:1042900060001305B51F9305E017EF30900A225513
:1042A0000C5993E585000CD9B2504561828001110B
:1042B00073E0107C379503000C41F9990CC173F041
:1042C000107C05618280797106D62AD42ED2EF1037
:1042D000204709E937856000130585119305E0182B
:1042E000EF30300673E0107C22554841925522563B
:1042F00041994D8D48C273F0107CB2504561828067
:10430000797106D62AD42ED2EF10804309E9378579
:1043100060001305851193057022EF30900273E061
:10432000107C22550841925522566D994D8D08C238
:1043300073F0107CB25045618280797106D62AD420
:104340002ED2EF10E03F09E9378560001305851193
:104350009305A041EF30E07E73E0107C2255485178
:104360009255225601994D8D48D273F0107CB2506F
:1043700045618280797106D62AD4EF10603C09E944
:1043800037856000130585119305A026EF30607B0B
:1043900073E0107C22550C4193E505080CC173F0C5
:1043A000107CB25045618280397106DE2ADC2EDA3B
:1043B00032D8EF10E03809E9378560001305851120
:1043C0009305006FEF30E0775255E2551316150054
:1043D000719AB295F1052ED605890E052AD473E09F
:1043E000107C32550841A2553D463316B600C256E0
:1043F0001346F6FF3257718DB395B6004D8D08C345
:1044000073F0107CF25021618280397106DE2ADC63
:104410002EDA32D836D63AD4EF10803209E9378511
:104420006000130585119305501CEF3080712255F3
:1044300011C5225593051020636AB50037856000C9
:10444000130585119305601CEF30A06F5255E2559E
:104450000A052E95130505042AD273E0107C325507
:10446000C2553E052256D20592564D8D9305F6FF54
:104470004D8D88C273F0107CF25021618280797179
:1044800006D62AD415452ED263EAA50037856000EA
:104490001305252A9305101BEF30A06A73E0107CEA
:1044A000379503004C4522569D461257B396C600D9
:1044B00093C6F6FFF58D3316C700D18D4CC573F04A
:1044C000107CB25045618280797106D62AD4154598
:1044D0002ED263EAA500378560001305252A9305CF
:1044E000501DEF30006673E0107C379503000C49D7
:1044F00022569D461257B396C60093C6F6FFF58D19
:104500003316C700D18D0CC973F0107CB2504561D1
:104510008280797106D62AD4EF10802609E9378582
:1045200060001305F5149305000EEF30806173E011
:10453000107C22550C412166D18D0CC122554C4175
:1045400093E585004CC173F0107CB25045618280C8
:10455000797106D62AD42ED2EF10802209E9378548
:1045600060001305F5149305C012EF30805D73E011
:10457000107C22550841925522561375C5FB4D8D6E
:1045800008C273F0107CB25045618280797106D602
:104590002AD42ED2EF10C01E09E93785600013051A
:1045A000F5149305A015EF30C05973E0107C225527
:1045B0000841F17512569385F5CFA2566D8D93156E
:1045C00086004D8D88C273F0107CB25045618280A8
:1045D000797106D62AD42ED2EF10801A09E93785D0
:1045E00060001305F51493059018EF30805573E0C3
:1045F000107C2255084192552256137535FC4D8D7D
:1046000008C273F0107CB25045618280797106D681
:104610002AD42ED2EF10C01609E9378560001305A1
:10462000F5149305A01BEF30C05173E0107C2255A8
:104630000841F17512569385F53FA2566D8D93157D
:1046400086004D8D88C273F0107CB2504561828027
:10465000797106D62AD4EF10A01209E937856000D7
:104660001305F51493050027EF30A04D73E0107C7F
:1046700022552C452166D18D2CC573F0107CB2508B
:1046800045618280797106D62AD4EF10600F09E95E
:10469000378560001305F51493051029EF30604A43
:1046A00073E0107C22552C412166D18D2CC173F012
:1046B000107CB25045618280797106D62AD42ED200
:1046C000EF10000C09E9378560001305F514930518
:1046D000803EEF30004712559D45636AB50037852F
:1046E00060001305F5149305903EEF30804573E0AC
:1046F000107C22554C41E1994CC1225592555041B4
:10470000D18D4CC173F0107CB250456182807971BB
:1047100006D62AD42ED2EF10A00609E9378560000C
:104720001305F51493050021EF30A04173E0107CD0
:1047300022550849925522561375E5F54D8D08CA44
:1047400073F0107CB25045618280797106D62AD40C
:104750002ED2EF10E00209E9378560001305F51449
:1047600093054023EF30E03D1255318109C937856B
:1047700060001305F51493055023EF30803C12556B
:10478000A255C8C9B25045618280797106D62AD433
:104790002ED2EF00F07E09E9378560001305F5148D
:1047A00093052025EF30E0391255318109C937854D
:1047B00060001305F51493053025EF30803812554D
:1047C000A25588D9B25045618280797106D62AD423
:1047D000EF00107B09E9378560001305F514930598
:1047E000502EEF30003673E0107C22554C4593E597
:1047F00025004CC573F0107CB25045618280797100
:1048000006D62AD4EF00D07709E937856000130572
:10481000F51493053030EF30C03273E0107C225530
:104820004C4593E505204CC573F0107CB2504561B2
:104830008280797106D62AD42AD20851EFE02F91CE
:10484000B25045618280797106D62AD42ED22AD000
:104850000851EFE08FD9B25045618280797106D658
:104860002AD42ED22AD00851EFE08FB0B250456141
:104870008280797106D62AD4EF00107409E9378551
:1048800060001305B5269305C01BEF30802B225521
:104890000C4193F5F5F70CC1B250456182807971F6
:1048A00006D62AD4EF00507109E937856000130558
:1048B000B52693053042EF30C02822550C41BD99F2
:1048C0000CC1B25045618280797106D62AD42ED2AD
:1048D000EF00906E09E9378560001305B526930552
:1048E0008046EF3000262255485583554102225616
:1048F0001375F5FC4D8D48D6B250456182807971B3
:1049000006D62AD4EF00506B09E9378560001305FD
:10491000B5269305B01EEF30C02222550C51196602
:10492000D18D0CD122554C510966D18D4CD1B2504C
:1049300045618280797106D62AD42313B102EF0033
:10494000B06709E9378560001305B526930560480F
:10495000EF30201F0355610293050010636AB50014
:10496000378560001305B52693057048EF30601D4C
:1049700003556102A25588D5B25045618280797194
:1049800006D62AD4EF00506309E937856000130585
:10499000B5269305501AEF30C01A22550C4193E505
:1049A00005080CC1B25045618280397106DE2ADCEF
:1049B0002EDAEF00106809E937856000130535230A
:1049C0009305201CEF30E017625593551500C199EF
:1049D00037460300130606E0B29552562ED8854599
:1049E0003395A5002AD609C63255C255C8C121A0A3
:1049F0003255C25588C5F2502161828079712AD61C
:104A00002ED49565938505202E9508414166A256C2
:104A100032574D16718D558DBA9588C1456182808A
:104A200079712AD69565938505202E95C165FD156A
:104A30006D8D0C4193E515000CC145618280797143
:104A40002AD69375F5038A052ED48965938505F0DA
:104A50006D8D21812AD273E0107C225592553786C4
:104A6000030013064624329510418546B395B600DF
:104A7000D18D0CC173F0107C4561828079712AD68A
:104A80009375F5038A052ED48965938505F06D8DA0
:104A900021812AD273E0107C22559255378603007B
:104AA00013064624329510418546B395B60093C54A
:104AB000F5FFF18D0CC173F0107C45618280797136
:104AC00006D62AD42ED2EF00105111E937856000A6
:104AD0001305050E85659385D52CEF3080060355AB
:104AE0004102137515F811C9378560001305050ECD
:104AF00085659385E52CEF30C00473E0107C22556A
:104B000092550326C526D18D2326B52673F0107C39
:104B1000B25045618280797106D62AD42ED2EF0038
:104B2000904B09E9378560001305050E9305307E2B
:104B3000EF302001225508419255225671994D8D32
:104B400008C2B25045618280797106D62AD4EF003E
:104B5000904809E9378560001305050E9305407CF0
:104B6000EF20307E22550C41ED990CC1B2504561C9
:104B70008280797106D62AD42ED2EF00D04509E979
:104B8000378560001305050E93057078EF20707B64
:104B9000125511C522550C4193E5850021A02255DF
:104BA0000C41DD990CC1B25045618280797106D605
:104BB0002AD42ED2EF00304209E937856000130570
:104BC000050E93058071EF20D077125593050008EC
:104BD000636AB500378560001305050E9305907173
:104BE000EF2030762255084D925522564D8D08CE35
:104BF000B25045618280797106D62AD42ED232D045
:104C0000EF00703D09E9378560001305050E930537
:104C1000D069EF20107322550841F975125693851B
:104C2000F50782566D8D9315A60022569E06D58DEA
:104C30004D8D08C2B25045618280797106D62AD462
:104C40002ED2EF00503909E9378560001305050EB3
:104C50009305D066EF20F06E125585456317B500B9
:104C600022550C410966D18D31A022550C4179762F
:104C70007D16F18D0CC1B25045618280797106D6E6
:104C80002AD42ED2EF00303511E9378560001305A4
:104C9000050E85659385E590EF20B06A22550325C2
:104CA0000518C1651256FD15A2566D8D93150601A6
:104CB0004D8D23A0A618B25045618280797106D629
:104CC0002AD42ED2EF00303109E937856000130570
:104CD000050E9305F064EF20D0661255A25588C9E1
:104CE000B25045618280797106D62AD42ED2EF0067
:104CF000902E11E9378560001305050E85659385B3
:104D00000593EF2010641255A25523A6A518B250A2
:104D100045618280397106DE2ADC2EDA32D8EF0056
:104D2000902B11E9378560001305050E8565938585
:104D3000159BEF201061525509C55255D145631797
:104D4000B50029452AD602D4114531A031452AD6CD
:104D500009452AD419452AD25255E25511892E9572
:104D6000930505022ED00851B25522568D46339731
:104D7000B6009257B396C600D98E05473317F70091
:104D8000C257D98E93C6F6FF758D93D62700B3957B
:104D9000B60093F6370002573396C600D18D4D8D7D
:104DA00008C3F25021618280397106DE2ADC2EDAD6
:104DB00032D836D6EF00302211E93785600013056E
:104DC000050E8565938525B8EF20B0575255B2552D
:104DD0001306051032D41305451085892AD285C1E2
:104DE000625592552E950841B255FD150D46331664
:104DF000B6001346F6FFC2566257925731A8625565
:104E0000A2552E950841B2550D463316B6001346ED
:104E1000F6FFC2566257A257718DB395B6004D8DFD
:104E2000B305F70088C1F25021618280397106DE36
:104E30002ADC2EDAA309C102EF00F01911E9378547
:104E400060001305050E8565938575D6EF20704FBC
:104E500052558345310305463315A60085892AD668
:104E600099C562550859B25562564D8D01A86255D3
:104E70000859B255625693C5F5FF6D8D08DAF250A8
:104E800021618280797106D62AD42ED2EF00B01427
:104E900011E9378560001305050E85659385D5DB1F
:104EA000EF20304A125511CD12558545630BB500E0
:104EB000378560001305050E85659385F5DBEF20CA
:104EC000504822550859925522563D9992054D8DCC
:104ED00008DAB25045618280397106DE2ADC2EDAAA
:104EE00032D8EF00500F11E9378560001305050E29
:104EF00085659385A5D9EF20D0445255E2551345D9
:104F0000150009052AD68859B25505463316B6004C
:104F1000C2561346F6FF6257718DB395B6004D8D9C
:104F200008DBF25021618280797106D62AD42ED214
:104F3000EF00700A11E9378560001305050E8565DD
:104F4000938545EFEF20F03F1255398111C9378520
:104F500060001305050E8565938555EFEF20703EC3
:104F60001255A25523A2A514B250456182807971D1
:104F700006D62AD42ED2EF00100611E9378560003C
:104F80001305050E8565938505F1EF20903B1255BD
:104F9000398111C9378560001305050E8565938534
:104FA00015F1EF20103A1255A25523A6A514B250C0
:104FB00045618280797106D62AD4EF00D00111E9CB
:104FC000378560001305050E8565938565F4EF2030
:104FD000503722552C49F9992CC9B250456182802D
:104FE000797106D62AD42ED2EF00E07E09E9378502
:104FF00060001305050E8565AD05EF20903473E064
:10500000107C225592550326052093C5F5FFF18D9E
:105010002320B52073F0107CB250456182807971F5
:1050200006D62AD42ED2EF00007B11E93785600026
:105030001305050E85659385F532EF2090301255E6
:1050400009C51255A5456367B5021255A945630305
:10505000B5021255B145630FB5001255B945630B42
:10506000B500378560001305050E856593852533EA
:10507000EF20302D1255A145630EB5001255B145F4
:10508000630AB5001255A9456306B5001255B94526
:105090006318B5021255A25505812AD003A505292A
:1050A0001365050423A8A528225503250529825543
:1050B000225661994D8D2328A628B25045618280E1
:1050C00012559145630EB50012559945630AB50016
:1050D000125595456306B50012559D45631AB500F6
:1050E0001255A2552AD003A505291375F5FB5DBFFE
:1050F00012552AD055BF797106D62AD4E92D11E967
:10510000378560001305050E85659385C52EEF2054
:10511000502322558325052993E585002328B528AA
:10512000B25045618280397106DE2ADC2EDA32D82F
:105130005D2511E9378560001305050E85659385AA
:10514000854CEF2010204255A145630EB500425515
:10515000B145630AB5004255A9456306B5004255FD
:10516000B945631EB508425505812AD6525521C559
:10517000625503250529E5753256FD15E2566D8DFC
:105180009315C6004D8D23A8A62842559145630E60
:10519000B50042559945630AB500425595456306E9
:1051A000B50042559D45631EB5046255832505290A
:1051B00093F5F5FD81A0625503250529B255625688
:1051C0001375F58FA2054D8D2328A62842559145CC
:1051D000630EB50042559945630AB50042559545A1
:1051E0006306B50042559D456313B504625583259A
:1051F0000529BD992328B528F250216182804255A6
:10520000ADB74255A145630EB5004255B145630A9D
:10521000B5004255A9456306B5004255B945E31DA1
:10522000B5FC62558325052993E50502E1B7425592
:10523000A145630EB5004255B145630AB50042551C
:10524000A9456306B5004255B945E317B5FA62555D
:105250008325052993E5050171BF797106D62AD406
:105260002ED2952B11E9378560001305050E856553
:105270009385C546EF20F00C125511C522558325A4
:105280000529216639A022558325052905661306BF
:105290000680D18D2328B528B2504561828079716E
:1052A00006D62AD42ED2052B11E9378560001305C6
:1052B000050E85659385F536EF20B0081255C1457A
:1052C000636BB500378560001305050E8565938512
:1052D0000537EF20100722558325852993E5050121
:1052E000232CB52822550325852B9255225641990A
:1052F0004D8D232CA62AB25045618280797106D645
:105300002AD42ED232D0C12911E937856000130585
:10531000050E856593855554EF20B0020255C145B1
:10532000636BB500378560001305050E85659385B1
:105330006554EF20100122558325852993E5050248
:10534000232CB528125505C122550325052CFD75C2
:1053500002569385F50FA2566D8D931586004D8DDF
:1053600023A0A62C11A822550325052C82552256D0
:1053700041994D8D2320A62CB250456182807971D0
:1053800006D62AD4892911E9378560001305050E50
:1053900085659385753AEF20C07A22558325852A45
:1053A00093E515002324B52AB250456182807971B6
:1053B00006D62AD42ED2052111E9378560001305BF
:1053C000050E856593856559EF20A0772255925586
:1053D0000326852A89058546B395B600D18D2324F9
:1053E000B52AB25045618280397106DE2ADC2EDA98
:1053F00032D8D52611E9378560001305050E85657D
:10540000938545A2EF20E07352559305851A2ED659
:1054100009C55255A1456313B5026255B2552E9583
:105420000841C165FD154256E25632576D8D931500
:1054300006014D8DB385E60088C131A06255B25595
:1054400042562E9510C1F25021618280797106D6A4
:105450002AD4292109E937856000130585189305A9
:10546000E056EF20006E22550C551166D18D0CD5FB
:10547000B25045618280797106D62AD4C52609E9E1
:10548000378560001305851893059032EF20606B17
:1054900022554C5179767D16F18D4CD122554C51C7
:1054A0000966D18D4CD1B25045618280797106D6A2
:1054B0002AD46D2609E93785600013058518930500
:1054C000F030EF20006822550C5579767D16F18D6D
:1054D0000CD522550C550966D18D0CD5B2504561BD
:1054E0008280797106D62AD4952E09E93785600025
:1054F0001305851893053034EF20A06422554C51D4
:1055000061767D16F18D4CD122554C512166D18D9D
:105510004CD1B25045618280797106D62AD43D2E95
:1055200009E937856000130585189305B053EF200E
:10553000406122550C41BD990CC1B2504561828039
:10554000797106D62AD4192E09E93785600013052A
:10555000851893056050EF20C05E22554C4193F5AD
:10556000F5FD4CC122554C4193E505024CC1B250AA
:1055700045618280797106D62AD4CD2409E9378520
:105580006000130585189305A02DEF20805B225540
:105590004C5171767D16F18D4CD1B25045618280AF
:1055A000797106D62AD45D2C09E937856000130588
:1055B00085189305B01EEF20C05822554C4193E545
:1055C00035024CC1B25045618280797106D62AD429
:1055D0002ED24D2409E9378560001305F51B93058C
:1055E0007015EF2000561255A255C8C5B25045613E
:1055F0008280797106D62AD42ED2AD2C09E937855E
:1056000060001305F51B9305B012EF20805312556F
:10561000A255C8C1B25045618280797106D62AD49C
:1056200002D2892C09E9378560001305F51B930523
:10563000F010EF20005122550845E175FD15225666
:105640006D8D2AD21365050208C622550C45BD99F9
:105650000CC5B25045618280011173E0107C0D656C
:105660000C4193E515000CC1010073F0107C05613D
:10567000828079712AD673E0107C325501C90D659C
:105680004C412166D18D11050CC139A00D654C41ED
:1056900061767D16F18D4CC173F0107C456182807E
:1056A000797106D62AD42313B1022312C1022AD05B
:1056B0004845EFF08F890255484583554102EFF088
:1056C000CF8C0255084983556102EFF00F880255CF
:1056D000084983554102EFF04F8B025548498355E5
:1056E0006102EFF08F860255484983554102EFF081
:1056F000CF89B2504561828039712ADE2AFC2EFAA8
:1057000032F853F0A510D31510C02317B10253700F
:10571000A610531610C02316C1022319B500031595
:10572000C102F255239AA5000315E1028315C102B7
:1057300072562E9513051502231BA6002161828047
:105740007971AA852AD6096693060680054563887D
:10575000D5003255930506C02D8D133515004561D2
:1057600082807971AA852AD6356605456388C50089
:105770003255930506142D8D133515004561828031
:105780007971AA852AD63966930606800545638312
:10579000D502B25513060688638EC5003256B96528
:1057A000938605906308D6003255938505982D8D14
:1057B00013351500456182807971AA852AD639662C
:1057C00005456388C5003255930506082D8D1335B0
:1057D0001500456182807971AA852AD6296605451A
:1057E0006387C504B255130606406382C50432566A
:1057F000AD6593860580630CD6023256938505C04D
:105800006307B6023256AD656303B602325693851E
:105810000540630EB6003256B16593860580630875
:10582000D6003255938505C02D8D13351500456181
:1058300082807971AA852AD61306C003054563EADA
:10584000C50032559305000E6367B5003255133518
:10585000850F456182800145456182807971B74538
:10586000030093850540A98D93B515002AD62E8592
:10587000456182807971AA852AD615660545638DB2
:10588000C500B25541066389C500325595659385BB
:1058900005022D8D133515004561828079712AD658
:1058A000B70510420CC1325505462312C5003255CA
:1058B0002313C50032552314C50032552315C500E6
:1058C0003255BD462316D50032558D462307D500E7
:1058D0003255A307D5003255B706204314C93255B7
:1058E000B706C84254C932553727663C130747D21A
:1058F00018CD325537973C3C1307972458CD325575
:1059000014D1325554D13255B7A685459386A6CDCC
:1059100014D53255B776133F9386C64B54D53255BE
:1059200010D932553946231AC50232550566130679
:10593000469C231BC502325537969D3B1306B67015
:1059400010DD32552328C51E3255232E050232554F
:1059500037A6363D411630C1325537468A351306D3
:1059600086E870C1325530C532553706803F70C564
:1059700032552328050432553736733F1306363324
:1059800070C932552CCD32550345451D05890DC5CD
:105990003255B7151D45938535466CCD3255B70543
:1059A00020412CD132558355450307A0C1FB8720E8
:1059B000850307A181FC25A03255B7159D44938529
:1059C00035466CCD3255B705A0412CD132558355A3
:1059D000450307A0C1FB87A001FC07A141FCD3F14F
:1059E00005D053F001105370101053702018272267
:1059F00005063255B7B55138938575712CD532559A
:105A0000B705A0416CD53255232805063255232A07
:105A100005063255B165938505352CDD3255232EAB
:105A20000506325537360300130606452320C50800
:105A300032560965130505712322A6083256B7169A
:105A40000300938606D42324D60832562326A608BC
:105A50003256232806083256232A06083256232CAB
:105A600006083256232E060832562320B60AB255AF
:105A700023A2050AB25523A4050AB25523A6050A96
:105A8000B25523A8050AB25561661306066A23AA11
:105A9000C50AB2551307007D23ACE50AB25523AE03
:105AA000D50AB25523A0050CB25523A2050CB25558
:105AB00023A4050CB25523A6C50CB255B796040015
:105AC0009386063E23AAD50CB25523ACD50CB2550D
:105AD00023AE050CB25523A0050EB25523A2050E28
:105AE000B25523A4A50EB25523A6C50EB25523A8C0
