:0200000400609A
:040000006F0000018C
:1000100081400141814101428142014381430144C8
:100020008144014581450146814601478147014898
:10003000814801498149014A814A014B814B014C68
:10004000814C014D814D014E814E014F814FF9622E
:1000500073A002308542FE0263C3020001A0970232
:1000600000009382020973905230731030005300E5
:1000700000F0D30000F0530100F0D30100F0530270
:1000800000F0D30200F0530300F0D30300F0530458
:1000900000F0D30400F0530500F0D30500F0530640
:1000A00000F0D30600F0530700F0D30700F0530828
:1000B00000F0D30800F0530900F0D30900F0530A10
:1000C00000F0D30A00F0530B00F0D30B00F0530CF8
:1000D00000F0D30C00F0530D00F0D30D00F0530EE0
:1000E00000F0D30E00F0530F00F0D30F00F0970292
:1000F000000093822204739052309701A1FF9381F4
:10010000617017021A001302D2F3137202FC7325F6
:1001100040F185456370B500131615013292171131
:10012000A0FF130121EE6111EF604040EF50F05F3E
:1001300002906D7106C20AC40EC612C816CA1ACC45
:100140001ECE22D026D22AD42ED632D836DA3ADCA7
:100150003EDEC2C0C6C2CAC4CEC6D2C8D6CADACC77
:10016000DECEE2D0E6D2EAD4EED6F2D8F6DAFADC87
:10017000FEDE73252034F32510340A86EF60E02E6E
:100180007310153489629382028073A0023092400A
:100190002241B2414242D2426243F243025492545B
:1001A0002255B2554256D2566257F25706489648E3
:1001B0002649B649464AD64A664BF64B065C965CDB
:1001C000265DB65D465ED65E665FF65F5161730082
:0201D0002030DD
:1001E00073750430828000007365043082807971F9
:1001F00006D62AD42AD2416513050500930540048A
:10020000EF30000B925523A4A51812559385418415
:100210002326B5181255C165938585062320B51888
:100220001255C1659385C5112322B5181255C965AC
:100230009385052D2324B522B250456182805D71DE
:1002400086C6A2C4A6C2A2E02AD82AD6832505184B
:100250002ED4832545182ED203254518EF8060093A
:10026000325503254518EF509006B25503A5851861
:1002700083A54518EF3030012255B7D54C3D938505
:10028000D5CC0CD52255B7D5A33B9385A5704CD5BD
:100290002255B755B83C9385C51E2CC12255B7755C
:1002A000133B9385C54B6CC12255B7C532BE9385B0
:1002B000358C2CC52255B775133F9385C54B6CC53E
:1002C0002255B7D5CC3D9385D5CC2CC92255B7D571
:1002D0004C3E9385D5CC2CCD22556CCD225537067E
:1002E0007A4330D122553706A04070D12255B73617
:1002F00073419386363334D52255B706AF4374D550
:10030000225530D92255373686351306D67B70D91B
:10031000225537B6BA411306B6F830DD22563705F6
:10032000704168DE2256B7C6AD429386B650232090
:10033000D6082256B70654422322D6082256B706BC
:1003400052422324D60822562326B608A255370641
:10035000204123A8C508A2551306401F239AC508AB
:10036000A2551306800C239BC508A255239CC508E3
:10037000A2551306803E239DC508A2559306007D15
:10038000239ED508A25513078025239FE508A25573
:100390002390D50AA25595462391D50AA2552394B8
:1003A000C50AA2552395C50AA2550D462396C50A2E
:1003B000A2550566130606C02397C50AA255130663
:1003C00000402398C50AB25523950502925507A00F
:1003D0008501B25527A6051C925507A08501B25587
:1003E00027A8051C925507A0C501B25527A4051CD6
:1003F000B255A38A0502B25523A40526B25531662B
:10040000130636032390C510B2553706A04123AC1E
:10041000C50AB25523AEA50A3255B7054040232080
:10042000B50C3255B705C8422324B50C32552326E6
:10043000B50C3255B785103F9385351C2326B51072
:100440003255B795A2419385B51F2328B510325573
:10045000B705C03F2322B5123255B705804023248B
:10046000B5123255B70500402326B5123255B705EF
:10047000803F2328B5123255B735333F9385353346
:100480002320B5123255B7D5E53E9385A58F232C91
:10049000B526125507200512325527260526325556
:1004A000B7B5A4399385E55B232AB50C125507200F
:1004B000051287A001EE325553701010D31510C0ED
:1004C000231AB50032552320052612550345451D34
:1004D000058909C9325585452320B524325523069F
:1004E000B50439A0325523200524325523060504CE
:1004F00032558544230B95023255230405043255A9
:10050000A30505043255A30D95023255230E95021D
:100510003255232095223255232295223255230C21
:10052000950212550720051207A441EE325553706B
:100530008010D31510C02318B500125507200512DE
:100540003255D31510C02317B500125507200512D8
:10055000325553700000D31510C02319B500325521
:100560009385C1B22326B522325592550325C52263
:1005700083C5F500EF1080553255938581B323284C
:10058000B522325592550325052383C5E500EF10AA
:10059000805A3255938541B4232AB522325593852A
:1005A000C1B4232CB5223255938541B5232EB522F3
:1005B00032559385C1B52328B5243255938501B8AA
:1005C000232AB5243255938541BA2326B5243255C2
:1005D000938581BC2324B52432559385C1BE232C39
:1005E000B52432550325852581455D2A32551305ED
:1005F000451D07A581EE87A5C1EE53068420EF5067
:10060000C0323255938581BF2322B524325503254C
:100610004524530500F0612A3255032545242ADE7E
:1006200002DC2ADA232205001255B2550720C52024
:1006300003A5452453150020512232559255032518
:10064000452407A5C52051221255B2550720451350
:100650008720051203A5452453751018B52A325575
:1006600003258518EF400040325503258518138473
:100670004184A285EF40A041031544008315040185
:10068000136505081375F5F92312A40013E5E504B5
:100690001375E5C783154401136505102318A400DD
:1006A000325593E5052493F5F5A7231AB4000325E5
:1006B0008518152A3255230C940003258518A28528
:1006C000EF40803B325503258518312A3255230CE3
:1006D000940003258518A285EF40003AB25503A582
:1006E000852283A54518EF709003B25503A5852296
:1006F00083C56503EF703025B25503A5852283C5F8
:100700002504EF703029B25503A5852283A545182D
:1007100007A501EFEF705031B25503A5852283A5DF
:10072000451807A441EF53058420EF709031B2556E
:1007300003A5852283A5451853058420EF70103248
:100740001255085919EDB25503A5852283C5350404
:10075000EF701021B25503A5852283C54504EF70C3
:10076000F01C3255A303050432552303050422551A
:10077000BD65938505A62312B50A22559965938513
:1007800005DC2313B50A4255EF10C0563255032538
:1007900085189128066496442644B640616182809B
:1007A00079712AD62ED42AD20CC5456182807971FE
:1007B0002AD62AF42AD208E14561828079712AD6A4
:1007C0002AF42AD208E54561828079712AD62AF472
:1007D0002AD248E54561828079712AD62AF42AD244
:1007E00008E945618280797106D62AD42AD2084167
:1007F0009145EF009076125548419145EF00F07514
:10080000125508459145EF0050751255230A05020F
:10081000B25045618280197186DEA2DCA6DACAD8A0
:10082000CED6D2D4A2F2A6F02ADE2ADC8325051881
:100830002EDA452B62555256032585188355E60A54
:100840000356060BEF50E008096493040480130676
:10085000E07E26858145C523130404C01306007E6F
:1008600022858145C92B85451306707D2285E123AC
:100870006255B7E5FD448D152328B51A6255B72595
:10088000FC4493852585232AB51A6255B705FB4498
:10089000938595FC232CB51A6255B785FF3E938549
:1008A000959F232EB51A6255B7B5FE3E938555DC4C
:1008B0002320B51C6255B735003F938585DE232282
:1008C000B51C6255034575030589630E053C3785E4
:1008D0007F3F1305E5CF2AD86255B705033B9385C3
:1008E000851A2ED60720851C87A081EF53F00018AB
:1008F00002F4130520039710A1FFE780A02A2685A4
:10090000814501460D2B2285814501462D238545D4
:10091000228501460D2362550720051B8720851C73
:10092000537010102728051A62550720451B872091
:10093000851C53701010272A051A62550720851B45
:100940008720851C53701010272C051A6255232A06
:10095000051C6255232C051C6255232E051C62556F
:10096000832585181305451DAECEAACCAECA884195
:10097000EF00F06B537015D007A4C1F287A401F308
:1009800082E8231701040944A1A08355E1045645D8
:1009900013962500E646329508418605B69503D69E
:1009A000C5008145EF00306B8355E1045645139631
:1009B0002500E646329508418605B69503D6C50062
:1009C000A145EF0050690315E10405052317A104B3
:1009D0000355E1046343A4060355E104E6451316F9
:1009E00025002E96072006005310002082E45310A5
:1009F000802853009028C66082E25370900082E005
:100A000053701010531600C006052E952316C5000E
:100A10000355E104E64506052E950355C50083D52B
:100A20006501E354B5F666458355E1040316650197
:100A300086052E952316C50089BF625503258518A6
:100A40000D292318010421659309F5CF09651304C5
:100A500005C007A481EF13090594930405D4130A74
:100A6000007D11A862550325851821210315010574
:100A700005052318A1040355010563CBA91A228596
:100A80008145A1292285814549216DDD62551305E6
:100A90004519AACE85454A85EF005071F645537039
:100AA00015D082EC87A045035370101027A20500D3
:100AB00085452685EF00906FF645537015D082EC82
:100AC00087A045035370101027A40500A145268573
:100AD000EF00D06DF645537015D082EC87A045032A
:100AE0005370101027A6050091454A85EF00106C41
:100AF000F645537015D082EC87A085035370101013
:100B000027A8050095452685EF00506AF6455370E5
:100B100015D082EC87A085035370101027AA05001A
:100B20009D454A85EF009068F645537015D082ECDC
:100B300087A085035370101027AC0500AD452685AE
:100B4000EF00D066F645537015D082EC87A0C50340
:100B50005370101027A0050003550105E34445F12B
:100B6000625542708720051B07218519B2715370A9
:100B70001010D3703110537010002728051A6255D9
:100B800042708720451B0721C519B27153701010A0
:100B9000D370311053701000272A051A6255427025
:100BA0008720851B0721051AB27153701010D3706E
:100BB000311053701000272C051A62550720451973
:100BC0005370041882EAC2700721C51B8721451A99
:100BD0003272D3F02010537030105370401053F025
:100BE0000000272E051A625542708720051C5661A9
:100BF0008721851A327253701010D3703110D3F0E0
:100C00004010537010002720051C62554270872049
:100C1000451C56618721C51A327253701010D3706B
:100C20003110D3F04010537010002722051C3DBD39
:100C3000625503258518453E6255A30B0502625592
:100C40000720051BA270537010102728051A625543
:100C50000720451BA27053701010272A051A6255F1
:100C60000720851BA27053701010272C051A62559F
:100C70000720051B531610C0096413050480814525
:100C80005D2A62550720451B531610C0130404C08B
:100C9000228581454D2262550720851B531610C0C1
:100CA00085452285492A62550720051B87A0C1EF8B
:100CB0003165D39500A07D1589E9E25507A0051B94
:100CC00087A001F0D31510A089C9E25503D6C50F3E
:100CD000698E9166558E239EC50EE25507A0451B71
:100CE00087A041F0D39500A089E9E25507A0451BF4
:100CF00087A081F0D31510A089C9E25503D6C50F8E
:100D0000698E9166558E239EC50EE25507A0851B00
:100D100087A0C1F0D39500A089E9E25507A0851B03
:100D200087A001F1D31510A089C9E25503D6C50FDC
:100D3000718D1166518D239EA50E62550720C51B2E
:100D400087A041F1A165539600A01385F5FF09EA3C
:100D500062560720C61B87A081F1531610A001CA56
:100D600062568356C60FE98ED58D231EB60EE25508
:100D700007A0051C87A0C1F1D39500A089E9E25521
:100D800007A0051C87A001F2D31510A089C9E25560
:100D900003D6C50F698EA166558E239EC50EE255FA
:100DA00007A0451C87A041F2D39500A089E9E25530
:100DB00007A0451C87A081F2D31510A089C9E25570
:100DC00003D6C50F718D2166518D239EA50E8674A5
:100DD0001674265AB6594659D6546654F6500961C7
:100DE000828079712AD6032505182AD40720C507E1
:100DF00002F287208507539500A009C522550720D8
:100E0000850702F2225512708720050853701010D2
:100E1000D31500C02311B102056613060680B295F2
:100E20002317B50A03152102A2553305A6402398BE
:100E3000A50A45618280397106DE2ADC2EDA32D8B5
:100E4000EF00D01C09E93785600013056534930570
:100E50008061EF60F0715255E1453305B502E2550E
:100E600042561305C50A2AD62E9510C1F2502161AB
:100E70008280797106D62AD42AD24845EF00F02321
:100E800012554845EF00902612550849EF00F02210
:100E900012550849EF00902512554849EF00F021FE
:100EA00012554849EF009024125508419305E00778
:100EB000EF00F026125548419305E007EF00302679
:100EC000125508459305E007EF007025125585453A
:100ED000230AB502B25045618280797106D62AD4C0
:100EE0002ED2EF00B01209E9378560001305653492
:100EF00093057030EF60D0671255A2550546331543
:100F0000A60088C9B25045618280797106D62AD47C
:100F10002ED2EF00B00F09E9378560001305653464
:100F20009305702EEF60D064225548459255335595
:100F3000B5000589B250456182805D7186C6A2E424
:100F40002ADA2AD8832505182ED6832545182ED4CB
:100F50008315C50F03162510D18D2311B5104255E9
:100F60008315C50F03160510F18D231FB50E4255CD
:100F70003256032585188355E60A0356060BEF40C3
:100F80005015425503451503058921C9425503559E
:100F9000E50F2DC5425503452503058971C9425505
:100FA00023090502425585452CCD32550315A50A66
:100FB000C2552395A50242558315C5028505231602
:100FC000B502425503455503058971ED4255A30805
:100FD0000502425523150502F9A042550345250394
:100FE000058979C55255EF100077425503458504B0
:100FF000058945C14255231505025DA842550345A3
:101000002503058955E542550355A50255E142558D
:1010100003453503058929C94255230A050242556E
:10102000A30C05024255232005244255230605043E
:101030004255A306050422550720C5064255272E12
:1010400005082255230A051C737004300100C2559F
:1010500003A5852283A54518EF60706C736004308A
:1010600001004255A30905025255EF10806889A07E
:1010700042550355A50205E94255B2550355C5022F
:1010800083D5C50A635EB50042558545A307B504FF
:1010900019A832550315850AC2552395A50209A83A
:1010A0004255A3080502425503258518EFF0AFF31A
:1010B0002255085901E9C25503A5852283C5450477
:1010C000EF70C00642550345F504058911CD425520
:1010D00003258518012642558355C50FBD89231E5A
:1010E000B50E4255A307050442550345250305895E
:1010F00031C9425503258518AAC2AAC00345450334
:10110000058919ED425503258522EF60B0664255E9
:1011100003258522EF607067425503258518913BB2
:1011200042550345450305890DC142550720C509B0
:10113000530400F0531504A0630C05104255B70585
:10114000803F11AA5255EF001024425503258522F5
:10115000EF60707C19C5425503258518EFF0AFE8A4
:1011600031A0425503258522EF70C0154255032555
:101170008522EF60D07419C5425503258518EFF01C
:101180008FE6ADA842552300010403258522EF60B8
:10119000B0664255AAE203454503058919C5425583
:1011A00003258522530500F029A0425503258522F9
:1011B0001665EF7080122300A10403450104058920
:1011C00015CD425503258522EF70E00A42550345AF
:1011D0004503058911ED42570325872283254718CA
:1011E0000326C7248326072503274725EF70000A17
:1011F00022550345451D0589630205164255032501
:101200008522EF60F06FC255238AA502425503453F
:101210004503058905C1425503459503058901C567
:101220005255012401A842558545A30CB5025255DB
:10123000EF00502C5255EF1060555255EF102062C0
:10124000056513050580B9262664B6406161828074
:101250004255B70580BF2CD1C25503A5852283C551
:101260006503EF60506EC25503A5852283C5250432
:10127000EF605072C25503A5452407A5C509EFF0DC
:101280000FD342550720450A8720850B53200020A5
:10129000539500A049C14255A2550720850C87A04F
:1012A00005120325452453751018EFF0EFD242556F
:1012B000072005130325C524D3100020AAC286E009
:1012C00002FE2ADC272E15007270625527200502C7
:1012D000C25503A5852583A50524EFF06FCC4255A3
:1012E00068499545E363B5E642558315C500850514
:1012F0002316B50042558355C50003552501E396D5
:10130000A5E44255232A0516425599456CC9425514
:1013100091452CCD1DBD4255A2550720C50C87A077
:1013200005120325452453751018EFF0EFCA4255F6
:101330000720050A530504A042550720C5120325BE
:10134000C524D3100020AAC286E002FE2ADC272E84
:1013500015007270625527200502C5BB4255032552
:101360008522EF60905819ED425503258522EF60E4
:101370003059E30505E8425503258522EF60905575
:10138000E30E05E6425503258522EF60705705C937
:1013900042558545230AB5024255230905024255A7
:1013A000A30805022255230AB51C425503258522B0
:1013B000EF609039425503258522EF60503A22555F
:1013C0000859E31D05E24255230905024255A308C9
:1013D00005022DB5797106D62AD42AD24845F129BD
:1013E00012554845212312550849C129125508496B
:1013F000F52912554849D12112554849C529125598
:1014000008419305E007212B125548419305E00759
:101410003923125508459305E0071123B250456161
:10142000828039712AD62AD4832505182ED2284DD8
:101430008D45636FB514225503454503058963093E
:10144000051432550345050305895DC9225592559A
:101450000325052507A0050387A045032ADE02FC16
:1014600006FA2AD827200500527042552722050087
:10147000225592550325452507A0850387A0C5035E
:101480002ADE02FC06FA2AD82720050052704255AF
:1014900027220500225592550325C52407A0850261
:1014A00087A0C5022ADE02FC06FA2AD827200500FA
:1014B0005270425527220500225592550325852456
:1014C00007A0050287A045022ADE02FC06FA2AD8F8
:1014D000272005005270425527220500225503257A
:1014E00085242ADEB70540C02EDC3706404032DABC
:1014F0002AD84CCD527042552720050221618280A6
:10150000225592550325052507A0050387A045030D
:101510002ADE02FC06FA2AD827200500527042551E
:1015200027220500225592550325452507A085034E
:1015300087A0C5032ADE02FC06FA2AD82720050068
:101540005270425527220500225592550325C52485
:1015500007A0850287A0C5022ADE02FC06FA2AD867
:10156000272005005270425527220500225592552A
:101570000325852407A0050287A045022ADE02FC78
:1015800006FA2AD827200500527042552722050066
:101590002161828079712AD6956523A2A5104561C3
:1015A000828011714AC04EC252C456C6732900309F
:1015B000F3291034732A007CF32A107C4AC84ECADF
:1015C00052CC56CE02499249224AB24A73F0107C5C
:1015D00086DF96DD9ADB9ED9A2D7A6D5AAD3AED157
:1015E000B2CFB6CDBACBBEC9C2C7C6C5CAC3F2C197
:1015F00076DF7ADD7EDB02F906F70AF50EF312F1EB
:1016000016EF1AED1EEB2AE92EE732E536E33AE152
:10161000BEFEC2FCC6FAF2F8F6F6FAF4FEF2A2F04A
:10162000A6EECAECCEEAD2E8D6E6DAE4DEE2E2E002
:1016300066FE6AFC6EFA4965832545F0850523221E
:10164000B5F0A30901021149374503001304054011
:101650004965930485F0034531036342A90222855D
:101660004D2883453103A6952380A500030531034A
:101670000505A309A10203453103E352A9FED27D6A
:10168000627DF27C066C966B266BB66A466AD669FA
:101690006669F6640674967F267FB67E467ED678A7
:1016A0006678F6770A679A662A66BA654A65DA63E3
:1016B0006A63FA620A729A712A71BA704A70DA5FC2
:1016C0006A5FFA5E0E4E1E49AE483E48CE475E4700
:1016D000EE467E468E551E55AE543E54CE535E5356
:1016E000EE52FE504AC04EC252C456C64249D2497A
:1016F000624AF24A73901A7C73100A7C7390193410
:1017000073100930B24A224A9249024911617300AA
:101710002030797106D62AD4C12C09E937856000BA
:101720001305653B9305304CEF6080642255C92C4E
:1017300075DD2255484D1375F50FB2504561828015
:10174000397106DE2ADC231BB1022AD88A052E95C0
:101750000849E12CF25021618280797106D62AD4A1
:101760002ED2B92011E9378560001305E530856573
:101770009385D52CEF60C05F03554102137515F8B2
:1017800011C9378560001305E53085659385E52C23
:10179000EF60005E73E0107C225592550326C5264B
:1017A000D18D2326B52673F0107CB250456182801E
:1017B0007971AA852AD6296605456387C504B2557D
:1017C000130606406382C5043256AD6593860580D4
:1017D000630CD6023256938505C06307B6023256B3
:1017E000AD656303B602325693850540630EB600BD
:1017F0003256B165938605806308D60032559385CD
:1018000005C02D8D13351500456182807971AA853B
:101810002AD609669306068005456388D5003255A9
:10182000930506C02D8D13351500456182807971B1
:1018300006D62AD4B53F11E9378560001305E53097
:10184000856593859594EF60A05222550325C518B0
:10185000B25045618280397106DE2ADC2EDA32D838
:10186000813F11E9378560001305E5308565938573
:1018700045A2EF60E04F52559305851A2ED609C553
:101880005255A1456313B5026255B2552E950841D4
:10189000C165FD154256E25632576D8D931506010E
:1018A0004D8DB385E60088C131A06255B2554256D0
:1018B0002E9510C1F25021618280797106D62AD40A
:1018C000552809E9378560001305D5379305502E53
:1018D000EF60004A73E0107C22554C4593E52500EB
:1018E0004CC573F0107CB25045618280797106D688
:1018F0002AD4492009E9378560001305D5379305B7
:101900003030EF60E04673E0107C22554C4593E5A3
:1019100005204CC573F0107CB2504561828079710E
:1019200006D62AD42ED2693511E937856000130511
:10193000E53085659385B525EF60804312559305A5
:101940000008636BB500378560001305E5308565D9
:101950009385C525EF60C04173E0107C22559255F8
:101960000326C525D18D232EB52473F0107CB250EB
:10197000456182807971AA852AD6396693060680E8
:1019800005456383D502B25513060688638EC500EC
:101990003256B965938605906308D6003255938513
:1019A00005982D8D1335150045618280797106D615
:1019B0002AD40966930606942ED2630FD5002255C9
:1019C000930506D4630AB5003785600013056534B6
:1019D0009305A036EF60C0391255A2550A052E9521
:1019E0000841B250456182807971B7450300938503
:1019F0000540A98D93B515002AD62E8545618280B4
:101A0000797106D62AD4CD3709E9378560001305E8
:101A1000653B93050036EF60A035225548491375A4
:101A200005041981B25045618280797106D62AD4A5
:101A3000392809E9378560001305D53E9305001460
:101A4000EF60003322550841B250456182807971C0
:101A5000AA852AD615660545638DC500B25541068F
:101A60006389C50032559565938505022D8D133523
:101A700015004561828079712AD62AD408614561B2
:101A8000828079712AD62AD4086945618280797169
:101A90002AD62AD408654561828079712AD62AD44B
:101AA00048654561828079712AD62AF42AD208E1F4
:101AB0004561828079712AD62AD408614561828085
:101AC00079712AD62AD4084545618280397106DEAB
:101AD0002ADC0D45231BB102639DA50037B5AA3E44
:101AE0001305B5AA2AD837D5133F1305A5D32AD68F
:101AF00019A002D802D662554275B2750128625506
:101B0000834561030520F2502161828079712AD6D4
:101B10002AF42EF22AD008E112700255272205007D
:101B20004561828079712AD6A305B1022AD22304A5
:101B3000B50045618280397106DE2ADC0D45231B24
:101B4000B1026397A50037B5AA3E1305B5AA01A84F
:101B5000035561038945631BB5003705803F2AD8CB
:101B600037D5133F1305A5D32AD619A002D802D61C
:101B700062554275B275593F6255834561035D37C1
:101B8000F25021618280397106DE2AD62AD40345BB
:101B90008504058915C12255832545240720450A5A
:101BA0002EDC02FA2ED827A20500225523160500A6
:101BB0002255A30405041DA0225503258522EF60AC
:101BC000A038225503258522EF6060392255032570
:101BD00045242ADC02DA2AD82322050022550325CF
:101BE0004524530500F0C920225503258518E1201E
:101BF0002255032505252ADC02DA2AD823280500E8
:101C00002255032545252ADC02DA2AD82328050097
:101C100022550325C5242ADC02DA2AD82328050008
:101C20002255032505252ADC02DA2AD823260500B9
:101C30002255032545252ADC02DA2AD82326050069
:101C400022550325C5242ADC02DA2AD823260500DA
:101C50002255232A05162255232C05162255232CFE
:101C600005102255232E051022552328050E225536
:101C7000231605002255231E05002255231F0500AB
:101C80002255231105022255231005022255231344
:101C9000050222552312050222550325852581457B
:101CA0009920F2502161828079712AD62AF42AD2B1
:101CB00008E145618280797106D62AD42AD208418A
:101CC0009145EF00B05D125548419145EF00105D20
:101CD000125508459145EF00705C1255230A050224
:101CE000B2504561828079712AD62ED42AD20CC591
:101CF00045618280757106C7AADCAADA03254518FA
:101D0000AAD80720450482F68720850486F4072197
:101D100005048AF25370011882F05370111882EE94
:101D20000720C50582EC8315A5000720051246553E
:101D3000D3F005D053F0001882EA0720450587202C
:101D4000850546555370101082E88315C50007209D
:101D500005124655D3F005D053F0001882E607204F
:101D60000506465582E40720450682E23670E660A5
:101D7000067187A1C1F856625370101082E053704B
:101D8000311053704010A670666102FE7660566294
:101D9000D3F0201006FC537030105370401046559D
:101DA00002FA02D802D60720450687A001F953059A
:101DB00010A005C946550720C50487A041F9072191
:101DC000C520537010105370201802F80720C50466
:101DD00087A081F90721051353701010537020104C
:101DE00005A0266096606661B661D3701010D3704E
:101DF000111806F8D37031105370001053F000180A
:101E000002F65655032505252AC5B7658F3D9385EE
:101E100095C22EC337C6753C1306F62832C1AADE1A
:101E20000CC10A6076552722050056550325052565
:101E30002AC502C32AC123260500565503250525B8
:101E40002AC502C32AC123280500565503250525A6
:101E50002AC502C32AC1232A050056550325052594
:101E60002AC502C32AC1232C050056554660032506
:101E70000525D31000202AC506E302E1AADE272E9D
:101E800015000A607655272005025655032545257D
:101E90002AC52EC332C1AADE0CC10A60765527229C
:101EA00005005655032545252AC502C32AC1232608
:101EB00005005655032545252AC502C32AC12328F6
:101EC00005005655032545252AC502C32AC1232AE4
:101ED00005005655032545252AC502C32AC1232CD2
:101EE00005005655032545252AC502C302C1AADEB1
:101EF000232E05000A607655272005025655032536
:101F0000C5242AC5B705003F2EC337D64C3D13065E
:101F1000D6CC32C1AADE0CC10A6076552722050054
:101F200056550325C5242AC502C32AC12326050008
:101F300056550325C5242AC502C32AC123280500F6
:101F400056550325C5242AC502C32AC1232A0500E4
:101F500056550325C5242AC502C32AC1232C0500D2
:101F60004655D6550720C50403A5C524D310002027
:101F70002AC506E302E1AADE272E15000A6076557F
:101F8000272005025655032585242AC5B705F040AC
:101F90002EC302C1AADE0CC10A60765527220500B5
:101FA0005655032585242AC502C32AC123260500C8
:101FB0005655032585242AC502C32AC123280500B6
:101FC0005655032585242AC502C32AC1232A0500A4
:101FD0005655032585242AC502C32AC1232C050092
:101FE0005655032585242AC5B705C0C02EC337061C
:101FF000C04032C1AADE4CCD0A60765527200502CA
:1020000066552120BA404961828039712ADA2AD87E
:10201000832505182ED6032505252ADE2ADC072070
:10202000050027A805024255032505252ADE2ADCDE
:10203000072045003255272A05024255032545252C
:102040002ADE2ADC072005003255272C05024255DE
:10205000032545252ADE2ADC072045003255272E98
:10206000050242550325C5242ADE2ADC0720050087
:1020700032552724050242550325C5242ADE2ADCD1
:1020800007204500325527260502425503258524A1
:102090002ADE2ADC0720050032552720050242559A
:1020A000032585242ADE2ADC072045003255272215
:1020B00005022161828079712AD62AD42313010274
:1020C0000945C165FD15035661026340C504035609
:1020D0006102A256060636962318060003566102D0
:1020E000A25606063696231BB60003566102A25678
:1020F00006063696231E0600031661020506231304
:10210000C10203566102E354C5FC225585452301F3
:10211000B50245618280797106D62AD42AD28325F8
:1021200005182ED003455504058931C512550345C0
:102130007504058911C5125585452303B50425A8E5
:1021400012550355850201C9125583158502FD15E7
:102150002314B5020DA0125503258522EF505064BB
:10216000630D052E02550315450A92552394A502C9
:1021700012552303050412550355A5026358A00008
:1021800012558315A502FD152315B502125582556A
:102190000720451987A04508539500A00DC1125589
:1021A00082550355650183D5450963DDA5021255A6
:1021B0008315C50F93E51500231EB50E15A81255FE
:1021C00082550720451987A08508531510A00DC119
:1021D00012550355650163000512125583156501FB
:1021E000FD1529A01255831565018505231BB50032
:1021F000125582550720451987A0C508531510A010
:102200000DC1125582550355850183D5450963DCFF
:10221000A50212558315C50F93E52500231EB50EA3
:102220000DA8125582550720451987A00509539519
:1022300000A005C112550355850169C512558315C6
:102240008501FD1529A01255831585018505231CDF
:10225000B5001255284D9145631CB526125582557F
:102260000720852C87A00506539500A009CD12559F
:1022700082550355C50183D5650963D0A502125562
:10228000231E05000DA012550355C501635DA00076
:1022900012558315C501FD1529A012558315C501D9
:1022A0008505231EB500125582550720451087A0CD
:1022B0004506539500A015C5125582550720450BBC
:1022C00087A00507531510A009CD12558255035557
:1022D000E50183D5850963DEA5021255231F05009C
:1022E0003DA812550355E501635BA0021255831505
:1022F000E501FD151DA012558355C50FF999231E43
:10230000B50EFDB512558355C50FF599231EB50EB3
:1023100089B712558315E5018505231FB5001255B0
:1023200082550720450B87A00507539500A039CD9E
:10233000125582550720452987A08505531510A001
:102340001DE1125582550720852987A08505531563
:1023500010A011E9125582550720C52987A08505CF
:10236000531510A005C5125582550355250283D576
:10237000C50963D7A50212558315C50F93E5050856
:10238000231EB50E1255231105020DA0125503553B
:102390002502635DA000125583152502FD1529A0B5
:1023A00012558315250285052311B5021255825554
:1023B0000720451087A08506539500A0630A0510E5
:1023C000125582550720452C87A0C505539500A0BE
:1023D00009CD125582550355050283D5A50963D051
:1023E000A5021255231005020DA012550355050232
:1023F000635DA000125583150502FD1529A0125535
:102400008315050285052310B50212558255072054
:10241000451087A04506531510A015C512558255C5
:102420000720450B87A00507531510A009CD1255AD
:1024300082550355650283D5050A63D7A502125557
:102440002313050205A81255035565026354A00223
:10245000125583156502FD1521A802550315650A5D
:1024600092552394A502C1B91255831565028505BD
:102470002313B502125582550720450B87A0C506C8
:10248000539500A015C5125582550355450283D5B5
:10249000E50963D9A50212558315C50F0566130614
:1024A0000680D18D231EB50E1255231205020DA0F4
:1024B000125503554502635DA00012558315450270
:1024C000FD1529A012558315450285052312B50275
:1024D000B25045618280397106DE2ADC2ADA034572
:1024E000050505896309051A525523080504525547
:1024F0000720852887200527537010105375005832
:102500005325A5A06309051A5255272AA528525517
:102510000720C528872005275370101053750058D1
:102520005325A5A0630E05185255272CA5285255F2
:102530000720052987200527537010105375005870
:102540005325A5A0630305185255272EA5285255DB
:102550000720C52A8720452753701010537500584F
:102560005325A5A0630805165255272CA52A5255B8
:102570000720052B872045275370101053750058EE
:102580005325A5A0630D05145255272EA52A525593
:102590000720452B8720452753701010537500588E
:1025A0005325A5A06302051452552720A52C52558A
:1025B0000720452987208529539500A052550720DB
:1025C000452902F80720852902F652550720C5291A
:1025D000C270539500A009C552550720C52911A006
:1025E0004270525502F80720C529B270531510A049
:1025F00009C552550720C52911A03270525502F65F
:102600000720C5268720450B5370101802F4872039
:10261000C526539500A009C552550720C52611A00F
:102620002270525502F4D31510C0231EB524525502
:102630008355C52507A0C1F9D3F015D053701018E4
:1026400027280526525507200527272A05264270E8
:10265000B270525553711008537010005370011826
:102660002722052C5255072045298720852B072135
:1026700085298721C52B0722C5298722052C537060
:102680001010D370311053701000D370521053706B
:1026900010002724052C5255072085138720450B51
:1026A0000721852753701010537020102726052C02
:1026B000F2502161828053050020EF50F044A9B50B
:1026C00053050020EF50504485B553050020EF50CE
:1026D000B0439DBD53050020EF50104371B5530525
:1026E0000020EF5070424DB553050020EF50D0410F
:1026F00065BD797106D62AD42AD22C4D114563E5E1
:10270000A5009255A8CD21A012558D452CCD12556E
:1027100003458504058901C51255894519A012553F
:102720008D456CC912552320050A125503258525B0
:102730008145EFF04FDB125585452309B50212554F
:102740002316050012558315E50285052317B502EA
:10275000B25045618280797106D62AD42AD22320CC
:10276000050A1255230905021255232A050412559C
:1027700091452CCD1255032585258145EFF0AFD627
:10278000125523160502B25045618280397106DE6A
:1027900022DC22FA2AD82AD6832505182ED403450E
:1027A0002503058945C9325503258522EF50700E52
:1027B000B945631CB504325503456504058931C527
:1027C0003255032585228545EF50301B3255A255E1
:1027D00003258522A869EF50302222550720C50124
:1027E000872045005370100802F28720450007A19A
:1027F000C1FB53200020D3F02010531510A039C97D
:102800003255032585228545A1A032550325852211
:10281000530400F053058420EF50101E3255032559
:10282000852253058420EF50B01B325503248522A6
:102830002285EF5050032285EF50101932550325A1
:1028400085228145EF50701332550325852281453D
:10285000EF50F01552746254F25021618280797108
:1028600006D62AD42AD2832505182ED00325852200
:10287000EF503002925523A0A52212550325852240
:10288000EF509002925523A2A522125503258522CE
:10289000EF50007C025508E1125503258522EF50C8
:1028A000807C025548E1125503258522EF502076A1
:1028B000025508E5125503258522EF50A0760255F2
:1028C00048E5125503258522EF50E06E025548E990
:1028D000125503258522EF50006E07A001FC02551A
:1028E0005370051027280500125503258522EF5047
:1028F000406F025568E9125503258522EF50E073B9
:10290000025508ED125503258522EF5080621255BD
:10291000272CA512125503258522EF50207602554B
:1029200048ED125507204516872085165370001074
:10293000D3F0101053701000537500585325A5A004
:1029400015C912552722A5101255072045148720B6
:10295000851453700010D3F010105370100053758D
:1029600000585325A5A001CD12552724A510B2501B
:102970004561828053050020EF501019D9B75305E7
:102980000020EF507018CDB779712AD62AD40720CD
:1029900085198720C5275370001053F00000272E9B
:1029A000052622550720C5198720052853700010D9
:1029B00053F000002720052822550720051A8720FC
:1029C00045285370001053F0000027220528225597
:1029D0000720451A8720052A5370001053F0000085
:1029E0002720052A22550720851A8720452A53705B
:1029F000001053F000002722052A22550720C51A8F
:102A00008720852A5370001053F000002724052AE0
:102A100022558315E5258505231FB52422558355A9
:102A2000E5250355C5256359B50622550720C52759
:102A30002724052822550720052827260528225562
:102A400007204528272805282255232E052622550C
:102A50002320052822552322052822550720052A50
:102A60002726052A22550720452A2728052A2255E8
:102A70000720852A272A052A22552320052A2255A0
:102A80002322052A22552324052A2255231F052403
:102A9000225585452308B50445618280797106D6A3
:102AA0002AD42ED2B92011E9378560001305E5300C
:102AB00085659385D52CEF50A02B035541021375E6
:102AC00015F811C9378560001305E53085659385D4
:102AD000E52CEF50E02973E0107C22559255032637
:102AE000C526D18D2326B52673F0107CB2504561E2
:102AF00082807971AA852AD6296605456387C5042F
:102B0000B255130606406382C5043256AD659386FE
:102B10000580630CD6023256938505C06307B60262
:102B20003256AD656303B602325693850540630E97
:102B3000B6003256B165938605806308D6003255DB
:102B4000938505C02D8D13351500456182807971FF
:102B500006D62AD42AD23920125521281255B2502D
:102B60004561828079712AD62AD423060500456101
:102B7000828079712AD62AD4A30605004561828015
:102B8000397106DE22DC26DA4AD82AD62AD4231264
:102B9000010208458545452022550845854561289F
:102BA0002313010223120102116579158355410295
:102BB000634CB50001008315410285052312B10263
:102BC00083554102E358B5FE41651304F5FF9304B4
:102BD000803E0549325581457D209375054001456C
:102BE00089C5035561021325853E11CD0315610288
:102BF0000505B37585002313A102E3CD95FC22558D
:102C0000A3062501C1BF2312010221657915835551
:102C10004102634CB5000100831541028505231272
:102C2000B10283554102E358B5FE4259D254625471
:102C3000F25021618280397106DE2ADC2EDA712998
:102C400009E937856000130515469305201CEF50F0
:102C50002012625593551500C1993746030013069B
:102C600006E0B29552562ED885453395A5002AD652
:102C700009C63255C255C8C121A03255C25588C5B2
:102C8000F250216182805D7186C6A2C4A6C2AAC02C
:102C90002EDE2ADC231901022317010202D4054586
:102CA0000146E922231BA102231A01021D45835577
:102CB0004103634CB5000100831541038505231AC8
:102CC000B10283554103E358B5FE625508416D2AB0
:102CD00062550841ED22231A01027D4583554103C7
:102CE000634CB5000100831541038505231AB10229
:102CF00083554103E358B5FE62550841835561038E
:102D0000CD2A41651304F5FF8544225515E162552E
:102D10000841192C2AD40315E1020505B375850075
:102D20002317A102E3C385FE625523069500F1BF78
:102D300041657D152317A102231A01021305F00F27
:102D400083554103634CB50001008315410385059C
:102D5000231AB10283554103E358B5FE6255084179
:102D6000DD2A2318A102035501031375F57F96444C
:102D70002644B6406161828079712AD62ED42AD247
:102D80000CC14561828079712AD62ED42AD24CC1D9
:102D90004561828079712AD62ED42AD20CC545612C
:102DA0008280397106DE22DC2ADA2ED8239E0500C5
:102DB0004255231005024255A30105024255231D29
:102DC00005004255231F05004255230105024255C7
:102DD000A30C05004255230C0500525502D681452F
:102DE0005D35C2552315A1022390A50052550564F7
:102DF000930504802ED6413DC2552315A10223918F
:102E0000A500525522D68565BD3DC2552315A102A8
:102E10002392A50052550964930504802ED6A5354A
:102E2000C2552315A1022394A500525522D68965C7
:102E3000993DC2552315A1022396A50052550D6454
:102E4000930504802ED68135C2552315A1022398FF
:102E5000A500525522D68D653D35C2552315A102D8
:102E6000239AA5006254F2502161828079712AD69A
:102E70002ED44D8D9375F67F4D8DC165FD156D8DED
:102E80002313C10245618280797106D62AD49D2C14
:102E900009E937856000130595499305B023EF4094
:102EA000306D22554C5179767D16F18D4CD12255DD
:102EB0004C510966D18D4CD1B250456182807971F7
:102EC00006D62AD4812409E937856000130595497F
:102ED0009305B01EEF40D06922550C511966D18D73
:102EE0000CD122554C510966D18D4CD1B25045615F
:102EF0008280797106D62AD42313B102212409E9EC
:102F000037856000130595499305B038EF4050664A
:102F1000225508451375050265FD03556102A2554A
:102F200088CDB25045618280797106D62AD4D92ADB
:102F300009E937856000130595499305D02BEF40CB
:102F40003063225548518965938505F06D8D218147
:102F5000B25045618280797106D62AD4652209E98A
:102F600037856000130595499305B031EF405060F7
:102F700022554849C165FD156D8DB250456182806D
:102F8000397106DE2ADC2EDA2319C1022AD6014560
:102F9000F13D2315A102231401021D458355810231
:102FA000634CB50001008315810285052314B1022D
:102FB00083558102E358B5FE32550841F13532554B
:102FC0000841F53D231401021305F00383558102E6
:102FD000634CB50001008315810285052314B102FD
:102FE00083558102E358B5FE325508418355A1024D
:102FF0000937231401021305F00F83558102634C36
:10300000B50001008315810285052314B1028355A3
:103010008102E358B5FEF25021618280397106DEEB
:1030200022DC2ADA2ED803C58501058941C1425523
:1030300085652ED683554500525513F6F57F231529
:10304000C1028565353F42550964930504802ED63B
:103050000356850052551376F67F2315C1020D37AE
:10306000425522D68355C500525513F6F57F2315D8
:10307000C1028965313742550D64930504802ED60F
:103080000356050152551376F67F2315C102CD3D37
:10309000425522D683554501525513F6F57F231527
:1030A000C1028D65F13D4255230C05004255034593
:1030B0002502058919CD42558355A501AE052ED6A9
:1030C0000356E50152552315C1025D3D42552301CA
:1030D00005026254F250216182807971AA852AD654
:1030E0001306C003054563EAC50032559305000E7B
:1030F0006367B50032551335850F45618280014500
:10310000456182807971AA852AD63966054563882A
:10311000C5003255930506082D8D13351500456100
:103120008280797106D6EFD0AF8B218913351500D7
:10313000B25045618280011173E0107C3795030025
:10314000832505E593E585062328B5E473F0107C17
:1031500005618280797106D62AD405451D2805654A
:10316000130505803D203715D000130515C0EF303D
:10317000304E3705220013053510EF30704D0965CC
:10318000130505C0814529280545AD20B25045618C
:10319000828079712AD6956523A2A5104561828027
:1031A000397106DE2ADC2EDAEF20A07C09E93785AA
:1031B00060001305653493050069EF40703B52557C
:1031C000E25513161500719AB295F1052ED80589AE
:1031D0000E052AD673E0107C4255B2551041930675
:1031E0000002B395B600D18D0CC173F0107CF25083
:1031F0002161828079712AD6B715100003A605C116
:10320000518D23A8A5C04561828079712AD6456178
:103210008280797106D62AD42120B25045618280FD
:10322000797106D6EFC05FFC218913351500B250C5
:1032300045618280797106D62AD42AD22AD0E53D0A
:10324000025589651386058010C10255138605C095
:1032500050C102551386059410C50255938505D4B7
:103260004CC50255B7450300938505404CCD02552A
:103270008D650CD502551386051850D50255138659
:10328000052010D902551386052850D9025593857B
:1032900005300CDD025595650CC9025513860501F4
:1032A00050C90255938505020CCDB250456182800C
:1032B000397106DE22DC2AD8130530042ED6636469
:1032C000B50002DAB1A842552AD42AD2A9650CC1A8
:1032D0001255938505404CC11255AD659385058007
:1032E0000CC512553964930504804CC5125513065C
:1032F000049010C912554CC91255B5650CCD125524
:1033000013054502EFF0BF84925588D1125540CD88
:103310001255F5450CDD1255ED454CDD22552ADAE6
:1033200005452AD052556254F2502161828079714C
:1033300006D62AD4FD3322551D202255A52122551B
:1033400007A541FCEF0040642255EF00406822557C
:10335000EF00406BEF00E071B250456182805D711B
:1033600086C6A2C4A6C2CAC04EDE52DC56DA5AD8FD
:103370002AD637040C0013051400EF3010138545CE
:103380000145EF30205701458145EF30606D130551
:103390001420EF30901105458545EF30A0550545C7
:1033A0008145EF30E06B13051440EF3010100945F4
:1033B0008545EF30205409458145EF30606A13059B
:1033C0001460EF30900E0D458545EF30A0520D454D
:1033D0008145EF30E06837140C0013051480EF309E
:1033E000D00C11458545EF30E05011458145EF3057
:1033F000206737290C001305D9E0EF30100B3D454D
:103400008545EF30204F3D458145EF306065130520
:1034100074A0EF30900915458545EF30A04D154556
:103420008145EF30E06337150C00EF30100821457F
:103430008545EF10A07A21458545EF30A04B214509
:103440008545EF30E06113057420EF301006254507
:103450008545EF30204A25458545EF3060601305EE
:103460007440EF30900429458145EF30A04829454C
:103470008545EF30E05E1305D460EF3010032D4535
:103480008545EF3020472D458545EF30605DB71904
:10349000100013850960EF3050016D458145EF1034
:1034A000E0736D458545EF30E0446D458145EF3073
:1034B000205B372A100013050AA0EF30007F754506
:1034C0008545EF10A07175458545EF30A0427545E3
:1034D0008145EF30E058B71A8C0013850A40EF3071
:1034E000C07C1305A0028145EF30C0401305A00247
:1034F0008145EF30E056370B8C0013050B40EF3061
:10350000C07A130520028145EF30C03E130520022A
:103510008145EF30E05413051B60EF30007913054F
:1035200030028545EF30C053130530028D45EF3032
:10353000C05D1305E0028145EF30C03B1305E0029A
:103540008145EF30805C1305E002A145EF30604318
:1035500021459145EF10A06D2145EF10806F372573
:103560008C0013055580EF3040741305C00281456F
:10357000EF3040381305C0028145EF30604E1385AF
:103580009AA0EF308072130550028145EF308036EB
:10359000130550028145EF30A04C1385AA60EF302F
:1035A000C0701305B0028145EF30C0341305B0027E
:1035B0008145EF30E04AB704100013850460EF3016
:1035C000C06E4D458545EF1060614D458545EF3036
:1035D00060324D458145EF30A04813051980EF302A
:1035E000C06C31458545EF30E03031458145EF30E5
:1035F0002047130519A0EF30406B35458545EF3066
:10360000602F35458145EF30A045130514C0EF30DC
:10361000C06919458545EF30E02D19458145EF30EA
:103620002044130514E0EF3040681D458545EF3018
:10363000602C1D458145EF30A04213855400EF30CA
:10364000C06641458545EF30E02A41458145EF3070
:10365000204113855420EF30406545458545EF30C6
:10366000602945458145EF30A03F13053B20EF30F1
:10367000C063130510028545EF30C0271305100203
:103680008145EF30E03D37058C00EF3000621305D7
:1036900000028545EF108054130500028545EF3088
:1036A0006025130500028545EF30803B138569C016
:1036B000EF30A05F59458545EF30C023594585451A
:1036C000EF30003A13053AE0EF30205E7D4581454A
:1036D000EF3040227D458545EF30803813053AC0F4
:1036E000EF30A05C79458545EF30C02079458545B0
:1036F000EF30003737151000EF30205B614585450E
:10370000EF10C04D61458545EF30C01E61458145D4
:10371000EF30003513850A20EF3020591305900251
:103720008145EF30201D130590028145EF30403375
:103730001305A9C0EF30605739458145EF30801B34
:1037400039458145EF30C03113852920EF30E055F0
:1037500065458145EF30001A65458145EF304030C1
:1037600013852940EF30605469458145EF3080185A
:1037700069458145EF30C02E13850440EF30E0529B
:1037800049458145EF30001749458145EF30402DCF
:10379000425BD25A625AF259064996442644B640D0
:1037A00061618280397106DE22DC26DA2AD82AD6C7
:1037B0001305400697E0A0FFE780C03EEF0050529F
:1037C000896403A50480A1654D8D23A0A48073E0C6
:1037D000107C3795030085454CC173F0107C37751C
:1037E00018001305159F97E0A0FFE780A03B325516
:1037F00008419145EF005050325548419145EF0046
:10380000B04F325508419145EF00B0523255484112
:103810009145EF00105232550841C145EF00105557
:1038200032554841C145EF00705432550841EF0010
:10383000905732554841EF0010571385047197E0B7
:10384000A0FFE7802036138404C0354622858145D9
:10385000EF00B0589384048089451546AD46214752
:103860002685EF00B05D8D451546AD46214726857E
:10387000EF00D05C85451546AD4621472685EF0013
:10388000F05B89451546914621472285EF00105B84
:103890008D451546914621472285EF00305A8545D2
:1038A0001546914621472285EF005059A1451546FE
:1038B0009D4621472285EF007058A54515469D4637
:1038C00021472285EF009057A94515469D4621477F
:1038D0002285EF00B0569545154699462147268525
:1038E000EF00D05599451546994621472685EF00AA
:1038F000F05491451546994621472685EF0010540E
:1039000099451546954621472285EF0030539D4540
:103910001546954621472285EF005052954515469C
:10392000954621472285EF0070519D4515468946F1
:1039300021472685EF009050A1451546894621472D
:103940002685EF00B04FA5451546894621472685B7
:10395000EF00D04EAD451546994621472285EF0030
:10396000F04DB1451546994621472285EF00104D8F
:10397000B5451546994621472285EF00304CD25473
:103980006254F25021618280397106DE07A081FC09
:103990002ADC2AFA2AD85370A018D31510C02ED6C4
:1039A00008498145EF109065425508498565938522
:1039B0000580EF20905642550849B255EF109066A9
:1039C00042550849EF109068F25021618280797168
:1039D00006D62AD42AD2084D8145EF1030621255FE
:1039E000084D856593850580EF2030531255084DAD
:1039F000FD55EF1030631255084DEF103065B25091
:103A000045618280797106D62AD42AD2484D930521
:103A1000F00FEF30E05D1255484DEF105046125553
:103A2000484DEF1070481255484DEF10504B12554D
:103A3000484DEF10304E1255484DB77589099385A2
:103A4000058037160E009D46EF30804A1255484DCE
:103A5000EF10B04F1255484DEF10B0511255484D70
:103A6000EF1070541255484DEF10B056B2504561EA
:103A70008280797106D6EF1050610545EF10906293
:103A8000B25045618280797106D62AD42ED283C580
:103A9000E50025209255225583C5F50005282255BD
:103AA0003D2822556D2622551D2B2255FD2B2255D2
:103AB000EF002066B2504561828079712AD62315C5
:103AC000B1022AD22310B5044561828079712AD6C9
:103AD0002315B1022AD22311B504456182803971C0
:103AE00006DE22DC26DA2AD82AD60965130505F473
:103AF0002314A10205452313A10205651305052022
:103B0000EF10E01A325508419145EF10601E325512
:103B100048419145EF10C01D325508459145EF10C1
:103B2000201D23150102894441651304F5FF035547
:103B3000A10263CDA4200355A102B2550A052E951A
:103B400008418945EF1040200355A102B2550A05EE
:103B50002E950841EF1060220355A102B2550A05C7
:103B60002E9508418545EF10E0230355A102B2557B
:103B70000A052E9508418545EF1060260355A102E0
:103B8000B2550A052E95084181450146EF10C0291E
:103B90000355A102B2550A052E9508418545EF103F
:103BA000E02C0355A102B2550A052E95084189451E
:103BB000EF20703C0355A102B2550A052E9508412D
:103BC0008145EF10C02E0355A102B2550A052E956E
:103BD00008418145EF10A0310355A102B2550A05F5
:103BE0002E9508418145EF1020330355A102B255AF
:103BF0000A052E95084181450146EF10C034035552
:103C0000A102B2550A052E950841A1450146EF10C3
:103C100080330355A102B2550A052E950841D145BE
:103C20000146EF1040320355A102B2550A052E9508
:103C30000841F1450146EF1000310355A102B2558C
:103C40000A052E950841094691468145EF10E03856
:103C50000355A102B2550A052E9508410946894629
:103C60008145EF1080370355A102B2550A052E9504
:103C70000841054699468145EF1020360355A102BB
:103C8000B2550A052E950841054681458146EF103B
:103C9000C0340355A102B2550A052E950841854549
:103CA0000546EF10C03B0355A102B2550A052E95FB
:103CB000084105468145EF10803A0355A102B255EF
:103CC0000A052E9508418145EF10E03E0355A102FB
:103CD000B2550A052E95084185450146EF10E04290
:103CE0000355A102B2550A052E95084105468145A6
:103CF000EF10A0410355A102B2550A052E950841C7
:103D0000A145EF1080450355A102B2550A052E9535
:103D10000841A145EF10C0480355A102B2550A055C
:103D20002E950841EF10204C0355A102B2550A050B
:103D30002E950841A285EF10C04D0315A10205057F
:103D40002315A1020355A102E3D7A4DE3255084191
:103D50008545EF10E04F32550841EF10E05C3255D9
:103D6000084129468145EF10205F325508418145C1
:103D7000EF10C07103556102C1456342B50232556F
:103D80000841BD45EF10C074325508413D4681459C
:103D9000EF10E0793255084185453D46B9A00355FD
:103DA00061026355A0023255084183556102EF104C
:103DB000207232550841035661028145EF10207789
:103DC0003255084103566102854505A03255084128
:103DD0008545EF10E06F3255084105468145EF10EB
:103DE00000753255084185450546EF10407432553F
:103DF0000841EF10E07B325508418145EF10407ECD
:103E0000325508418545EF10A07D32550841835554
:103E10008102EF1060103255484183558102EF1046
:103E2000A00F3255084583558102EF10E00E325540
:103E30000841D1452946EF10407E05651305052050
:103E4000EF001063D2546254F250216182803971C4
:103E500006DE22DC2ADA2AD80565130505E02317D9
:103E6000A102130500202316A10285450145EF009C
:103E7000300485450145EF00500819459145EF0094
:103E8000300319459145EF0050078D450145EF007E
:103E900030028D450145EF0050062315010209440B
:103EA0000355A1026349A4120355A102C2550A0594
:103EB0002E954845EF0010090355A102C2550A0589
:103EC0002E9548458145EF00D00B0355A102C25500
:103ED0000A052E9548458145EF00700E0355A10255
:103EE000C2550A052E95484593058002EF007011D2
:103EF0000355A102C2550A052E9548459305A00217
:103F0000EF00F0130355A102C2550A052E9548454E
:103F10009305000213060002F946EF20C066035520
:103F2000A102C2550A052E954845EF00901503558C
:103F3000A102C2550A052E954845930500021306B5
:103F40000002F946EF2060720355A102C2550A052E
:103F50002E954845EF0030160355A102C2550A05BB
:103F60002E9548458545EF0050180355A102C255CE
:103F70000A052E9548458145EF00901C0355A10286
:103F8000C2550A052E9548458355E102EF00101FE2
:103F90000355A102C2550A052E9548458355C10215
:103FA000EF00D0210355A102C2550A052E954845C0
:103FB000EF00D0240355A102C2550A052E954845AD
:103FC000EF0010270315A10205052315A1020355D3
:103FD000A102E35BA4EC6254F250216182805D7126
:103FE00086C6A2C4A6C2AAC02ADE084D8545812A7B
:103FF0007255084D8545BD2A725502D802DA02DC99
:10400000084D02D402D202D00C10612A7255084D1C
:104010008145D12A7255084D8145014681460147A7
:10402000EF2070007255084D856413840480A285CA
:10403000ED227255084D8945392C7255084D9384EF
:1040400004FA81452686B1247255084D81455124D4
:104050007255084D81455D247255084DE92472550D
:10406000084DFD247255084DD145012E7255084D5D
:104070008145352E7255084DAD267255084DA285E5
:104080007D287255084DA68551267255084D8545E7
:10409000652E7255084D8145CD2E7255084D192952
:1040A00096442644B64061618280797106D62AD44E
:1040B0002AD2484DEF00101F1255484DB775890997
:1040C0009385058037761800130706A09946C147E7
:1040D0000146EF20D07C1255484DEF00701F12555D
:1040E000484DC145EF0070211255484DEF00502456
:1040F0001255484DC145EF0010271255484DA145B6
:10410000EF30000A1255484DEF00902AB250456139
:104110008280797106D62AD42AD210514C4D32852C
:10412000EFE09FC512550851A145EFE0DFC51255DC
:104130000851F545EFE01FC6B250456182807971A4
:1041400006D62AD42313B102EF10D00409E937852B
:104150006000130595429305B029EF307041225558
:1041600083556102505D93C5F5FFF18D4CDDB25072
:1041700045618280797106D62AD42313B102EF10EB
:10418000700109E937856000130595429305902E6B
:10419000EF30103E03556102A255E8C1B2504561AF
:1041A0008280797106D622D42E842AD2EF10807EA6
:1041B00009E937856000130595429305F06DEF30EE
:1041C000303B12556855FD75504014406D8D0C44C0
:1041D0001206558E9256A205D18D4D8DE8D62254E9
:1041E000B25045618280797106D62AD42ED2EF1062
:1041F000607A09E937856000130595429305E06808
:10420000EF3010372255685183554102225671997B
:104210004D8D68D2B25045618280797106D62AD41C
:104220002313B102EF10007709E937856000130509
:1042300095429305101CEF30B03322554855CD758B
:1042400003566102A2569385F51F6D8D518DC8D618
:10425000B25045618280797106D62AD42ED2EF10F1
:10426000607309E937856000130595429305B070C6
:10427000EF30103022550859D17503564102FD1513
:10428000A2566D8D9315E6004D8D88DAB2504561CA
:104290008280797106D62AD42ED232D0EF10806F68
:1042A00009E937856000130595429305901EEF30AC
:1042B000302C22550859F57503564102A256FD15BA
:1042C0006D8D518D88DA0255A25588C5B250456171
:1042D0008280797106D62AD42ED2EF10A06B09E91C
:1042E000378560001305954293057022EF30502802
:1042F0001255A25588C1B25045618280797106D6A7
:104300002AD42ED2EF10006909E937856000130521
:10431000954293058047EF30B0251255A25588D1BC
:10432000B25045618280797106D62AD4EF1080663A
:1043300009E937856000130595429305304BEF304E
:10434000302322550C59F5990CD9B2504561828021
:10435000797106D62AD4EF10E06309E93785600049
:10436000130595429305104FEF30902022550C59BC
:10437000F9990CD9B25045618280797106D62AD458
:104380002ED2EF10206109E93785600013059542B0
:104390009305D05BEF30D01D225508599255225617
:1043A0001375B5F84D8D08DAB25045618280797188
:1043B00006D62AD42ED2EF10E05D09E937856000D9
:1043C000130595429305B066EF30901A2255285593
:1043D00083554102225661994D8D28D6B2504561D0
:1043E0008280797106D62AD4EF10C05A09E9378540
:1043F0006000130595429305406CEF30701722550D
:104400004C55F9994CD5B25045618280797106D6E8
:104410002AD42313B102EF10E05709E93785600071
:10442000130595429305A054EF3090142255085976
:10443000FD7503566102A2569385F50F6D8D518D62
:1044400088DAB25045618280797106D62AD4A303F6
:10445000B102EF10205409E9378560001305954239
:104460009305D056EF30D01003457102058911C570
:1044700022550C5993E5050829A022550C5993F5AE
:10448000F5F70CD9B25045618280797106D62AD4ED
:104490002ED2EF10205009E93785600013059542B0
:1044A00093051059EF30D00C1255A255C8C1B25027
:1044B00045618280797106D62AD4EF10A04D09E9B2
:1044C00037856000130595429305E017EF30500AD9
:1044D00022550C5993E585000CD9B2504561828074
:1044E000011173E0107C379503000C41F9990CC160
:1044F00073F0107C05618280797106D62AD42ED2A1
:10450000EF10204709E937856000130565349305EE
:10451000E018EF30F00573E0107C225548419255C9
:10452000225641994D8D48C273F0107CB2504561BE
:104530008280797106D62AD42ED2EF10804309E901
:10454000378560001305653493057022EF30500203
:1045500073E0107C22550841925522566D994D8D7D
:1045600008C273F0107CB25045618280797106D622
:104570002AD42ED2EF10E03F09E9378560001305F9
:1045800065349305A041EF30A07E73E0107C225586
:1045900048519255225601994D8D48D273F0107CA6
:1045A000B25045618280797106D62AD4EF10603C02
:1045B00009E937856000130565349305A026EF30BF
:1045C000207B73E0107C22550C4193E505080CC15B
:1045D00073F0107CB25045618280397106DE2ADCAE
:1045E0002EDA32D8EF10E03809E93785600013057C
:1045F00065349305006FEF30A0775255E2551316DE
:104600001500719AB295F1052ED605890E052AD4AA
:1046100073E0107C32550841A2553D463316B60072
:10462000C2561346F6FF3257718DB395B6004D8DC5
:1046300008C373F0107CF25021618280397106DE6C
:104640002ADC2EDA32D836D63AD4EF10803209E995
:1046500037856000130565349305501CEF304071B9
:10466000225511C5225593051020636AB500378580
:104670006000130565349305601CEF30606F525580
:10468000E2550A052E95130505042AD273E0107C25
:104690003255C2553E052256D20592564D8D930590
:1046A000F6FF4D8D88C273F0107CF250216182803C
:1046B000797106D62AD415452ED263EAA50037852E
:1046C00060001305054D9305101BEF30606A73E021
:1046D000107C379503004C4522569D461257B396E1
:1046E000C60093C6F6FFF58D3316C700D18D4CC5B5
:1046F00073F0107CB25045618280797106D62AD45D
:1047000015452ED263EAA500378560001305054DD7
:104710009305501DEF30C06573E0107C37950300A2
:104720000C4922569D461257B396C60093C6F6FF13
:10473000F58D3316C700D18D0CC973F0107CB250C3
:1047400045618280797106D62AD4EF10802609E966
:10475000378560001305D5379305000EEF304061B3
:1047600073E0107C22550C412166D18D0CC122557D
:104770004C4193E585004CC173F0107CB25045610B
:104780008280797106D62AD42ED2EF10802209E9D0
:10479000378560001305D5379305C012EF30405DB3
:1047A00073E0107C22550841925522561375C5FBC3
:1047B0004D8D08C273F0107CB250456182807971D2
:1047C00006D62AD42ED2EF10C01E09E93785600024
:1047D0001305D5379305A015EF30805973E0107C91
:1047E00022550841F17512569385F5CFA2566D8D6D
:1047F000931586004D8D88C273F0107CB2504561D0
:104800008280797106D62AD42ED2EF10801A09E957
:10481000378560001305D53793059018EF30405564
:1048200073E0107C2255084192552256137535FCD1
:104830004D8D08C273F0107CB25045618280797151
:1048400006D62AD42ED2EF10C01609E937856000AB
:104850001305D5379305A01BEF30805173E0107C12
:1048600022550841F17512569385F53FA2566D8D7C
:10487000931586004D8D88C273F0107CB25045614F
:104880008280797106D62AD4EF10A01209E9378503
:1048900060001305D53793050027EF30604D73E0B6
:1048A000107C22552C452166D18D2CC573F0107CCF
:1048B000B25045618280797106D62AD4EF10600F1C
:1048C00009E9378560001305D53793051029EF30C6
:1048D000204A73E0107C22552C412166D18D2CC1D9
:1048E00073F0107CB25045618280797106D62AD46B
:1048F0002ED2EF10000C09E9378560001305D5377B
:104900009305803EEF30C04612559D45636AB50061
:10491000378560001305D5379305903EEF3040454D
:1049200073E0107C22554C41E1994CC122559255BF
:104930005041D18D4CC173F0107CB25045618280E2
:10494000797106D62AD42ED2EF10A00609E9378550
:1049500060001305D53793050021EF30604173E007
:10496000107C22550849925522561375E5F54D8D58
:1049700008CA73F0107CB25045618280797106D606
:104980002AD42ED2EF10E00209E937856000130522
:10499000D53793054023EF30A03D1255318109C929
:1049A000378560001305D53793055023EF30403C21
:1049B0001255A255C8C9B25045618280797106D698
:1049C0002AD42ED2EF00F07E09E937856000130566
:1049D000D53793052025EF30A0391255318109C90B
:1049E000378560001305D53793053025EF30403803
:1049F0001255A25588D9B25045618280797106D688
:104A00002AD4EF00107B09E9378560001305D537FC
:104A10009305502EEF30C03573E0107C22554C4585
:104A200093E525004CC573F0107CB250456182803F
:104A3000797106D62AD4EF00D07709E9378560006E
:104A40001305D53793053030EF30803273E0107C9A
:104A500022554C4593E505204CC573F0107CB250AF
:104A600045618280797106D62AD42AD20851EFE0B6
:104A70002F91B25045618280797106D62AD42ED208
:104A80002AD00851EFE08FD9B25045618280797108
:104A900006D62AD42ED22AD00851EFE08FB0B250D9
:104AA00045618280797106D62AD4EF00107409E935
:104AB00037856000130595499305C01BEF30402BE7
:104AC00022550C4193F5F5F70CC1B2504561828037
:104AD000797106D62AD4EF00507109E93785600054
:104AE0001305954993053042EF30802822550C413B
:104AF000BD990CC1B25045618280797106D62AD425
:104B00002ED2EF00906E09E93785600013059549B4
:104B100093058046EF30C025225548558355410204
:104B200022561375F5FC4D8D48D6B25045618280F2
:104B3000797106D62AD4EF00506B09E937856000F9
:104B4000130595499305B01EEF30802222550C5174
:104B50001966D18D0CD122554C510966D18D4CD19D
:104B6000B25045618280797106D62AD42313B102EE
:104B7000EF00B06709E93785600013059549930593
:104B80006048EF30E01E0355610293050010636A30
:104B9000B500378560001305954993057048EF30DF
:104BA000201D03556102A25588D5B250456182800F
:104BB000797106D62AD4EF00506309E93785600081
:104BC000130595499305501AEF30801A22550C4170
:104BD00093E505080CC1B25045618280397106DE4B
:104BE0002ADC2EDAEF00106809E93785600013052A
:104BF00015469305201CEF30A017625593551500FC
:104C0000C19937460300130606E0B29552562ED8D6
:104C100085453395A5002AD609C63255C255C8C167
:104C200021A03255C25588C5F25021618280797128
:104C30002AD62ED49565938505202E950841416688
:104C4000A25632574D16718D558DBA9588C1456162
:104C5000828079712AD69565938505202E95C16548
:104C6000FD156D8D0C4193E515000CC145618280E9
:104C700079712AD69375F5038A052ED489659385B3
:104C800005F06D8D21812AD273E0107C225592555A
:104C90003786030013064624329510418546B395A6
:104CA000B600D18D0CC173F0107C456182807971A2
:104CB0002AD69375F5038A052ED48965938505F068
:104CC0006D8D21812AD273E0107C22559255378652
:104CD000030013064624329510418546B395B6006D
:104CE00093C5F5FFF18D0CC173F0107C4561828096
:104CF000797106D62AD42ED2EF00105111E93785EA
:104D000060001305E53085659385D52CEF304006AE
:104D100003554102137515F811C937856000130555
:104D2000E53085659385E52CEF30800473E0107CD9
:104D3000225592550326C526D18D2326B52673F01C
:104D4000107CB25045618280797106D62AD42ED269
:104D5000EF00904B09E9378560001305E5309305B6
:104D6000307EEF30E000225508419255225671996D
:104D70004D8D08C2B25045618280797106D62AD421
:104D8000EF00904809E9378560001305E530930589
:104D9000407CEF20F07D22550C41ED990CC1B250C2
:104DA00045618280797106D62AD42ED2EF00D04593
:104DB00009E9378560001305E53093057078EF2029
:104DC000307B125511C522550C4193E5850021A079
:104DD00022550C41DD990CC1B25045618280797138
:104DE00006D62AD42ED2EF00304209E9378560007A
:104DF0001305E53093058071EF20907712559305E8
:104E00000008636AB500378560001305E530930537
:104E10009071EF20F0752255084D925522564D8D18
:104E200008CEB25045618280797106D62AD42ED23E
:104E300032D0EF00703D09E9378560001305E53099
:104E40009305D069EF20D07222550841F9751256AA
:104E50009385F50782566D8D9315A60022569E0602
:104E6000D58D4D8D08C2B25045618280797106D6CC
:104E70002AD42ED2EF00503909E937856000130596
:104E8000E5309305D066EF20B06E12558545631767
:104E9000B50022550C410966D18D31A022550C4137
:104EA00079767D16F18D0CC1B250456182807971A1
:104EB00006D62AD42ED2EF00303511E937856000AE
:104EC0001305E53085659385E590EF20706A2255DE
:104ED00003250518C1651256FD15A2566D8D931553
:104EE00006014D8D23A0A618B250456182807971CC
:104EF00006D62AD42ED2EF00303109E9378560007A
:104F00001305E5309305F064EF2090661255A25525
:104F100088C9B25045618280797106D62AD42ED2D2
:104F2000EF00902E11E9378560001305E5308565A7
:104F300093850593EF20D0631255A25523A6A5189B
:104F4000B25045618280397106DE2ADC2EDA32D811
:104F5000EF00902B11E9378560001305E53085657A
:104F60009385159BEF20D060525509C55255D14508
:104F70006317B50029452AD602D4114531A0314521
:104F80002AD609452AD419452AD25255E255118903
:104F90002E95930505022ED00851B25522568D4606
:104FA0003397B6009257B396C600D98E054733178C
:104FB000F700C257D98E93C6F6FF758D93D627009A
:104FC000B395B60093F6370002573396C600D18DDD
:104FD0004D8D08C3F25021618280397106DE2ADCD2
:104FE0002EDA32D836D6EF00302211E9378560004C
:104FF0001305E5308565938525B8EF207057525528
:10500000B2551306051032D41305451085892AD2EE
:1050100085C1625592552E950841B255FD150D4634
:105020003316B6001346F6FFC2566257925731A8A0
:105030006255A2552E950841B2550D463316B6005D
:105040001346F6FFC2566257A257718DB395B6004C
:105050004D8DB305F70088C1F2502161828039710E
:1050600006DE2ADC2EDAA309C102EF00F01911E9ED
:10507000378560001305E5308565938575D6EF208B
:10508000304F52558345310305463315A6008589B7
:105090002AD699C562550859B25562564D8D01A858
:1050A00062550859B255625693C5F5FF6D8D08DA01
:1050B000F25021618280797106D62AD42ED2EF0077
:1050C000B01411E9378560001305E53085659385D7
:1050D000D5DBEF20F049125511CD12558545630BF4
:1050E000B500378560001305E53085659385F5DBF0
:1050F000EF20104822550859925522563D999205A5
:105100004D8D08DAB25045618280397106DE2ADCA5
:105110002EDA32D8EF00500F11E937856000130501
:10512000E53085659385A5D9EF2090445255E25529
:105130001345150009052AD68859B2550546331678
:10514000B600C2561346F6FF6257718DB395B6008E
:105150004D8D08DBF25021618280797106D62AD408
:105160002ED2EF00700A11E9378560001305E53093
:105170008565938545EFEF20B03F1255398111C900
:10518000378560001305E5308565938555EFEF2081
:10519000303E1255A25523A2A514B250456182801B
:1051A000797106D62AD42ED2EF00100611E9378580
:1051B00060001305E5308565938505F1EF20503BD0
:1051C0001255398111C9378560001305E5308565B1
:1051D000938515F1EF20D0391255A25523A6A514B9
:1051E000B25045618280797106D62AD4EF00D00191
:1051F00011E9378560001305E5308565938565F411
:10520000EF20103722552C49F9992CC9B25045612D
:105210008280797106D62AD42ED2EF00E07E09E989
:10522000378560001305E5308565AD05EF20503406
:1052300073E0107C225592550326052093C5F5FF97
:10524000F18D2320B52073F0107CB250456182802F
:10525000797106D62AD42ED2EF00007B11E937856A
:1052600060001305E53085659385F532EF205030F9
:10527000125509C51255A5456367B5021255A945D2
:105280006303B5021255B145630FB5001255B94518
:10529000630BB500378560001305E53085659385A0
:1052A0002533EF20F02C1255A145630EB5001255A1
:1052B000B145630AB5001255A9456306B5001255FC
:1052C000B9456318B5021255A25505812AD003A528
:1052D00005291365050423A8A528225503250529BA
:1052E0008255225661994D8D2328A628B2504561DA
:1052F000828012559145630EB50012559945630A97
:10530000B500125595456306B50012559D45631AC3
:10531000B5001255A2552AD003A505291375F5FB32
:105320005DBF12552AD055BF797106D62AD4E92D12
:1053300011E9378560001305E53085659385C52E35
:10534000EF20102322558325052993E58500232886
:10535000B528B25045618280397106DE2ADC2EDA2A
:1053600032D85D2511E9378560001305E530856584
:105370009385854CEF20D01F4255A145630EB500A3
:105380004255B145630AB5004255A9456306B500CB
:105390004255B945631EB508425505812AD6525576
:1053A00021C5625503250529E5753256FD15E256DE
:1053B0006D8D9315C6004D8D23A8A62842559145A5
:1053C000630EB50042559945630AB50042559545AF
:1053D0006306B50042559D45631EB504625583259D
:1053E000052993F5F5FD81A0625503250529B255E0
:1053F00062561375F58FA2054D8D2328A6284255B8
:105400009145630EB50042559945630AB500425572
:1054100095456306B50042559D456313B504625535
:1054200083250529BD992328B528F2502161828062
:105430004255ADB74255A145630EB5004255B14541
:10544000630AB5004255A9456306B5004255B94502
:10545000E31DB5FC62558325052993E50502E1B7F7
:105460004255A145630EB5004255B145630AB500EA
:105470004255A9456306B5004255B945E317B5FA4B
:1054800062558325052993E5050171BF797106D61B
:105490002AD42ED2952B11E9378560001305E5300B
:1054A00085659385C546EF20B00C125511C5225570
:1054B00083250529216639A02255832505290566FE
:1054C00013060680D18D2328B528B250456182800D
:1054D000797106D62AD42ED2052B11E937856000C2
:1054E0001305E53085659385F536EF207008125574
:1054F000C145636BB500378560001305E5308565F0
:1055000093850537EF20D00622558325852993E51D
:105510000501232CB52822550325852B92552256AB
:1055200041994D8D232CA62AB25045618280797114
:1055300006D62AD42ED232D0C12911E9378560008F
:105540001305E530856593855554EF2070020255AB
:10555000C145636BB500378560001305E53085658F
:1055600093856554EF20D00022558325852993E546
:105570000502232CB528125505C122550325052CFB
:10558000FD7502569385F50FA2566D8D9315860015
:105590004D8D23A0A62C11A822550325052C82553C
:1055A000225641994D8D2320A62CB2504561828010
:1055B000797106D62AD4892911E937856000130547
:1055C000E53085659385753AEF20807A22558325ED
:1055D000852A93E515002324B52AB25045618280BF
:1055E000797106D62AD42ED2052111E937856000BB
:1055F0001305E530856593856559EF206077225561
:1056000092550326852A89058546B395B600D18D26
:105610002324B52AB25045618280397106DE2ADC26
:105620002EDA32D8D52611E9378560001305E5302A
:105630008565938545A2EF20A07352559305851A81
:105640002ED609C55255A1456313B5026255B25510
:105650002E950841C165FD154256E25632576D8DB3
:10566000931506014D8DB385E60088C131A06255C2
:10567000B25542562E9510C1F25021618280797147
:1056800006D62AD4292109E9378560001305653B30
:105690009305E056EF20C06D22550C551166D18D53
:1056A0000CD5B25045618280797106D62AD4C526C0
:1056B00009E9378560001305653B93059032EF20BB
:1056C000206B22554C5179767D16F18D4CD12255A7
:1056D0004C510966D18D4CD1B250456182807971AF
:1056E00006D62AD46D2609E9378560001305653B87
:1056F0009305F030EF20C06722550C5579767D1662
:10570000F18D0CD522550C550966D18D0CD5B250B2
:1057100045618280797106D62AD4952E09E93785AC
:1057200060001305653B93053034EF20606422551B
:105730004C5161767D16F18D4CD122554C5121662C
:10574000D18D4CD1B25045618280797106D62AD470
:105750003D2E09E9378560001305653B9305B0537D
:10576000EF20006122550C41BD990CC1B25045613A
:105770008280797106D62AD4192E09E9378560000E
:105780001305653B93056050EF20805E22554C4128
:1057900093F5F5FD4CC122554C4193E505024CC1F2
:1057A000B25045618280797106D62AD4CD2409E9A8
:1057B000378560001305653B9305A02DEF20405B06
:1057C00022554C5171767D16F18D4CD1B250456108
:1057D0008280797106D62AD45D2C09E9378560006C
:1057E0001305653B9305B01EEF20805822554C41B0
:1057F00093E535024CC1B25045618280797106D67D
:105800002AD42ED24D2409E9378560001305D53EF0
:1058100093057015EF20C0551255A255C8C5B2505A
:1058200045618280797106D62AD42ED2AD2C09E941
:10583000378560001305D53E9305B012EF20405325
:105840001255A255C8C1B25045618280797106D601
:105850002AD402D2892C09E9378560001305D53E88
:105860009305F010EF20C05022550845E175FD1555
:1058700022566D8D2AD21365050208C622550C45A5
:10588000BD990CC5B25045618280011173E0107C56
:105890000D650C4193E515000CC1010073F0107CFF
:1058A0000561828079712AD673E0107C325501C976
:1058B0000D654C412166D18D11050CC139A00D65D6
:1058C0004C4161767D16F18D4CC173F0107C4561C1
:1058D0008280797106D62AD42313B1022312C10221
:1058E0002AD04845EFF08F8902554845835541023B
:1058F000EFF0CF8C0255084983556102EFF00F8815
:105900000255084983554102EFF04F8B0255484933
:1059100083556102EFF08F86025548498355410255
:10592000EFF0CF89B2504561828039712ADE2AFCBE
:105930002EFA32F853F0A510D31510C02317B10278
:105940005370A610531610C02316C1022319B500B8
:105950000315C102F255239AA5000315E102831530
:10596000C10272562E9513051502231BA600216154
:1059700082807971AA852AD6096693060680054534
:105980006388D5003255930506C02D8D133515005B
:10599000456182807971AA852AD635660545638876
:1059A000C5003255930506142D8D1335150045613C
:1059B00082807971AA852AD63966930606800545C4
:1059C0006383D502B25513060688638EC50032562E
:1059D000B965938605906308D6003255938505987E
:1059E0002D8D13351500456182807971AA852AD6DF
:1059F000396605456388C5003255930506082D8D27
:105A000013351500456182807971AA852AD62966E9
:105A100005456387C504B255130606406382C50475
:105A20003256AD6593860580630CD6023256938557
:105A300005C06307B6023256AD656303B60232563F
:105A400093850540630EB6003256B1659386058096
:105A50006308D6003255938505C02D8D133515008A
:105A6000456182807971AA852AD61306C00305454F
:105A700063EAC50032559305000E6367B5003255E1
:105A80001335850F456182800145456182807971BA
:105A9000B745030093850540A98D93B515002AD617
:105AA0002E85456182807971AA852AD615660545BD
:105AB000638DC500B25541066389C50032559565B1
:105AC000938505022D8D133515004561828079710E
:105AD0002AD6B70510420CC1325505462312C5001F
:105AE00032552313C50032552314C50032552315F2
