:0200000400609A
:040000006F0000018C
:1000100081400141814101428142014381430144C8
:100020008144014581450146814601478147014898
:10003000814801498149014A814A014B814B014C68
:10004000814C014D814D014E814E014F814FF9622E
:1000500073A002308542FE0263C3020001A0970232
:1000600000009382020973905230731030005300E5
:1000700000F0D30000F0530100F0D30100F0530270
:1000800000F0D30200F0530300F0D30300F0530458
:1000900000F0D30400F0530500F0D30500F0530640
:1000A00000F0D30600F0530700F0D30700F0530828
:1000B00000F0D30800F0530900F0D30900F0530A10
:1000C00000F0D30A00F0530B00F0D30B00F0530CF8
:1000D00000F0D30C00F0530D00F0D30D00F0530EE0
:1000E00000F0D30E00F0530F00F0D30F00F0970292
:1000F000000093822204739052309701A1FF9381F4
:10010000617017021A001302D2F3137202FC7325F6
:1001100040F185456370B500131615013292171131
:10012000A0FF130121EE6111EF60A012EF50103912
:1001300002906D7106C20AC40EC612C816CA1ACC45
:100140001ECE22D026D22AD42ED632D836DA3ADCA7
:100150003EDEC2C0C6C2CAC4CEC6D2C8D6CADACC77
:10016000DECEE2D0E6D2EAD4EED6F2D8F6DAFADC87
:10017000FEDE73252034F32510340A86EF6040013B
:100180007310153489629382028073A0023092400A
:100190002241B2414242D2426243F243025492545B
:1001A0002255B2554256D2566257F25706489648E3
:1001B0002649B649464AD64A664BF64B065C965CDB
:1001C000265DB65D465ED65E665FF65F5161730082
:0201D0002030DD
:1001E00073750430828000007365043082807971F9
:1001F00006D62AD42AD2C165938505002328B518CE
:100200001255C1659385450B232AB5181255C9654A
:1002100093854515232EB518138541AC93054004ED
:10022000EF201062925523ACA5181255938581B02A
:100230002326B51CB250456182805D7186C6A2C47A
:10024000A6C2A2E02AD82AD6832505192ED4832552
:1002500045192ED203254519EF70105C3255032540
:100260004519EF50E05FB25503A5851983A54519DF
:10027000EF30605A2255B7D54C3D9385D5CC0CD57F
:100280002255B7D5A33B9385A5704CD52255B755BC
:10029000B83C9385C51E2CC12255B775133B938579
:1002A000C54B6CC12255B7C532BE9385358C2CC564
:1002B0002255B775133F9385C54B6CC52255B7D5ED
:1002C000CC3D9385D5CC2CC92255B7D54C3E9385D2
:1002D000D5CC2CCD22556CCD225537067A4330D162
:1002E00022553706A04070D12255B7367341938608
:1002F000363334D52255B706AF4374D5225530D99D
:100300002255373686351306D67B70D9225537B637
:10031000BA411306B6F830DD22563705704168DE63
:100320002256B7C6AD429386B6502320D608225631
:10033000B70654422322D6082256B7065242232437
:10034000D60822562326B6082256B7052041232870
:10035000B60822569306401F231AD6082256930643
:10036000800C231BD6082256231CD608225693063F
:10037000803E231DD60822561307007D231EE60863
:10038000225693078025231FF60822562310E60ADB
:10039000225615472311E60A22562314D60A22565E
:1003A0002315D60A22568D462316D60A225685666E
:1003B000938606C02317D60A2256930600402318B8
:1003C000D60A3256231A06201256072086013256C4
:1003D000272E06241256072086013256272006268D
:1003E00012560720C6013256272C06243256A30285
:1003F000062C32562324062A3256B16693863603DB
:10040000231FD6203256B706A04154D6325608DAFA
:1004100032553706404050DD32553706204230C154
:1004200032556CC13255B785103F9385351C2CD1A0
:100430003255B795A2419385B51F6CD13255B7059A
:10044000C03F2CDD3255B70580406CDD325523208E
:10045000B5083255B705803F2322B5083255B73568
:10046000333F938535336CD93255B7D5E53E938507
:10047000A58F232AB51212550720051232552724BD
:1004800005123255B7B5A4399385E55B232CB50C1D
:1004900012550720051287A001EF32555370101036
:1004A000D31510C02316B52832552320052A12551E
:1004B0000345451D058909C9325585452326B52AB9
:1004C0003255A30BB52C39A032552326052A3255B7
:1004D000A30B052C32558544A304952C3255A30952
:1004E000052C3255230B052C32552307952C3255FC
:1004F000A307952C3255232A952A3255232C952A69
:100500003255A305952C12550720051207A441EF7B
:10051000325553708010D31510C02314B5281255CE
:10052000072005123255D31510C02313B5281255D4
:1005300007200512325553700000D31510C0231543
:10054000B52832559385C1B22320B51A325592553C
:100550000325051A83C5F500EF10A0403255938599
:1005600081B32322B51A325592550325451A83C506
:10057000E500EF10A0453255938541B42324B51A08
:1005800032559385C1B42326B51A3255938541B5AA
:100590002328B51A32559385C1B5232EB51A325585
:1005A000938501B82320B51C3255938541BA232C7D
:1005B000B51A3255938581BC232AB51A32559385D5
:1005C000C1BE2324B51C32550325851C81455D2AF7
:1005D00032551305452607A581EF87A5C1EF5306C0
:1005E0008420EF50A00D3255938581BF2322B51C86
:1005F00032550325451C530500F0612A3255032569
:10060000451C2ADE02DC2ADA232205001255B255E7
:100610000720C52003A5451C531500205122325543
:1006200092550325451C07A5C52051221255B255E8
:10063000072045138720051203A5451C5375101884
:10064000B52A325503258519EF40E01A32550325A6
:100650008519138481B0A285EF40801C03154400E6
:1006600083150401136505081375F5F92312A40019
:1006700013E5E5041375E5C78315440113650510FB
:100680002318A400325593E5052493F5F5A7231A02
:10069000B40003258519152A3255230C940003252F
:1006A0008519A285EF406016325503258519312A38
:1006B0003255230C940003258519A285EF40E014E0
:1006C000B25503A5C51983A54519EF70A057B255BA
:1006D00003A5C51983C5952CEF704079B25503A5C4
:1006E000C51983C5F52BEF70407DB25503A5C5191B
:1006F00083A5451907A501F0EF707005B25503A554
:10070000C51983A5451907A441F053058420EF704E
:10071000B005B25503A5C51983A545195305842015
:10072000EF7030061255085919EDB25503A5C519D9
:1007300083C5052CEF702075B25503A5C51983C577
:10074000152CEF70007132552302052C3255A30190
:10075000052C2255BD65938505A62312B50A2255A1
:100760009965938505DC2313B50A4255EF10E041E6
:100770003255032585199128066496442644B640CF
:100780006161828079712AD62ED42AD20CC5456146
:10079000828079712AD62AF42AD208E145618280C2
:1007A00079712AD62AF42AD208E5456182807971C6
:1007B0002AD62AF42AD248E54561828079712AD660
:1007C0002AF42AD208E945618280797106D62AD4B2
:1007D0002AD208419145EF00706612554841914573
:1007E000EF00D065125508459145EF003065125570
:1007F00023000504B25045618280197186DEA2DCB7
:10080000A6DACAD8CED6D2D4A2F2A6F02ADE2ADC44
:10081000832505192EDA452B625552560325851975
:100820008355E60A0356060BEF40D0630964930430
:1008300004801306E07E26858145C523130404C089
:100840001306007E22858145C92B85451306707DE0
:100850002285E1236255B7E5FD448D152320B5249B
:100860006255B725FC44938525852322B52462551E
:10087000B705FB44938595FC2324B5246255B785C1
:10088000FF3E9385959F2326B5246255B7B5FE3E5E
:10089000938555DC2328B5246255B735003F9385F1
:1008A00085DE232AB52462550345A52C0589630EF0
:1008B000053C37857F3F1305E5CF2AD86255B7053C
:1008C000033B9385851A2ED60720852587A081F0C6
:1008D00053F0001802F4130520039710A1FFE780DE
:1008E000A0182685814501460D2B228581450146AC
:1008F0002D238545228501460D23625507200524B9
:100900008720852553701010272005246255072065
:100910004524872085255370101027220524625511
:10092000072085248720852553701010272405244F
:100930006255232205266255232405266255232667
:10094000052662558325851913054526AECEAACC0A
:10095000AECA8841EF00D05B537015D007A4C1F335
:1009600087A401F482E8231701040944A1A0835558
:10097000E104564513962500E64632950841860562
:10098000B69503D6C5008145EF00105B8355E104A1
:10099000564513962500E646329508418605B695DC
:1009A00003D6C500A145EF0030590315E104050544
:1009B0002317A1040355E1046343A4060355E1048E
:1009C000E645131625002E9607200600531000203A
:1009D00082E45310802853009028C66082E253704E
:1009E000900082E053701010531600C006052E953B
:1009F0002316C5000355E104E64506052E9503556B
:100A0000C50083D56501E354B5F666458355E10419
:100A10000316650186052E952316C50089BF62550C
:100A2000032585190D292318010421659309F5CFA4
:100A30000965130405C007A481F013090594930404
:100A400005D4130A007D11A86255032585192121BB
:100A50000315010505052318A1040355010563CB02
:100A6000A91A22858145A1292285814549216DDD6B
:100A7000625513054522AACE85454A85EF003061AF
:100A8000F645537015D082EC87A0450353701010C3
:100A900027A2050085452685EF00705FF645537057
:100AA00015D082EC87A045035370101027A40500D1
:100AB000A1452685EF00B05DF645537015D082EC58
:100AC00087A045035370101027A6050091454A855D
:100AD000EF00F05BF645537015D082EC87A08503DC
:100AE0005370101027A8050095452685EF00305A51
:100AF000F645537015D082EC87A085035370101013
:100B000027AA05009D454A85EF007058F6455370A9
:100B100015D082EC87A085035370101027AC050018
:100B2000AD452685EF00B056F645537015D082ECE2
:100B300087A0C5035370101027A0050003550105B9
:100B4000E34445F162554270872005240721852240
:100B5000B27153701010D3703110537010002720F1
:100B6000052462554270872045240721C522B271B1
:100B700053701010D37031105370100027220524C9
:100B8000625542708720852407210523B271537076
:100B90001010D370311053701000272405246255B3
:100BA000072045225370041882EAC2700721C52429
:100BB000872145233272D3F02010537030105370C8
:100BC000401053F00000272605246255427087200C
:100BD0000525566187218523327253701010D3701A
:100BE0003110D3F0401053701000272805246255AF
:100BF00042708720452556618721C5233272537084
:100C00001010D3703110D3F0401053701000272A09
:100C100005243DBD625503258519453E62552305D2
:100C2000052C625507200524A27053701010272050
:100C30000524625507204524A27053701010272206
:100C40000524625507208524A270537010102724B4
:100C50000524625507200524531610C009641305A6
:100C6000048081455D2A625507204524531610C033
:100C7000130404C0228581454D2262550720852436
:100C8000531610C085452285492A62550720052440
:100C900087A0C1F03165D39500A07D1589E9E255A3
:100CA00007A0052487A001F1D31510A089C9E2553A
:100CB00003D6A521698E9166558E239DC520E255E8
:100CC00007A0452487A041F1D39500A089E9E2550A
:100CD00007A0452487A081F1D31510A089C9E2554A
:100CE00003D6A521698E9166558E239DC520E255B8
:100CF00007A0852487A0C1F1D39500A089E9E2551A
:100D000007A0852487A001F2D31510A089C9E25558
:100D100003D6A521718D1166518D239DA5206255A5
:100D20000720C52487A041F2A165539600A0138532
:100D3000F5FF09EA62560720C62487A081F2531600
:100D400010A001CA62568356A621E98ED58D231DB7
:100D5000B620E25507A0052587A0C1F2D39500A0D3
:100D600089E9E25507A0052587A001F3D31510A056
:100D700089C9E25503D6A521698EA166558E239DAA
:100D8000C520E25507A0452587A041F3D39500A0D3
:100D900089E9E25507A0452587A081F3D31510A066
:100DA00089C9E25503D6A521718D2166518D239DF8
:100DB000A52086741674265AB6594659D6546654D8
:100DC000F6500961828079712AD6032505192AD443
:100DD0000720C50702F287208507539500A009C5A3
:100DE00022550720850702F2225512708720050838
:100DF00053701010D31500C02311B10205661306FD
:100E00000680B2952317B50A03152102A2553305B2
:100E1000A6402398A50A45618280397106DE2ADC46
:100E20002EDA32D8EF00B00C09E9378560001305DF
:100E3000C50693058061EF6010465255E1453305C4
:100E4000B502E25542561305C50A2AD62E9510C1A1
:100E5000F25021618280797106D62AD42AD248457F
:100E6000EF00D01312554845EF007016125508498F
:100E7000EF00D01212550849EF007015125548497D
:100E8000EF00D01112554849EF0070141255084177
:100E90009305E007EF00D016125548419305E0078F
:100EA000EF001016125508459305E007EF005015A6
:100EB000125585452300B504B25045618280797191
:100EC00006D62AD42ED2EF00900209E937856000B9
:100ED0001305C50693057030EF60F03B1255A2551F
:100EE00005463315A60088C9B250456182807971E4
:100EF00006D62AD42ED2EF00807F09E9378560001C
:100F00001305C5069305702EEF60F038225548454D
:100F100092553355B5000589B250456182805D71A7
:100F200086C6A2E42ADA2AD8832505192ED6832577
:100F300045192ED48315A52103160522D18D231022
:100F4000B52242558315A5210316E521F18D231EF7
:100F5000B52042553256032585198355E60A0356B6
:100F6000060BEF40207042550345652C058929C9C1
:100F700042550355C52135C542550345752C058994
:100F800079C94255A303052C42558545232EB52822
:100F900032550315A50AC255239AA520425583153B
:100FA00065218505231BB52042550345552C058930
:100FB00071ED42552303052C4255231A0520F9A053
:100FC00042550345752C058979C55255EF10E062ED
:100FD00042550345352D058945C14255231A052043
:100FE0005DA842550345752C058955E542550355C5
:100FF000452155E142550345E52B058929C942554F
:101000002304052C42552306052C42552326052A88
:101010004255A30B052C4255230C052C22550720C5
:10102000C5064255272E05002255230A051C73705C
:1010300004300100C25503A5C51983A54519EF6009
:1010400070407360043001004255230F052A525549
:10105000EF10E05389A042550355452105E942555B
:10106000B2550355652183D5C50A635EB500425567
:101070008545230DB52C19A832550315850AC2558F
:10108000239AA52009A842552303052C4255032580
:101090008519EFF08FF32255085901E9C25503A5D0
:1010A000C51983C5152CEF60D05A42550345A52DAF
:1010B000058911CD425503258519112642558355C1
:1010C000A521BD89231DB5204255230D052C425570
:1010D0000345752C058931C9425503258519AAC2D6
:1010E000AAC003450504058919ED42550325C51914
:1010F000EF60B03A42550325C519EF60703B425589
:1011000003258519893B42550345852C05890DC169
:1011100042550720C501530400F0531504A0630C89
:1011200005104255B705803F11AA5255EF00100F28
:1011300042550325C519EF60705019C54255032566
:101140008519EFF08FE831A042550325C519EF60EE
:10115000D06942550325C519EF60D04819C54255DD
:1011600003258519EFF06FE6ADA842552300010471
:101170000325C519EF60B03A4255AAE20345852C14
:10118000058919C542550325C519530500F029A045
:1011900042550325C5191665EF6090662300A1042A
:1011A00003450104058915CD42550325C519EF6096
:1011B000F05E42550345852C058911ED4257032504
:1011C000C719832547190326871B8326C71B0327B7
:1011D000071CEF60105E22550345451D0589630419
:1011E000051642550325C519EF60F043C255238407
:1011F000A52C42550345852C058905C1425503455B
:10120000C52C058901C55255112401A842558545B3
:101210002306B52C5255EF0050175255EF10604180
:101220005255EF10204E056513050580512C26649C
:10123000B640616182804255B70580BF0CC1C2557E
:1012400003A5C51983C5952CEF605042C25503A56F
:10125000C51983C5F52BEF605046C25503A5451C43
:10126000C86DEFF00FD34255072045028720C50215
:1012700053200020539500A041C54255A255072098
:10128000050487A005120325451C53751018EFF0BF
:10129000EFD24255072045080325851BD3100020B7
:1012A000AAC286E002FE2ADC272E15007270625563
:1012B00027200502C25503A5851C83A5C52AEFF08A
:1012C0006FCC4255032585299545E363B5E6425524
:1012D0008315452885052312B52842558355452891
:1012E0000355A528E396A5E442552324050C425551
:1012F0009945232CB52842559145232EB5280DBD7F
:101300004255A2550720450487A005120325451C18
:1013100053751018EFF08FCA425507200502530588
:1013200004A04255072005080325851BD310002083
:10133000AAC286E002FE2ADC272E150072706255D2
:1013400027200502F5B342550325C519EF60502C3F
:1013500019ED42550325C519EF60F02CE30305E8AC
:1013600042550325C519EF605029E30C05E64255A7
:101370000325C519EF60302B05C942558545230467
:10138000B52C4255A303052C42552303052C2255A9
:10139000230AB51C42550325C519EF60500D42556F
:1013A0000325C519EF60100E22550859E31B05E20D
:1013B0004255A303052C42552303052C1DB5797115
:1013C00006D62AD42AD24845D12E125548450121A5
:1013D00012550849E12612550849D52E125548499B
:1013E000752E12554849E526125508419305E00728
:1013F0000129125548419305E00719211255084566
:101400009305E007F52EB2504561828039712AD6E6
:101410002AD4832505192ED20325C5298D45636F4E
:10142000B50822550345852C058949C92255925591
:101430000325C51B07A0050387A045032ADE02FC80
:1014400006FA2AD8272005005270425527220500A7
:10145000225592550325051C07A0850387A0C503C7
:101460002ADE02FC06FA2AD82720050052704255CF
:1014700027220500225592550325851B07A08502CA
:1014800087A0C5022ADE02FC06FA2AD8272005001A
:101490005270425527220500225592550325451BBF
:1014A00007A0050287A045022ADE02FC06FA2AD818
:1014B00027200500527042552722050021618280B5
:1014C00079712AD6956523A2A51045618280557150
:1014D0004AC04EC252C456C673290030F329103494
:1014E000732A007CF32A107C4AC84ECA52CC56CECE
:1014F00002499249224AB24A73F0107C86C796C5C7
:101500009AC39EC122DF26DD2ADB2ED932D736D5FB
:101510003AD33ED142CF46CD4ACB72C976C77AC5BF
:101520007EC302E186FE8AFC8EFA92F896F69AF461
:101530009EF2AAF0AEEEB2ECB6EABAE8BEE6C2E4BB
:10154000C6E2F2E076FE7AFC7EFA4965832545D84C
:1015500085052322B5D8A3090102114937450300A7
:10156000130405404965930485D80345310363425C
:10157000A9022285692883453103A6952380A50009
:10158000030531030505A309A10203453103E35215
:10159000A9FED27F627FF27E066E96682668B667E5
:1015A0004667D6666666F665067596732673B672E6
:1015B0004672D6716671F6700A609A4F2A4FBA4E1B
:1015C0004A4E5A49EA487A488A571A57AA563A560A
:1015D000CA555A55EA547A548E431E43AE42BE4011
:1015E0004AC04EC252C456C64249D249624AF24A21
:1015F00073901A7C73100A7C73901934731009303D
:10160000B24A224A924902496961730020307971D5
:1016100006D62AD45D2C09E9378560001305C50D6F
:101620009305304CEF6020472255652C75DD22551F
:10163000484D1375F50FB25045618280797106D619
:101640002AD42ED2B92011E937856000130545034D
:1016500085659385D52CEF600044035541021375D1
:1016600015F811C937856000130545038565938515
:10167000E52CEF60404273E0107C22559255032622
:10168000C526D18D2326B52673F0107CB250456156
:1016900082807971AA852AD6296605456387C504A3
:1016A000B255130606406382C5043256AD65938673
:1016B0000580630CD6023256938505C06307B602D7
:1016C0003256AD656303B602325693850540630E0C
:1016D000B6003256B165938605806308D600325550
:1016E000938505C02D8D1335150045618280797174
:1016F000AA852AD609669306068005456388D50023
:101700003255930506C02D8D133515004561828035
:10171000797106D62AD4B53F11E9378560001305E3
:101720004503856593859594EF60E0362255032542
:10173000C518B25045618280397106DE2ADC2EDA86
:1017400032D8813F11E9378560001305450385656F
:10175000938545A2EF60203452559305851A2ED605
:1017600009C55255A1456313B5026255B2552E9570
:101770000841C165FD154256E25632576D8D9315ED
:1017800006014D8DB385E60088C131A06255B25582
:1017900042562E9510C1F25021618280797106D691
:1017A0002AD4552809E9378560001305350A9305C1
:1017B000502EEF60402E73E0107C22554C4593E58F
:1017C00025004CC573F0107CB25045618280797160
:1017D00006D62AD4492009E9378560001305350A61
:1017E00093053030EF60202B73E0107C22554C4580
:1017F00093E505204CC573F0107CB25045618280A2
:10180000797106D62AD42ED2693511E93785600060
:101810001305450385659385B525EF60C0271255EF
:1018200093050008636BB500378560001305450319
:1018300085659385C525EF60002673E0107C2255F1
:1018400092550326C525D18D232EB52473F0107C27
:10185000B250456182807971AA852AD6396693068D
:10186000068005456383D502B25513060688638E4C
:10187000C5003256B965938605906308D600325587
:10188000938505982D8D13351500456182807971FA
:1018900006D62AD40966930606942ED2630FD50085
:1018A0002255930506D4630AB500378560001305F9
:1018B000C5069305A036EF60001E1255A2550A0515
:1018C0002E950841B250456182807971B745030079
:1018D00093850540A98D93B515002AD62E854561BF
:1018E0008280797106D62AD4CD3709E93785600020
:1018F0001305C50D93050036EF60E01922554849E0
:10190000137505041981B2504561828079712AD618
:101910002AD408614561828079712AD62AD408695F
:101920004561828079712AD62AD408654561828012
:1019300079712AD62AD448654561828079712AD680
:101940002AF42AD208E14561828079712AD62AD404
:1019500008614561828079712AD62AD4084545619B
:101960008280397106DE2ADC0D45231BB102639D9E
:10197000A50037B5AA3E1305B5AA2AD837D5133F17
:101980001305A5D32AD619A002D802D662554275EE
:10199000B27501286255834561030520F25021612B
:1019A000828079712AD62AF42EF22AD008E11270A8
:1019B0000255272205004561828079712AD6A30548
:1019C000B1022AD22304B50045618280397106DE56
:1019D0002ADC0D45231BB1026397A50037B5AA3E4B
:1019E0001305B5AA01A8035561038945631BB5001A
:1019F0003705803F2AD837D5133F1305A5D32AD6FC
:101A000019A002D802D662554275B275593F625587
:101A1000834561035D37F25021618280397106DEB2
:101A20002AD62AD40345352D058915C1225583258B
:101A3000451C072045022EDC02FA2ED827A20500FD
:101A40002255231205282255230A052C1DA02255B4
:101A50000325C519EF60A02122550325C519EF60A4
:101A6000602222550325451C2ADC02DA2AD82322CB
:101A7000050022550325451C530500F0C9202255B9
:101A800003258519E12022550325C51B2ADC02DA2E
:101A90002AD82328050022550325051C2ADC02DA52
:101AA0002AD82328050022550325851B2ADC02DAC3
:101AB0002AD82328050022550325C51B2ADC02DA73
:101AC0002AD82326050022550325051C2ADC02DA24
:101AD0002AD82326050022550325851B2ADC02DA95
:101AE0002AD82326050022552324050C2255232617
:101AF000050C2255232605062255232805062255C6
:101B000023260504225523120528225523120520D9
:101B10002255231305202255231505202255231471
:101B2000052022552317052022552316052022556E
:101B30000325851C81459920F250216182807971AD
:101B40002AD62AF42AD208E145618280797106D624
:101B50002AD42AD208419145EF00705E12554841BF
:101B60009145EF00D05D125508459145EF00305D7D
:101B7000125523000504B2504561828079712AD63E
:101B80002ED42AD20CC545618280757106C7AADCA5
:101B9000AADA03254519AAD80720450482F687202A
:101BA000850486F4072105048AF25370011882F037
:101BB0005370111882EE0720C50582EC8315A5002D
:101BC000072005124655D3F005D053F0001882EADD
:101BD000072045058720850546555370101082E87B
:101BE0008315C500072005124655D3F005D053F0E4
:101BF000001882E607200506465582E407204506C0
:101C000082E23670E660067187A141F95662537030
:101C1000101082E05370311053704010A67066614E
:101C200002FE76605662D3F0201006FC537030102E
:101C300053704010465502FA02D802D607204506D6
:101C400087A081F9530510A005C946550720C50492
:101C500087A0C1F90721C5205370101053702018B8
:101C600002F80720C50487A001FA07210513537065
:101C700010105370201005A0266096606661B66152
:101C8000D3701010D370111806F8D3703110537040
:101C9000001053F0001802F656550325C51B2AC53F
:101CA000B7658F3D938595C22EC337C6753C130625
:101CB000F62832C1AADE0CC10A607655272205003B
:101CC00056550325C51B2AC502C32AC12326050074
:101CD00056550325C51B2AC502C32AC12328050062
:101CE00056550325C51B2AC502C32AC1232A050050
:101CF00056550325C51B2AC502C32AC1232C05003E
:101D0000565546600325C51BD31000202AC506E39F
:101D100002E1AADE272E15000A607655272005026B
:101D200056550325051C2AC52EC332C1AADE0CC197
:101D30000A6076552722050056550325051C2AC53D
:101D400002C32AC12326050056550325051C2AC5B2
:101D500002C32AC12328050056550325051C2AC5A0
:101D600002C32AC1232A050056550325051C2AC58E
:101D700002C32AC1232C050056550325051C2AC57C
:101D800002C302C1AADE232E05000A607655272071
:101D9000050256550325851B2AC5B7A5993E93858F
:101DA000A5992EC337D6233C1306A67032C1AADEEE
:101DB0000CC10A6076552722050056550325851B60
:101DC0002AC502C32AC12326050056550325851BB3
:101DD0002AC502C32AC12328050056550325851BA1
:101DE0002AC502C32AC1232A050056550325851B8F
:101DF0002AC502C32AC1232C05004655D655072003
:101E0000C50403A5851BD31000202AC506E302E103
:101E1000AADE272E15000A607655272005025655A2
:101E20000325451B2AC5B70590402EC302C1AADE73
:101E30000CC10A6076552722050056550325451B1F
:101E40002AC502C32AC12326050056550325451B72
:101E50002AC502C32AC12328050056550325451B60
:101E60002AC502C32AC1232A050056550325451B4E
:101E70002AC502C32AC1232C050056550325451B3C
:101E80002AC5B705C0C02EC33706C04032C1AADE7E
:101E90004CCD0A6076552720050266552120BA40B0
:101EA0004961828039712ADA2AD8832505192ED60C
:101EB0000325C51B2ADE2ADC0720050027A805020A
:101EC00042550325C51B2ADE2ADC07204500325572
:101ED000272A050242550325051C2ADE2ADC072095
:101EE00005003255272C050242550325051C2ADE24
:101EF0002ADC072045003255272E050242550325CE
:101F0000851B2ADE2ADC072005003255272405021E
:101F100042550325851B2ADE2ADC07204500325561
:101F20002726050242550325451B2ADE2ADC072009
:101F3000050032552720050242550325451B2ADEA0
:101F40002ADC0720450032552722050221618280C4
:101F500079712AD62AD4231301020945C165FD15DA
:101F6000035661026340C50403566102A256060689
:101F700036962318060003566102A25606063696C8
:101F8000231BB60003566102A25606063696231E90
:101F900006000316610205062313C10203566102FF
:101FA000E354C5FC225585452301B5024561828075
:101FB000797106D62AD42AD2832505192ED0034555
:101FC000252C058931C512550345452C058911C5B8
:101FD00012558545A301B52C25A812550355C52BCF
:101FE00001C912558315C52BFD15231EB52A0DA059
:101FF00012550325C519EF50104D630E052E0255DD
:102000000315450A9255239EA52A1255A301052CB6
:102010001255035545216358A000125583154521DB
:10202000FD15231AB520125582550720452287A099
:102030004508539500A00DC1125582550355052042
:1020400083D5450963DDA50212558315A52193E5C6
:102050001500231DB52015A81255825507204522CD
:1020600087A08508531510A00DC1125503550520F2
:1020700063010512125583150520FD1529A012557F
:102080008315052085052310B5201255825507209C
:10209000452287A0C508531510A00DC112558255C1
:1020A0000355252083D5450963DCA5021255831508
:1020B000A52193E52500231DB5200DA812558255B5
:1020C0000720452287A00509539500A005C1125598
:1020D0000355252071C5125583152520FD1529A00E
:1020E00012558315252085052311B520125503258A
:1020F000C5299145631CB526125582550720451800
:1021000087A00506539500A009CD125582550355A9
:10211000452083D5650963D0A502125523120520F9
:102120000DA0125503554520635DA000125583157F
:102130004520FD1529A0125583154520850523123C
:10214000B520125582550720850587A04506539571
:1021500000A015C5125582550720450387A0050725
:10216000531510A009CD125582550355652083D50E
:10217000850963DEA5021255231305203DA81255DB
:1021800003556520635BA002125583156520FD157C
:102190001DA012558355A521F999231DB520F5B52C
:1021A00012558355A521F599231DB52081B71255E8
:1021B0008315652085052313B52012558255072008
:1021C000450387A00507539500A039CD12558255C8
:1021D0000720051587A08505531510A01DE1125590
:1021E00082550720451587A08505531510A011E9D4
:1021F000125582550720851587A08505531510A017
:1022000005C5125582550355A52083D5C50963D749
:10221000A50212558315A52193E50508231DB520B8
:102220001255231505200DA012550355A520635DF9
:10223000A00012558315A520FD1529A01255831560
:10224000A52085052315B520125582550720850543
:1022500087A08506539500A0630A05101255825584
:102260000720051887A0C505539500A009CD125574
:1022700082550355852083D5A50963D0A502125543
:10228000231405200DA0125503558520635DA00081
:10229000125583158520FD1529A01255831585201B
:1022A00085052314B520125582550720850587A082
:1022B0004506531510A015C5125582550720450334
:1022C00087A00507531510A009CD12558255035557
:1022D000E52083D5050A63D7A502125523170520EB
:1022E00005A812550355E5206354A0021255831525
:1022F000E520FD1521A802550315650A9255239E78
:10230000A52AF9B112558315E52085052317B520B7
:10231000125582550720450387A0C506539500A096
:1023200015C5125582550355C52083D5E50963D9D6
:10233000A50212558315A521056613060680D18DC9
:10234000231DB5201255231605200DA01255035547
:10235000C520635DA00012558315C520FD1529A079
:1023600012558315C52085052316B520B250456149
:102370008280397106DE2ADC2ADA0345B52D05890B
:102380006309051A5255A30D052C52550720451413
:102390008720C51253701010537500585325A5A0FF
:1023A0006309051A52552728A5145255072085148C
:1023B0008720C51253701010537500585325A5A0DF
:1023C000630E05185255272AA51452550720C51427
:1023D0008720C51253701010537500585325A5A0BF
:1023E000630305185255272CA5145255072085164E
:1023F0008720051353701010537500585325A5A05E
:10240000630805165255272AA51652550720C516EA
:102410008720051353701010537500585325A5A03D
:10242000630D05145255272CA51652550720051784
:102430008720051353701010537500585325A5A01D
:10244000630205145255272EA5165255072005156F
:1024500087204515539500A052550720051502F811
:102460000720451502F6525507208515C270539571
:1024700000A009C552550720851511A0427052557C
:1024800002F807208515B270531510A009C55255E2
:102490000720851511A03270525502F607208512CB
:1024A000872045035370101802F487208512539536
:1024B00000A009C552550720851211A0227052555F
:1024C00002F4D31510C0231EB51E52558355C51FE7
:1024D00007A041FAD3F015D0537010182726051223
:1024E00052550720C512272805124270B270525566
:1024F00053711008537010005370011827200518ED
:1025000052550720051587204517072145158721B6
:102510008517072285158722C51753701010D370B1
:10252000311053701000D3705210537010002722D6
:10253000051852550720C508872045030721451374
:10254000537010105370201027240518F250216189
:10255000828053050020EF50902DA9B5530500202F
:10256000EF50F02C85B553050020EF50502C9DBD49
:1025700053050020EF50B02B71B553050020EF50EC
:10258000102B4DB553050020EF50702A65BD7971B1
:1025900006D62AD42AD28325C529114563E6A5008B
:1025A000925523AEA52829A012558D45232EB52876
:1025B00012550345352D058901C51255894519A0C8
:1025C00012558D45232CB52812552320050212558E
:1025D0000325851C8145EFF06FDA12558545A3036D
:1025E000B52C125523120528125583158521850512
:1025F000231CB520B25045618280797106D62AD459
:102600002AD2232005021255A303052C1255232C90
:10261000052812559145232EB52812550325851CF2
:102620008145EFF0AFD51255231B0520B25045610F
:102630008280397106DE22DC22FA2AD82AD6832546
:1026400005192ED40345752C058945C93255032536
:10265000C519EF506076B945631CB5043255034582
:10266000352C058931C532550325C5198545EF50EF
:1026700030033255A2550325C519A869EF50300A19
:1026800022550720C501872045005370100802F22B
:102690008720450007A181FA53200020D3F02010A5
:1026A000531510A039C932550325C5198545A1A078
:1026B00032550325C519530400F053058420EF500B
:1026C000100632550325C51953058420EF50B00379
:1026D00032550324C5192285EF50406B2285EF50F7
:1026E000100132550325C5198145EF50607B3255E5
:1026F0000325C5198145EF50E07D52746254F250B4
:1027000021618280797106D62AD42AD283250519BF
:102710002ED00325C519EF50206A925523AAA52A69
:1027200012550325C519EF50806A925523ACA52A8E
:1027300012550325C519EF500064025508E11255E2
:102740000325C519EF508064025548E11255032551
:10275000C519EF50205E025508E512550325C5192D
:10276000EF50A05E025548E512550325C519EF50FC
:10277000E056025548E912550325C519EF50005699
:1027800007A0C1FA025553700510272805001255FD
:102790000325C519EF504057025568E91255032526
:1027A000C519EF50E05B025508ED12550325C51918
:1027B000EF50804A12552726A50812550325C51942
:1027C000EF50205E025548ED12550720850B8720FB
:1027D000C50B53700010D3F01010537010005375D8
:1027E00000585325A5A005C9125528ED12550720FC
:1027F00085098720C50953700010D3F0101053705D
:102800001000537500585325A5A019C9125568ED3D
:10281000B2504561828053050020EF505001E9B766
:1028200053050020EF50B000D5B779712AD62AD4CD
:1028300007208522872085135370001053F0000075
:10284000272C051222550720C5228720C513537057
:10285000001053F00000272E0512225507200523F3
:10286000872005145370001053F000002720051432
:102870002255072045238720C5155370001053F0BB
:102880000000272E051422550720852387200516D2
:102890005370001053F00000272005162255072022
:1028A000C523872045165370001053F000002722DF
:1028B000051622558315E51F8505231FB51E2255D4
:1028C0008355E51F0355C51F6359B50622550720DB
:1028D00085132722051422550720C5132724051424
:1028E000225507200514272605142255232C0512EE
:1028F0002255232E05122255232005142255072088
:10290000C515272405162255072005162726051666
:10291000225507204516272805162255232E051473
:102920002255232005162255232205162255231F42
:10293000051E22558545A30DB52C45618280797110
:1029400006D62AD42ED2B92011E9378560001305A6
:10295000450385659385D52CEF50E013035541025F
:10296000137515F811C93785600013054503856592
:102970009385E52CEF50201273E0107C2255925580
:102980000326C526D18D2326B52673F0107CB250C0
:10299000456182807971AA852AD6296605456387B3
:1029A000C504B255130606406382C5043256AD65B0
:1029B00093860580630CD6023256938505C0630763
:1029C000B6023256AD656303B602325693850540B2
:1029D000630EB6003256B165938605806308D60053
:1029E0003255938505C02D8D1335150045618280C4
:1029F000797106D62AD42AD23920125521281255A7
:102A0000B2504561828079712AD62AD42306050006
:102A10004561828079712AD62AD4A30605004561D2
:102A20008280397106DE22DC26DA4AD82AD62AD4F8
:102A30002312010208458545054999282255084574
:102A40008545B9202313010241659304F5FF130462
:102A5000803E32558145692093750540014589C501
:102A6000035561021325853E11CD0315610205054D
:102A7000B37595002313A102E3CD85FC2255A3066F
:102A80002501C1BF4259D2546254F2502161828063
:102A9000397106DE2ADC2EDAE92609E9378560007D
:102AA000130535119305201CEF40F07E62559355B8
:102AB0001500C19937460300130606E0B295525639
:102AC0002ED885453395A5002AD609C63255C2555C
:102AD000C8C121A03255C25588C5F25021618280FB
:102AE0005D7186C6A2C4A6C2AAC02EDE2ADC231946
:102AF00001022317010202D405450544014685223F
:102B0000E255231BA10288418D2A625508414D22BE
:102B10006255084183556103F12241659304F5FF35
:102B2000225515E162550841CD2A2AD40315E10248
:102B30000505B37595002317A102E3C395FE625501
:102B400023068500F1BF41657D152317A10262555B
:102B50000841DD2A2318A102035501031375F57FEF
:102B600096442644B6406161828079712AD62ED47B
:102B70002AD20CC14561828079712AD62ED42AD2FC
:102B80004CC14561828079712AD62ED42AD20CC5D7
:102B900045618280397106DE22DC2ADA2ED8239E36
:102BA00005004255231005024255A3010502425576
:102BB000231D05004255231F050042552301050230
:102BC0004255A30C05004255230C0500525502D670
:102BD00081453937C2552315A1022390A5005255CE
:102BE0000564930504802ED6E53DC2552315A10248
:102BF0002391A500525522D68565DD35C255231592
:102C0000A1022392A50052550964930504802ED693
:102C1000C13DC2552315A1022394A500525522D6C9
:102C200089657D3DC2552315A1022396A500525505
:102C30000D64930504802ED66535C2552315A10277
:102C40002398A500525522D68D65593DC2552315AE
:102C5000A102239AA5006254F25021618280797109
:102C60002AD62ED44D8D9375F67F4D8DC165FD15F9
:102C70006D8D2313C10245618280797106D62AD4F5
:102C8000312409E9378560001305B5149305B02395
:102C9000EF40706022554C5179767D16F18D4CD104
:102CA00022554C510966D18D4CD1B250456182807C
:102CB000797106D62AD4D92A09E937856000130527
:102CC000B5149305B01EEF40105D22550C511966E6
:102CD000D18D0CD122554C510966D18D4CD1B250B9
:102CE00045618280797106D62AD42313B102792AEC
:102CF00009E9378560001305B5149305B038EF4036
:102D00009059225508451375050265FD035561026A
:102D1000A25588CDB25045618280797106D62AD4F9
:102D2000B52209E9378560001305B5149305D02B4A
:102D3000EF407056225548518965938505F06D8D99
:102D40002181B25045618280797106D62AD43D2A0C
:102D500009E9378560001305B5149305B031EF40DC
:102D6000905322554849C165FD156D8DB25045619E
:102D70008280397106DE2ADC2EDA2319C1022AD6B6
:102D80000145F13DB2552315A1028841FD3532556B
:102D90000841393F325508418355A102A137F2500D
:102DA00021618280397106DE22DC2ADA2ED803C541
:102DB0008501058941C1425585652ED6835545005B
:102DC000525513F6F57F2315C10285655D374255CF
:102DD0000964930504802ED6035685005255137658
:102DE000F67F2315C1027137425522D68355C5009F
:102DF000525513F6F57F2315C10289659D3F425553
:102E00000D64930504802ED60356050152551376A2
:102E1000F67F2315C102B13F425522D683554501A5
:102E2000525513F6F57F2315C1028D65993742552A
:102E3000230C0500425503452502058919CD42554D
:102E40008355A501AE052ED60356E501525523152F
:102E5000C10205374255230105026254F250216137
:102E600082807971AA852AD61306C003054563EAD4
:102E7000C50032559305000E6367B5003255133512
:102E8000850F456182800145456182807971AA85FF
:102E90002AD6396605456388C5003255930506086C
:102EA0002D8D1335150045618280797106D6EFD0DE
:102EB0002FB3218913351500B2504561828001116D
:102EC00073E0107C37950300832505E593E58506BF
:102ED0002328B5E473F0107C05618280797106D6F1
:102EE0002AD405451D280565130505803D203715A5
:102EF000D000130515C0EF30104837052200130528
:102F00003510EF3050470965130505C08145292864
:102F10000545AD20B2504561828079712AD695650C
:102F200023A2A51045618280397106DE2ADC2EDAE3
:102F3000EF20407D09E9378560001305C50693053C
:102F40000069EF4050355255E25513161500719A3D
:102F5000B295F1052ED805890E052AD673E0107CAE
:102F60004255B255104193060002B395B600D18D7B
:102F70000CC173F0107CF2502161828079712AD6E5
:102F8000B715100003A605C1518D23A8A5C0456142
:102F9000828079712AD645618280797106D62AD4D9
:102FA0002120B25045618280797106D6EFD0CFA33F
:102FB000218913351500B25045618280797106D69A
:102FC0002AD42AD22AD0E53D025589651386058088
:102FD00010C10255138605C050C1025513860594D1
:102FE00010C50255938505D44CC50255B74503005D
:102FF000938505404CCD025599654CD102558D65A0
:103000004CD902551386051810DD0255138605208C
:1030100050DD02551386052830C1025593850530D1
:103020006CC1025595650CC902551386050150C93E
:103030000255938505020CCD1255B2504561828030
:10304000397106DE22DC2AD8130530042ED66364DB
:10305000B50002DAB1A842552AD42AD2A9650CC11A
:103060001255938505404CC11255AD659385058079
:103070000CC512553964930504804CC512551306CE
:10308000049010C912554CC91255B5650CCD125596
:1030900013054502EFF0DF95925588D1125540CDCA
:1030A0001255F5454CD91255ED450CDD22552ADA5D
:1030B00005452AD052556254F250216182807971BF
:1030C00006D62AD4DD3322551D202255A5212255AE
:1030D00007A501FBEF0040642255EF004068225530
:1030E000EF00406BEF00E071B250456182805D718E
:1030F00086C6A2C4A6C2CAC04EDE52DC56DA5AD870
:103100002AD637040C0013051400EF30700C8545E7
:103110000145EF30805001458145EF30C066130511
:103120001420EF30F00A05458545EF30004F054586
:103130008145EF30406513051440EF3070090945B3
:103140008545EF30804D09458145EF30C06313055B
:103150001460EF30F0070D458545EF30004C0D450C
:103160008145EF30406237140C0013051480EF30B6
:10317000300611458545EF30404A11458145EF3015
:10318000806037290C001305D9E0EF3070043D450D
:103190008545EF3080483D458145EF30C05E1305E1
:1031A00074A0EF30F00215458545EF300047154516
:1031B0008145EF30405D37150C00EF30700121453F
:1031C0008545EF10C07A21458545EF300045214502
:1031D0008545EF30405B13057420EF30607F254557
:1031E0008545EF30804325458545EF30C0591305AF
:1031F0007440EF30E07D29458145EF30004229459C
:103200008545EF3040581305D460EF30607C2D4584
:103210008545EF3080402D458545EF30C056B719C4
:10322000100013850960EF30A07A6D458145EF10DD
:1032300000746D458545EF30403E6D458145EF306A
:103240008054372A100013050AA0EF3060787545C6
:103250008545EF10C07175458545EF30003C7545DB
:103260008145EF304052B71A8C0013850A40EF3089
:1032700020761305A0028145EF30203A1305A00205
:103280008145EF304050370B8C0013050B40EF3079
:103290002074130520028145EF30203813052002E9
:1032A0008145EF30404E13051B60EF30607213050F
:1032B00030028545EF30204D130530028D45EF304B
:1032C00020571305E0028145EF3020351305E00259
:1032D0008145EF30E0551305E002A145EF30C03CD9
:1032E00021459145EF10C06D2145EF10A06F3725A6
:1032F0008C0013055580EF30A06D1305C002814589
:10330000EF30A0311305C0028145EF30C04713856F
:103310009AA0EF30E06B130550028145EF30E02FAB
:10332000130550028145EF3000461385AA60EF3047
:10333000206A1305B0028145EF30202E1305B0023C
:103340008145EF304044B704100013850460EF302E
:1033500020684D458545EF1080614D458545EF302E
:10336000C02B4D458145EF30004213051980EF30E9
:10337000206631458545EF30402A31458145EF30A3
:103380008040130519A0EF30A06435458545EF3026
:10339000C02835458145EF30003F130514C0EF309C
:1033A000206319458545EF30402719458145EF30A9
:1033B000803D130514E0EF30A0611D458545EF30D9
:1033C000C0251D458145EF30003C13855400EF308A
:1033D000206041458545EF30402441458145EF302F
:1033E000803A13855420EF30A05E45458545EF3087
:1033F000C02245458145EF30003913053B20EF30B1
:10340000205D130510028545EF30202113051002C1
:103410008145EF30403737058C00EF30605B130596
:1034200000028545EF10A054130500028545EF30DA
:10343000C01E130500028545EF30E034138569C0D6
:10344000EF30005959458545EF30201D59458545D8
:10345000EF30603313053AE0EF3080577D4581450A
:10346000EF30A01B7D458545EF30E03113053AC0B4
:10347000EF30005679458545EF30201A794585456E
:10348000EF30603037151000EF30805461458545CE
:10349000EF10E04D61458545EF30201861458145CD
:1034A000EF30602E13850A20EF3080521305900212
:1034B0008145EF308016130590028145EF30A02C36
:1034C0001305A9C0EF30C05039458145EF30E014F5
:1034D00039458145EF30202B13852920EF30404FAF
:1034E00065458145EF30601365458145EF30A02982
:1034F00013852940EF30C04D69458145EF30E0111B
:1035000069458145EF30202813850440EF30404C59
:1035100049458145EF30601049458145EF30A0268F
:10352000425BD25A625AF259064996442644B64042
:1035300061618280397106DE22DC26DA2AD82AD639
:103540001305400697E0A0FFE7800052EF0070529D
:10355000896403A50480A1654D8D23A0A48073E038
:10356000107C3795030085454CC173F0107C37758E
:1035700018001305159F97E0A0FFE780E04E325535
:1035800008419145EF007050325548419145EF0098
:10359000D04F325508419145EF00D0523255484145
:1035A0009145EF00305232550841C145EF0030558A
:1035B00032554841C145EF00905432550841EF0063
:1035C000B05732554841EF0030571385047197E0EA
:1035D000A0FFE7806049138404C0354622858145F9
:1035E000EF00D0589384048089451546AD462147A5
:1035F0002685EF00D05D8D451546AD4621472685D1
:10360000EF00F05C85451546AD4621472685EF0065
:10361000105C89451546914621472285EF00305BB5
:103620008D451546914621472285EF00505A854524
:103630001546914621472285EF007059A145154650
:103640009D4621472285EF009058A54515469D4689
:1036500021472285EF00B057A94515469D462147D1
:103660002285EF00D0569545154699462147268577
:10367000EF00F05599451546994621472685EF00FC
:10368000105591451546994621472685EF0030543F
:1036900099451546954621472285EF0050539D4593
:1036A0001546954621472285EF00705295451546EF
:1036B000954621472285EF0090519D451546894644
:1036C00021472685EF00B050A14515468946214780
:1036D0002685EF00D04FA54515468946214726850A
:1036E000EF00F04EAD451546994621472285EF0083
:1036F000104EB1451546994621472285EF00304DC1
:10370000B5451546994621472285EF00504CD254C5
:103710006254F25021618280397106DE07A041FBBC
:103720002ADC2AFA2AD85370A018D31510C02ED636
:1037300008498145EF10B065425508498565938574
:103740000580EF20F04F42550849B255EF10B066A2
:1037500042550849EF10B068F250216182807971BA
:1037600006D62AD42AD2084D8145EF105062125550
:10377000084D856593850580EF20904C1255084DC6
:10378000FD55EF1050631255084DEF105065B250C3
:1037900045618280797106D62AD42AD2484D930594
:1037A000F00FEF3040571255484DEF10704612554C
:1037B000484DEF1090481255484DEF10704B125580
:1037C000484DEF10504E1255484DB77589099385F5
:1037D000058037160E009D46EF30E0431255484DE8
:1037E000EF10D04F1255484DEF10D0511255484DA3
:1037F000EF1090541255484DEF10D056B25045611D
:103800008280797106D6EF1070610545EF10B062C5
:10381000B25045618280797106D62AD42ED283C5F2
:10382000E50025209255225583C5F500052822552F
:103830003D2822556D2622551D2B22550125225546
:10384000EF004066B2504561828079712AD6231517
:10385000B1022AD2231EB5024561828079712AD62F
:103860002315B1022AD2231FB50245618280397126
:1038700006DE22DC26DA2AD82AD60965130505F4E5
:103880002314A10205452313A10205651305052094
:10389000EF10001B325508419145EF10801E325544
:1038A00048419145EF10E01D325508459145EF1014
:1038B000401D23150102894441651304F5FF03559A
:1038C000A10263CDA4200355A102B2550A052E958D
:1038D00008418945EF1060200355A102B2550A0541
:1038E0002E950841EF1080220355A102B2550A051A
:1038F0002E9508418545EF1000240355A102B255CD
:103900000A052E9508418545EF1080260355A10232
:10391000B2550A052E95084181450146EF10E02970
:103920000355A102B2550A052E9508418545EF10B1
:10393000002D0355A102B2550A052E95084189456F
:10394000EF20D0350355A102B2550A052E95084146
:103950008145EF10E02E0355A102B2550A052E95C0
:1039600008418145EF10C0310355A102B2550A0547
:103970002E9508418145EF1040330355A102B25501
:103980000A052E95084181450146EF10E0340355A4
:10399000A102B2550A052E950841A1450146EF1036
:1039A000A0330355A102B2550A052E950841D14511
:1039B0000146EF1060320355A102B2550A052E955B
:1039C0000841F1450146EF1020310355A102B255DF
:1039D0000A052E950841094691468145EF100039A8
:1039E0000355A102B2550A052E950841094689469C
:1039F0008145EF10A0370355A102B2550A052E9557
:103A00000841054699468145EF1040360355A1020D
:103A1000B2550A052E950841054681458146EF10AD
:103A2000E0340355A102B2550A052E95084185459B
:103A30000546EF10E03B0355A102B2550A052E954D
:103A4000084105468145EF10A03A0355A102B25541
:103A50000A052E9508418145EF10003F0355A1024C
:103A6000B2550A052E95084185450146EF100043E1
:103A70000355A102B2550A052E9508410546814518
:103A8000EF10C0410355A102B2550A052E95084119
:103A9000A145EF10A0450355A102B2550A052E9588
:103AA0000841A145EF10E0480355A102B2550A05AF
:103AB0002E950841EF10404C0355A102B2550A055E
:103AC0002E950841A285EF10E04D0315A1020505D2
:103AD0002315A1020355A102E3D7A4DE3255084104
:103AE0008545EF10005032550841EF10005D32550A
:103AF000084129468145EF10405F32550841814514
:103B0000EF10E07103556102C1456342B5023255C1
:103B10000841BD45EF10E074325508413D468145EE
:103B2000EF10007A3255084185453D46B9A003554E
:103B300061026355A0023255084183556102EF10BE
:103B4000407232550841035661028145EF104077BB
:103B50003255084103566102854505A0325508419A
:103B60008545EF1000703255084105468145EF103C
:103B700020753255084185450546EF106074325571
:103B80000841EF10007C325508418145EF10607EFE
:103B9000325508418545EF10C07D325508418355A7
:103BA0008102EF1080103255484183558102EF1099
:103BB000C00F3255084583558102EF10000F325572
:103BC0000841D1452946EF10607E056513050520A3
:103BD000EF003063D2546254F25021618280397117
:103BE00006DE22DC2ADA2AD80565130505E023174C
:103BF000A102130500202316A10285450145EF000F
:103C0000500485450145EF00700819459145EF00C6
:103C1000500319459145EF0070078D450145EF00B0
:103C200050028D450145EF0070062315010209443D
:103C30000355A1026349A4120355A102C2550A0506
:103C40002E954845EF0030090355A102C2550A05DB
:103C50002E9548458145EF00F00B0355A102C25552
:103C60000A052E9548458145EF00900E0355A102A7
:103C7000C2550A052E95484593058002EF00901124
:103C80000355A102C2550A052E9548459305A00289
:103C9000EF0010140355A102C2550A052E954845A0
:103CA0009305000213060002F946EF202060035539
:103CB000A102C2550A052E954845EF00B0150355DF
:103CC000A102C2550A052E95484593050002130628
:103CD0000002F946EF20C06B0355A102C2550A0548
:103CE0002E954845EF0050160355A102C2550A050E
:103CF0002E9548458545EF0070180355A102C25521
:103D00000A052E9548458145EF00B01C0355A102D8
:103D1000C2550A052E9548458355E102EF00301F34
:103D20000355A102C2550A052E9548458355C10287
:103D3000EF00F0210355A102C2550A052E95484512
:103D4000EF00F0240355A102C2550A052E954845FF
:103D5000EF0030270315A10205052315A102035525
:103D6000A102E35BA4EC6254F250216182805D7198
:103D700086C6A2C4A6C2AAC02ADE084D8545892AE5
:103D80007255084D85454122725502D802DA02DC8F
:103D9000084D02D402D202D00C10692A7255084D87
:103DA0008145D92A7255084D814501468146014712
:103DB000EF20C0797255084D856513840580A28572
:103DC000F5227255084D894505247255084D8964C0
:103DD000138684888145B9247255084D814559243C
:103DE0007255084D814565247255084DF124725570
:103DF000084DC52C7255084DD145092E7255084DF8
:103E000081453D2E7255084DB5267255084DA28547
:103E1000C1207255084D9385A48851267255084DCE
:103E20008545652E7255084D8145CD2E7255084D3C
:103E3000192996442644B64061618280797106D67C
:103E40002AD42AD2484DEF00101F1255484DB7759D
:103E500089099385058037761800130706A09946CF
:103E6000C1470146EF2010761255484DEF00701FF4
:103E70001255484DC145EF0070211255484DEF00D5
:103E800050241255484DC145EF0010271255484D9A
:103E9000A145EF3040031255484DEF00902AB25033
:103EA00045618280797106D62AD42AD210514C4DB0
:103EB0003285EFE09FCB12550851A145EFE0DFCBF3
:103EC00012550851F545EFE01FCCB2504561828094
:103ED000797106D62AD42313B102EF10D00409E970
:103EE00037856000130525189305B029EF30B03AE7
:103EF000225583556102505D93C5F5FFF18D4CDD70
:103F0000B25045618280797106D62AD42313B1025A
:103F1000EF10700109E93785600013052518930536
:103F2000902EEF30503703556102A255E8C1B250D0
:103F300045618280797106D622D42E842AD2EF1070
:103F4000807E09E937856000130525189305F06D1B
:103F5000EF30703412556855FD75504014406D8D2A
:103F60000C441206558E9256A205D18D4D8DE8D681
:103F70002254B25045618280797106D62AD42ED25D
:103F8000EF10607A09E9378560001305251893055D
:103F9000E068EF3050302255685183554102225677
:103FA00071994D8D68D2B25045618280797106D683
:103FB0002AD42313B102EF10007709E93785600096
:103FC000130525189305101CEF30F02C2255485589
:103FD000CD7503566102A2569385F51F6D8D518DE7
:103FE000C8D6B25045618280797106D62AD42ED2C5
:103FF000EF10607309E937856000130525189305F4
:10400000B070EF30502922550859D175035641023E
:10401000FD15A2566D8D9315E6004D8D88DAB250D0
:1040200045618280797106D62AD42ED232D0EF1023
:10403000806F09E937856000130525189305901EE8
:10404000EF30702522550859F57503564102A256E6
:10405000FD156D8D518D88DA0255A25588C5B25077
:1040600045618280797106D62AD42ED2EF10A06BDA
:1040700009E9378560001305251893057022EF3094
:1040800090211255A25588C1B25045618280797144
:1040900006D62AD42ED2EF10006909E937856000D0
:1040A0001305251893058047EF30F01E1255A255D1
:1040B00088D1B25045618280797106D62AD4EF103A
:1040C000806609E937856000130525189305304B94
:1040D000EF30701C22550C59F5990CD9B25045613E
:1040E0008280797106D62AD4EF10E06309E937851A
:1040F0006000130525189305104FEF30D019225595
:104100000C59F9990CD9B25045618280797106D663
:104110002AD42ED2EF10206109E9378560001305FB
:1041200025189305D05BEF3010172255085992558A
:1041300022561375B5F84D8D08DAB250456182806C
:10414000797106D62AD42ED2EF10E05D09E93785C1
:104150006000130525189305B066EF30D013225583
:10416000285583554102225661994D8D28D6B2506B
:1041700045618280797106D62AD4EF10C05A09E9C8
:1041800037856000130525189305406CEF30B0109B
:1041900022554C55F9994CD5B250456182807971C0
:1041A00006D62AD42313B102EF10E05709E9378568
:1041B0006000130525189305A054EF30D00D22554B
:1041C0000859FD7503566102A2569385F50F6D8D52
:1041D000518D88DAB25045618280797106D62AD431
:1041E000A303B102EF10205409E9378560001305DD
:1041F00025189305D056EF30100A03457102058942
:1042000011C522550C5993E5050829A022550C59D2
:1042100093F5F5F70CD9B25045618280797106D6D5
:104220002AD42ED2EF10205009E9378560001305FB
:10423000251893051059EF3010061255A255C8C124
:10424000B25045618280797106D62AD4EF10A04D14
:1042500009E937856000130525189305E017EF304D
:10426000900322550C5993E585000CD9B250456155
:104270008280011173E0107C379503000C41F9999D
:104280000CC173F0107C05618280797106D62AD446
:104290002ED2EF10204709E9378560001305C506C7
:1042A0009305E018EF30207F73E0107C22554841E1
:1042B0009255225641994D8D48C273F0107CB250F0
:1042C00045618280797106D62AD42ED2EF108043C0
:1042D00009E9378560001305C50693057022EF30A4
:1042E000807B73E0107C22550841925522566D99CF
:1042F0004D8D08C273F0107CB25045618280797197
:1043000006D62AD42ED2EF10E03F09E937856000A7
:104310001305C5069305A041EF30E07773E0107CEC
:10432000225548519255225601994D8D48D273F02D
:10433000107CB25045618280797106D62AD4EF1084
:10434000603C09E9378560001305C5069305A02682
:10435000EF30607473E0107C22550C4193E5050842
:104360000CC173F0107CB25045618280397106DE59
:104370002ADC2EDA32D8EF10E03809E93785600000
:104380001305C5069305006FEF30E0705255E255F6
:1043900013161500719AB295F1052ED605890E05F2
:1043A0002AD473E0107C32550841A2553D4633169D
:1043B000B600C2561346F6FF3257718DB395B6005C
:1043C0004D8D08C373F0107CF250216182803971E9
:1043D00006DE2ADC2EDA32D836D63AD4EF10803216
:1043E00009E9378560001305C5069305501CEF30B9
:1043F000806A225511C5225593051020636AB500C5
:10440000378560001305C5069305601CEF30A06872
:104410005255E2550A052E95130505042AD273E07C
:10442000107C3255C2553E052256D20592564D8D0E
:104430009305F6FF4D8D88C273F0107CF250216118
:104440008280797106D62AD415452ED263EAA5005A
:10445000378560001305A51B9305101BEF30A06383
:1044600073E0107C379503004C4522569D46125749
:10447000B396C60093C6F6FFF58D3316C700D18DEF
:104480004CC573F0107CB25045618280797106D6BC
:104490002AD415452ED263EAA5003785600013059E
:1044A000A51B9305501DEF30005F73E0107C37951E
:1044B00003000C4922569D461257B396C60093C678
:1044C000F6FFF58D3316C700D18D0CC973F0107C43
:1044D000B25045618280797106D62AD4EF108026C9
:1044E00009E9378560001305350A9305000EEF30A2
:1044F000805A73E0107C22550C412166D18D0CC18D
:1045000022554C4193E585004CC173F0107CB250AC
:1045100045618280797106D62AD42ED2EF1080228E
:1045200009E9378560001305350A9305C012EF309D
:10453000805673E0107C225508419255225613751F
:10454000C5FB4D8D08C273F0107CB250456182806E
:10455000797106D62AD42ED2EF10C01E09E937850C
:1045600060001305350A9305A015EF30C05273E0C3
:10457000107C22550841F17512569385F5CFA2564D
:104580006D8D931586004D8D88C273F0107CB250EE
:1045900045618280797106D62AD42ED2EF10801A16
:1045A00009E9378560001305350A93059018EF3047
:1045B000804E73E0107C22550841925522561375A7
:1045C00035FC4D8D08C273F0107CB250456182807D
:1045D000797106D62AD42ED2EF10C01609E9378594
:1045E00060001305350A9305A01BEF30C04A73E045
:1045F000107C22550841F17512569385F53FA2565D
:104600006D8D931586004D8D88C273F0107CB2506D
:1046100045618280797106D62AD4EF10A01209E98B
:10462000378560001305350A93050027EF30A04653
:1046300073E0107C22552C452166D18D2CC573F07A
:10464000107CB25045618280797106D62AD4EF1071
:10465000600F09E9378560001305350A93051029B5
:10466000EF30604373E0107C22552C412166D18DE0
:104670002CC173F0107CB25045618280797106D6EE
:104680002AD42ED2EF10000C09E9378560001305FB
:10469000350A9305803EEF30004012559D45636A10
:1046A000B500378560001305350A9305903EEF305D
:1046B000803E73E0107C22554C41E1994CC122555B
:1046C00092555041D18D4CC173F0107CB250456170
:1046D0008280797106D62AD42ED2EF10A00609E97D
:1046E000378560001305350A93050021EF30A03AA5
:1046F00073E0107C22550849925522561375E5F552
:104700004D8D08CA73F0107CB2504561828079717A
:1047100006D62AD42ED2EF10E00209E937856000D0
:104720001305350A93054023EF30E03612553181E9
:1047300009C9378560001305350A93055023EF300A
:1047400080351255A255C8C9B25045618280797131
:1047500006D62AD42ED2EF00F07E09E93785600014
:104760001305350A93052025EF30E03212553181CB
:1047700009C9378560001305350A93053025EF30E8
:1047800080311255A25588D9B25045618280797125
:1047900006D62AD4EF00107B09E93785600013059F
:1047A000350A9305502EEF30002F73E0107C225510
:1047B0004C4593E525004CC573F0107CB250456123
:1047C0008280797106D62AD4EF00D07709E937853F
:1047D00060001305350A93053030EF30C02B73E0CD
:1047E000107C22554C4593E505204CC573F0107C98
:1047F000B25045618280797106D62AD42AD20851F6
:10480000EFE02FA2B25045618280797106D62AD49A
:104810002ED22AD00851EFE0EFD8B2504561828005
:10482000797106D62AD42ED22AD00851EFE08FB65D
:10483000B25045618280797106D62AD4EF00107497
:1048400009E9378560001305B5149305C01BEF30E7
:10485000802422550C4193F5F5F70CC1B250456107
:104860008280797106D62AD4EF00507109E9378524
:1048700060001305B51493053042EF30C021225576
:104880000C41BD990CC1B25045618280797106D648
:104890002AD42ED2EF00906E09E937856000130507
:1048A000B51493058046EF30001F225548558355B7
:1048B000410222561375F5FC4D8D48D6B250456124
:1048C0008280797106D62AD4EF00506B09E93785CA
:1048D00060001305B5149305B01EEF30C01B2255C0
:1048E0000C511966D18D0CD122554C510966D18DD0
:1048F0004CD1B25045618280797106D62AD42313F7
:10490000B102EF00B06709E9378560001305B514FF
:1049100093056048EF30201803556102930500109D
:10492000636AB500378560001305B51493057048B8
:10493000EF30601603556102A25588D5B25045612B
:104940008280797106D62AD4EF00506309E9378551
:1049500060001305B5149305501AEF30C0132255AB
:104960000C4193E505080CC1B25045618280397154
:1049700006DE2ADC2EDAEF00106809E937856000D0
:10498000130535119305201CEF30E0106255935547
:104990001500C19937460300130606E0B29552563A
:1049A0002ED885453395A5002AD609C63255C2555D
:1049B000C8C121A03255C25588C5F25021618280FC
:1049C00079712AD62ED49565938505202E950841B8
:1049D0004166A25632574D16718D558DBA9588C1D4
:1049E0004561828079712AD69565938505202E953B
:1049F000C165FD156D8D0C4193E515000CC1456138
:104A0000828079712AD69375F5038A052ED489653B
:104A1000938505F06D8D21812AD273E0107C22559B
:104A20009255378603001306462432951041854679
:104A3000B395B600D18D0CC173F0107C45618280B6
:104A400079712AD69375F5038A052ED489659385E5
:104A500005F06D8D21812AD273E0107C225592558C
:104A60003786030013064624329510418546B395D8
:104A7000B60093C5F5FFF18D0CC173F0107C456154
:104A80008280797106D62AD42ED2EF00105111E916
:104A9000378560001305450385659385D52CEF2088
:104AA000907F03554102137515F811C937856000D1
:104AB0001305450385659385E52CEF20D07D73E0D4
:104AC000107C225592550326C526D18D2326B52666
:104AD00073F0107CB25045618280797106D62AD479
:104AE0002ED2EF00904B09E937856000130545038E
:104AF0009305307EEF20307A225508419255225698
:104B000071994D8D08C2B25045618280797106D687
:104B10002AD4EF00904809E9378560001305450362
:104B20009305407CEF20307722550C41ED990CC164
:104B3000B25045618280797106D62AD42ED2EF0018
:104B4000D04509E937856000130545039305707862
:104B5000EF207074125511C522550C4193E5850064
:104B600021A022550C41DD990CC1B25045618280D3
:104B7000797106D62AD42ED2EF00304209E9378562
:104B800060001305450393058071EF20D070125526
:104B900093050008636AB500378560001305450377
:104BA00093059071EF20306F2255084D9255225693
:104BB0004D8D08CEB25045618280797106D62AD4D7
:104BC0002ED232D0EF00703D09E937856000130521
:104BD00045039305D069EF20106C22550841F97503
:104BE00012569385F50782566D8D9315A6002256B1
:104BF0009E06D58D4D8D08C2B25045618280797177
:104C000006D62AD42ED2EF00503909E93785600044
:104C1000130545039305D066EF20F06712558545CF
:104C20006317B50022550C410966D18D31A022557C
:104C30000C4179767D16F18D0CC1B25045618280B0
:104C4000797106D62AD42ED2EF00303511E9378596
:104C500060001305450385659385E590EF20B063FB
:104C6000225503250518C1651256FD15A2566D8DF6
:104C7000931506014D8D23A0A618B2504561828080
:104C8000797106D62AD42ED2EF00303109E9378562
:104C90006000130545039305F064EF20D05F1255C3
:104CA000A25588C9B25045618280797106D62AD44E
:104CB0002ED2EF00902E11E93785600013054503D1
:104CC000856593850593EF20105D1255A25523A6A7
:104CD000A518B25045618280397106DE2ADC2EDAD1
:104CE00032D8EF00902B11E937856000130545039A
:104CF00085659385159BEF20105A525509C552556D
:104D0000D1456317B50029452AD602D4114531A0F3
:104D100031452AD609452AD419452AD25255E25599
:104D200011892E95930505022ED00851B2552256B1
:104D30008D463397B6009257B396C600D98E054775
:104D40003317F700C257D98E93C6F6FF758D93D6E9
:104D50002700B395B60093F6370002573396C60086
:104D6000D18D4D8D08C3F25021618280397106DEEC
:104D70002ADC2EDA32D836D6EF00302211E9378518
:104D80006000130545038565938525B8EF20B05075
:104D90005255B2551306051032D4130545108589B6
:104DA0002AD285C1625592552E950841B255FD15FE
:104DB0000D463316B6001346F6FFC2566257925799
:104DC00031A86255A2552E950841B2550D463316AD
:104DD000B6001346F6FFC2566257A257718DB395BF
:104DE000B6004D8DB305F70088C1F2502161828075
:104DF000397106DE2ADC2EDAA309C102EF00F019B0
:104E000011E937856000130545038565938575D6DF
:104E1000EF20704852558345310305463315A600EF
:104E200085892AD699C562550859B25562564D8D65
:104E300001A862550859B255625693C5F5FF6D8DAC
:104E400008DAF25021618280797106D62AD42ED2F6
:104E5000EF00B01411E9378560001305450385653F
:104E60009385D5DBEF203043125511CD1255854582
:104E7000630BB50037856000130545038565938591
:104E8000F5DBEF20504122550859925522563D99A5
:104E900092054D8D08DAB25045618280397106DE87
:104EA0002ADC2EDA32D8EF00500F11E93785600086
:104EB0001305450385659385A5D9EF20D03D52554F
:104EC000E2551345150009052AD68859B2550546FD
:104ED0003316B600C2561346F6FF6257718DB3956E
:104EE000B6004D8D08DBF25021618280797106D6C3
:104EF0002AD42ED2EF00700A11E93785600013051D
:104F000045038565938545EFEF20F03812553981CB
:104F100011C937856000130545038565938555EFF5
:104F2000EF2070371255A25523A2A514B250456147
:104F30008280797106D62AD42ED2EF00100611E9AC
:104F400037856000130545038565938505F1EF20DE
:104F500090341255398111C9378560001305450316
:104F60008565938515F1EF2010331255A25523A6C0
:104F7000A514B25045618280797106D62AD4EF001B
:104F8000D00111E9378560001305450385659385D8
:104F900065F4EF20503022552C49F9992CC9B250B4
:104FA00045618280797106D62AD42ED2EF00E07E48
:104FB00009E937856000130545038565AD05EF20D8
:104FC000902D73E0107C225592550326052093C541
:104FD000F5FFF18D2320B52073F0107CB2504561B0
:104FE0008280797106D62AD42ED2EF00007B11E997
:104FF000378560001305450385659385F532EF20FD
:105000009029125509C51255A5456367B502125579
:10501000A9456303B5021255B145630FB50012559A
:10502000B945630BB50037856000130545038565F9
:1050300093852533EF2030261255A145630EB50028
:105040001255B145630AB5001255A9456306B5006E
:105050001255B9456318B5021255A25505812AD0DB
:1050600003A505291365050423A8A52822550325B2
:1050700005298255225661994D8D2328A628B250C4
:105080004561828012559145630EB50012559945D0
:10509000630AB500125595456306B50012559D4546
:1050A000631AB5001255A2552AD003A50529137518
:1050B000F5FB5DBF12552AD055BF797106D62AD4AB
:1050C000E92D11E937856000130545038565938552
:1050D000C52EEF20501C22558325052993E5850018
:1050E0002328B528B25045618280397106DE2ADC5A
:1050F0002EDA32D85D2511E93785600013054503A6
:1051000085659385854CEF2010194255A145630EA6
:10511000B5004255B145630AB5004255A94563063D
:10512000B5004255B945631EB508425505812AD6DA
:10513000525521C5625503250529E5753256FD15E1
:10514000E2566D8D9315C6004D8D23A8A6284255B5
:105150009145630EB50042559945630AB500425525
:1051600095456306B50042559D45631EB5046255DD
:105170008325052993F5F5FD81A0625503250529B1
:10518000B25562561375F58FA2054D8D2328A628BA
:1051900042559145630EB50042559945630AB500E5
:1051A000425595456306B50042559D456313B504C8
:1051B000625583250529BD992328B528F250216120
:1051C00082804255ADB74255A145630EB5004255A8
:1051D000B145630AB5004255A9456306B50042557D
:1051E000B945E31DB5FC62558325052993E5050204
:1051F000E1B74255A145630EB5004255B145630A7A
:10520000B5004255A9456306B5004255B945E317B7
:10521000B5FA62558325052993E5050171BF7971BA
:1052200006D62AD42ED2952B11E9378560001305B6
:10523000450385659385C546EF20F005125511C5D8
:10524000225583250529216639A022558325052964
:10525000056613060680D18D2328B528B250456116
:105260008280797106D62AD42ED2052B11E9378592
:1052700060001305450385659385F536EF20B00181
:105280001255C145636BB5003785600013054503B2
:10529000856593850537EF201000225583258529E4
:1052A00093E50501232CB52822550325852B92551E
:1052B000225641994D8D232CA62AB25045618280F9
:1052C000797106D62AD42ED232D0C12911E9378578
:1052D000600013054503856593855554EF20A07B39
:1052E0000255C145636BB500378560001305450362
:1052F000856593856554EF20007A2255832585299D
:1053000093E50502232CB528125505C12255032526
:10531000052CFD7502569385F50FA2566D8D9315DC
:1053200086004D8D23A0A62C11A822550325052CFF
:105330008255225641994D8D2320A62CB2504561AD
:105340008280797106D62AD4892911E937856000CF
:105350001305450385659385753AEF20C073225583
:105360008325852A93E515002324B52AB25045618B
:105370008280797106D62AD42ED2052111E937858B
:10538000600013054503856593856559EF20A0707E
:10539000225592550326852A89058546B395B60080
:1053A000D18D2324B52AB25045618280397106DE41
:1053B0002ADC2EDA32D8D52611E9378560001305AC
:1053C00045038565938545A2EF20E06C5255930512
:1053D000851A2ED609C55255A1456313B5026255EB
:1053E000B2552E950841C165FD154256E256325719
:1053F0006D8D931506014D8DB385E60088C131A0F2
:105400006255B25542562E9510C1F25021618280EC
:10541000797106D62AD4292109E937856000130558
:10542000C50D9305E056EF20006722550C55116617
:10543000D18D0CD5B25045618280797106D62AD4BF
:10544000C52609E9378560001305C50D930590321F
:10545000EF20606422554C5179767D16F18D4CD148
:1054600022554C510966D18D4CD1B2504561828094
:10547000797106D62AD46D2609E9378560001305AF
:10548000C50D9305F030EF20006122550C5579765B
:105490007D16F18D0CD522550C550966D18D0CD594
:1054A000B25045618280797106D62AD4952E09E9D9
:1054B000378560001305C50D93053034EF20A05DDE
:1054C00022554C5161767D16F18D4CD122554C51AF
:1054D0002166D18D4CD1B25045618280797106D65A
:1054E0002AD43D2E09E9378560001305C50D9305C3
:1054F000B053EF20405A22550C41BD990CC1B25017
:1055000045618280797106D62AD4192E09E937853A
:1055100060001305C50D93056050EF20C05722555C
:105520004C4193F5F5FD4CC122554C4193E50502E4
:105530004CC1B25045618280797106D62AD4CD24FF
:1055400009E9378560001305C50D9305A02DEF20EF
:10555000805422554C5171767D16F18D4CD1B2504C
:1055600045618280797106D62AD45D2C09E9378598
:1055700060001305C50D9305B01EEF20C0512255E4
:105580004C4193E535024CC1B2504561828079713E
:1055900006D62AD42ED24D2409E93785600013059A
:1055A000452693057015EF20004F1255A255C8C52A
:1055B000B25045618280797106D62AD42ED2AD2CA4
:1055C00009E937856000130545269305B012EF20E1
:1055D000804C1255A255C8C1B25045618280797184
:1055E00006D62AD402D2892C09E937856000130532
:1055F00045269305F010EF20004A22550845E17535
:10560000FD1522566D8D2AD21365050208C6225556
:105610000C45BD990CC5B25045618280011173E003
:10562000107C0D650C4193E515000CC1010073F071
:10563000107C0561828079712AD673E0107C325526
:1056400001C90D654C412166D18D11050CC139A0F0
:105650000D654C4161767D16F18D4CC173F0107C67
:1056600045618280797106D62AD42313B1022312B0
:10567000C1022AD04845EFF08F890255484583552D
:105680004102EFF0CF8C0255084983556102EFF0DB
:105690000F880255084983554102EFF04F8B0255A0
:1056A000484983556102EFF08F860255484983557A
:1056B0004102EFF0CF89B2504561828039712ADE14
:1056C0002AFC2EFA32F853F0A510D31510C0231778
:1056D000B1025370A610531610C02316C10223192D
:1056E000B5000315C102F255239AA5000315E10286
:1056F0008315C10272562E9513051502231BA600B1
:10570000216182807971AA852AD60966930606806E
:1057100005456388D5003255930506C02D8D133598
:105720001500456182807971AA852AD635660545BE
:105730006388C5003255930506142D8D1335150069
:10574000456182807971AA852AD6396693060680DA
:1057500005456383D502B25513060688638EC500DE
:105760003256B965938605906308D6003255938505
:1057700005982D8D13351500456182807971AA85B4
:105780002AD6396605456388C50032559305060853
:105790002D8D13351500456182807971AA852AD631
:1057A000296605456387C504B25513060640638222
:1057B000C5043256AD6593860580630CD602325619
:1057C000938505C06307B6023256AD656303B60222
:1057D000325693850540630EB6003256B165938606
:1057E00005806308D6003255938505C02D8D13358D
:1057F0001500456182807971AA852AD61306C003F7
:10580000054563EAC50032559305000E6367B50090
:1058100032551335850F456182800145456182808F
:105820007971B745030093850540A98D93B515009F
:105830002AD62E85456182807971AA852AD6156679
:105840000545638DC500B25541066389C5003255D3
:105850009565938505022D8D133515004561828070
:1058600079712AD6B70510420CC13255054623126C
:10587000C50032552313C50032552314C5003255D7
:105880002315C5003255BD462316D50032558D4629
:105890002307D5003255A307D5003255B70620435C
:1058A00014C93255B706C84254C932553727663C29
:1058B000130747D218CD325537973C3C130797242E
:1058C00058CD325514D1325554D13255B7A68545ED
:1058D0009386A6CD14D53255B776133F9386C64B23
:1058E00054D5325510D932553946231AC50232558E
:1058F00005661306469C231BC502325537969D3B11
:105900001306B67010DD32552328C51E3255232EDE
:105910000502325537A6363D411630C1325537465D
:105920008A35130686E870C1325530C532553706C0
:10593000803F70C532552328050432553736733FF2
:105940001306363370C932552CCD32550345451DEB
:1059500005890DC53255B7151D45938535466CCD66
:105960003255B70520412CD132558355450307A048
:10597000C1FB8720850307A181FC25A03255B715FF
:105980009D44938535466CCD3255B705A0412CD149
:1059900032558355450307A0C1FB87A001FC07A131
:1059A00041FCD3F105D053F0011053701010537027
:1059B0002018272205063255B7B5513893857571E1
:1059C0002CD53255B705A0416CD532552328050694
:1059D0003255232A05063255B165938505352CDDF0
:1059E0003255232E05063255373603001306064579
:1059F0002320C50832560965130505712322A60820
:105A00003256B7160300938606D42324D60832569E
:105A10002326A6083256232806083256232A0608CB
:105A20003256232C06083256232E060832562320DF
:105A3000B60AB25523A2050AB25523A4050AB255E7
:105A400023A6050AB25523A8050AB25561661306B6
:105A5000066A23AAC50AB2551307007D23ACE50ADE
:105A6000B25523AED50AB25523A0050CB25523A2D8
:105A7000050CB25523A4050CB25523A6C50CB2558E
:105A8000B79604009386063E23AAD50CB25523ACE4
:105A9000D50CB25523AE050CB25523A0050EB25558
:105AA00023A2050EB25523A4A50EB25523A6C50EFA
:105AB000B25523A8D50EB25523AA050EB25523AC74
:105AC000050EB25523AE050EB25523A0A5103255D2
:105AD0009565938505E22322B51032552324C51020
:105AE0003255232605103255232805103255232A16
