:0200000400609A
:040000006F0000018C
:1000100081400141814101428142014381430144C8
:100020008144014581450146814601478147014898
:10003000814801498149014A814A014B814B014C68
:10004000814C014D814D014E814E014F814FF9622E
:1000500073A002308542FE0263C3020001A0970232
:1000600000009382020973905230731030005300E5
:1000700000F0D30000F0530100F0D30100F0530270
:1000800000F0D30200F0530300F0D30300F0530458
:1000900000F0D30400F0530500F0D30500F0530640
:1000A00000F0D30600F0530700F0D30700F0530828
:1000B00000F0D30800F0530900F0D30900F0530A10
:1000C00000F0D30A00F0530B00F0D30B00F0530CF8
:1000D00000F0D30C00F0530D00F0D30D00F0530EE0
:1000E00000F0D30E00F0530F00F0D30F00F0970292
:1000F000000093822204739052309701A1FF9381F4
:10010000617017021A001302D2F3137202FC7325F6
:1001100040F185456370B500131615013292171131
:10012000A0FF130121EE6111EF60C02AEF5030579C
:1001300002906D7106C20AC40EC612C816CA1ACC45
:100140001ECE22D026D22AD42ED632D836DA3ADCA7
:100150003EDEC2C0C6C2CAC4CEC6D2C8D6CADACC77
:10016000DECEE2D0E6D2EAD4EED6F2D8F6DAFADC87
:10017000FEDE73252034F32510340A86EF60601903
:100180007310153489629382028073A0023092400A
:100190002241B2414242D2426243F243025492545B
:1001A0002255B2554256D2566257F25706489648E3
:1001B0002649B649464AD64A664BF64B065C965CDB
:1001C000265DB65D465ED65E665FF65F5161730082
:0201D0002030DD
:1001E00073750430828000007365043082807971F9
:1001F00006D62AD42AD2C16593850500232EB518C8
:100200001255C1659385450B2320B51A1255C96552
:100210009385451D2324B51A138541AC93054004ED
:10022000EF304000925523A2A51A1255938581B054
:10023000232CB51CB250456182805D7186C6A2C474
:10024000A6C2A2E02AD82AD68325C5192ED4832592
:10025000051A2ED20325051AEF7030743255032586
:10026000051AEF50007EB25503A5451A83A5051A5D
:10027000EF30A0782255B7D54C3D9385D5CC0CD521
:100280002255B7D5A33B9385A5704CD52255B755BC
:10029000B83C9385C51E2CC12255B775133B938579
:1002A000C54B6CC12255B7C532BE9385358C2CC564
:1002B0002255B775133F9385C54B6CC52255B7D5ED
:1002C000CC3D9385D5CC2CC92255B7D54C3E9385D2
:1002D000D5CC2CCD22556CCD225537067A4330D162
:1002E00022553706A04070D12255B7367341938608
:1002F000363334D52255B706AF4374D5225530D99D
:100300002255373686351306D67B70D9225537B637
:10031000BA411306B6F830DD22563705704168DE63
:100320002256B7C6AD429386B6502320D608225631
:10033000B70654422322D6082256B7065242232437
:10034000D60822562326B608A2553706204123A8F0
:10035000C508A2551306401F239AC508A2551306C7
:10036000800C239BC508A255239CC508A2551306E3
:10037000803E239DC508A2559306007D239ED50887
:10038000A25513078025239FE508A2552390D50A7F
:10039000A25595462391D50AA2552394C50AA25584
:1003A0002395C50AA2550D462396C50AA255056692
:1003B000130606C02397C50AA255130600402398CA
:1003C000C50AB25523900522925507A08501B25562
:1003D00027A40526925507A08501B25527A6052614
:1003E000925507A0C501B25527A20526B255A3888C
:1003F000052CB25523AA052AB255316613063603D9
:100400002395C522B2553706A04190DDB255C8DD0F
:100410003255B70540402CC53255B705C8426CC5AA
:1004200032552CC93255B785103F9385351C6CD594
:100430003255B795A2419385B51F2CD93255B705D2
:10044000C03F2322B5083255B70580402324B508A4
:100450003255B70500402326B5083255B705803F11
:100460002328B5083255B735333F938535332320DC
:10047000B5083255B7D5E53E9385A58F2320B51431
:100480001255072005123255272A05123255B7B5E5
:10049000A4399385E55B2322B50E1255072005127A
:1004A00087A0C1EF325553701010D31510C0231C14
:1004B000B52832552326052A12550345451D0589C1
:1004C00009C932558545232CB52A3255A301B52ECD
:1004D00039A03255232C052A3255A301052E325559
:1004E0008544A30A952C3255A30F052C32552301C0
:1004F000052E3255230D952C3255A30D952C3255D2
:100500002320952C32552322952C3255A30B952C64
:1005100012550720051207A401F0325553708010C0
:10052000D31510C0231AB5281255072005123255CD
:10053000D31510C02319B5281255072005123255BE
:1005400053700000D31510C0231BB5283255938576
:10055000C1B22326B51A325592550325C51A83C553
:10056000F500EF10A0403255938581B32328B51ACA
:10057000325592550325051B83C5E500EF10A045B4
:100580003255938541B4232AB51A32559385C1B4A7
:10059000232CB51A3255938541B5232EB51A325501
:1005A0009385C1B52324B51C3255938501B8232604
:1005B000B51C3255938541BA2322B51C325593851B
:1005C00081BC2320B51C32559385C1BE232AB51C9E
:1005D00032550325451D81455D2A325513050527F2
:1005E00007A541F087A581F053068420EF50202B0A
:1005F0003255938581BF2328B51C32550325051D2F
:10060000530500F0612A32550325051D2ADE02DC60
:100610002ADA232205001255B2550720C52003A56A
:10062000051D531500205122325592550325051DF5
:1006300007A5C52051221255B25507204513872022
:10064000051203A5051D53751018B52A325503254B
:10065000451AEF40603832550325451A138481B09E
:10066000A285EF40003A0315440083150401136589
:1006700005081375F5F92312A40013E5E5041375B5
:10068000E5C783154401136505102318A4003255EE
:1006900093E5052493F5F5A7231AB4000325451A1D
:1006A000152A3255230C94000325451AA285EF40E4
:1006B000E03332550325451A312A3255230C940074
:1006C0000325451AA285EF406032B25503A5851A6D
:1006D00083A5051AEF70206FB25503A5851A83C54F
:1006E000552DEF70D010B25503A5851A83C5B52CD2
:1006F000EF70D014B25503A5851A83A5051A07A576
:10070000C1F0EF70F01CB25503A5851A83A5051A38
:1007100007A401F153058420EF70301DB25503A5E5
:10072000851A83A5051A53058420EF70B01D125554
:10073000085919EDB25503A5851A83C5C52CEF706C
:10074000B00CB25503A5851A83C5D52CEF7090085F
:1007500032552308052C3255A307052C2255BD65BB
:10076000938505A62312B50A22559965938505DC64
:100770002313B50A4255EF10E04132550325451ABF
:100780009128066496442644B6406161828079715E
:100790002AD62ED42AD20CC54561828079712AD6F8
:1007A0002AF42AD208E14561828079712AD62AF496
:1007B0002AD208E54561828079712AD62AF42AD2A4
:1007C00048E54561828079712AD62AF42AD208E95F
:1007D00045618280797106D62AD42AD20841914592
:1007E000EF007066125548419145EF00D0651255F3
:1007F00008459145EF003065125523000504B250BD
:1008000045618280197186DEA2DCA6DACAD8CED60E
:10081000D2D4A2F2A6F02ADE2ADC8325C5192EDA6C
:10082000452B625552560325451A8355E60A035651
:10083000060BEF5040010964930404801306E07E28
:1008400026858145C523130404C01306007E228536
:100850008145C92B85451306707D2285E1236255AC
:10086000B7E5FD448D152326B5246255B725FC4414
:10087000938525852328B5246255B705FB449385C8
:1008800095FC232AB5246255B785FF3E9385959F35
:10089000232CB5246255B7B5FE3E938555DC232E37
:1008A000B5246255B735003F938585DE2320B526F4
:1008B00062550345652D0589630E053C37857F3FED
:1008C0001305E5CF2AD86255B705033B9385851AF2
:1008D0002ED60720452687A041F153F0001802F4D8
:1008E000130520039710A1FFE780801F268581450F
:1008F00001460D2B2285814501462D238545228504
:1009000001460D2362550720C524872045265370D4
:100910001010272605246255072005258720452627
:10092000537010102728052462550720452587207D
:10093000452653701010272A0524625523280526C2
:100940006255232A05266255232C052662558325E8
:10095000451A13050527AECEAACCAECA8841EF00D2
:10096000D05B537015D007A481F487A4C1F482E84A
:10097000231701040944A1A08355E10456451396A9
:100980002500E646329508418605B69503D6C50092
:100990008145EF00105B8355E10456451396250011
:1009A000E646329508418605B69503D6C500A145B1
:1009B000EF0030590315E10405052317A104035581
:1009C000E1046343A4060355E104E645131625003C
:1009D0002E96072006005310002082E45310802832
:1009E00053009028C66082E25370900082E05370FA
:1009F0001010531600C006052E952316C50003558A
:100A0000E104E64506052E950355C50083D565012D
:100A1000E354B5F666458355E10403166501860582
:100A20002E952316C50089BF62550325451A0D2949
:100A30002318010421659309F5CF0965130405C046
:100A400007A441F113090594930405D4130A007D0A
:100A500011A862550325451A212103150105050535
:100A60002318A1040355010563CBA91A22858145EA
:100A7000A1292285814549216DDD62551305052394
:100A8000AACE85454A85EF003061F645537015D0F2
:100A900082EC87A045035370101027A205008545FE
:100AA0002685EF00705FF645537015D082EC87A065
:100AB00045035370101027A40500A1452685EF00BB
:100AC000B05DF645537015D082EC87A04503537096
:100AD000101027A6050091454A85EF00F05BF6450A
:100AE000537015D082EC87A085035370101027A88F
:100AF000050095452685EF00305AF645537015D010
:100B000082EC87A085035370101027AA05009D452D
:100B10004A85EF007058F645537015D082EC87A0D7
:100B200085035370101027AC0500AD452685EF00F6
:100B3000B056F645537015D082EC87A0C5035370AC
:100B4000101027A0050003550105E34445F1625547
:100B500042708720C52407214523B27153701010BD
:100B6000D37031105370100027260524625542704F
:100B70008720052507218523B27153701010D3708B
:100B800031105370100027280524625542708720C9
:100B900045250721C523B27153701010D370311051
:100BA00053701000272A052462550720052353702F
:100BB000041882EAC2700721852587210524327234
:100BC000D3F02010537030105370401053F00000D9
:100BD000272C0524625542708720C5255661872140
:100BE0004524327253701010D3703110D3F040107E
:100BF00053701000272E0524625542708720052669
:100C0000566187218524327253701010D3703110D1
:100C1000D3F0401053701000272005263DBD6255CB
:100C20000325451A453E6255230B052C62550720C6
:100C3000C524A27053701010272605246255072082
:100C40000525A2705370101027280524625507202F
:100C50004525A27053701010272A052462550720DD
:100C6000C524531610C009641305048081455D2A0C
:100C7000625507200525531610C0130404C02285B1
:100C800081454D22625507204525531610C08545E4
:100C90002285492A62550720C52487A081F1316544
:100CA000D39500A07D1589E9E25507A0C52487A04A
:100CB000C1F1D31510A089C9E25503D66522698E0A
:100CC0009166558E2393C522E25507A0052587A07E
:100CD00001F2D39500A089E9E25507A0052587A078
:100CE00041F2D31510A089C9E25503D66522698E59
:100CF0009166558E2393C522E25507A0452587A00E
:100D000081F2D39500A089E9E25507A0452587A087
:100D1000C1F2D31510A089C9E25503D66522718DA1
:100D20001166518D2393A52262550720852587A042
:100D300001F3A165539600A01385F5FF09EA6256F9
:100D40000720862587A041F3531610A001CA6256DA
:100D500083566622E98ED58D2313B622E25507A06D
:100D6000C52587A081F3D39500A089E9E25507A0A6
:100D7000C52587A0C1F3D31510A089C9E25503D6B4
:100D80006522698EA166558E2393C522E25507A080
:100D9000052687A001F4D39500A089E9E25507A0B4
:100DA000052687A041F4D31510A089C9E25503D6C2
:100DB0006522718D2166518D2393A5228674167448
:100DC000265AB6594659D6546654F650096182805F
:100DD00079712AD60325C5192AD40720C50702F23E
:100DE00087208507539500A009C522550720850750
:100DF00002F2225512708720050853701010D31587
:100E000000C02311B102056613060680B2952317B0
:100E1000B50A03152102A2553305A6402398A50A59
:100E200045618280397106DE2ADC2EDA32D8EF0085
:100E3000B00C09E9378560001305E51E9305806154
:100E4000EF60905D5255E1453305B502E2554256DB
:100E50001305C50A2AD62E9510C1F2502161828051
:100E6000797106D62AD42AD24845EF00D0131255FC
:100E70004845EF00701612550849EF00D012125580
:100E80000849EF00701512554849EF00D01112556E
:100E90004849EF007014125508419305E007EF0030
:100EA000D016125548419305E007EF001016125571
:100EB00008459305E007EF005015125585452300BE
:100EC000B504B25045618280797106D62AD42ED2FB
:100ED000EF00900209E9378560001305E51E9305D0
:100EE0007030EF6070531255A25505463315A600B9
:100EF00088C9B25045618280797106D62AD42ED233
:100F0000EF00807F09E9378560001305E51E930532
:100F1000702EEF6070502255484592553355B500FC
:100F20000589B250456182805D7186C6A2E42ADAE5
:100F30002AD88325C5192ED68325051A2ED48315C4
:100F400065220316C522D18D2316B522425583157D
:100F500065220316A522F18D2314B522425532567F
:100F60000325451A8355E60A0356060BEF40B00DDC
:100F700042550345252D058929C94255035585222A
:100F800035C542550345352D058979C94255A30913
:100F9000052C425585452324B52A32550315A50A4B
:100FA000C2552390A522425583152522850523117C
:100FB000B52242550345152D058971ED425523098A
:100FC000052C425523100522F9A042550345352D25
:100FD000058979C55255EF10A07E42550345F52D80
:100FE000058945C14255231005225DA84255034598
:100FF000352D058955E542550355052255E14255E4
:101000000345A52C058929C94255230A052C4255BB
:10101000230C052C4255232C052A4255A301052EED
:1010200042552302052E22550720C5064255272486
:1010300005022255230A051C737004300100C255B5
:1010400003A5851A83A5051AEF60F0577360043075
:10105000010042552305052C5255EF10A06F89A0C1
:1010600042550355052205E94255B255035525223F
:1010700083D5C50A635EB500425585452303B52E69
:1010800019A832550315850AC2552390A52209A82F
:1010900042552309052C42550325451AEFF08FF3DD
:1010A0002255085901E9C25503A5851A83C5D52CD7
:1010B000EF60507242550345652E058911CD4255AA
:1010C0000325451A1126425583556522BD892313F0
:1010D000B52242552303052E42550345352D05897A
:1010E00031C942550325451AAAC2AAC003450504C1
:1010F000058919ED42550325851AEF603052425596
:101100000325851AEF60F05242550325451A893BA5
:1011100042550345452D05890DC1425507208502DD
:10112000530400F0531504A0630C05104255B70595
:10113000803F11AA5255EF00100F42550325851A22
:10114000EF60F06719C542550325451AEFF08FE8A7
:1011500031A042550325851AEF7040014255032501
:10116000851AEF60506019C542550325451AEFF006
:101170006FE6ADA84255230001040325851AEF60F0
:1011800030524255AAE20345452D058919C54255FD
:101190000325851A530500F029A042550325851A19
:1011A0001665EF60107E2300A10403450104058944
:1011B00015CD42550325851AEF60707642550345DB
:1011C000452D058911ED42570325871A8325071AF6
:1011D0000326471C8326871C0327C71CEF609075D6
:1011E00022550345451D058963040516425503250F
:1011F000851AEF60705BC255238AA52C42550345C2
:10120000452D058905C142550345852D058901C533
:101210005255112401A842558545230CB52C525531
:10122000EF0050175255EF10205D5255EF10E06956
:10123000056513050580512C2664B64061618280E6
:101240004255B70580BF0CC1C25503A5851A83C599
:10125000552DEF60D059C25503A5851A83C5B52C0D
:10126000EF60D05DC25503A5051D8875EFF00FD363
:1012700042550720050387208503532000205395FE
:1012800000A041C54255A2550720C50487A00512FC
:101290000325051D53751018EFF0EFD242550720B6
:1012A00005090325451CD3100020AAC286E002FED2
:1012B0002ADC272E15007270625527200502C255C0
:1012C00003A5451D83A5852BEFF06FCC4255032563
:1012D000452A9545E363B5E64255831505298505FD
:1012E0002318B52842558355052903556529E396EA
:1012F000A5E44255232A050C425599452322B52AD7
:10130000425591452324B52A0DBD4255A2550720CB
:10131000050587A005120325051D53751018EFF06C
:101320008FCA42550720C502530504A04255072025
:10133000C5080325451CD3100020AAC286E002FE82
:101340002ADC272E15007270625527200502F5B39E
:1013500042550325851AEF60D04319ED4255032508
:10136000851AEF607044E30305E842550325851AAA
:10137000EF60D040E30C05E642550325851AEF6087
:10138000B04205C942558545230AB52C4255A309EB
:10139000052C42552309052C2255230AB51C42551C
:1013A0000325851AEF60D02442550325851AEF6086
:1013B000902522550859E31B05E24255A309052C47
:1013C00042552309052C1DB5797106D62AD42AD297
:1013D0004845D12E12554845012112550849E126AC
:1013E00012550849D52E12554849752E12554849AF
:1013F000E526125508419305E00701291255484199
:101400009305E0071921125508459305E007F52ECD
:10141000B2504561828039712AD62AD48325C519F4
:101420002ED20325852A8D45636FB50822550345C5
:10143000452D058949C9225592550325851C07A0CC
:10144000050387A045032ADE02FC06FA2AD82720D6
:10145000050052704255272205002255925503255A
:10146000C51C07A0850387A0C5032ADE02FC06FA77
:101470002AD8272005005270425527220500225500
:1014800092550325451C07A0850287A0C5022ADEC8
:1014900002FC06FA2AD8272005005270425527225E
:1014A0000500225592550325051C07A0050287A0BB
:1014B00045022ADE02FC06FA2AD8272005005270CF
:1014C0004255272205002161828079712AD69565CF
:1014D00023A2A5104561828055714AC04EC252C4F4
:1014E00056C673290030F3291034732A007CF32A7E
:1014F000107C4AC84ECA52CC56CE02499249224A62
:10150000B24A73F0107C86C796C59AC39EC122DF8B
:1015100026DD2ADB2ED932D736D53AD33ED142CF7B
:1015200046CD4ACB72C976C77AC57EC302E186FE34
:101530008AFC8EFA92F896F69AF49EF2AAF0AEEE33
:10154000B2ECB6EABAE8BEE6C2E4C6E2F2E076FE83
:101550007AFC7EFA4965832545E085052322B5E0BE
:10156000A3090102114937450300130405404965E9
:10157000930485E0034531036342A902228569286B
:1015800083453103A6952380A50003053103050596
:10159000A309A10203453103E352A9FED27F627F72
:1015A000F27E066E96682668B6674667D6666666F9
:1015B000F665067596732673B6724672D6716671B5
:1015C000F6700A609A4F2A4FBA4E4A4E5A49EA4874
:1015D0007A488A571A57AA563A56CA555A55EA545B
:1015E0007A548E431E43AE42BE404AC04EC252C4DD
:1015F00056C64249D249624AF24A73901A7C731025
:101600000A7C7390193473100930B24A224A924905
:101610000249696173002030797106D62AD45D2CA5
:1016200009E9378560001305E5259305304CEF6027
:10163000A05E2255652C75DD2255484D1375F50FBA
:10164000B25045618280797106D62AD42ED2B92053
:1016500011E9378560001305651B85659385D52CD9
:10166000EF60805B03554102137515F811C937858A
:1016700060001305651B85659385E52CEF60C059F7
:1016800073E0107C225592550326C526D18D232662
:10169000B52673F0107CB250456182807971AA85BD
:1016A0002AD6296605456387C504B2551306064048
:1016B0006382C5043256AD6593860580630CD602FD
:1016C0003256938505C06307B6023256AD65630393
:1016D000B602325693850540630EB6003256B165A8
:1016E000938605806308D6003255938505C02D8DFD
:1016F00013351500456182807971AA852AD609665D
:101700009306068005456388D5003255930506C0CB
:101710002D8D1335150045618280797106D62AD446
:10172000B53F11E9378560001305651B8565938515
:101730009594EF60604E22550325C518B25045615F
:101740008280397106DE2ADC2EDA32D8813F11E937
:10175000378560001305651B8565938545A2EF609D
:10176000A04B52559305851A2ED609C55255A14551
:101770006313B5026255B2552E950841C165FD153A
:101780004256E25632576D8D931506014D8DB38545
:10179000E60088C131A06255B25542562E9510C15F
:1017A000F25021618280797106D62AD4552809E940
:1017B00037856000130555229305502EEF60C04514
:1017C00073E0107C22554C4593E525004CC573F021
:1017D000107CB25045618280797106D62AD44920A6
:1017E00009E9378560001305552293053030EF6015
:1017F000A04273E0107C22554C4593E505204CC572
:1018000073F0107CB25045618280797106D62AD47B
:101810002ED2693511E9378560001305651B856592
:101820009385B525EF60403F125593050008636B23
:10183000B500378560001305651B85659385C52553
:10184000EF60803D73E0107C225592550326C5253C
:10185000D18D232EB52473F0107CB2504561828067
:101860007971AA852AD63966930606800545638371
:10187000D502B25513060688638EC5003256B96587
:10188000938605906308D6003255938505982D8D73
:101890001335150045618280797106D62AD4096610
:1018A000930606942ED2630FD5002255930506D4D5
:1018B000630AB500378560001305E51E9305A03661
:1018C000EF6080351255A2550A052E950841B25099
:1018D000456182807971B745030093850540A98DE4
:1018E00093B515002AD62E8545618280797106D67A
:1018F0002AD4CD3709E9378560001305E52593051E
:101900000036EF606031225548491375050419818E
:10191000B2504561828079712AD62AD40861456126
:10192000828079712AD62AD40869456182807971CA
:101930002AD62AD408654561828079712AD62AD4AC
:1019400048654561828079712AD62AF42AD208E155
:101950004561828079712AD62AD4086145618280E6
:1019600079712AD62AD4084545618280397106DE0C
:101970002ADC0D45231BB102639DA50037B5AA3EA5
:101980001305B5AA2AD837D5133F1305A5D32AD6F0
:1019900019A002D802D662554275B2750128625567
:1019A000834561030520F2502161828079712AD636
:1019B0002AF42EF22AD008E11270025527220500DF
:1019C0004561828079712AD6A305B1022AD2230407
:1019D000B50045618280397106DE2ADC0D45231B86
:1019E000B1026397A50037B5AA3E1305B5AA01A8B1
:1019F000035561038945631BB5003705803F2AD82D
:101A000037D5133F1305A5D32AD619A002D802D67D
:101A100062554275B275593F6255834561035D3722
:101A2000F25021618280397106DE2AD62AD403451C
:101A3000F52D058915C122558325051D07200503B0
:101A40002EDC02FA2ED827A20500225523180528DD
:101A500022552300052E1DA022550325851AEF606F
:101A6000203922550325851AEF60E03922550325D8
:101A7000051D2ADC02DA2AD8232205002255032577
:101A8000051D530500F0C92022550325451AE12004
:101A900022550325851C2ADC02DA2AD823280500D2
:101AA00022550325C51C2ADC02DA2AD82328050082
:101AB00022550325451C2ADC02DA2AD823280500F2
:101AC00022550325851C2ADC02DA2AD823260500A4
:101AD00022550325C51C2ADC02DA2AD82326050054
:101AE00022550325451C2ADC02DA2AD823260500C4
:101AF0002255232A050C2255232C050C2255232C74
:101B000005062255232E05062255232C05042255B1
:101B100023180528225523180520225523190520AE
:101B20002255231B05202255231A05202255231D4B
:101B300005202255231C052022550325451D8145DE
:101B40009920F2502161828079712AD62AF42AD212
:101B500008E145618280797106D62AD42AD20841EB
:101B60009145EF00307A125548419145EF00907948
:101B7000125508459145EF00F078125523000504F1
:101B8000B2504561828079712AD62ED42AD20CC5F2
:101B900045618280757106C7AADCAADA0325051A99
:101BA000AAD80720450482F68720850486F40721F9
:101BB00005048AF25370011882F05370111882EEF6
:101BC0000720C50582EC8315A500072005124655A0
:101BD000D3F005D053F0001882EA0720450587208E
:101BE000850546555370101082E88315C5000720FF
:101BF00005124655D3F005D053F0001882E60720B1
:101C00000506465582E40720450682E23670E66006
:101C1000067187A101FA56625370101082E053706A
:101C2000311053704010A670666102FE76605662F5
:101C3000D3F0201006FC53703010537040104655FE
:101C400002FA02D802D60720450687A041FA5305BA
:101C500010A005C946550720C50487A081FA0721B1
:101C6000C520537010105370201802F80720C504C7
:101C700087A0C1FA0721051353701010537020106C
:101C800005A0266096606661B661D3701010D370AF
:101C9000111806F8D37031105370001053F000186B
:101CA00002F656550325851C2AC5B7658F3D9385D9
:101CB00095C22EC337C6753C1306F62832C1AADE7C
:101CC0000CC10A6076552722050056550325851C50
:101CD0002AC502C32AC12326050056550325851CA3
:101CE0002AC502C32AC12328050056550325851C91
:101CF0002AC502C32AC1232A050056550325851C7F
:101D00002AC502C32AC1232C050056554660032567
:101D1000851CD31000202AC506E302E1AADE272E87
:101D200015000A6076552720050256550325C51C67
:101D30002AC52EC332C1AADE0CC10A6076552722FD
:101D4000050056550325C51C2AC502C32AC12326F2
:101D5000050056550325C51C2AC502C32AC12328E0
:101D6000050056550325C51C2AC502C32AC1232ACE
:101D7000050056550325C51C2AC502C32AC1232CBC
:101D8000050056550325C51C2AC502C302C1AADE9B
:101D9000232E05000A607655272005025655032597
:101DA000451C2AC5B7A5993E9385A5992EC337D65C
:101DB000233C1306A67032C1AADE0CC10A60765518
:101DC0002722050056550325451C2AC502C32AC1F2
:101DD0002326050056550325451C2AC502C32AC1E2
:101DE0002328050056550325451C2AC502C32AC1D0
:101DF000232A050056550325451C2AC502C32AC1BE
:101E0000232C05004655D6550720C50403A5451CBF
:101E1000D31000202AC506E302E1AADE272E150012
:101E20000A6076552720050256550325051C2AC54C
:101E3000B70520422EC302C1AADE0CC10A60765546
:101E40002722050056550325051C2AC502C32AC1B1
:101E50002326050056550325051C2AC502C32AC1A1
:101E60002328050056550325051C2AC502C32AC18F
:101E7000232A050056550325051C2AC502C32AC17D
:101E8000232C050056550325051C2AC5B705C0C0DF
:101E90002EC33706C04032C1AADE4CCD0A6076554B
:101EA0002720050266552120BA4049618280397198
:101EB0002ADA2AD88325C5192ED60325851C2ADEC1
:101EC0002ADC0720050027A8050242550325851CAA
:101ED0002ADE2ADC072045003255272A0502425512
:101EE0000325C51C2ADE2ADC072005003255272CD5
:101EF000050242550325C51C2ADE2ADC07204500C1
:101F00003255272E050242550325451C2ADE2ADCC0
:101F10000720050032552724050242550325451C9C
:101F20002ADE2ADC072045003255272605024255C5
:101F30000325051C2ADE2ADC072005003255272050
:101F4000050242550325051C2ADE2ADC0720450030
:101F50003255272205022161828079712AD62AD43E
:101F6000231301020945C165FD1503566102634053
:101F7000C50403566102A2560606369623180600CB
:101F800003566102A25606063696231BB600035678
:101F90006102A25606063696231E0600031661024B
:101FA00005062313C10203566102E354C5FC225502
:101FB00085452301B50245618280797106D62AD410
:101FC0002AD28325C5192ED00345E52C058931C5B4
:101FD00012550345052D058911C512558545A307E1
:101FE000B52C25A812550355852C01C9125583150A
:101FF000852CFD152314B52C0DA012550325851A2B
:10200000EF509064630E052E02550315450A925554
:102010002394A52C1255A307052C12550355052210
:102020006358A000125583150522FD152310B52213
:10203000125582550720052387A04508539500A017
:102040000DC1125582550355C52083D5450963DD61
:10205000A50212558315652293E515002313B522B9
:1020600015A8125582550720052387A0850853150A
:1020700010A00DC112550355C5206301051212555C
:102080008315C520FD1529A012558315C52085058A
:102090002316B520125582550720052387A0C508B1
:1020A000531510A00DC1125582550355E52083D557
:1020B000450963DCA50212558315652293E52500C9
:1020C0002313B5220DA8125582550720052387A09A
:1020D0000509539500A005C112550355E52071C5AA
:1020E00012558315E520FD1529A012558315E5200D
:1020F00085052317B52012550325852A9145631CB4
:10210000B526125582550720051987A00506539557
:1021100000A009CD125582550355052183D56509C7
:1021200063D0A5021255231805200DA012550355A2
:102130000521635DA000125583150521FD1529A019
:1021400012558315052185052318B5201255825592
:102150000720450687A04506539500A015C51255D2
:1021600082550720050487A00507531510A009CD47
:10217000125582550355252183D5850963DEA502B5
:102180001255231905203DA8125503552521635BDF
:10219000A002125583152521FD151DA0125583554A
:1021A0006522F9992313B522F5B512558355652299
:1021B000F5992313B52281B712558315252185057D
:1021C0002319B520125582550720050487A005075D
:1021D000539500A039CD125582550720C51587A00B
:1021E0008505531510A01DE11255825507200516CF
:1021F00087A08505531510A011E9125582550720B7
:10220000451687A08505531510A005C512558255A2
:102210000355652183D5C50963D7A50212558315DA
:10222000652293E505082313B5221255231B0520CB
:102230000DA0125503556521635DA000125583154D
:102240006521FD1529A01255831565218505231BE0
:10225000B520125582550720450687A0850653955F
:1022600000A0630A0510125582550720C51887A0E3
:10227000C505539500A009CD12558255035545213A
:1022800083D5A50963D0A5021255231A05200DA0F8
:10229000125503554521635DA00012558315452154
:1022A000FD1529A01255831545218505231AB52052
:1022B000125582550720450687A04506531510A0E4
:1022C00015C5125582550720050487A0050753152B
:1022D00010A009CD125582550355A52183D5050AB5
:1022E00063D7A5021255231D052005A812550355D5
:1022F000A5216354A00212558315A521FD1521A81F
:1023000002550315650A92552394A52CF9B112556F
:102310008315A5218505231DB5201255825507205B
:10232000050487A0C506539500A015C51255825512
:102330000355852183D5E50963D9A5021255831577
:102340006522056613060680D18D2313B52212552A
:10235000231C05200DA0125503558521635DA000A7
:10236000125583158521FD1529A012558315852148
:102370008505231CB520B25045618280397106DE87
:102380002ADC2ADA0345752E05896309051A525598
:10239000A303052E5255072005158720851353707A
:1023A0001010537500585325A5A06309051A5255FE
:1023B000272EA514525507204515872085135370E5
:1023C0001010537500585325A5A0630E05185255DB
:1023D0002720A51652550720851587208513537091
:1023E0001010537500585325A5A0630305185255C6
:1023F0002722A5165255072045178720C51353706D
:102400001010537500585325A5A0630805165255A2
:102410002720A5185255072085178720C51353700C
:102420001010537500585325A5A0630D051452557F
:102430002722A51852550720C5178720C5135370AA
:102440001010537500585325A5A06302051452556A
:102450002724A51852550720C51587200516539522
:1024600000A052550720C51502F80720051602F6F0
:10247000525507204516C270539500A009C5525504
:102480000720451611A04270525502F80720451644
:10249000B270531510A009C552550720451611A05A
:1024A0003270525502F607204513872005045370F9
:1024B000101802F487204513539500A009C5525502
:1024C0000720451311A02270525502F4D31510C0F5
:1024D0002314B52052558355852007A001FBD3F066
:1024E00015D053701018272C05125255072085134C
:1024F000272E05124270B270525553711008537056
:102500001000537001182726051852550720C515CD
:10251000872005180721051687214518072245162B
:102520008722851853701010D3703110537010002B
:10253000D3705210537010002728051852550720E9
:102540008509872005040721051453701010537066
:102550002010272A0518F25021618280530500209F
:10256000EF501045A9B553050020EF50704485B5D4
:1025700053050020EF50D0439DBD53050020EF5080
:10258000304371B553050020EF5090424DB55305CF
:102590000020EF50F04165BD397106DE2AD62AD4FD
:1025A0008720C50107A041FBD3A01020530510A030
:1025B00005C1225503454502058915CD2255232223
:1025C00005002255A302050222552302050205A893
:1025D00022558720C501D3A01020539500A0630683
:1025E000051422550345450205890DC522554C4168
:1025F00085054CC13DA022554C4185054CC1225555
:102600004841630405122255232205002255A309DF
:10261000052C21AA22552322050022558545230297
:10262000B5022255484163020510225523220500B8
:10263000225503455502058911ED22550720C50095
:102640002724050022550325451C2ADC02DA2AD856
:10265000232605003565E928C96583A6C5E107A0DD
:1026600081FB4966B306D540D3F006D0D31610A03F
:10267000232CA6E089EE032586E183A6C5E107A009
:10268000C1FB158DD37005D0539500A00DCD03254A
:1026900086E183A5C5E10D8D6358A0002255072072
:1026A000850087A041FC31A022550720850087A026
:1026B00001FC53701000272405004965032585E1BE
:1026C000C96523AEA5E02255872185000EFC02DAFC
:1026D00007A081FC87A0C1FC530100F0D3F12100C9
:1026E0000EF8C271D31530A0054581E5C27153952E
:1026F00021A00DC1C271531530A009C5C271D3F11B
:1027000011000EF8C271539521A061DDC271D3F1A1
:102710000100F9B74270225527240500225585454E
:10272000A302B5022255A309B52CF2502161828083
:10273000797106D62AD4412109E93785600013054D
:1027400055299305C020EF50204D22550841B25025
:1027500045618280797106D62AD42AD28325852ABA
:10276000114563E6A500925523A4A52A29A0125578
:102770008D452324B52A12550345F52D058901C53C
:102780001255894519A012558D452322B52A125597
:102790002326050212550325451D8145EFF0AFBEE6
:1027A00012558545A309B52C125523180528125535
:1027B0008315452285052312B522B25045618280DA
:1027C000797106D62AD42AD2232605021255A309E6
:1027D000052C12552322052A125591452324B52A8A
:1027E00012550325451D8145EFF0EFB91255231110
:1027F0000522B25045618280397106DE22DC22FA60
:102800002AD82AD68325C5192ED40345352D058906
:1028100045C932550325851AEF502072B945631C0E
:10282000B50432550345F52C058931C532550325CC
:10283000851A8545EF50E07E3255A2550325851A4D
:10284000A869EF50F00522550720C50187204500F3
:102850005370100802F28720450007A101FD5320A4
:102860000020D3F02010531510A039C9325503258C
:10287000851A8545A1A032550325851A530400F019
:1028800053058420EF50D00132550325851A530596
:102890008420EF50607F32550324851A2285EF5043
:1028A00000672285EF50C07C32550325851A81458B
:1028B000EF50207732550325851A8145EF50A079D6
:1028C00052746254F25021618280797106D62AD402
:1028D0002AD28325C5192ED00325851AEF50E0652D
:1028E000925523A0A52C12550325851AEF5040665A
:1028F000925523A2A52C12550325851AEF50C05FCF
:10290000025508E112550325851AEF504060025523
:1029100048E112550325851AEF50E059025508E5A4
:1029200012550325851AEF50605A025548E5125595
:102930000325851AEF50A052025548E91255032588
:10294000851AEF50C05107A041FD02555370051084
:102950002728050012550325851AEF50005302550C
:1029600068E912550325851AEF50A057025508ED66
:1029700012550325851AEF5040461255272CA508FD
:1029800012550325851AEF50E059025548ED1255AE
:102990000720450C8720850C53700010D3F01010D1
:1029A00053701000537500585325A5A005C9125542
:1029B00068F112550720450A8720850A53700010D8
:1029C000D3F0101053701000537500585325A5A074
:1029D00019C9125528F5B25045618280530500206F
:1029E000EF50007DE9B753050020EF50607CD5B76C
:1029F00079712AD62AD4072045238720451453709D
:102A0000001053F0000027220514225507208523CB
:102A1000872085145370001053F0000027240514FC
:102A200022550720C5238720C5145370001053F08A
:102A30000000272605142255072005248720851627
:102A40005370001053F0000027240516225507206C
:102A500045248720C5165370001053F00000272628
:102A6000051622550720852487200517537000106E
:102A700053F000002728051622558315A52085054B
:102A80002315B52022558355A5200355852063596C
:102A9000B50622550720451427280514225507207E
:102AA0008514272A051422550720C514272C051440
:102AB00022552322051422552324051422552326AA
:102AC0000514225507208516272A051622550720AA
:102AD000C516272C0516225507200517272E051683
:102AE0002255232405162255232605162255232870
:102AF000051622552315052022558545A303B52E1D
:102B000045618280797106D62AD42ED2B92011E986
:102B1000378560001305651B85659385D52CEF50BF
:102B2000A00F03554102137515F811C937856000D0
:102B30001305651B85659385E52CEF50E00D73E06B
:102B4000107C225592550326C526D18D2326B52605
:102B500073F0107CB250456182807971AA852AD6C3
:102B6000296605456387C504B2551306064063828E
:102B7000C5043256AD6593860580630CD602325685
:102B8000938505C06307B6023256AD656303B6028E
:102B9000325693850540630EB6003256B165938672
:102BA00005806308D6003255938505C02D8D1335F9
:102BB0001500456182807971AA852AD6356605455A
:102BC0006388C5003255930506142D8D1335150005
:102BD00045618280797106D62AD42AD239201255CD
:102BE00021281255B2504561828079712AD62AD4A3
:102BF000230605004561828079712AD62AD4A3066E
:102C0000050045618280397106DE22DC26DA4AD869
:102C10002AD62AD423120102084585450549992858
:102C2000225508458545B9202313010241659304C7
:102C3000F5FF1304803E32558145692093750540A8
:102C4000014589C5035561021325853E11CD031544
:102C500061020505B37595002313A102E3CD85FC40
:102C60002255A3062501C1BF4259D2546254F250E5
:102C700021618280397106DE2ADC2EDAE92609E933
:102C8000378560001305D52C9305201CEF40D078C4
:102C9000625593551500C19937460300130606E0A7
:102CA000B29552562ED885453395A5002AD609C629
:102CB0003255C255C8C121A03255C25588C5F250FF
:102CC000216182805D7186C6A2C4A6C2AAC02EDE22
:102CD0002ADC231901022317010202D40545054409
:102CE00001468522E255231BA10288418D2A6255A7
:102CF00008414D226255084183556103F122416527
:102D00009304F5FF225515E162550841CD2A2AD4D6
:102D10000315E1020505B37595002317A102E3C36E
:102D200095FE625523068500F1BF41657D15231789
:102D3000A10262550841DD2A2318A10203550103AF
:102D40001375F57F96442644B6406161828079719F
:102D50002AD62ED42AD20CC14561828079712AD616
:102D60002ED42AD24CC14561828079712AD62ED4C4
:102D70002AD20CC545618280397106DE22DC2ADA4E
:102D80002ED8239E05004255231005024255A3016B
:102D900005024255231D05004255231F05004255DB
:102DA000230105024255A30C05004255230C0500E2
:102DB000525502D681453937C2552315A1022390B9
:102DC000A50052550564930504802ED6E53DC255F5
:102DD0002315A1022391A500525522D68565DD3524
:102DE000C2552315A1022392A500525509649305EB
:102DF00004802ED6C13DC2552315A1022394A500FF
:102E0000525522D689657D3DC2552315A1022396D0
:102E1000A50052550D64930504802ED66535C25524
:102E20002315A1022398A500525522D68D65593D40
:102E3000C2552315A102239AA5006254F2502161C4
:102E4000828079712AD62ED44D8D9375F67F4D8D63
:102E5000C165FD156D8D2313C102456182807971B5
:102E600006D62AD4312409E9378560001305553088
:102E70009305B023EF40505A22554C5179767D1678
:102E8000F18D4CD122554C510966D18D4CD1B250A7
:102E900045618280797106D62AD4D92A09E9378515
:102EA0006000130555309305B01EEF40F0562255D3
:102EB0000C511966D18D0CD122554C510966D18D1A
:102EC0004CD1B25045618280797106D62AD4231341
:102ED000B102792A09E93785600013055530930559
:102EE000B038EF407053225508451375050265FD53
:102EF00003556102A25588CDB25045618280797137
:102F000006D62AD4B52209E9378560001305553065
:102F10009305D02BEF405050225548518965938539
:102F200005F06D8D2181B25045618280797106D6A0
:102F30002AD43D2A09E937856000130555309305E9
:102F4000B031EF40704D22554849C165FD156D8D7A
:102F5000B25045618280397106DE2ADC2EDA2319EF
:102F6000C1022AD60145F13DB2552315A10288417F
:102F7000FD3532550841393F325508418355A1028C
:102F8000A137F25021618280397106DE22DC2ADA13
:102F90002ED803C58501058941C1425585652ED6C8
:102FA00083554500525513F6F57F2315C1028565FB
:102FB0005D3742550964930504802ED6035685007B
:102FC00052551376F67F2315C1027137425522D62A
:102FD0008355C500525513F6F57F2315C102896547
:102FE0009D3F42550D64930504802ED6035605017E
:102FF00052551376F67F2315C102B13F425522D6B2
:1030000083554501525513F6F57F2315C1028D6591
:1030100099374255230C0500425503452502058981
:1030200019CD42558355A501AE052ED60356E501AF
:1030300052552315C102053742552301050262543A
:10304000F250216182807971AA852AD61306C003C5
:10305000054563EAC50032559305000E6367B50068
:1030600032551335850F4561828001454561828067
:103070007971AA852AD6396605456388C500325517
:10308000930506082D8D13351500456182807971F1
:1030900006D6EFD0EF94218913351500B250456163
:1030A0008280011173E0107C37950300832505E5CC
:1030B00093E585062328B5E473F0107C05618280D2
:1030C000797106D62AD405451D28056513050580A6
:1030D0003D203715D000130515C0EF30F0413705FE
:1030E000220013053510EF3030410965130505C086
:1030F000814529280545AD20B2504561828079710E
:103100002AD6956523A2A51045618280397106DE15
:103110002ADC2EDAEF20207D09E9378560001305CF
:10312000E51E93050069EF40302F5255E255131606
:103130001500719AB295F1052ED805890E052AD68B
:1031400073E0107C4255B255104193060002B395CE
:10315000B600D18D0CC173F0107CF25021618280D9
:1031600079712AD6B715100003A605C1518D23A881
:10317000A5C04561828079712AD6456182807971C6
:1031800006D62AD42120B25045618280797106D6B4
:10319000EFD08F85218913351500B25045618280AB
:1031A000797106D62AD42AD22AD0E53D02558965FE
:1031B0001386058010C10255138605C050C1025503
:1031C0001386059410C50255938505D44CC5025548
:1031D000B7450300938505404CCD025599654CD108
:1031E00002558D654CD902551386051810DD025520
:1031F0001386052050DD02551386052830C102557F
:10320000938505306CC1025595650CC9025513862E
:10321000050150C90255938505020CCD1255B250D7
:1032200045618280397106DE22DC2AD8130530041C
:103230002ED66364B50002DAB1A842552AD42AD248
:10324000A9650CC11255938505404CC11255AD6559
:10325000938505800CC512553964930504804CC5CF
:1032600012551306049010C912554CC91255B56574
:103270000CCD125513054502EFF0DF95925588D11C
:10328000125540CD1255F5454CD91255ED450CDD82
:1032900022552ADA05452AD052556254F25021614E
:1032A0008280797106D62AD4DD3322551D2022551D
:1032B000A521225507A581FDEF0040642255EF00AE
:1032C00040682255EF00406BEF00E071B25045615D
:1032D00082805D7186C6A2C4A6C2CAC04EDE52DC20
:1032E00056DA5AD82AD637040C0013051400EF30EA
:1032F000500685450145EF30604A01458145EF3074
:10330000A06013051420EF30D00405458545EF304B
:10331000E04805458145EF30205F13051440EF304C
:10332000500309458545EF30604709458145EF3039
:10333000A05D13051460EF30D0010D458545EF30D9
:10334000E0450D458145EF30205C37140C00130536
:103350001480EF30100011458545EF3020441145B1
:103360008145EF30605A37290C001305D9E0EF3062
:10337000407E3D458545EF3060423D458145EF301B
:10338000A058130574A0EF30C07C15458545EF307B
:10339000E04015458145EF30205737150C00EF30E0
:1033A000407B21458545EF10A07A21458545EF30CA
:1033B000E03E21458545EF30205513057420EF3060
:1033C000407925458545EF30603D25458545EF3001
:1033D000A05313057440EF30C07729458145EF3085
:1033E000E03B29458545EF3020521305D460EF308E
:1033F00040762D458545EF30603A2D458545EF30C7
:10340000A050B719100013850960EF3080746D4526
:103410008145EF10E0736D458545EF3020386D45EF
:103420008145EF30604E372A100013050AA0EF30B7
:10343000407275458545EF10A07175458545EF30A3
:10344000E03575458145EF30204CB71A8C00138567
:103450000A40EF3000701305A0028145EF300034C0
:103460001305A0028145EF30204A370B8C0013056D
:103470000B40EF30006E130520028145EF30003223
:10348000130520028145EF30204813051B60EF3003
:10349000406C130530028545EF30004713053002BC
:1034A0008D45EF3000511305E0028145EF30002FCC
:1034B0001305E0028145EF30C04F1305E002A1453E
:1034C000EF30A03621459145EF10A06D2145EF105A
:1034D000806F37258C0013055580EF30806713050A
:1034E000C0028145EF30802B1305C0028145EF30CB
:1034F000A04113859AA0EF30C065130550028145A5
:10350000EF30C029130550028145EF30E03F1385AD
:10351000AA60EF3000641305B0028145EF30002847
:103520001305B0028145EF30203EB704100013852B
:103530000460EF3000624D458545EF1060614D45F8
:103540008545EF30A0254D458145EF30E03B130523
:103550001980EF30006031458545EF30202431453A
:103560008145EF30603A130519A0EF30805E354594
:103570008545EF30A02235458145EF30E038130511
:1035800014C0EF30005D19458545EF302021194505
:103590008145EF306037130514E0EF30805B1D4547
:1035A0008545EF30A01F1D458145EF30E03513857F
:1035B0005400EF30005A41458545EF30201E41450B
:1035C0008145EF30603413855420EF3080584545F5
:1035D0008545EF30A01C45458145EF30E0321305AD
:1035E0003B20EF300057130510028545EF30001BDC
:1035F000130510028145EF30203137058C00EF3084
:103600004055130500028545EF1080541305000254
:103610008545EF30A018130500028545EF30C02E18
:10362000138569C0EF30E05259458545EF300017EA
:1036300059458545EF30402D13053AE0EF30605194
:103640007D458145EF3080157D458545EF30C02BA8
:1036500013053AC0EF30E04F79458545EF3000144F
:1036600079458545EF30402A37151000EF30604E20
:1036700061458545EF10C04D61458545EF3000122D
:1036800061458145EF30402813850A20EF30604CBA
:10369000130590028145EF306010130590028145BB
:1036A000EF3080261305A9C0EF30A04A3945814587
:1036B000EF30C00E39458145EF30002513852920B4
:1036C000EF30204965458145EF30400D6545814526
:1036D000EF30802313852940EF30A04769458145AD
:1036E000EF30C00B69458145EF300022138504405F
:1036F000EF30204649458145EF30400A4945814534
:10370000EF308020425BD25A625AF2590649964401
:103710002644B64061618280397106DE22DC26DAF9
:103720002AD82AD61305400697E0A0FFE780403B41
:10373000EF005052896403A50480A1654D8D23A03C
:10374000A48073E0107C3795030085454CC173F06D
:10375000107C377518001305159F97E0A0FFE780D0
:103760002038325508419145EF00505032554841BC
:103770009145EF00B04F325508419145EF00B052EE
:10378000325548419145EF00105232550841C1452C
:10379000EF00105532554841C145EF007054325585
:1037A0000841EF00905732554841EF0010571385FC
:1037B000047197E0A0FFE780A032138404C035466F
:1037C00022858145EF00B0589384048089451546D1
:1037D000AD4621472685EF00B05D8D451546AD46C7
:1037E00021472685EF00D05C85451546AD4621472B
:1037F0002685EF00F05B89451546914621472285D5
:10380000EF00105B8D451546914621472285EF005C
:10381000305A85451546914621472285EF0050597B
:10382000A14515469D4621472285EF007058A545C4
:1038300015469D4621472285EF009057A94515461C
:103840009D4621472285EF00B0569545154699467D
:1038500021472685EF00D0559945154699462147C1
:103860002685EF00F0549145154699462147268557
:10387000EF00105499451546954621472285EF00E3
:1038800030539D451546954621472285EF005052FD
:1038900095451546954621472285EF0070519D4577
:1038A0001546894621472685EF009050A1451546CB
:1038B000894621472685EF00B04FA5451546894624
:1038C00021472685EF00D04EAD4515469946214744
:1038D0002285EF00F04DB1451546994621472285D6
:1038E000EF00104DB5451546994621472285EF005A
:1038F000304CD2546254F25021618280397106DE1C
:1039000007A0C1FD2ADC2AFA2AD85370A018D315C3
:1039100010C02ED608498145EF10906542550849E0
:10392000856593850580EF20D04942550849B255F9
:10393000EF10906642550849EF109068F2502161EF
:103940008280797106D62AD42AD2084D8145EF109B
:1039500030621255084D856593850580EF207046CD
:103960001255084DFD55EF1030631255084DEF10FC
:103970003065B25045618280797106D62AD42AD248
:10398000484D9305F00FEF3020511255484DEF1080
:1039900050461255484DEF1070481255484DEF10E3
:1039A000504B1255484DEF10304E1255484DB775DB
:1039B00089099385058037160E009D46EF30C03D7E
:1039C0001255484DEF10B04F1255484DEF10B05101
:1039D0001255484DEF1070541255484DEF10B05627
:1039E000B25045618280797106D6EF10506105456D
:1039F000EF109062B25045618280797106D62AD468
:103A00002ED283C5E50025209255225583C5F500A9
:103A1000052822553D2822556D2622551D2B22555D
:103A2000FD2B2255EF002066B250456182807971EE
:103A30002AD62315B1022AD2231EB50245618280FF
:103A400079712AD62315B1022AD2231FB502456106
:103A50008280397106DE22DC26DA2AD82AD6096568
:103A6000130505F42314A10205452313A1020565DE
:103A700013050520EF10E01A325508419145EF106B
:103A8000601E325548419145EF10C01D3255084522
:103A90009145EF10201D231501028944416513044F
:103AA000F5FF0355A10263CDA4200355A102B25531
:103AB0000A052E9508418945EF1040200355A102C3
:103AC000B2550A052E950841EF1060220355A10258
:103AD000B2550A052E9508418545EF10E0230355A0
:103AE000A102B2550A052E9508418545EF106026C2
:103AF0000355A102B2550A052E950841814501469C
:103B0000EF10C0290355A102B2550A052E950841B0
:103B10008545EF10E02C0355A102B2550A052E95FC
:103B200008418945EF20B02F0355A102B2550A057F
:103B30002E9508418145EF10C02E0355A102B255C4
:103B40000A052E9508418145EF10A0310355A102C9
:103B5000B2550A052E9508418145EF1020330355D3
:103B6000A102B2550A052E95084181450146EF1084
:103B7000C0340355A102B2550A052E950841A1454E
:103B80000146EF1080330355A102B2550A052E9568
:103B90000841D1450146EF1040320355A102B2550C
:103BA0000A052E950841F1450146EF1000310355F5
:103BB000A102B2550A052E95084109469146814554
:103BC000EF10E0380355A102B2550A052E950841C1
:103BD000094689468145EF1080370355A102B25549
:103BE0000A052E950841054699468145EF10203675
:103BF0000355A102B2550A052E9508410546814597
:103C00008146EF10C0340355A102B2550A052E9526
:103C1000084185450546EF10C03B0355A102B2554A
:103C20000A052E95084105468145EF10803A035557
:103C3000A102B2550A052E9508418145EF10E03EDC
:103C40000355A102B2550A052E9508418545014646
:103C5000EF10E0420355A102B2550A052E95084126
:103C600005468145EF10A0410355A102B2550A0552
:103C70002E950841A145EF1080450355A102B2558C
:103C80000A052E950841A145EF10C0480355A10231
:103C9000B2550A052E950841EF10204C0355A1029C
:103CA000B2550A052E950841A285EF10C04D0315A7
:103CB000A10205052315A1020355A102E3D7A4DE45
:103CC000325508418545EF10E04F32550841EF105D
:103CD000E05C3255084129468145EF10205F32559E
:103CE00008418145EF10C07103556102C14563422F
:103CF000B50232550841BD45EF10C0743255084138
:103D00003D468145EF10E0793255084185453D46F5
:103D1000B9A0035561026355A0023255084183558D
:103D20006102EF102072325508410356610281454D
:103D3000EF1020773255084103566102854505A0F2
:103D4000325508418545EF10E06F32550841054670
:103D50008145EF1000753255084185450546EF1045
:103D6000407432550841EF10E07B325508418145DF
:103D7000EF10407E325508418545EF10A07D325549
:103D8000084183558102EF10601032554841835538
:103D90008102EF10A00F3255084583558102EF10C4
:103DA000E00E32550841D1452946EF10407E0565A9
:103DB00013050520EF001063D2546254F2502161C4
:103DC0008280397106DE22DC2ADA2AD805651305DD
:103DD00005E02317A102130500202316A102854543
:103DE0000145EF00300485450145EF0050081945B5
:103DF0009145EF00300319459145EF0050078D457F
:103E00000145EF0030028D450145EF0050062315B6
:103E1000010209440355A1026349A4120355A102FA
:103E2000C2550A052E954845EF0010090355A10219
:103E3000C2550A052E9548458145EF00D00B035524
:103E4000A102C2550A052E9548458145EF00700E26
:103E50000355A102C2550A052E95484593058002D7
:103E6000EF0070110355A102C2550A052E95484571
:103E70009305A002EF00F0130355A102C2550A05F5
:103E80002E9548459305000213060002F946EF20DF
:103E9000005A0355A102C2550A052E954845EF0068
:103EA00090150355A102C2550A052E954845930564
:103EB000000213060002F946EF20A0650355A10297
:103EC000C2550A052E954845EF0030160355A1024C
:103ED000C2550A052E9548458545EF0050180355F3
:103EE000A102C2550A052E9548458145EF00901C58
:103EF0000355A102C2550A052E9548458355E10296
:103F0000EF00101F0355A102C2550A052E95484522
:103F10008355C102EF00D0210355A102C2550A0505
:103F20002E954845EF00D0240355A102C2550A053D
:103F30002E954845EF0010270315A102050523150E
:103F4000A1020355A102E35BA4EC6254F25021618B
:103F500082805D7186C6A2C4A6C2AAC02ADE084DB0
:103F60008545812A7255084D8545BD2A725502D86E
:103F700002DA02DC084D02D402D202D00C10612A0F
:103F80007255084D8145D12A7255084D814501462B
:103F900081460147EF20A0737255084D8564138454
:103FA0000480A285ED227255084D8945392C725541
:103FB000084D938404FA81452686B1247255084D34
:103FC000814551247255084D81455D247255084D37
:103FD000E9247255084DFD247255084DD145012E36
:103FE0007255084D8145352E7255084DAD267255D6
:103FF000084DA2857D287255084DA685512672551B
:10400000084D8545652E7255084D8145CD2E72555A
:10401000084D192996442644B64061618280797121
:1040200006D62AD42AD2484DEF00101F1255484D0B
:10403000B77589099385058037761800130706A0A0
:104040009946C1470146EF2010701255484DEF00C8
:10405000701F1255484DC145EF0070211255484D53
:10406000EF0050241255484DC145EF00102712555E
:10407000484DA145EF20507D1255484DEF00902A44
:10408000B25045618280797106D62AD42AD2105165
:104090004C4D3285EFE0BFCB12550851A145EFE002
:1040A000FFCB12550851F545EFE03FCCB2504561CA
:1040B0008280797106D62AD42313B102EF10D0047E
:1040C00009E937856000130555299305B029EF30BC
:1040D000B034225583556102505D93C5F5FFF18DD3
:1040E0004CDDB25045618280797106D62AD4231303
:1040F000B102EF10700109E93785600013055529F9
:104100009305902EEF30503103556102A255E8C15E
:10411000B25045618280797106D622D42E842AD28B
:10412000EF10807E09E93785600013055529930556
:10413000F06DEF30702E12556855FD7550401440EB
:104140006D8D0C441206558E9256A205D18D4D8D63
:10415000E8D62254B25045618280797106D62AD4BD
:104160002ED2EF10607A09E93785600013055529D2
:104170009305E068EF30502A22556851835541027B
:10418000225671994D8D68D2B25045618280797105
:1041900006D62AD42313B102EF10007709E9378538
:1041A0006000130555299305101CEF30F0262255A9
:1041B0004855CD7503566102A2569385F51F6D8D46
:1041C000518DC8D6B25045618280797106D62AD405
:1041D0002ED2EF10607309E9378560001305552969
:1041E0009305B070EF30502322550859D17503560E
:1041F0004102FD15A2566D8D9315E6004D8D88DAAE
:10420000B25045618280797106D62AD42ED232D03E
:10421000EF10806F09E93785600013055529930574
:10422000901EEF30701F22550859F5750356410254
:10423000A256FD156D8D518D88DA0255A25588C59F
:10424000B25045618280797106D62AD42ED2EF1001
:10425000A06B09E937856000130555299305702285
:10426000EF30901B1255A25588C1B2504561828033
:10427000797106D62AD42ED2EF10006909E9378564
:1042800060001305552993058047EF30F01812554B
:10429000A25588D1B25045618280797106D62AD460
:1042A000EF10806609E937856000130555299305ED
:1042B000304BEF30701622550C59F5990CD9B2508D
:1042C00045618280797106D62AD4EF10E06309E94E
:1042D00037856000130555299305104FEF30D01333
:1042E00022550C59F9990CD9B250456182807971E7
:1042F00006D62AD42ED2EF10206109E93785600056
:10430000130555299305D05BEF301011225508593C
:10431000925522561375B5F84D8D08DAB2504561A5
:104320008280797106D62AD42ED2EF10E05D09E999
:1043300037856000130555299305B066EF30D00D21
:104340002255285583554102225661994D8D28D614
:10435000B25045618280797106D62AD4EF10C05AD6
:1043600009E937856000130555299305406CEF3046
:10437000B00A22554C55F9994CD5B250456182800E
:10438000797106D62AD42313B102EF10E05709E958
:1043900037856000130555299305A054EF30D007E9
:1043A00022550859FD7503566102A2569385F50FF3
:1043B0006D8D518D88DAB25045618280797106D653
:1043C0002AD4A303B102EF10205409E93785600015
:1043D000130555299305D056EF301004034571029B
:1043E000058911C522550C5993E5050829A02255C8
:1043F0000C5993F5F5F70CD9B2504561828079716B
:1044000006D62AD42ED2EF10205009E93785600055
:104410001305552993051059EF3010001255A25578
:10442000C8C1B25045618280797106D62AD4EF1096
:10443000A04D09E937856000130555299305E0175C
:10444000EF30807D22550C5993E585000CD9B25090
:1044500045618280011173E0107C379503000C41A7
:10446000F9990CC173F0107C05618280797106D6D0
:104470002AD42ED2EF10204709E9378560001305B2
:10448000E51E9305E018EF30207973E0107C22558B
:1044900048419255225641994D8D48C273F0107C87
:1044A000B25045618280797106D62AD42ED2EF109F
:1044B000804309E9378560001305E51E93057022E6
:1044C000EF30807573E0107C2255084192552256DA
:1044D0006D994D8D08C273F0107CB2504561828099
:1044E000797106D62AD42ED2EF10E03F09E937853C
:1044F00060001305E51E9305A041EF30E07173E005
:10450000107C225548519255225601994D8D48D222
:1045100073F0107CB25045618280797106D62AD43E
:10452000EF10603C09E9378560001305E51E93052F
:10453000A026EF30606E73E0107C22550C4193E5AD
:1045400005080CC173F0107CB2504561828039714E
:1045500006DE2ADC2EDA32D8EF10E03809E937859A
:1045600060001305E51E9305006FEF30E06A5255B9
:10457000E25513161500719AB295F1052ED60589EC
:104580000E052AD473E0107C32550841A2553D46F1
:104590003316B600C2561346F6FF3257718DB395E7
:1045A000B6004D8D08C373F0107CF25021618280FB
:1045B000397106DE2ADC2EDA32D836D63AD4EF103C
:1045C000803209E9378560001305E51E9305501C0C
:1045D000EF308064225511C5225593051020636A7F
:1045E000B500378560001305E51E9305601CEF30AC
:1045F000A0625255E2550A052E95130505042AD2EC
:1046000073E0107C3255C2553E052256D2059256B3
:104610004D8D9305F6FF4D8D88C273F0107CF250DE
:1046200021618280797106D62AD415452ED263EA9B
:10463000A500378560001305C5339305101BEF30C7
:10464000A05D73E0107C379503004C4522569D46D3
:104650001257B396C60093C6F6FFF58D3316C70002
:10466000D18D4CC573F0107CB25045618280797158
:1046700006D62AD415452ED263EAA50037856000F8
:104680001305C5339305501DEF30005973E0107CBE
:10469000379503000C4922569D461257B396C60023
:1046A00093C6F6FFF58D3316C700D18D0CC973F094
:1046B000107CB25045618280797106D62AD4EF1001
:1046C000802609E937856000130555229305000E01
:1046D000EF30805473E0107C22550C412166D18D5F
:1046E0000CC122554C4193E585004CC173F0107C00
:1046F000B25045618280797106D62AD42ED2EF104D
:10470000802209E937856000130555229305C01200
:10471000EF30805073E0107C2255084192552256AC
:104720001375C5FB4D8D08C273F0107CB250456106
:104730008280797106D62AD42ED2EF10C01E09E9E4
:1047400037856000130555229305A015EF30C04C46
:1047500073E0107C22550841F17512569385F5CF10
:10476000A2566D8D931586004D8D88C273F0107C16
:10477000B25045618280797106D62AD42ED2EF10CC
:10478000801A09E9378560001305552293059018B2
:10479000EF30804873E0107C225508419255225634
:1047A000137535FC4D8D08C273F0107CB250456115
:1047B0008280797106D62AD42ED2EF10C01609E96C
:1047C00037856000130555229305A01BEF30C044C8
:1047D00073E0107C22550841F17512569385F53F20
:1047E000A2566D8D931586004D8D88C273F0107C96
:1047F000B25045618280797106D62AD4EF10A0129A
:1048000009E9378560001305552293050027EF302D
:10481000A04073E0107C22552C452166D18D2CC51B
:1048200073F0107CB25045618280797106D62AD42B
:10483000EF10600F09E937856000130555229305D5
:104840001029EF30603D73E0107C22552C41216629
:10485000D18D2CC173F0107CB2504561828079718A
:1048600006D62AD42ED2EF10000C09E93785600055
:10487000130555229305803EEF30003A12559D45B1
:10488000636AB50037856000130555229305903E95
:10489000EF30803873E0107C22554C41E1994CC1D7
:1048A000225592555041D18D4CC173F0107CB250BD
:1048B00045618280797106D62AD42ED2EF10A006E7
:1048C00009E9378560001305552293050021EF3073
:1048D000A03473E0107C2255084992552256137576
:1048E000E5F54D8D08CA73F0107CB25045618280A9
:1048F000797106D62AD42ED2EF10E00209E9378565
:1049000060001305552293054023EF30E030125527
:10491000318109C93785600013055522930550235D
:10492000EF30802F1255A255C8C9B2504561828020
:10493000797106D62AD42ED2EF00F07E09E93785A8
:1049400060001305552293052025EF30E02C125509
:10495000318109C93785600013055522930530253B
:10496000EF30802B1255A25588D9B2504561828014
:10497000797106D62AD4EF00107B09E937856000EB
:10498000130555229305502EEF30002973E0107C5B
:1049900022554C4593E525004CC573F0107CB25070
:1049A00045618280797106D62AD4EF00D07709E973
:1049B000378560001305552293053030EF30C02550
:1049C00073E0107C22554C4593E505204CC573F0EF
:1049D000107CB25045618280797106D62AD42AD2E1
:1049E0000851EFE04FA2B25045618280797106D63E
:1049F0002AD42ED22AD00851EFE00FD9B250456107
:104A00008280797106D62AD42ED22AD00851EFE0BE
:104A1000AFB6B25045618280797106D62AD4EF00D4
:104A2000107409E937856000130555309305C01BE4
:104A3000EF30801E22550C4193F5F5F70CC1B250B2
:104A400045618280797106D62AD4EF00507109E958
:104A5000378560001305553093053042EF30C01B99
:104A600022550C41BD990CC1B250456182807971CB
:104A700006D62AD42ED2EF00906E09E93785600061
:104A80001305553093058046EF30001922554855DF
:104A90008355410222561375F5FC4D8D48D6B25010
:104AA00045618280797106D62AD4EF00506B09E9FE
:104AB00037856000130555309305B01EEF30C015E3
:104AC00022550C511966D18D0CD122554C510966D5
:104AD000D18D4CD1B25045618280797106D62AD4ED
:104AE0002313B102EF00B06709E9378560001305B1
:104AF000553093056048EF3020120355610293054D
:104B00000010636AB50037856000130555309305C2
:104B10007048EF30601003556102A25588D5B2503D
:104B200045618280797106D62AD4EF00506309E985
:104B300037856000130555309305501AEF30C00DCE
:104B400022550C4193E505080CC1B25045618280A5
:104B5000397106DE2ADC2EDAEF00106809E93785A4
:104B600060001305D52C9305201CEF30E00A625538
:104B700093551500C19937460300130606E0B29518
:104B800052562ED885453395A5002AD609C63255EA
:104B9000C255C8C121A03255C25588C5F250216105
:104BA000828079712AD62ED49565938505202E951D
:104BB00008414166A25632574D16718D558DBA95F2
:104BC00088C14561828079712AD6956593850520D3
:104BD0002E95C165FD156D8D0C4193E515000CC139
:104BE0004561828079712AD69375F5038A052ED4A2
:104BF0008965938505F06D8D21812AD273E0107C43
:104C000022559255378603001306462432951041EB
:104C10008546B395B600D18D0CC173F0107C45610B
:104C2000828079712AD69375F5038A052ED4896519
:104C3000938505F06D8D21812AD273E0107C225579
:104C40009255378603001306462432951041854657
:104C5000B395B60093C5F5FFF18D0CC173F0107CD0
:104C600045618280797106D62AD42ED2EF00105188
:104C700011E9378560001305651B85659385D52C83
:104C8000EF20907903554102137515F811C9378546
:104C900060001305651B85659385E52CEF20D077B3
:104CA00073E0107C225592550326C526D18D23260C
:104CB000B52673F0107CB25045618280797106D6BA
:104CC0002AD42ED2EF00904B09E9378560001305F6
:104CD000651B9305307EEF203074225508419255B4
:104CE000225671994D8D08C2B2504561828079710A
:104CF00006D62AD4EF00904809E9378560001305ED
:104D0000651B9305407CEF20307122550C41ED99D5
:104D10000CC1B25045618280797106D62AD42ED258
:104D2000EF00D04509E9378560001305651B930541
:104D30007078EF20706E125511C522550C4193E525
:104D4000850021A022550C41DD990CC1B25045616E
:104D50008280797106D62AD42ED2EF00304209E93A
:104D6000378560001305651B93058071EF20D06ABD
:104D7000125593050008636AB50037856000130576
:104D8000651B93059071EF2030692255084D9255AF
:104D900022564D8D08CEB25045618280797106D67B
:104DA0002AD42ED232D0EF00703D09E93785600059
:104DB0001305651B9305D069EF2010662255084145
:104DC000F97512569385F50782566D8D9315A600D9
:104DD00022569E06D58D4D8D08C2B2504561828007
:104DE000797106D62AD42ED2EF00503909E93785D9
:104DF00060001305651B9305D066EF20F061125526
:104E000085456317B50022550C410966D18D31A047
:104E100022550C4179767D16F18D0CC1B250456159
:104E20008280797106D62AD42ED2EF00303511E96E
:104E3000378560001305651B85659385E590EF2038
:104E4000B05D225503250518C1651256FD15A25601
:104E50006D8D931506014D8D23A0A618B2504561A6
:104E60008280797106D62AD42ED2EF00303109E93A
:104E7000378560001305651B9305F064EF20D0595A
:104E80001255A25588C9B25045618280797106D603
:104E90002AD42ED2EF00902E11E937856000130539
:104EA000651B856593850593EF2010571255A25514
:104EB00023A6A518B25045618280397106DE2ADC2E
:104EC0002EDA32D8EF00902B11E9378560001305F8
:104ED000651B85659385159BEF201054525509C5B8
:104EE0005255D1456317B50029452AD602D411453C
:104EF00031A031452AD609452AD419452AD252551E
:104F0000E25511892E95930505022ED00851B25510
:104F100022568D463397B6009257B396C600D98E67
:104F200005473317F700C257D98E93C6F6FF758D24
:104F300093D62700B395B60093F637000257339601
:104F4000C600D18D4D8D08C3F25021618280397128
:104F500006DE2ADC2EDA32D836D6EF00302211E90E
:104F6000378560001305651B8565938525B8EF209F
:104F7000B04A5255B2551306051032D413054510E8
:104F800085892AD285C1625592552E950841B25520
:104F9000FD150D463316B6001346F6FFC25662578E
:104FA000925731A86255A2552E950841B2550D462B
:104FB0003316B6001346F6FFC2566257A257718DDC
:104FC000B395B6004D8DB305F70088C1F25021614D
:104FD0008280397106DE2ADC2EDAA309C102EF00D5
:104FE000F01911E9378560001305651B8565938508
:104FF00075D6EF207042525583453103054633156F
:10500000A60085892AD699C562550859B2556256B7
:105010004D8D01A862550859B255625693C5F5FFEA
:105020006D8D08DAF25021618280797106D62AD41A
:105030002ED2EF00B01411E9378560001305651B0F
:1050400085659385D5DBEF20303D125511CD125586
:105050008545630BB500378560001305651B8565C5
:105060009385F5DBEF20503B225508599255225687
:105070003D9992054D8D08DAB250456182803971B3
:1050800006DE2ADC2EDA32D8EF00500F11E9378520
:1050900060001305651B85659385A5D9EF20D03782
:1050A0005255E2551345150009052AD68859B255BF
:1050B00005463316B600C2561346F6FF6257718D89
:1050C000B395B6004D8D08DBF25021618280797175
:1050D00006D62AD42ED2EF00700A11E93785600077
:1050E0001305651B8565938545EFEF20F03212555A
:1050F000398111C9378560001305651B8565938566
:1051000055EFEF2070311255A25523A2A514B250CD
:1051100045618280797106D62AD42ED2EF0010061E
:1051200011E9378560001305651B8565938505F1D9
:10513000EF20902E1255398111C937856000130573
:10514000651B8565938515F1EF20102D1255A2552D
:1051500023A6A514B25045618280797106D62AD45F
:10516000EF00D00111E9378560001305651B8565E7
:10517000938565F4EF20502A22552C49F9992CC9C2
:10518000B25045618280797106D62AD42ED2EF00C2
:10519000E07E09E9378560001305651B8565AD056F
:1051A000EF20902773E0107C2255925503260520AE
:1051B00093C5F5FFF18D2320B52073F0107CB2501C
:1051C00045618280797106D62AD42ED2EF00007B09
:1051D00011E9378560001305651B85659385F532F8
:1051E000EF209023125509C51255A5456367B502F6
:1051F0001255A9456303B5021255B145630FB500B9
:105200001255B945630BB500378560001305651B62
:10521000856593852533EF2030201255A145630E17
:10522000B5001255B145630AB5001255A94563068C
:10523000B5001255B9456318B5021255A25505813E
:105240002AD003A505291365050423A8A5282255FE
:10525000032505298255225661994D8D2328A628BC
:10526000B2504561828012559145630EB5001255CA
:105270009945630AB500125595456306B500125568
:105280009D45631AB5001255A2552AD003A50529DC
:105290001375F5FB5DBF12552AD055BF797106D63F
:1052A0002AD4E92D11E9378560001305651B856552
:1052B0009385C52EEF20501622558325052993E5A9
:1052C00085002328B528B25045618280397106DEF9
:1052D0002ADC2EDA32D85D2511E937856000130506
:1052E000651B85659385854CEF2010134255A145BC
:1052F000630EB5004255B145630AB5004255A94554
:105300006306B5004255B945631EB508425505818F
:105310002AD6525521C5625503250529E575325611
:10532000FD15E2566D8D9315C6004D8D23A8A62858
:1053300042559145630EB50042559945630AB50043
:10534000425595456306B50042559D45631EB5041B
:1053500062558325052993F5F5FD81A06255032546
:105360000529B25562561375F58FA2054D8D232878
:10537000A62842559145630EB50042559945630AEA
:10538000B500425595456306B50042559D456313EA
:10539000B504625583250529BD992328B528F25007
:1053A000216182804255ADB74255A145630EB500DB
:1053B0004255B145630AB5004255A9456306B5009B
:1053C0004255B945E31DB5FC62558325052993E592
:1053D0000502E1B74255A145630EB5004255B145FE
:1053E000630AB5004255A9456306B5004255B94563
:1053F000E317B5FA62558325052993E5050171BFC9
:10540000797106D62AD42ED2952B11E93785600002
:105410001305651B85659385C546EF20E07F125512
:1054200011C5225583250529216639A022558325DA
:105430000529056613060680D18D2328B528B250AC
:1054400045618280797106D62AD42ED2052B11E9C6
:10545000378560001305651B85659385F536EF205C
:10546000A07B1255C145636BB500378560001305FD
:10547000651B856593850537EF20007A22558325C6
:10548000852993E50501232CB52822550325852B75
:105490009255225641994D8D232CA62AB250456132
:1054A0008280797106D62AD42ED232D0C12911E950
:1054B000378560001305651B856593855554EF207E
:1054C000A0750255C145636BB500378560001305B3
:1054D000651B856593856554EF20007422558325EF
:1054E000852993E50502232CB528125505C12255BF
:1054F0000325052CFD7502569385F50FA2566D8D7B
:10550000931586004D8D23A0A62C11A822550325A6
:10551000052C8255225641994D8D2320A62CB25040
:1055200045618280797106D62AD4892911E93785A7
:1055300060001305651B85659385753AEF20C06D86
:1055400022558325852A93E515002324B52AB250D8
:1055500045618280797106D62AD42ED2052111E9BF
:10556000378560001305651B856593856559EF20B8
:10557000A06A225592550326852A89058546B3954A
:10558000B600D18D2324B52AB2504561828039718D
:1055900006DE2ADC2EDA32D8D52611E937856000FE
:1055A0001305651B8565938545A2EF20E06652557E
:1055B0009305851A2ED609C55255A1456313B50228
:1055C0006255B2552E950841C165FD154256E25609
:1055D00032576D8D931506014D8DB385E60088C158
:1055E00031A06255B25542562E9510C1F25021613C
:1055F0008280797106D62AD4292109E9378560008D
:105600001305E5259305E056EF20006122550C5562
:105610001166D18D0CD5B25045618280797106D664
:105620002AD4C52609E9378560001305E5259305C9
:105630009032EF20605E22554C5179767D16F18DC7
:105640004CD122554C510966D18D4CD1B250456197
:105650008280797106D62AD46D2609E937856000E3
:105660001305E5259305F030EF20005B22550C551E
:1056700079767D16F18D0CD522550C550966D18DA4
:105680000CD5B25045618280797106D62AD4952E08
:1056900009E9378560001305E52593053034EF20CF
:1056A000A05722554C5161767D16F18D4CD1225573
:1056B0004C512166D18D4CD1B250456182807971B7
:1056C00006D62AD43D2E09E9378560001305E52565
:1056D0009305B053EF20405422550C41BD990CC1A5
:1056E000B25045618280797106D62AD4192E09E913
:1056F000378560001305E52593056050EF20C05104
:1057000022554C4193F5F5FD4CC122554C4193E592
:1057100005024CC1B25045618280797106D62AD407
:10572000CD2409E9378560001305E5259305A02DF3
:10573000EF20804E22554C5171767D16F18D4CD163
:10574000B25045618280797106D62AD45D2C09E970
:10575000378560001305E5259305B01EEF20C04B8B
:1057600022554C4193E535024CC1B25045618280CF
:10577000797106D62AD42ED24D2409E937856000E6
:105780001305653E93057015EF2000491255A2558B
:10579000C8C5B25045618280797106D62AD42ED20E
:1057A000AD2C09E9378560001305653E9305B012FD
:1057B000EF2080461255A255C8C1B2504561828083
:1057C000797106D62AD402D2892C09E9378560007E
:1057D0001305653E9305F010EF200044225508455F
:1057E000E175FD1522566D8D2AD21365050208C696
:1057F00022550C45BD990CC5B250456182800111FE
:1058000073E0107C0D650C4193E515000CC101009F
:1058100073F0107C0561828079712AD673E0107C68
:10582000325501C90D654C412166D18D11050CC160
:1058300039A00D654C4161767D16F18D4CC173F038
:10584000107C45618280797106D62AD42313B10277
:105850002312C1022AD04845EFF08F8902554845EE
:1058600083554102EFF0CF8C025508498355610200
:10587000EFF00F880255084983554102EFF04F8B36
:105880000255484983556102EFF08F860255484919
:1058900083554102EFF0CF89B25045618280397162
:1058A0002ADE2AFC2EFA32F853F0A510D31510C0C8
:1058B0002317B1025370A610531610C02316C1024D
:1058C0002319B5000315C102F255239AA50003154B
:1058D000E1028315C10272562E9513051502231B92
:1058E000A600216182807971AA852AD6096693066D
:1058F000068005456388D5003255930506C02D8D79
:1059000013351500456182807971AA852AD63566DE
:1059100005456388C5003255930506142D8D133552
:105920001500456182807971AA852AD63966930669
:10593000068005456383D502B25513060688638E3B
:10594000C5003256B965938605906308D600325576
:10595000938505982D8D13351500456182807971E9
:10596000AA852AD6396605456388C5003255930550
:1059700006082D8D13351500456182807971AA8541
:105980002AD6296605456387C504B2551306064025
:105990006382C5043256AD6593860580630CD602DA
:1059A0003256938505C06307B6023256AD65630370
:1059B000B602325693850540630EB6003256B16585
:1059C000938605806308D6003255938505C02D8DDA
:1059D00013351500456182807971AA852AD6130690
:1059E000C003054563EAC50032559305000E6367A1
:1059F000B50032551335850F4561828001454561FB
:105A000082807971B745030093850540A98D93B5D0
:105A100015002AD62E85456182807971AA852AD6FD
:105A200015660545638DC500B25541066389C500FD
:105A300032559565938505022D8D13351500456109
:105A4000828079712AD6B70510420CC132550546BD
:105A50002312C50032552313C50032552314C50047
:105A600032552315C5003255BD462316D500325593
:105A70008D462307D5003255A307D5003255B7060A
:105A8000204314C93255B706C84254C93255372786
:105A9000663C130747D218CD325537973C3C130765
:105AA000972458CD325514D1325554D13255B7A61A
:105AB00085459386A6CD14D53255B776133F938688
:105AC000C64B54D5325510D932553946231AC50222
:105AD000325505661306469C231BC5023255379680
:105AE0009D3B1306B67010DD32552328C51E325576
